{
  "contractName": "BoomerangRewardSystem",
  "abi": [
    {
      "constant": true,
      "inputs": [],
      "name": "boomerangAuth",
      "outputs": [
        {
          "name": "",
          "type": "address"
        }
      ],
      "payable": false,
      "stateMutability": "view",
      "type": "function"
    },
    {
      "constant": false,
      "inputs": [],
      "name": "renounceOwnership",
      "outputs": [],
      "payable": false,
      "stateMutability": "nonpayable",
      "type": "function"
    },
    {
      "constant": true,
      "inputs": [],
      "name": "owner",
      "outputs": [
        {
          "name": "",
          "type": "address"
        }
      ],
      "payable": false,
      "stateMutability": "view",
      "type": "function"
    },
    {
      "constant": true,
      "inputs": [],
      "name": "boomerangToken",
      "outputs": [
        {
          "name": "",
          "type": "address"
        }
      ],
      "payable": false,
      "stateMutability": "view",
      "type": "function"
    },
    {
      "constant": false,
      "inputs": [
        {
          "name": "_newOwner",
          "type": "address"
        }
      ],
      "name": "transferOwnership",
      "outputs": [],
      "payable": false,
      "stateMutability": "nonpayable",
      "type": "function"
    },
    {
      "anonymous": false,
      "inputs": [
        {
          "indexed": true,
          "name": "previousOwner",
          "type": "address"
        }
      ],
      "name": "OwnershipRenounced",
      "type": "event"
    },
    {
      "anonymous": false,
      "inputs": [
        {
          "indexed": true,
          "name": "previousOwner",
          "type": "address"
        },
        {
          "indexed": true,
          "name": "newOwner",
          "type": "address"
        }
      ],
      "name": "OwnershipTransferred",
      "type": "event"
    }
  ],
  "bytecode": "0x608060405233600160006101000a81548173ffffffffffffffffffffffffffffffffffffffff021916908373ffffffffffffffffffffffffffffffffffffffff1602179055506104d7806100546000396000f30060806040526004361061006d576000357c0100000000000000000000000000000000000000000000000000000000900463ffffffff16806344ab4a4714610072578063715018a6146100c95780638da5cb5b146100e05780639d0696ed14610137578063f2fde38b1461018e575b600080fd5b34801561007e57600080fd5b506100876101d1565b604051808273ffffffffffffffffffffffffffffffffffffffff1673ffffffffffffffffffffffffffffffffffffffff16815260200191505060405180910390f35b3480156100d557600080fd5b506100de6101f7565b005b3480156100ec57600080fd5b506100f56102fc565b604051808273ffffffffffffffffffffffffffffffffffffffff1673ffffffffffffffffffffffffffffffffffffffff16815260200191505060405180910390f35b34801561014357600080fd5b5061014c610322565b604051808273ffffffffffffffffffffffffffffffffffffffff1673ffffffffffffffffffffffffffffffffffffffff16815260200191505060405180910390f35b34801561019a57600080fd5b506101cf600480360381019080803573ffffffffffffffffffffffffffffffffffffffff169060200190929190505050610347565b005b600260009054906101000a900473ffffffffffffffffffffffffffffffffffffffff1681565b600160009054906101000a900473ffffffffffffffffffffffffffffffffffffffff1673ffffffffffffffffffffffffffffffffffffffff163373ffffffffffffffffffffffffffffffffffffffff1614151561025357600080fd5b600160009054906101000a900473ffffffffffffffffffffffffffffffffffffffff1673ffffffffffffffffffffffffffffffffffffffff167ff8df31144d9c2f0f6b59d69b8b98abd5459d07f2742c4df920b25aae33c6482060405160405180910390a26000600160006101000a81548173ffffffffffffffffffffffffffffffffffffffff021916908373ffffffffffffffffffffffffffffffffffffffff160217905550565b600160009054906101000a900473ffffffffffffffffffffffffffffffffffffffff1681565b6000809054906101000a900473ffffffffffffffffffffffffffffffffffffffff1681565b600160009054906101000a900473ffffffffffffffffffffffffffffffffffffffff1673ffffffffffffffffffffffffffffffffffffffff163373ffffffffffffffffffffffffffffffffffffffff161415156103a357600080fd5b6103ac816103af565b50565b600073ffffffffffffffffffffffffffffffffffffffff168173ffffffffffffffffffffffffffffffffffffffff16141515156103eb57600080fd5b8073ffffffffffffffffffffffffffffffffffffffff16600160009054906101000a900473ffffffffffffffffffffffffffffffffffffffff1673ffffffffffffffffffffffffffffffffffffffff167f8be0079c531659141344cd1fd0a4f28419497f9722a3daafe3b4186f6b6457e060405160405180910390a380600160006101000a81548173ffffffffffffffffffffffffffffffffffffffff021916908373ffffffffffffffffffffffffffffffffffffffff160217905550505600a165627a7a72305820d0e15db07c24842c055bed0095b46cd75a61c1d1616729880d73ec21efebdab30029",
  "source": "pragma solidity ^0.4.24;\n//pragma experimental ABIEncoderV2;\n\nimport '../../BoomerangTokenInterface.sol';\nimport '../../authorization/BoomerangAuth.sol';\nimport '../../Ownable.sol';\n\ncontract BoomerangRewardSystem is BoomerangTokenInterface, Ownable {\n\n  // interfaces\n  BoomerangAuth public boomerangAuth;\n\n  struct RewardSystem {\n\n    uint256 numberOfRewardSteps;\n    uint256[] numberOfRewardCyclesForLevel;\n    uint256 numberOfRewardLevels;\n\n    uint256[] levelRewards;\n    bytes32 ipfsHash;\n\n    mapping(address => uint256) rewardStep;\n    mapping(address => uint256) rewardCycle;\n    mapping(address => uint256) rewardLevel;\n    mapping(address => uint256) rewardRank;\n  }\n\n  function incrementRewardProgress(RewardSystem storage _rewardSystem, address _address) internal {\n\n    uint256 nextRewardStep = _rewardSystem.rewardStep[_address] + 1;\n\n    if (nextRewardStep == _rewardSystem.numberOfRewardSteps) {\n\n      _rewardSystem.rewardStep[_address] = 0;\n      uint256 nextRewardCycle = _rewardSystem.rewardCycle[_address] + 1;\n\n      uint256 currentRewardLevel = _rewardSystem.rewardLevel[_address];\n      if (nextRewardCycle == _rewardSystem.numberOfRewardCyclesForLevel[currentRewardLevel]) {\n\n        _rewardSystem.rewardCycle[_address] = 0;\n        uint256 nextRewardLevel = _rewardSystem.rewardLevel[_address] + 1;\n\n          if (nextRewardLevel == _rewardSystem.numberOfRewardLevels) {\n\n            _rewardSystem.rewardLevel[_address] = 0;\n            _rewardSystem.rewardRank[_address] += 1;\n\n          } else {\n            _rewardSystem.rewardLevel[_address] += 1;\n          }\n\n      } else {\n        _rewardSystem.rewardCycle[_address] += 1;\n      }\n\n    } else {\n      _rewardSystem.rewardStep[_address] += 1;\n    }\n  }\n}\n",
  "sourcePath": "/Users/panda/projects/boomerang/packages/boomerang-contracts/contracts/experience/rewards/BoomerangRewardSystem.sol",
  "compiler": {
    "name": "solc",
    "version": "0.4.24+commit.e67f0147.Emscripten.clang"
  },
  "schemaVersion": "2.0.1",
  "updatedAt": "2018-08-22T15:34:49.046Z"
}