{
  "contractName": "BoomerangWorker",
  "abi": [
    {
      "constant": true,
      "inputs": [
        {
          "name": "",
          "type": "address"
        },
        {
          "name": "",
          "type": "address"
        }
      ],
      "name": "businessHasApprovedWorker",
      "outputs": [
        {
          "name": "",
          "type": "bool"
        }
      ],
      "payable": false,
      "stateMutability": "view",
      "type": "function"
    },
    {
      "constant": true,
      "inputs": [
        {
          "name": "",
          "type": "address"
        },
        {
          "name": "",
          "type": "bytes32"
        }
      ],
      "name": "nonceValueForUsersWithoutAddress",
      "outputs": [
        {
          "name": "",
          "type": "uint256"
        }
      ],
      "payable": false,
      "stateMutability": "view",
      "type": "function"
    },
    {
      "constant": true,
      "inputs": [
        {
          "name": "",
          "type": "address"
        },
        {
          "name": "",
          "type": "address"
        }
      ],
      "name": "numberOfWorkerRatings",
      "outputs": [
        {
          "name": "",
          "type": "uint256"
        }
      ],
      "payable": false,
      "stateMutability": "view",
      "type": "function"
    },
    {
      "constant": true,
      "inputs": [
        {
          "name": "",
          "type": "address"
        },
        {
          "name": "",
          "type": "uint256"
        }
      ],
      "name": "businessList",
      "outputs": [
        {
          "name": "",
          "type": "address"
        }
      ],
      "payable": false,
      "stateMutability": "view",
      "type": "function"
    },
    {
      "constant": true,
      "inputs": [
        {
          "name": "",
          "type": "address"
        }
      ],
      "name": "isBusiness",
      "outputs": [
        {
          "name": "",
          "type": "bool"
        }
      ],
      "payable": false,
      "stateMutability": "view",
      "type": "function"
    },
    {
      "constant": true,
      "inputs": [
        {
          "name": "_businessAddress",
          "type": "address"
        },
        {
          "name": "_userId",
          "type": "bytes32"
        }
      ],
      "name": "getNonceValueForUsersWithoutAddress",
      "outputs": [
        {
          "name": "_nonceValue",
          "type": "uint256"
        }
      ],
      "payable": false,
      "stateMutability": "view",
      "type": "function"
    },
    {
      "constant": true,
      "inputs": [
        {
          "name": "",
          "type": "address"
        }
      ],
      "name": "userRatingsSum",
      "outputs": [
        {
          "name": "",
          "type": "uint256"
        }
      ],
      "payable": false,
      "stateMutability": "view",
      "type": "function"
    },
    {
      "constant": true,
      "inputs": [
        {
          "name": "",
          "type": "address"
        }
      ],
      "name": "isUser",
      "outputs": [
        {
          "name": "",
          "type": "bool"
        }
      ],
      "payable": false,
      "stateMutability": "view",
      "type": "function"
    },
    {
      "constant": true,
      "inputs": [
        {
          "name": "",
          "type": "address"
        }
      ],
      "name": "businessRatingsSum",
      "outputs": [
        {
          "name": "",
          "type": "uint256"
        }
      ],
      "payable": false,
      "stateMutability": "view",
      "type": "function"
    },
    {
      "constant": true,
      "inputs": [
        {
          "name": "",
          "type": "address"
        },
        {
          "name": "",
          "type": "address"
        }
      ],
      "name": "isEmployed",
      "outputs": [
        {
          "name": "",
          "type": "bool"
        }
      ],
      "payable": false,
      "stateMutability": "view",
      "type": "function"
    },
    {
      "constant": true,
      "inputs": [
        {
          "name": "",
          "type": "address"
        },
        {
          "name": "",
          "type": "address"
        }
      ],
      "name": "nonceValue",
      "outputs": [
        {
          "name": "",
          "type": "uint256"
        }
      ],
      "payable": false,
      "stateMutability": "view",
      "type": "function"
    },
    {
      "constant": true,
      "inputs": [
        {
          "name": "",
          "type": "address"
        }
      ],
      "name": "numberOfBusinessRatings",
      "outputs": [
        {
          "name": "",
          "type": "uint256"
        }
      ],
      "payable": false,
      "stateMutability": "view",
      "type": "function"
    },
    {
      "constant": true,
      "inputs": [
        {
          "name": "",
          "type": "address"
        }
      ],
      "name": "isWorker",
      "outputs": [
        {
          "name": "",
          "type": "bool"
        }
      ],
      "payable": false,
      "stateMutability": "view",
      "type": "function"
    },
    {
      "constant": true,
      "inputs": [
        {
          "name": "_businessAddress",
          "type": "address"
        },
        {
          "name": "_actorAddress",
          "type": "address"
        }
      ],
      "name": "getNonceValue",
      "outputs": [
        {
          "name": "_nonceValue",
          "type": "uint256"
        }
      ],
      "payable": false,
      "stateMutability": "view",
      "type": "function"
    },
    {
      "constant": true,
      "inputs": [
        {
          "name": "",
          "type": "address"
        }
      ],
      "name": "numberOfUserRatings",
      "outputs": [
        {
          "name": "",
          "type": "uint256"
        }
      ],
      "payable": false,
      "stateMutability": "view",
      "type": "function"
    },
    {
      "constant": true,
      "inputs": [
        {
          "name": "",
          "type": "address"
        },
        {
          "name": "",
          "type": "address"
        }
      ],
      "name": "workerRatingsSum",
      "outputs": [
        {
          "name": "",
          "type": "uint256"
        }
      ],
      "payable": false,
      "stateMutability": "view",
      "type": "function"
    },
    {
      "constant": true,
      "inputs": [
        {
          "name": "",
          "type": "address"
        },
        {
          "name": "",
          "type": "address"
        }
      ],
      "name": "workerHasApprovedBusiness",
      "outputs": [
        {
          "name": "",
          "type": "bool"
        }
      ],
      "payable": false,
      "stateMutability": "view",
      "type": "function"
    },
    {
      "constant": true,
      "inputs": [
        {
          "name": "",
          "type": "address"
        },
        {
          "name": "",
          "type": "uint256"
        }
      ],
      "name": "workerList",
      "outputs": [
        {
          "name": "",
          "type": "address"
        }
      ],
      "payable": false,
      "stateMutability": "view",
      "type": "function"
    },
    {
      "anonymous": false,
      "inputs": [
        {
          "indexed": true,
          "name": "_workerAddress",
          "type": "address"
        },
        {
          "indexed": false,
          "name": "_ipfsHash",
          "type": "bytes32"
        }
      ],
      "name": "WorkerProfileUpdated",
      "type": "event"
    },
    {
      "anonymous": false,
      "inputs": [
        {
          "indexed": true,
          "name": "_workerAddress",
          "type": "address"
        },
        {
          "indexed": true,
          "name": "_businessAddress",
          "type": "address"
        }
      ],
      "name": "WorkerHasApprovedBusiness",
      "type": "event"
    },
    {
      "anonymous": false,
      "inputs": [
        {
          "indexed": true,
          "name": "_userAddress",
          "type": "address"
        },
        {
          "indexed": true,
          "name": "_workerAddress",
          "type": "address"
        },
        {
          "indexed": true,
          "name": "_businessAddress",
          "type": "address"
        },
        {
          "indexed": false,
          "name": "_userRating",
          "type": "uint256"
        },
        {
          "indexed": false,
          "name": "_ipfsHash",
          "type": "bytes32"
        }
      ],
      "name": "UserRating",
      "type": "event"
    },
    {
      "constant": false,
      "inputs": [
        {
          "name": "_workerAddress",
          "type": "address"
        },
        {
          "name": "_ipfsHash",
          "type": "bytes32"
        }
      ],
      "name": "registerAsWorker",
      "outputs": [],
      "payable": false,
      "stateMutability": "nonpayable",
      "type": "function"
    },
    {
      "constant": false,
      "inputs": [
        {
          "name": "_workerAddress",
          "type": "address"
        },
        {
          "name": "_ipfsHash",
          "type": "bytes32"
        }
      ],
      "name": "updateWorkerProfile",
      "outputs": [],
      "payable": false,
      "stateMutability": "nonpayable",
      "type": "function"
    },
    {
      "constant": false,
      "inputs": [
        {
          "name": "_workerAddress",
          "type": "address"
        },
        {
          "name": "_businessAddress",
          "type": "address"
        }
      ],
      "name": "addBusiness",
      "outputs": [],
      "payable": false,
      "stateMutability": "nonpayable",
      "type": "function"
    },
    {
      "constant": false,
      "inputs": [
        {
          "name": "_userAddress",
          "type": "address"
        },
        {
          "name": "_workerAddress",
          "type": "address"
        },
        {
          "name": "_businessAddress",
          "type": "address"
        },
        {
          "name": "_userRating",
          "type": "uint256"
        },
        {
          "name": "_ipfsHash",
          "type": "bytes32"
        }
      ],
      "name": "rateUser",
      "outputs": [],
      "payable": false,
      "stateMutability": "nonpayable",
      "type": "function"
    },
    {
      "constant": true,
      "inputs": [
        {
          "name": "_workerAddress",
          "type": "address"
        },
        {
          "name": "_businessAddress",
          "type": "address"
        }
      ],
      "name": "getWorkerRatingsSum",
      "outputs": [
        {
          "name": "_workerRatingsSum",
          "type": "uint256"
        }
      ],
      "payable": false,
      "stateMutability": "view",
      "type": "function"
    },
    {
      "constant": true,
      "inputs": [
        {
          "name": "_workerAddress",
          "type": "address"
        },
        {
          "name": "_businessAddress",
          "type": "address"
        }
      ],
      "name": "getNumberOfWorkerRatings",
      "outputs": [
        {
          "name": "_numberOfWorkerRatings",
          "type": "uint256"
        }
      ],
      "payable": false,
      "stateMutability": "view",
      "type": "function"
    }
  ],
  "bytecode": "0x608060405234801561001057600080fd5b5061160f806100206000396000f30060806040526004361061013e576000357c0100000000000000000000000000000000000000000000000000000000900463ffffffff168063067a0949146101435780630848152a146101be5780630e2be26614610223578063130ee3761461029a5780631466d019146103275780631a30d9de146103825780631fb76465146103f957806323d954dd146104705780632acb15a7146104c157806332455817146105265780634209fff11461057d5780635e27d398146105d8578063603fe1f81461062f5780637b1d0c83146106925780638ec666131461070d57806393b3c183146107a85780639708c61f1461081f578063aa15664514610876578063abd4e7ad146108d1578063acf9e6cf14610922578063b265c33d14610999578063ca202792146109f0578063e336379314610a67578063f901188814610ae2575b600080fd5b34801561014f57600080fd5b506101a4600480360381019080803573ffffffffffffffffffffffffffffffffffffffff169060200190929190803573ffffffffffffffffffffffffffffffffffffffff169060200190929190505050610b6f565b604051808215151515815260200191505060405180910390f35b3480156101ca57600080fd5b5061020d600480360381019080803573ffffffffffffffffffffffffffffffffffffffff1690602001909291908035600019169060200190929190505050610b9e565b6040518082815260200191505060405180910390f35b34801561022f57600080fd5b50610284600480360381019080803573ffffffffffffffffffffffffffffffffffffffff169060200190929190803573ffffffffffffffffffffffffffffffffffffffff169060200190929190505050610bc3565b6040518082815260200191505060405180910390f35b3480156102a657600080fd5b506102e5600480360381019080803573ffffffffffffffffffffffffffffffffffffffff16906020019092919080359060200190929190505050610be8565b604051808273ffffffffffffffffffffffffffffffffffffffff1673ffffffffffffffffffffffffffffffffffffffff16815260200191505060405180910390f35b34801561033357600080fd5b50610368600480360381019080803573ffffffffffffffffffffffffffffffffffffffff169060200190929190505050610c35565b604051808215151515815260200191505060405180910390f35b34801561038e57600080fd5b506103e3600480360381019080803573ffffffffffffffffffffffffffffffffffffffff169060200190929190803573ffffffffffffffffffffffffffffffffffffffff169060200190929190505050610c55565b6040518082815260200191505060405180910390f35b34801561040557600080fd5b5061045a600480360381019080803573ffffffffffffffffffffffffffffffffffffffff169060200190929190803573ffffffffffffffffffffffffffffffffffffffff169060200190929190505050610cdc565b6040518082815260200191505060405180910390f35b34801561047c57600080fd5b506104bf600480360381019080803573ffffffffffffffffffffffffffffffffffffffff1690602001909291908035600019169060200190929190505050610d63565b005b3480156104cd57600080fd5b50610510600480360381019080803573ffffffffffffffffffffffffffffffffffffffff1690602001909291908035600019169060200190929190505050610dbd565b6040518082815260200191505060405180910390f35b34801561053257600080fd5b50610567600480360381019080803573ffffffffffffffffffffffffffffffffffffffff169060200190929190505050610e20565b6040518082815260200191505060405180910390f35b34801561058957600080fd5b506105be600480360381019080803573ffffffffffffffffffffffffffffffffffffffff169060200190929190505050610e38565b604051808215151515815260200191505060405180910390f35b3480156105e457600080fd5b50610619600480360381019080803573ffffffffffffffffffffffffffffffffffffffff169060200190929190505050610e58565b6040518082815260200191505060405180910390f35b34801561063b57600080fd5b50610690600480360381019080803573ffffffffffffffffffffffffffffffffffffffff169060200190929190803573ffffffffffffffffffffffffffffffffffffffff169060200190929190505050610e70565b005b34801561069e57600080fd5b506106f3600480360381019080803573ffffffffffffffffffffffffffffffffffffffff169060200190929190803573ffffffffffffffffffffffffffffffffffffffff1690602001909291905050506111be565b604051808215151515815260200191505060405180910390f35b34801561071957600080fd5b506107a6600480360381019080803573ffffffffffffffffffffffffffffffffffffffff169060200190929190803573ffffffffffffffffffffffffffffffffffffffff169060200190929190803573ffffffffffffffffffffffffffffffffffffffff1690602001909291908035906020019092919080356000191690602001909291905050506111ed565b005b3480156107b457600080fd5b50610809600480360381019080803573ffffffffffffffffffffffffffffffffffffffff169060200190929190803573ffffffffffffffffffffffffffffffffffffffff169060200190929190505050611335565b6040518082815260200191505060405180910390f35b34801561082b57600080fd5b50610860600480360381019080803573ffffffffffffffffffffffffffffffffffffffff16906020019092919050505061135a565b6040518082815260200191505060405180910390f35b34801561088257600080fd5b506108b7600480360381019080803573ffffffffffffffffffffffffffffffffffffffff169060200190929190505050611372565b604051808215151515815260200191505060405180910390f35b3480156108dd57600080fd5b50610920600480360381019080803573ffffffffffffffffffffffffffffffffffffffff1690602001909291908035600019169060200190929190505050611392565b005b34801561092e57600080fd5b50610983600480360381019080803573ffffffffffffffffffffffffffffffffffffffff169060200190929190803573ffffffffffffffffffffffffffffffffffffffff1690602001909291905050506114a3565b6040518082815260200191505060405180910390f35b3480156109a557600080fd5b506109da600480360381019080803573ffffffffffffffffffffffffffffffffffffffff16906020019092919050505061152a565b6040518082815260200191505060405180910390f35b3480156109fc57600080fd5b50610a51600480360381019080803573ffffffffffffffffffffffffffffffffffffffff169060200190929190803573ffffffffffffffffffffffffffffffffffffffff169060200190929190505050611542565b6040518082815260200191505060405180910390f35b348015610a7357600080fd5b50610ac8600480360381019080803573ffffffffffffffffffffffffffffffffffffffff169060200190929190803573ffffffffffffffffffffffffffffffffffffffff169060200190929190505050611567565b604051808215151515815260200191505060405180910390f35b348015610aee57600080fd5b50610b2d600480360381019080803573ffffffffffffffffffffffffffffffffffffffff16906020019092919080359060200190929190505050611596565b604051808273ffffffffffffffffffffffffffffffffffffffff1673ffffffffffffffffffffffffffffffffffffffff16815260200191505060405180910390f35b60016020528160005260406000206020528060005260406000206000915091509054906101000a900460ff1681565b600f602052816000526040600020602052806000526040600020600091509150505481565b600b602052816000526040600020602052806000526040600020600091509150505481565b600560205281600052604060002081815481101515610c0357fe5b906000526020600020016000915091509054906101000a900473ffffffffffffffffffffffffffffffffffffffff1681565b60006020528060005260406000206000915054906101000a900460ff1681565b6000600b60008373ffffffffffffffffffffffffffffffffffffffff1673ffffffffffffffffffffffffffffffffffffffff16815260200190815260200160002060008473ffffffffffffffffffffffffffffffffffffffff1673ffffffffffffffffffffffffffffffffffffffff16815260200190815260200160002054905092915050565b6000600a60008373ffffffffffffffffffffffffffffffffffffffff1673ffffffffffffffffffffffffffffffffffffffff16815260200190815260200160002060008473ffffffffffffffffffffffffffffffffffffffff1673ffffffffffffffffffffffffffffffffffffffff16815260200190815260200160002054905092915050565b8173ffffffffffffffffffffffffffffffffffffffff167f8fb235aae8b3763345e1356f94de91f152d0b918d771d87ae2868925ad266ae78260405180826000191660001916815260200191505060405180910390a25050565b6000600f60008473ffffffffffffffffffffffffffffffffffffffff1673ffffffffffffffffffffffffffffffffffffffff1681526020019081526020016000206000836000191660001916815260200190815260200160002054905092915050565b600c6020528060005260406000206000915090505481565b60066020528060005260406000206000915054906101000a900460ff1681565b60086020528060005260406000206000915090505481565b6001600460008473ffffffffffffffffffffffffffffffffffffffff1673ffffffffffffffffffffffffffffffffffffffff16815260200190815260200160002060008373ffffffffffffffffffffffffffffffffffffffff1673ffffffffffffffffffffffffffffffffffffffff16815260200190815260200160002060006101000a81548160ff0219169083151502179055508073ffffffffffffffffffffffffffffffffffffffff168273ffffffffffffffffffffffffffffffffffffffff167fae442d2ee17216b3bc2662322adeb26046e30349fd3fa9a3dc135a6d610628d260405160405180910390a3600160008273ffffffffffffffffffffffffffffffffffffffff1673ffffffffffffffffffffffffffffffffffffffff16815260200190815260200160002060008373ffffffffffffffffffffffffffffffffffffffff1673ffffffffffffffffffffffffffffffffffffffff16815260200190815260200160002060009054906101000a900460ff16801561107c5750600760008273ffffffffffffffffffffffffffffffffffffffff1673ffffffffffffffffffffffffffffffffffffffff16815260200190815260200160002060008373ffffffffffffffffffffffffffffffffffffffff1673ffffffffffffffffffffffffffffffffffffffff16815260200190815260200160002060009054906101000a900460ff16155b156111ba576001600760008373ffffffffffffffffffffffffffffffffffffffff1673ffffffffffffffffffffffffffffffffffffffff16815260200190815260200160002060008473ffffffffffffffffffffffffffffffffffffffff1673ffffffffffffffffffffffffffffffffffffffff16815260200190815260200160002060006101000a81548160ff021916908315150217905550600260008273ffffffffffffffffffffffffffffffffffffffff1673ffffffffffffffffffffffffffffffffffffffff1681526020019081526020016000208290806001815401808255809150509060018203906000526020600020016000909192909190916101000a81548173ffffffffffffffffffffffffffffffffffffffff021916908373ffffffffffffffffffffffffffffffffffffffff160217905550505b5050565b60076020528160005260406000206020528060005260406000206000915091509054906101000a900460ff1681565b60018210806111fc5750600582115b156112065761132e565b6001600d60008773ffffffffffffffffffffffffffffffffffffffff1673ffffffffffffffffffffffffffffffffffffffff1681526020019081526020016000206000828254019250508190555081600c60008773ffffffffffffffffffffffffffffffffffffffff1673ffffffffffffffffffffffffffffffffffffffff168152602001908152602001600020600082825401925050819055508273ffffffffffffffffffffffffffffffffffffffff168473ffffffffffffffffffffffffffffffffffffffff168673ffffffffffffffffffffffffffffffffffffffff167f5e6c3e11b9f623c99dc31ad34b46ba46f967b91b7502625b3e75c0191871e1df85856040518083815260200182600019166000191681526020019250505060405180910390a45b5050505050565b600e602052816000526040600020602052806000526040600020600091509150505481565b60096020528060005260406000206000915090505481565b60036020528060005260406000206000915054906101000a900460ff1681565b60001515600360008473ffffffffffffffffffffffffffffffffffffffff1673ffffffffffffffffffffffffffffffffffffffff16815260200190815260200160002060009054906101000a900460ff1615151415156113f157600080fd5b6001600360008473ffffffffffffffffffffffffffffffffffffffff1673ffffffffffffffffffffffffffffffffffffffff16815260200190815260200160002060006101000a81548160ff0219169083151502179055508173ffffffffffffffffffffffffffffffffffffffff167f8fb235aae8b3763345e1356f94de91f152d0b918d771d87ae2868925ad266ae78260405180826000191660001916815260200191505060405180910390a25050565b6000600e60008473ffffffffffffffffffffffffffffffffffffffff1673ffffffffffffffffffffffffffffffffffffffff16815260200190815260200160002060008373ffffffffffffffffffffffffffffffffffffffff1673ffffffffffffffffffffffffffffffffffffffff16815260200190815260200160002054905092915050565b600d6020528060005260406000206000915090505481565b600a602052816000526040600020602052806000526040600020600091509150505481565b60046020528160005260406000206020528060005260406000206000915091509054906101000a900460ff1681565b6002602052816000526040600020818154811015156115b157fe5b906000526020600020016000915091509054906101000a900473ffffffffffffffffffffffffffffffffffffffff16815600a165627a7a7230582000edcfb27aea229e051b135a09442ca4d5685ac4ea9f3694b90582ece17f694e0029",
  "source": "pragma solidity ^0.4.24;\n\nimport './BoomerangActor.sol';\n\ncontract BoomerangWorker is BoomerangActor {\n\n  event WorkerProfileUpdated(address indexed _workerAddress, bytes32 _ipfsHash);\n  event WorkerHasApprovedBusiness(address indexed _workerAddress, address indexed _businessAddress);\n\n  event UserRating( address indexed _userAddress,\n                    address indexed _workerAddress,\n                    address indexed _businessAddress,\n                    uint256 _userRating,\n                    bytes32 _ipfsHash);\n\n  function registerAsWorker(address _workerAddress, bytes32 _ipfsHash) public {\n\n    require(isWorker[_workerAddress] == false);\n    isWorker[_workerAddress] = true;\n    emit WorkerProfileUpdated(_workerAddress, _ipfsHash);\n  }\n\n  function updateWorkerProfile(address _workerAddress, bytes32 _ipfsHash) public {\n    emit WorkerProfileUpdated(_workerAddress, _ipfsHash);\n  }\n\n  function addBusiness(address _workerAddress, address _businessAddress) public {\n\n    workerHasApprovedBusiness[_workerAddress][_businessAddress] = true;\n    emit WorkerHasApprovedBusiness(_workerAddress, _businessAddress);\n\n    if (businessHasApprovedWorker[_businessAddress][_workerAddress] && !isEmployed[_businessAddress][_workerAddress]) {\n      isEmployed[_businessAddress][_workerAddress] = true;\n      workerList[_businessAddress].push(_workerAddress);\n    }\n\n    // any add business init\n  }\n\n  function rateUser(address _userAddress, address _workerAddress, address _businessAddress, uint256 _userRating, bytes32 _ipfsHash) public {\n\n    if (_userRating < 1 || _userRating > 5) {\n      return;\n    }\n\n    numberOfUserRatings[_userAddress] += 1;\n    userRatingsSum[_userAddress] += _userRating;\n    emit UserRating(_userAddress, _workerAddress, _businessAddress, _userRating, _ipfsHash);\n  }\n\n  function getWorkerRatingsSum(address _workerAddress, address _businessAddress) public view returns (uint256 _workerRatingsSum) {\n    return workerRatingsSum[_businessAddress][_workerAddress];\n  }\n\n  function getNumberOfWorkerRatings(address _workerAddress, address _businessAddress) public view returns (uint256 _numberOfWorkerRatings) {\n    return numberOfWorkerRatings[_businessAddress][_workerAddress];\n  }\n}",
  "sourcePath": "/Users/panda/projects/boomerang/packages/boomerang-contracts/contracts/BoomerangWorker.sol",
  "compiler": {
    "name": "solc",
    "version": "0.4.24+commit.e67f0147.Emscripten.clang"
  },
  "schemaVersion": "2.0.1",
  "updatedAt": "2018-08-03T15:53:20.883Z"
}