{
  "contractName": "BoomerangActor",
  "abi": [
    {
      "constant": true,
      "inputs": [
        {
          "name": "",
          "type": "address"
        },
        {
          "name": "",
          "type": "address"
        }
      ],
      "name": "businessHasApprovedWorker",
      "outputs": [
        {
          "name": "",
          "type": "bool"
        }
      ],
      "payable": false,
      "stateMutability": "view",
      "type": "function"
    },
    {
      "constant": true,
      "inputs": [
        {
          "name": "",
          "type": "address"
        },
        {
          "name": "",
          "type": "bytes32"
        }
      ],
      "name": "nonceValueForUsersWithoutAddress",
      "outputs": [
        {
          "name": "",
          "type": "uint256"
        }
      ],
      "payable": false,
      "stateMutability": "view",
      "type": "function"
    },
    {
      "constant": true,
      "inputs": [
        {
          "name": "",
          "type": "address"
        },
        {
          "name": "",
          "type": "address"
        }
      ],
      "name": "numberOfWorkerRatings",
      "outputs": [
        {
          "name": "",
          "type": "uint256"
        }
      ],
      "payable": false,
      "stateMutability": "view",
      "type": "function"
    },
    {
      "constant": true,
      "inputs": [
        {
          "name": "",
          "type": "address"
        },
        {
          "name": "",
          "type": "uint256"
        }
      ],
      "name": "businessList",
      "outputs": [
        {
          "name": "",
          "type": "address"
        }
      ],
      "payable": false,
      "stateMutability": "view",
      "type": "function"
    },
    {
      "constant": true,
      "inputs": [
        {
          "name": "",
          "type": "address"
        }
      ],
      "name": "isBusiness",
      "outputs": [
        {
          "name": "",
          "type": "bool"
        }
      ],
      "payable": false,
      "stateMutability": "view",
      "type": "function"
    },
    {
      "constant": true,
      "inputs": [
        {
          "name": "",
          "type": "address"
        }
      ],
      "name": "userRatingsSum",
      "outputs": [
        {
          "name": "",
          "type": "uint256"
        }
      ],
      "payable": false,
      "stateMutability": "view",
      "type": "function"
    },
    {
      "constant": true,
      "inputs": [
        {
          "name": "",
          "type": "address"
        }
      ],
      "name": "isUser",
      "outputs": [
        {
          "name": "",
          "type": "bool"
        }
      ],
      "payable": false,
      "stateMutability": "view",
      "type": "function"
    },
    {
      "constant": true,
      "inputs": [
        {
          "name": "",
          "type": "address"
        }
      ],
      "name": "businessRatingsSum",
      "outputs": [
        {
          "name": "",
          "type": "uint256"
        }
      ],
      "payable": false,
      "stateMutability": "view",
      "type": "function"
    },
    {
      "constant": true,
      "inputs": [
        {
          "name": "",
          "type": "address"
        },
        {
          "name": "",
          "type": "address"
        }
      ],
      "name": "isEmployed",
      "outputs": [
        {
          "name": "",
          "type": "bool"
        }
      ],
      "payable": false,
      "stateMutability": "view",
      "type": "function"
    },
    {
      "constant": true,
      "inputs": [
        {
          "name": "",
          "type": "address"
        },
        {
          "name": "",
          "type": "address"
        }
      ],
      "name": "nonceValue",
      "outputs": [
        {
          "name": "",
          "type": "uint256"
        }
      ],
      "payable": false,
      "stateMutability": "view",
      "type": "function"
    },
    {
      "constant": true,
      "inputs": [
        {
          "name": "",
          "type": "address"
        }
      ],
      "name": "numberOfBusinessRatings",
      "outputs": [
        {
          "name": "",
          "type": "uint256"
        }
      ],
      "payable": false,
      "stateMutability": "view",
      "type": "function"
    },
    {
      "constant": true,
      "inputs": [
        {
          "name": "",
          "type": "address"
        }
      ],
      "name": "isWorker",
      "outputs": [
        {
          "name": "",
          "type": "bool"
        }
      ],
      "payable": false,
      "stateMutability": "view",
      "type": "function"
    },
    {
      "constant": true,
      "inputs": [
        {
          "name": "",
          "type": "address"
        }
      ],
      "name": "numberOfUserRatings",
      "outputs": [
        {
          "name": "",
          "type": "uint256"
        }
      ],
      "payable": false,
      "stateMutability": "view",
      "type": "function"
    },
    {
      "constant": true,
      "inputs": [
        {
          "name": "",
          "type": "address"
        },
        {
          "name": "",
          "type": "address"
        }
      ],
      "name": "workerRatingsSum",
      "outputs": [
        {
          "name": "",
          "type": "uint256"
        }
      ],
      "payable": false,
      "stateMutability": "view",
      "type": "function"
    },
    {
      "constant": true,
      "inputs": [
        {
          "name": "",
          "type": "address"
        },
        {
          "name": "",
          "type": "address"
        }
      ],
      "name": "workerHasApprovedBusiness",
      "outputs": [
        {
          "name": "",
          "type": "bool"
        }
      ],
      "payable": false,
      "stateMutability": "view",
      "type": "function"
    },
    {
      "constant": true,
      "inputs": [
        {
          "name": "",
          "type": "address"
        },
        {
          "name": "",
          "type": "uint256"
        }
      ],
      "name": "workerList",
      "outputs": [
        {
          "name": "",
          "type": "address"
        }
      ],
      "payable": false,
      "stateMutability": "view",
      "type": "function"
    }
  ],
  "bytecode": "0x608060405234801561001057600080fd5b50610a54806100206000396000f3006080604052600436106100e6576000357c0100000000000000000000000000000000000000000000000000000000900463ffffffff168063067a0949146100eb5780630848152a146101665780630e2be266146101cb578063130ee376146102425780631466d019146102cf578063324558171461032a5780634209fff1146103815780635e27d398146103dc5780637b1d0c831461043357806393b3c183146104ae5780639708c61f14610525578063aa1566451461057c578063b265c33d146105d7578063ca2027921461062e578063e3363793146106a5578063f901188814610720575b600080fd5b3480156100f757600080fd5b5061014c600480360381019080803573ffffffffffffffffffffffffffffffffffffffff169060200190929190803573ffffffffffffffffffffffffffffffffffffffff1690602001909291905050506107ad565b604051808215151515815260200191505060405180910390f35b34801561017257600080fd5b506101b5600480360381019080803573ffffffffffffffffffffffffffffffffffffffff16906020019092919080356000191690602001909291905050506107dc565b6040518082815260200191505060405180910390f35b3480156101d757600080fd5b5061022c600480360381019080803573ffffffffffffffffffffffffffffffffffffffff169060200190929190803573ffffffffffffffffffffffffffffffffffffffff169060200190929190505050610801565b6040518082815260200191505060405180910390f35b34801561024e57600080fd5b5061028d600480360381019080803573ffffffffffffffffffffffffffffffffffffffff16906020019092919080359060200190929190505050610826565b604051808273ffffffffffffffffffffffffffffffffffffffff1673ffffffffffffffffffffffffffffffffffffffff16815260200191505060405180910390f35b3480156102db57600080fd5b50610310600480360381019080803573ffffffffffffffffffffffffffffffffffffffff169060200190929190505050610873565b604051808215151515815260200191505060405180910390f35b34801561033657600080fd5b5061036b600480360381019080803573ffffffffffffffffffffffffffffffffffffffff169060200190929190505050610893565b6040518082815260200191505060405180910390f35b34801561038d57600080fd5b506103c2600480360381019080803573ffffffffffffffffffffffffffffffffffffffff1690602001909291905050506108ab565b604051808215151515815260200191505060405180910390f35b3480156103e857600080fd5b5061041d600480360381019080803573ffffffffffffffffffffffffffffffffffffffff1690602001909291905050506108cb565b6040518082815260200191505060405180910390f35b34801561043f57600080fd5b50610494600480360381019080803573ffffffffffffffffffffffffffffffffffffffff169060200190929190803573ffffffffffffffffffffffffffffffffffffffff1690602001909291905050506108e3565b604051808215151515815260200191505060405180910390f35b3480156104ba57600080fd5b5061050f600480360381019080803573ffffffffffffffffffffffffffffffffffffffff169060200190929190803573ffffffffffffffffffffffffffffffffffffffff169060200190929190505050610912565b6040518082815260200191505060405180910390f35b34801561053157600080fd5b50610566600480360381019080803573ffffffffffffffffffffffffffffffffffffffff169060200190929190505050610937565b6040518082815260200191505060405180910390f35b34801561058857600080fd5b506105bd600480360381019080803573ffffffffffffffffffffffffffffffffffffffff16906020019092919050505061094f565b604051808215151515815260200191505060405180910390f35b3480156105e357600080fd5b50610618600480360381019080803573ffffffffffffffffffffffffffffffffffffffff16906020019092919050505061096f565b6040518082815260200191505060405180910390f35b34801561063a57600080fd5b5061068f600480360381019080803573ffffffffffffffffffffffffffffffffffffffff169060200190929190803573ffffffffffffffffffffffffffffffffffffffff169060200190929190505050610987565b6040518082815260200191505060405180910390f35b3480156106b157600080fd5b50610706600480360381019080803573ffffffffffffffffffffffffffffffffffffffff169060200190929190803573ffffffffffffffffffffffffffffffffffffffff1690602001909291905050506109ac565b604051808215151515815260200191505060405180910390f35b34801561072c57600080fd5b5061076b600480360381019080803573ffffffffffffffffffffffffffffffffffffffff169060200190929190803590602001909291905050506109db565b604051808273ffffffffffffffffffffffffffffffffffffffff1673ffffffffffffffffffffffffffffffffffffffff16815260200191505060405180910390f35b60016020528160005260406000206020528060005260406000206000915091509054906101000a900460ff1681565b600f602052816000526040600020602052806000526040600020600091509150505481565b600b602052816000526040600020602052806000526040600020600091509150505481565b60056020528160005260406000208181548110151561084157fe5b906000526020600020016000915091509054906101000a900473ffffffffffffffffffffffffffffffffffffffff1681565b60006020528060005260406000206000915054906101000a900460ff1681565b600c6020528060005260406000206000915090505481565b60066020528060005260406000206000915054906101000a900460ff1681565b60086020528060005260406000206000915090505481565b60076020528160005260406000206020528060005260406000206000915091509054906101000a900460ff1681565b600e602052816000526040600020602052806000526040600020600091509150505481565b60096020528060005260406000206000915090505481565b60036020528060005260406000206000915054906101000a900460ff1681565b600d6020528060005260406000206000915090505481565b600a602052816000526040600020602052806000526040600020600091509150505481565b60046020528160005260406000206020528060005260406000206000915091509054906101000a900460ff1681565b6002602052816000526040600020818154811015156109f657fe5b906000526020600020016000915091509054906101000a900473ffffffffffffffffffffffffffffffffffffffff16815600a165627a7a72305820385b01f43ccd4aedf28bfa9d522b9504c946f55e20bcfc0f81896fe942db4d770029",
  "source": "pragma solidity ^0.4.24;\n\ncontract BoomerangActor {\n\n  // business\n  mapping(address => bool) public isBusiness;\n\n  mapping(address => mapping(address => bool)) public businessHasApprovedWorker;\n  mapping(address => address[]) public workerList;\n\n  // worker\n  mapping(address => bool) public isWorker;\n\n  mapping(address => mapping(address => bool)) public workerHasApprovedBusiness;\n  mapping(address => address[]) public businessList;\n\n  // user\n  mapping(address => bool) public isUser;\n\n  // business + worker\n  mapping(address => mapping(address => bool)) public isEmployed;\n\n  // ratings\n  mapping(address => uint256) public businessRatingsSum;\n  mapping(address => uint256) public numberOfBusinessRatings;\n\n  mapping(address => mapping(address => uint256)) public workerRatingsSum;\n  mapping(address => mapping(address => uint256)) public numberOfWorkerRatings;\n\n  mapping(address => uint256) public userRatingsSum;\n  mapping(address => uint256) public numberOfUserRatings;\n\n  // businessAddress => actorAddress => nonceValue\n  mapping(address => mapping(address => uint256)) public nonceValue;\n\n  // businessAddress => userId => nonceValue\n  mapping(address => mapping(bytes32 => uint256)) public nonceValueForUsersWithoutAddress;\n\n\n  modifier withCorrectSignature(address _businessAddress, address _address, uint8 _v, bytes32 _r, bytes32 _s) {\n\n    bytes32 nonceHash = keccak256(abi.encodePacked(nonceValue[_businessAddress][_address]));\n    bytes memory prefix = '\\x19Ethereum Signed Message:\\n32';\n    bytes32 prefixedHash = keccak256(abi.encodePacked(prefix, nonceHash));\n    address recoveredAddress = ecrecover(prefixedHash, _v, _r, _s);\n\n    require(recoveredAddress == _address);\n\n    nonceValue[_businessAddress][_address] += 1;\n    _;\n  }\n}\n",
  "sourcePath": "/Users/panda/projects/boomerang/packages/boomerang-contracts/contracts/BoomerangActor.sol",
  "compiler": {
    "name": "solc",
    "version": "0.4.24+commit.e67f0147.Emscripten.clang"
  },
  "schemaVersion": "2.0.1",
  "updatedAt": "2018-08-03T14:48:28.147Z"
}