{
  "contractName": "BoomerangRateExperience",
  "abi": [
    {
      "constant": false,
      "inputs": [
        {
          "name": "_numberOfRewardSteps",
          "type": "uint256"
        },
        {
          "name": "_numberOfRewardCyclesForLevel",
          "type": "uint256[]"
        },
        {
          "name": "_numberOfRewardLevels",
          "type": "uint256"
        },
        {
          "name": "_levelRewards",
          "type": "uint256[]"
        },
        {
          "name": "_ipfsHash",
          "type": "bytes32"
        }
      ],
      "name": "registerGrowthPoolRewardSystem",
      "outputs": [],
      "payable": false,
      "stateMutability": "nonpayable",
      "type": "function"
    },
    {
      "constant": true,
      "inputs": [
        {
          "name": "",
          "type": "address"
        },
        {
          "name": "",
          "type": "address"
        }
      ],
      "name": "businessHasApprovedWorker",
      "outputs": [
        {
          "name": "",
          "type": "bool"
        }
      ],
      "payable": false,
      "stateMutability": "view",
      "type": "function"
    },
    {
      "constant": true,
      "inputs": [
        {
          "name": "",
          "type": "address"
        },
        {
          "name": "",
          "type": "bytes32"
        }
      ],
      "name": "nonceValueForUsersWithoutAddress",
      "outputs": [
        {
          "name": "",
          "type": "uint256"
        }
      ],
      "payable": false,
      "stateMutability": "view",
      "type": "function"
    },
    {
      "constant": true,
      "inputs": [
        {
          "name": "",
          "type": "address"
        },
        {
          "name": "",
          "type": "address"
        }
      ],
      "name": "numberOfWorkerRatings",
      "outputs": [
        {
          "name": "",
          "type": "uint256"
        }
      ],
      "payable": false,
      "stateMutability": "view",
      "type": "function"
    },
    {
      "constant": true,
      "inputs": [
        {
          "name": "_workerAddress",
          "type": "address"
        },
        {
          "name": "_businessAddress",
          "type": "address"
        }
      ],
      "name": "getWorkerRewardRank",
      "outputs": [
        {
          "name": "_rewardRank",
          "type": "uint256"
        }
      ],
      "payable": false,
      "stateMutability": "view",
      "type": "function"
    },
    {
      "constant": true,
      "inputs": [
        {
          "name": "",
          "type": "address"
        },
        {
          "name": "",
          "type": "uint256"
        }
      ],
      "name": "businessList",
      "outputs": [
        {
          "name": "",
          "type": "address"
        }
      ],
      "payable": false,
      "stateMutability": "view",
      "type": "function"
    },
    {
      "constant": true,
      "inputs": [
        {
          "name": "",
          "type": "address"
        }
      ],
      "name": "isBusiness",
      "outputs": [
        {
          "name": "",
          "type": "bool"
        }
      ],
      "payable": false,
      "stateMutability": "view",
      "type": "function"
    },
    {
      "constant": true,
      "inputs": [
        {
          "name": "_address",
          "type": "address"
        }
      ],
      "name": "getGrowthPoolRewardRank",
      "outputs": [
        {
          "name": "_rewardRank",
          "type": "uint256"
        }
      ],
      "payable": false,
      "stateMutability": "view",
      "type": "function"
    },
    {
      "constant": true,
      "inputs": [
        {
          "name": "_businessAddress",
          "type": "address"
        }
      ],
      "name": "getUserRewardSystem",
      "outputs": [
        {
          "name": "_numberOfRewardSteps",
          "type": "uint256"
        },
        {
          "name": "_numberOfRewardCyclesForLevel",
          "type": "uint256[]"
        },
        {
          "name": "_numberOfRewardLevels",
          "type": "uint256"
        },
        {
          "name": "_levelRewards",
          "type": "uint256[]"
        },
        {
          "name": "_ipfsHash",
          "type": "bytes32"
        }
      ],
      "payable": false,
      "stateMutability": "view",
      "type": "function"
    },
    {
      "constant": true,
      "inputs": [],
      "name": "growthPoolRewardSystem",
      "outputs": [
        {
          "name": "numberOfRewardSteps",
          "type": "uint256"
        },
        {
          "name": "numberOfRewardLevels",
          "type": "uint256"
        },
        {
          "name": "ipfsHash",
          "type": "bytes32"
        }
      ],
      "payable": false,
      "stateMutability": "view",
      "type": "function"
    },
    {
      "constant": true,
      "inputs": [
        {
          "name": "_workerAddress",
          "type": "address"
        },
        {
          "name": "_businessAddress",
          "type": "address"
        }
      ],
      "name": "getWorkerRewardCycle",
      "outputs": [
        {
          "name": "_rewardCycle",
          "type": "uint256"
        }
      ],
      "payable": false,
      "stateMutability": "view",
      "type": "function"
    },
    {
      "constant": true,
      "inputs": [
        {
          "name": "_businessAddress",
          "type": "address"
        },
        {
          "name": "_userId",
          "type": "bytes32"
        }
      ],
      "name": "getNonceValueForUsersWithoutAddress",
      "outputs": [
        {
          "name": "_nonceValue",
          "type": "uint256"
        }
      ],
      "payable": false,
      "stateMutability": "view",
      "type": "function"
    },
    {
      "constant": true,
      "inputs": [
        {
          "name": "",
          "type": "address"
        }
      ],
      "name": "userRatingsSum",
      "outputs": [
        {
          "name": "",
          "type": "uint256"
        }
      ],
      "payable": false,
      "stateMutability": "view",
      "type": "function"
    },
    {
      "constant": true,
      "inputs": [
        {
          "name": "_userAddress",
          "type": "address"
        },
        {
          "name": "_businessAddress",
          "type": "address"
        }
      ],
      "name": "getUserRewardRank",
      "outputs": [
        {
          "name": "_rewardRank",
          "type": "uint256"
        }
      ],
      "payable": false,
      "stateMutability": "view",
      "type": "function"
    },
    {
      "constant": true,
      "inputs": [
        {
          "name": "",
          "type": "address"
        }
      ],
      "name": "isUser",
      "outputs": [
        {
          "name": "",
          "type": "bool"
        }
      ],
      "payable": false,
      "stateMutability": "view",
      "type": "function"
    },
    {
      "constant": false,
      "inputs": [
        {
          "name": "_businessAddress",
          "type": "address"
        },
        {
          "name": "_numberOfRewardSteps",
          "type": "uint256"
        },
        {
          "name": "_numberOfRewardCyclesForLevel",
          "type": "uint256[]"
        },
        {
          "name": "_numberOfRewardLevels",
          "type": "uint256"
        },
        {
          "name": "_levelRewards",
          "type": "uint256[]"
        },
        {
          "name": "_ipfsHash",
          "type": "bytes32"
        }
      ],
      "name": "registerUserRewardSystem",
      "outputs": [],
      "payable": false,
      "stateMutability": "nonpayable",
      "type": "function"
    },
    {
      "constant": true,
      "inputs": [
        {
          "name": "_userAddress",
          "type": "address"
        },
        {
          "name": "_businessAddress",
          "type": "address"
        }
      ],
      "name": "getUserRewardCycle",
      "outputs": [
        {
          "name": "_rewardCycle",
          "type": "uint256"
        }
      ],
      "payable": false,
      "stateMutability": "view",
      "type": "function"
    },
    {
      "constant": true,
      "inputs": [
        {
          "name": "",
          "type": "address"
        }
      ],
      "name": "businessRatingsSum",
      "outputs": [
        {
          "name": "",
          "type": "uint256"
        }
      ],
      "payable": false,
      "stateMutability": "view",
      "type": "function"
    },
    {
      "constant": true,
      "inputs": [
        {
          "name": "_businessAddress",
          "type": "address"
        }
      ],
      "name": "getRatingRewards",
      "outputs": [
        {
          "name": "_ratingRewards",
          "type": "uint256[5]"
        }
      ],
      "payable": false,
      "stateMutability": "view",
      "type": "function"
    },
    {
      "constant": true,
      "inputs": [
        {
          "name": "",
          "type": "address"
        }
      ],
      "name": "userRewardSystem",
      "outputs": [
        {
          "name": "numberOfRewardSteps",
          "type": "uint256"
        },
        {
          "name": "numberOfRewardLevels",
          "type": "uint256"
        },
        {
          "name": "ipfsHash",
          "type": "bytes32"
        }
      ],
      "payable": false,
      "stateMutability": "view",
      "type": "function"
    },
    {
      "constant": false,
      "inputs": [],
      "name": "renounceOwnership",
      "outputs": [],
      "payable": false,
      "stateMutability": "nonpayable",
      "type": "function"
    },
    {
      "constant": true,
      "inputs": [
        {
          "name": "_userAddress",
          "type": "address"
        },
        {
          "name": "_businessAddress",
          "type": "address"
        }
      ],
      "name": "getUserRewardLevel",
      "outputs": [
        {
          "name": "_rewardLevel",
          "type": "uint256"
        }
      ],
      "payable": false,
      "stateMutability": "view",
      "type": "function"
    },
    {
      "constant": true,
      "inputs": [
        {
          "name": "_businessAddress",
          "type": "address"
        }
      ],
      "name": "getWorkerRewardSystem",
      "outputs": [
        {
          "name": "_numberOfRewardSteps",
          "type": "uint256"
        },
        {
          "name": "_numberOfRewardCyclesForLevel",
          "type": "uint256[]"
        },
        {
          "name": "_numberOfRewardLevels",
          "type": "uint256"
        },
        {
          "name": "_levelRewards",
          "type": "uint256[]"
        },
        {
          "name": "_ipfsHash",
          "type": "bytes32"
        }
      ],
      "payable": false,
      "stateMutability": "view",
      "type": "function"
    },
    {
      "constant": true,
      "inputs": [
        {
          "name": "",
          "type": "address"
        },
        {
          "name": "",
          "type": "address"
        }
      ],
      "name": "isEmployed",
      "outputs": [
        {
          "name": "",
          "type": "bool"
        }
      ],
      "payable": false,
      "stateMutability": "view",
      "type": "function"
    },
    {
      "constant": true,
      "inputs": [
        {
          "name": "",
          "type": "address"
        }
      ],
      "name": "workerRewardSystem",
      "outputs": [
        {
          "name": "numberOfRewardSteps",
          "type": "uint256"
        },
        {
          "name": "numberOfRewardLevels",
          "type": "uint256"
        },
        {
          "name": "ipfsHash",
          "type": "bytes32"
        }
      ],
      "payable": false,
      "stateMutability": "view",
      "type": "function"
    },
    {
      "constant": true,
      "inputs": [],
      "name": "owner",
      "outputs": [
        {
          "name": "",
          "type": "address"
        }
      ],
      "payable": false,
      "stateMutability": "view",
      "type": "function"
    },
    {
      "constant": true,
      "inputs": [
        {
          "name": "",
          "type": "address"
        },
        {
          "name": "",
          "type": "address"
        }
      ],
      "name": "nonceValue",
      "outputs": [
        {
          "name": "",
          "type": "uint256"
        }
      ],
      "payable": false,
      "stateMutability": "view",
      "type": "function"
    },
    {
      "constant": true,
      "inputs": [
        {
          "name": "",
          "type": "address"
        }
      ],
      "name": "numberOfBusinessRatings",
      "outputs": [
        {
          "name": "",
          "type": "uint256"
        }
      ],
      "payable": false,
      "stateMutability": "view",
      "type": "function"
    },
    {
      "constant": true,
      "inputs": [],
      "name": "boomerangToken",
      "outputs": [
        {
          "name": "",
          "type": "address"
        }
      ],
      "payable": false,
      "stateMutability": "view",
      "type": "function"
    },
    {
      "constant": true,
      "inputs": [
        {
          "name": "_address",
          "type": "address"
        }
      ],
      "name": "getGrowthPoolRewardLevel",
      "outputs": [
        {
          "name": "_rewardLevel",
          "type": "uint256"
        }
      ],
      "payable": false,
      "stateMutability": "view",
      "type": "function"
    },
    {
      "constant": true,
      "inputs": [
        {
          "name": "_workerAddress",
          "type": "address"
        },
        {
          "name": "_businessAddress",
          "type": "address"
        }
      ],
      "name": "getWorkerRewardLevel",
      "outputs": [
        {
          "name": "_rewardLevel",
          "type": "uint256"
        }
      ],
      "payable": false,
      "stateMutability": "view",
      "type": "function"
    },
    {
      "constant": true,
      "inputs": [
        {
          "name": "",
          "type": "address"
        }
      ],
      "name": "isWorker",
      "outputs": [
        {
          "name": "",
          "type": "bool"
        }
      ],
      "payable": false,
      "stateMutability": "view",
      "type": "function"
    },
    {
      "constant": true,
      "inputs": [
        {
          "name": "",
          "type": "address"
        },
        {
          "name": "",
          "type": "uint256"
        }
      ],
      "name": "ratingRewards",
      "outputs": [
        {
          "name": "",
          "type": "uint256"
        }
      ],
      "payable": false,
      "stateMutability": "view",
      "type": "function"
    },
    {
      "constant": true,
      "inputs": [
        {
          "name": "_businessAddress",
          "type": "address"
        },
        {
          "name": "_actorAddress",
          "type": "address"
        }
      ],
      "name": "getNonceValue",
      "outputs": [
        {
          "name": "_nonceValue",
          "type": "uint256"
        }
      ],
      "payable": false,
      "stateMutability": "view",
      "type": "function"
    },
    {
      "constant": true,
      "inputs": [],
      "name": "getGrowthPoolRewardSystem",
      "outputs": [
        {
          "name": "_numberOfRewardSteps",
          "type": "uint256"
        },
        {
          "name": "_numberOfRewardCyclesForLevel",
          "type": "uint256[]"
        },
        {
          "name": "_numberOfRewardLevels",
          "type": "uint256"
        },
        {
          "name": "_levelRewards",
          "type": "uint256[]"
        },
        {
          "name": "_ipfsHash",
          "type": "bytes32"
        }
      ],
      "payable": false,
      "stateMutability": "view",
      "type": "function"
    },
    {
      "constant": false,
      "inputs": [
        {
          "name": "_businessAddress",
          "type": "address"
        },
        {
          "name": "_numberOfRewardSteps",
          "type": "uint256"
        },
        {
          "name": "_numberOfRewardCyclesForLevel",
          "type": "uint256[]"
        },
        {
          "name": "_numberOfRewardLevels",
          "type": "uint256"
        },
        {
          "name": "_levelRewards",
          "type": "uint256[]"
        },
        {
          "name": "_ipfsHash",
          "type": "bytes32"
        }
      ],
      "name": "registerWorkerRewardSystem",
      "outputs": [],
      "payable": false,
      "stateMutability": "nonpayable",
      "type": "function"
    },
    {
      "constant": true,
      "inputs": [
        {
          "name": "",
          "type": "address"
        }
      ],
      "name": "numberOfUserRatings",
      "outputs": [
        {
          "name": "",
          "type": "uint256"
        }
      ],
      "payable": false,
      "stateMutability": "view",
      "type": "function"
    },
    {
      "constant": true,
      "inputs": [
        {
          "name": "_address",
          "type": "address"
        }
      ],
      "name": "getGrowthPoolRewardStep",
      "outputs": [
        {
          "name": "_rewardStep",
          "type": "uint256"
        }
      ],
      "payable": false,
      "stateMutability": "view",
      "type": "function"
    },
    {
      "constant": true,
      "inputs": [
        {
          "name": "",
          "type": "address"
        },
        {
          "name": "",
          "type": "address"
        }
      ],
      "name": "workerRatingsSum",
      "outputs": [
        {
          "name": "",
          "type": "uint256"
        }
      ],
      "payable": false,
      "stateMutability": "view",
      "type": "function"
    },
    {
      "constant": false,
      "inputs": [
        {
          "name": "businesses",
          "type": "address[]"
        }
      ],
      "name": "addBusinessesToGrowthPoolRewardsSystem",
      "outputs": [],
      "payable": false,
      "stateMutability": "nonpayable",
      "type": "function"
    },
    {
      "constant": false,
      "inputs": [
        {
          "name": "businesses",
          "type": "address[]"
        }
      ],
      "name": "removeBusinessesFromGrowthPoolRewardsSystem",
      "outputs": [],
      "payable": false,
      "stateMutability": "nonpayable",
      "type": "function"
    },
    {
      "constant": false,
      "inputs": [
        {
          "name": "_businessAddress",
          "type": "address"
        },
        {
          "name": "_ratingRewards",
          "type": "uint256[5]"
        }
      ],
      "name": "setRatingRewards",
      "outputs": [],
      "payable": false,
      "stateMutability": "nonpayable",
      "type": "function"
    },
    {
      "constant": true,
      "inputs": [
        {
          "name": "",
          "type": "address"
        },
        {
          "name": "",
          "type": "address"
        }
      ],
      "name": "workerHasApprovedBusiness",
      "outputs": [
        {
          "name": "",
          "type": "bool"
        }
      ],
      "payable": false,
      "stateMutability": "view",
      "type": "function"
    },
    {
      "constant": true,
      "inputs": [
        {
          "name": "",
          "type": "address"
        }
      ],
      "name": "growthPoolBusiness",
      "outputs": [
        {
          "name": "",
          "type": "bool"
        }
      ],
      "payable": false,
      "stateMutability": "view",
      "type": "function"
    },
    {
      "constant": false,
      "inputs": [
        {
          "name": "_newOwner",
          "type": "address"
        }
      ],
      "name": "transferOwnership",
      "outputs": [],
      "payable": false,
      "stateMutability": "nonpayable",
      "type": "function"
    },
    {
      "constant": true,
      "inputs": [
        {
          "name": "_userAddress",
          "type": "address"
        },
        {
          "name": "_businessAddress",
          "type": "address"
        }
      ],
      "name": "getUserRewardStep",
      "outputs": [
        {
          "name": "_rewardStep",
          "type": "uint256"
        }
      ],
      "payable": false,
      "stateMutability": "view",
      "type": "function"
    },
    {
      "constant": true,
      "inputs": [
        {
          "name": "_address",
          "type": "address"
        }
      ],
      "name": "getGrowthPoolRewardCycle",
      "outputs": [
        {
          "name": "_rewardCycle",
          "type": "uint256"
        }
      ],
      "payable": false,
      "stateMutability": "view",
      "type": "function"
    },
    {
      "constant": true,
      "inputs": [
        {
          "name": "",
          "type": "address"
        },
        {
          "name": "",
          "type": "uint256"
        }
      ],
      "name": "workerList",
      "outputs": [
        {
          "name": "",
          "type": "address"
        }
      ],
      "payable": false,
      "stateMutability": "view",
      "type": "function"
    },
    {
      "constant": true,
      "inputs": [
        {
          "name": "_workerAddress",
          "type": "address"
        },
        {
          "name": "_businessAddress",
          "type": "address"
        }
      ],
      "name": "getWorkerRewardStep",
      "outputs": [
        {
          "name": "_rewardStep",
          "type": "uint256"
        }
      ],
      "payable": false,
      "stateMutability": "view",
      "type": "function"
    },
    {
      "anonymous": false,
      "inputs": [
        {
          "indexed": true,
          "name": "_userAddress",
          "type": "address"
        },
        {
          "indexed": true,
          "name": "_workerAddress",
          "type": "address"
        },
        {
          "indexed": true,
          "name": "_businessAddress",
          "type": "address"
        },
        {
          "indexed": false,
          "name": "_workerRating",
          "type": "uint256"
        },
        {
          "indexed": false,
          "name": "_businessRating",
          "type": "uint256"
        },
        {
          "indexed": false,
          "name": "_ipfsHash",
          "type": "bytes32"
        }
      ],
      "name": "BoomerangExperienceRating",
      "type": "event"
    },
    {
      "anonymous": false,
      "inputs": [
        {
          "indexed": true,
          "name": "_workerAddress",
          "type": "address"
        },
        {
          "indexed": true,
          "name": "_businessAddress",
          "type": "address"
        },
        {
          "indexed": false,
          "name": "_workerRating",
          "type": "uint256"
        },
        {
          "indexed": false,
          "name": "_rewardValue",
          "type": "uint256"
        }
      ],
      "name": "WorkerReward",
      "type": "event"
    },
    {
      "anonymous": false,
      "inputs": [],
      "name": "RegisterGrowthPoolRewardSystem",
      "type": "event"
    },
    {
      "anonymous": false,
      "inputs": [
        {
          "indexed": true,
          "name": "_userAddress",
          "type": "address"
        },
        {
          "indexed": false,
          "name": "_rewardValue",
          "type": "uint256"
        }
      ],
      "name": "GrowthPoolRewardForUser",
      "type": "event"
    },
    {
      "anonymous": false,
      "inputs": [
        {
          "indexed": true,
          "name": "_workerAddress",
          "type": "address"
        },
        {
          "indexed": false,
          "name": "_rewardValue",
          "type": "uint256"
        }
      ],
      "name": "GrowthPoolRewardForWorker",
      "type": "event"
    },
    {
      "anonymous": false,
      "inputs": [
        {
          "indexed": true,
          "name": "_businessAddress",
          "type": "address"
        },
        {
          "indexed": false,
          "name": "_rewardValue",
          "type": "uint256"
        }
      ],
      "name": "GrowthPoolRewardForBusiness",
      "type": "event"
    },
    {
      "anonymous": false,
      "inputs": [
        {
          "indexed": true,
          "name": "_businessAddress",
          "type": "address"
        }
      ],
      "name": "RegisterWorkerRewardSystem",
      "type": "event"
    },
    {
      "anonymous": false,
      "inputs": [
        {
          "indexed": true,
          "name": "_workerAddress",
          "type": "address"
        },
        {
          "indexed": true,
          "name": "_businessAddress",
          "type": "address"
        },
        {
          "indexed": false,
          "name": "_rewardValue",
          "type": "uint256"
        }
      ],
      "name": "PerformanceReward",
      "type": "event"
    },
    {
      "anonymous": false,
      "inputs": [
        {
          "indexed": true,
          "name": "_businessAddress",
          "type": "address"
        }
      ],
      "name": "RegisterUserRewardSystem",
      "type": "event"
    },
    {
      "anonymous": false,
      "inputs": [
        {
          "indexed": true,
          "name": "_userAddress",
          "type": "address"
        },
        {
          "indexed": true,
          "name": "_businessAddress",
          "type": "address"
        },
        {
          "indexed": false,
          "name": "_rewardValue",
          "type": "uint256"
        }
      ],
      "name": "LoyaltyReward",
      "type": "event"
    },
    {
      "anonymous": false,
      "inputs": [
        {
          "indexed": false,
          "name": "_id",
          "type": "string"
        },
        {
          "indexed": false,
          "name": "_arg",
          "type": "uint256"
        }
      ],
      "name": "Debug",
      "type": "event"
    },
    {
      "anonymous": false,
      "inputs": [
        {
          "indexed": true,
          "name": "previousOwner",
          "type": "address"
        }
      ],
      "name": "OwnershipRenounced",
      "type": "event"
    },
    {
      "anonymous": false,
      "inputs": [
        {
          "indexed": true,
          "name": "previousOwner",
          "type": "address"
        },
        {
          "indexed": true,
          "name": "newOwner",
          "type": "address"
        }
      ],
      "name": "OwnershipTransferred",
      "type": "event"
    },
    {
      "constant": false,
      "inputs": [
        {
          "name": "_userAddress",
          "type": "address"
        },
        {
          "name": "_workerAddress",
          "type": "address"
        },
        {
          "name": "_businessAddress",
          "type": "address"
        },
        {
          "name": "_workerRating",
          "type": "uint256"
        },
        {
          "name": "_businessRating",
          "type": "uint256"
        },
        {
          "name": "_ipfsHash",
          "type": "bytes32"
        }
      ],
      "name": "rateBoomerangExperience",
      "outputs": [],
      "payable": false,
      "stateMutability": "nonpayable",
      "type": "function"
    }
  ],
  "bytecode": "0x608060405233601060006101000a81548173ffffffffffffffffffffffffffffffffffffffff021916908373ffffffffffffffffffffffffffffffffffffffff1602179055506144d2806100546000396000f30060806040526004361061025c576000357c0100000000000000000000000000000000000000000000000000000000900463ffffffff16806303d7c87d14610261578063067a09491461032c5780630848152a146103a75780630e2be2661461040c5780631241f47814610483578063130ee376146104fa5780631466d0191461058757806319268566146105e2578063193ad4e7146106395780631c94695214610736578063261d22f0146107775780632acb15a7146107ee57806332455817146108535780634038faed146108aa5780634209fff11461092157806347d2bc701461097c57806351fa2f3a14610a675780635e27d39814610ade57806364765d4414610b355780636885295714610bb4578063715018a614610c2157806371ee525b14610c3857806378939f9d14610caf5780637b1d0c8314610dac5780638b3504f214610e275780638da5cb5b14610e9457806393b3c18314610eeb5780639708c61f14610f625780639d0696ed14610fb9578063a0a6b77114611010578063a7ce1cff14611067578063aa156645146110de578063abd9a4ef14611139578063acf9e6cf1461119a578063b0106aa314611211578063b06af56b146112e2578063b265c33d146113cd578063c304c93b14611424578063ca2027921461147b578063cd3e26b7146114f2578063d656790f14611597578063d8fb8c1f146115d2578063dd89d8191461160d578063e33637931461167f578063e5d87e76146116fa578063f2fde38b14611755578063f31c703414611798578063f776757b1461180f578063f901188814611866578063fc476272146118f3575b600080fd5b34801561026d57600080fd5b5061032a60048036038101908080359060200190929190803590602001908201803590602001908080602002602001604051908101604052809392919081815260200183836020028082843782019150505050505091929192908035906020019092919080359060200190820180359060200190808060200260200160405190810160405280939291908181526020018383602002808284378201915050505050509192919290803560001916906020019092919050505061196a565b005b34801561033857600080fd5b5061038d600480360381019080803573ffffffffffffffffffffffffffffffffffffffff169060200190929190803573ffffffffffffffffffffffffffffffffffffffff169060200190929190505050611a88565b604051808215151515815260200191505060405180910390f35b3480156103b357600080fd5b506103f6600480360381019080803573ffffffffffffffffffffffffffffffffffffffff1690602001909291908035600019169060200190929190505050611ab7565b6040518082815260200191505060405180910390f35b34801561041857600080fd5b5061046d600480360381019080803573ffffffffffffffffffffffffffffffffffffffff169060200190929190803573ffffffffffffffffffffffffffffffffffffffff169060200190929190505050611adc565b6040518082815260200191505060405180910390f35b34801561048f57600080fd5b506104e4600480360381019080803573ffffffffffffffffffffffffffffffffffffffff169060200190929190803573ffffffffffffffffffffffffffffffffffffffff169060200190929190505050611b01565b6040518082815260200191505060405180910390f35b34801561050657600080fd5b50610545600480360381019080803573ffffffffffffffffffffffffffffffffffffffff16906020019092919080359060200190929190505050611b90565b604051808273ffffffffffffffffffffffffffffffffffffffff1673ffffffffffffffffffffffffffffffffffffffff16815260200191505060405180910390f35b34801561059357600080fd5b506105c8600480360381019080803573ffffffffffffffffffffffffffffffffffffffff169060200190929190505050611bdd565b604051808215151515815260200191505060405180910390f35b3480156105ee57600080fd5b50610623600480360381019080803573ffffffffffffffffffffffffffffffffffffffff169060200190929190505050611bfd565b6040518082815260200191505060405180910390f35b34801561064557600080fd5b5061067a600480360381019080803573ffffffffffffffffffffffffffffffffffffffff169060200190929190505050611c49565b6040518086815260200180602001858152602001806020018460001916600019168152602001838103835287818151815260200191508051906020019060200280838360005b838110156106db5780820151818401526020810190506106c0565b50505050905001838103825285818151815260200191508051906020019060200280838360005b8381101561071d578082015181840152602081019050610702565b5050505090500197505050505050505060405180910390f35b34801561074257600080fd5b5061074b611dab565b604051808481526020018381526020018260001916600019168152602001935050505060405180910390f35b34801561078357600080fd5b506107d8600480360381019080803573ffffffffffffffffffffffffffffffffffffffff169060200190929190803573ffffffffffffffffffffffffffffffffffffffff169060200190929190505050611dc3565b6040518082815260200191505060405180910390f35b3480156107fa57600080fd5b5061083d600480360381019080803573ffffffffffffffffffffffffffffffffffffffff1690602001909291908035600019169060200190929190505050611e52565b6040518082815260200191505060405180910390f35b34801561085f57600080fd5b50610894600480360381019080803573ffffffffffffffffffffffffffffffffffffffff169060200190929190505050611eb5565b6040518082815260200191505060405180910390f35b3480156108b657600080fd5b5061090b600480360381019080803573ffffffffffffffffffffffffffffffffffffffff169060200190929190803573ffffffffffffffffffffffffffffffffffffffff169060200190929190505050611ecd565b6040518082815260200191505060405180910390f35b34801561092d57600080fd5b50610962600480360381019080803573ffffffffffffffffffffffffffffffffffffffff169060200190929190505050611f5c565b604051808215151515815260200191505060405180910390f35b34801561098857600080fd5b50610a65600480360381019080803573ffffffffffffffffffffffffffffffffffffffff169060200190929190803590602001909291908035906020019082018035906020019080806020026020016040519081016040528093929190818152602001838360200280828437820191505050505050919291929080359060200190929190803590602001908201803590602001908080602002602001604051908101604052809392919081815260200183836020028082843782019150505050505091929192908035600019169060200190929190505050611f7c565b005b348015610a7357600080fd5b50610ac8600480360381019080803573ffffffffffffffffffffffffffffffffffffffff169060200190929190803573ffffffffffffffffffffffffffffffffffffffff169060200190929190505050612093565b6040518082815260200191505060405180910390f35b348015610aea57600080fd5b50610b1f600480360381019080803573ffffffffffffffffffffffffffffffffffffffff169060200190929190505050612122565b6040518082815260200191505060405180910390f35b348015610b4157600080fd5b50610b76600480360381019080803573ffffffffffffffffffffffffffffffffffffffff16906020019092919050505061213a565b6040518082600560200280838360005b83811015610ba1578082015181840152602081019050610b86565b5050505090500191505060405180910390f35b348015610bc057600080fd5b50610bf5600480360381019080803573ffffffffffffffffffffffffffffffffffffffff1690602001909291905050506121c4565b604051808481526020018381526020018260001916600019168152602001935050505060405180910390f35b348015610c2d57600080fd5b50610c366121ee565b005b348015610c4457600080fd5b50610c99600480360381019080803573ffffffffffffffffffffffffffffffffffffffff169060200190929190803573ffffffffffffffffffffffffffffffffffffffff1690602001909291905050506122f3565b6040518082815260200191505060405180910390f35b348015610cbb57600080fd5b50610cf0600480360381019080803573ffffffffffffffffffffffffffffffffffffffff169060200190929190505050612382565b6040518086815260200180602001858152602001806020018460001916600019168152602001838103835287818151815260200191508051906020019060200280838360005b83811015610d51578082015181840152602081019050610d36565b50505050905001838103825285818151815260200191508051906020019060200280838360005b83811015610d93578082015181840152602081019050610d78565b5050505090500197505050505050505060405180910390f35b348015610db857600080fd5b50610e0d600480360381019080803573ffffffffffffffffffffffffffffffffffffffff169060200190929190803573ffffffffffffffffffffffffffffffffffffffff1690602001909291905050506124e4565b604051808215151515815260200191505060405180910390f35b348015610e3357600080fd5b50610e68600480360381019080803573ffffffffffffffffffffffffffffffffffffffff169060200190929190505050612513565b604051808481526020018381526020018260001916600019168152602001935050505060405180910390f35b348015610ea057600080fd5b50610ea961253d565b604051808273ffffffffffffffffffffffffffffffffffffffff1673ffffffffffffffffffffffffffffffffffffffff16815260200191505060405180910390f35b348015610ef757600080fd5b50610f4c600480360381019080803573ffffffffffffffffffffffffffffffffffffffff169060200190929190803573ffffffffffffffffffffffffffffffffffffffff169060200190929190505050612563565b6040518082815260200191505060405180910390f35b348015610f6e57600080fd5b50610fa3600480360381019080803573ffffffffffffffffffffffffffffffffffffffff169060200190929190505050612588565b6040518082815260200191505060405180910390f35b348015610fc557600080fd5b50610fce6125a0565b604051808273ffffffffffffffffffffffffffffffffffffffff1673ffffffffffffffffffffffffffffffffffffffff16815260200191505060405180910390f35b34801561101c57600080fd5b50611051600480360381019080803573ffffffffffffffffffffffffffffffffffffffff1690602001909291905050506125c6565b6040518082815260200191505060405180910390f35b34801561107357600080fd5b506110c8600480360381019080803573ffffffffffffffffffffffffffffffffffffffff169060200190929190803573ffffffffffffffffffffffffffffffffffffffff169060200190929190505050612612565b6040518082815260200191505060405180910390f35b3480156110ea57600080fd5b5061111f600480360381019080803573ffffffffffffffffffffffffffffffffffffffff1690602001909291905050506126a1565b604051808215151515815260200191505060405180910390f35b34801561114557600080fd5b50611184600480360381019080803573ffffffffffffffffffffffffffffffffffffffff169060200190929190803590602001909291905050506126c1565b6040518082815260200191505060405180910390f35b3480156111a657600080fd5b506111fb600480360381019080803573ffffffffffffffffffffffffffffffffffffffff169060200190929190803573ffffffffffffffffffffffffffffffffffffffff1690602001909291905050506126e8565b6040518082815260200191505060405180910390f35b34801561121d57600080fd5b5061122661276f565b6040518086815260200180602001858152602001806020018460001916600019168152602001838103835287818151815260200191508051906020019060200280838360005b8381101561128757808201518184015260208101905061126c565b50505050905001838103825285818151815260200191508051906020019060200280838360005b838110156112c95780820151818401526020810190506112ae565b5050505090500197505050505050505060405180910390f35b3480156112ee57600080fd5b506113cb600480360381019080803573ffffffffffffffffffffffffffffffffffffffff169060200190929190803590602001909291908035906020019082018035906020019080806020026020016040519081016040528093929190818152602001838360200280828437820191505050505050919291929080359060200190929190803590602001908201803590602001908080602002602001604051908101604052809392919081815260200183836020028082843782019150505050505091929192908035600019169060200190929190505050612844565b005b3480156113d957600080fd5b5061140e600480360381019080803573ffffffffffffffffffffffffffffffffffffffff16906020019092919050505061295b565b6040518082815260200191505060405180910390f35b34801561143057600080fd5b50611465600480360381019080803573ffffffffffffffffffffffffffffffffffffffff169060200190929190505050612973565b6040518082815260200191505060405180910390f35b34801561148757600080fd5b506114dc600480360381019080803573ffffffffffffffffffffffffffffffffffffffff169060200190929190803573ffffffffffffffffffffffffffffffffffffffff1690602001909291905050506129bf565b6040518082815260200191505060405180910390f35b3480156114fe57600080fd5b50611595600480360381019080803573ffffffffffffffffffffffffffffffffffffffff169060200190929190803573ffffffffffffffffffffffffffffffffffffffff169060200190929190803573ffffffffffffffffffffffffffffffffffffffff169060200190929190803590602001909291908035906020019092919080356000191690602001909291905050506129e4565b005b3480156115a357600080fd5b506115d0600480360381019080803590602001908201803590602001919091929391929390505050612ba1565b005b3480156115de57600080fd5b5061160b600480360381019080803590602001908201803590602001919091929391929390505050612ca3565b005b34801561161957600080fd5b5061167d600480360381019080803573ffffffffffffffffffffffffffffffffffffffff1690602001909291908060a00190600580602002604051908101604052809291908260056020028082843782019150505050509192919290505050612da5565b005b34801561168b57600080fd5b506116e0600480360381019080803573ffffffffffffffffffffffffffffffffffffffff169060200190929190803573ffffffffffffffffffffffffffffffffffffffff169060200190929190505050612df8565b604051808215151515815260200191505060405180910390f35b34801561170657600080fd5b5061173b600480360381019080803573ffffffffffffffffffffffffffffffffffffffff169060200190929190505050612e27565b604051808215151515815260200191505060405180910390f35b34801561176157600080fd5b50611796600480360381019080803573ffffffffffffffffffffffffffffffffffffffff169060200190929190505050612e47565b005b3480156117a457600080fd5b506117f9600480360381019080803573ffffffffffffffffffffffffffffffffffffffff169060200190929190803573ffffffffffffffffffffffffffffffffffffffff169060200190929190505050612eaf565b6040518082815260200191505060405180910390f35b34801561181b57600080fd5b50611850600480360381019080803573ffffffffffffffffffffffffffffffffffffffff169060200190929190505050612f3e565b6040518082815260200191505060405180910390f35b34801561187257600080fd5b506118b1600480360381019080803573ffffffffffffffffffffffffffffffffffffffff16906020019092919080359060200190929190505050612f8a565b604051808273ffffffffffffffffffffffffffffffffffffffff1673ffffffffffffffffffffffffffffffffffffffff16815260200191505060405180910390f35b3480156118ff57600080fd5b50611954600480360381019080803573ffffffffffffffffffffffffffffffffffffffff169060200190929190803573ffffffffffffffffffffffffffffffffffffffff169060200190929190505050612fd7565b6040518082815260200191505060405180910390f35b601060009054906101000a900473ffffffffffffffffffffffffffffffffffffffff1673ffffffffffffffffffffffffffffffffffffffff163373ffffffffffffffffffffffffffffffffffffffff161415156119c657600080fd5b60a06040519081016040528086815260200185815260200184815260200183815260200182600019168152506014600082015181600001556020820151816001019080519060200190611a1a92919061439e565b50604082015181600201556060820151816003019080519060200190611a4192919061439e565b50608082015181600401906000191690559050507fcecb7f2a433f872143ebb31ebe6bc5cd169e6a657bc645805e460bf08188818960405160405180910390a15050505050565b60016020528160005260406000206020528060005260406000206000915091509054906101000a900460ff1681565b600f602052816000526040600020602052806000526040600020600091509150505481565b600b602052816000526040600020602052806000526040600020600091509150505481565b600080601360008473ffffffffffffffffffffffffffffffffffffffff1673ffffffffffffffffffffffffffffffffffffffff16815260200190815260200160002090508060080160008573ffffffffffffffffffffffffffffffffffffffff1673ffffffffffffffffffffffffffffffffffffffff1681526020019081526020016000205491505092915050565b600560205281600052604060002081815481101515611bab57fe5b906000526020600020016000915091509054906101000a900473ffffffffffffffffffffffffffffffffffffffff1681565b60006020528060005260406000206000915054906101000a900460ff1681565b6000601460080160008373ffffffffffffffffffffffffffffffffffffffff1673ffffffffffffffffffffffffffffffffffffffff168152602001908152602001600020549050919050565b60006060600060606000611c5b6143eb565b601260008873ffffffffffffffffffffffffffffffffffffffff1673ffffffffffffffffffffffffffffffffffffffff16815260200190815260200160002060a060405190810160405290816000820154815260200160018201805480602002602001604051908101604052809291908181526020018280548015611cff57602002820191906000526020600020905b815481526020019060010190808311611ceb575b505050505081526020016002820154815260200160038201805480602002602001604051908101604052809291908181526020018280548015611d6157602002820191906000526020600020905b815481526020019060010190808311611d4d575b505050505081526020016004820154600019166000191681525050905080600001519550806020015194508060400151935080606001519250806080015191505091939590929450565b60148060000154908060020154908060040154905083565b600080601360008473ffffffffffffffffffffffffffffffffffffffff1673ffffffffffffffffffffffffffffffffffffffff16815260200190815260200160002090508060060160008573ffffffffffffffffffffffffffffffffffffffff1673ffffffffffffffffffffffffffffffffffffffff1681526020019081526020016000205491505092915050565b6000600f60008473ffffffffffffffffffffffffffffffffffffffff1673ffffffffffffffffffffffffffffffffffffffff1681526020019081526020016000206000836000191660001916815260200190815260200160002054905092915050565b600c6020528060005260406000206000915090505481565b600080601260008473ffffffffffffffffffffffffffffffffffffffff1673ffffffffffffffffffffffffffffffffffffffff16815260200190815260200160002090508060080160008573ffffffffffffffffffffffffffffffffffffffff1673ffffffffffffffffffffffffffffffffffffffff1681526020019081526020016000205491505092915050565b60066020528060005260406000206000915054906101000a900460ff1681565b60a0604051908101604052808681526020018581526020018481526020018381526020018260001916815250601260008873ffffffffffffffffffffffffffffffffffffffff1673ffffffffffffffffffffffffffffffffffffffff16815260200190815260200160002060008201518160000155602082015181600101908051906020019061200d92919061439e565b5060408201518160020155606082015181600301908051906020019061203492919061439e565b50608082015181600401906000191690559050508573ffffffffffffffffffffffffffffffffffffffff167fe04286428ba72349229a5e6d1ffcd9120bd0eecad71b420398ad31e81682d38760405160405180910390a2505050505050565b600080601260008473ffffffffffffffffffffffffffffffffffffffff1673ffffffffffffffffffffffffffffffffffffffff16815260200190815260200160002090508060060160008573ffffffffffffffffffffffffffffffffffffffff1673ffffffffffffffffffffffffffffffffffffffff1681526020019081526020016000205491505092915050565b60086020528060005260406000206000915090505481565b61214261441e565b601e60008373ffffffffffffffffffffffffffffffffffffffff1673ffffffffffffffffffffffffffffffffffffffff1681526020019081526020016000206005806020026040519081016040528092919082600580156121b8576020028201915b8154815260200190600101908083116121a4575b50505050509050919050565b60126020528060005260406000206000915090508060000154908060020154908060040154905083565b601060009054906101000a900473ffffffffffffffffffffffffffffffffffffffff1673ffffffffffffffffffffffffffffffffffffffff163373ffffffffffffffffffffffffffffffffffffffff1614151561224a57600080fd5b601060009054906101000a900473ffffffffffffffffffffffffffffffffffffffff1673ffffffffffffffffffffffffffffffffffffffff167ff8df31144d9c2f0f6b59d69b8b98abd5459d07f2742c4df920b25aae33c6482060405160405180910390a26000601060006101000a81548173ffffffffffffffffffffffffffffffffffffffff021916908373ffffffffffffffffffffffffffffffffffffffff160217905550565b600080601260008473ffffffffffffffffffffffffffffffffffffffff1673ffffffffffffffffffffffffffffffffffffffff16815260200190815260200160002090508060070160008573ffffffffffffffffffffffffffffffffffffffff1673ffffffffffffffffffffffffffffffffffffffff1681526020019081526020016000205491505092915050565b600060606000606060006123946143eb565b601360008873ffffffffffffffffffffffffffffffffffffffff1673ffffffffffffffffffffffffffffffffffffffff16815260200190815260200160002060a06040519081016040529081600082015481526020016001820180548060200260200160405190810160405280929190818152602001828054801561243857602002820191906000526020600020905b815481526020019060010190808311612424575b50505050508152602001600282015481526020016003820180548060200260200160405190810160405280929190818152602001828054801561249a57602002820191906000526020600020905b815481526020019060010190808311612486575b505050505081526020016004820154600019166000191681525050905080600001519550806020015194508060400151935080606001519250806080015191505091939590929450565b60076020528160005260406000206020528060005260406000206000915091509054906101000a900460ff1681565b60136020528060005260406000206000915090508060000154908060020154908060040154905083565b601060009054906101000a900473ffffffffffffffffffffffffffffffffffffffff1681565b600e602052816000526040600020602052806000526040600020600091509150505481565b60096020528060005260406000206000915090505481565b601160009054906101000a900473ffffffffffffffffffffffffffffffffffffffff1681565b6000601460070160008373ffffffffffffffffffffffffffffffffffffffff1673ffffffffffffffffffffffffffffffffffffffff168152602001908152602001600020549050919050565b600080601360008473ffffffffffffffffffffffffffffffffffffffff1673ffffffffffffffffffffffffffffffffffffffff16815260200190815260200160002090508060070160008573ffffffffffffffffffffffffffffffffffffffff1673ffffffffffffffffffffffffffffffffffffffff1681526020019081526020016000205491505092915050565b60036020528060005260406000206000915054906101000a900460ff1681565b601e602052816000526040600020816005811015156126dc57fe5b01600091509150505481565b6000600e60008473ffffffffffffffffffffffffffffffffffffffff1673ffffffffffffffffffffffffffffffffffffffff16815260200190815260200160002060008373ffffffffffffffffffffffffffffffffffffffff1673ffffffffffffffffffffffffffffffffffffffff16815260200190815260200160002054905092915050565b60006060600060606000601460000154945060146001018054806020026020016040519081016040528092919081815260200182805480156127d057602002820191906000526020600020905b8154815260200190600101908083116127bc575b505050505093506014600201549250601460030180548060200260200160405190810160405280929190818152602001828054801561282e57602002820191906000526020600020905b81548152602001906001019080831161281a575b5050505050915060146004015490509091929394565b60a0604051908101604052808681526020018581526020018481526020018381526020018260001916815250601360008873ffffffffffffffffffffffffffffffffffffffff1673ffffffffffffffffffffffffffffffffffffffff1681526020019081526020016000206000820151816000015560208201518160010190805190602001906128d592919061439e565b506040820151816002015560608201518160030190805190602001906128fc92919061439e565b50608082015181600401906000191690559050508573ffffffffffffffffffffffffffffffffffffffff167f910de68bbeafb3b17db876b63617e0d84a56e46ed90d7b475ca836fc62ec82c960405160405180910390a2505050505050565b600d6020528060005260406000206000915090505481565b6000601460050160008373ffffffffffffffffffffffffffffffffffffffff1673ffffffffffffffffffffffffffffffffffffffff168152602001908152602001600020549050919050565b600a602052816000526040600020602052806000526040600020600091509150505481565b7f3c5ad147104e56be34a9176a6692f7df8d2f4b29a5af06bc6b98970d329d65778360405180806020018381526020018281038252600e8152602001807f776f726b6572526174696e673a200000000000000000000000000000000000008152506020019250505060405180910390a17f3c5ad147104e56be34a9176a6692f7df8d2f4b29a5af06bc6b98970d329d6577826040518080602001838152602001828103825260108152602001807f627573696e657373526174696e673a20000000000000000000000000000000008152506020019250505060405180910390a1612acf858585613066565b612ad9848361319a565b612ae4858585613253565b612aee8685613464565b612af9858585613702565b612b05868686866139b1565b8373ffffffffffffffffffffffffffffffffffffffff168573ffffffffffffffffffffffffffffffffffffffff168773ffffffffffffffffffffffffffffffffffffffff167fefacfbc0fb9802faf88a34c9a029ab7a5c59b0681e8a310fd991f8cd88617b33868686604051808481526020018381526020018260001916600019168152602001935050505060405180910390a4505050505050565b6000601060009054906101000a900473ffffffffffffffffffffffffffffffffffffffff1673ffffffffffffffffffffffffffffffffffffffff163373ffffffffffffffffffffffffffffffffffffffff16141515612bff57600080fd5b600090505b82829050811015612c9e576001601d60008585858181101515612c2357fe5b9050602002013573ffffffffffffffffffffffffffffffffffffffff1673ffffffffffffffffffffffffffffffffffffffff1673ffffffffffffffffffffffffffffffffffffffff16815260200190815260200160002060006101000a81548160ff0219169083151502179055508080600101915050612c04565b505050565b6000601060009054906101000a900473ffffffffffffffffffffffffffffffffffffffff1673ffffffffffffffffffffffffffffffffffffffff163373ffffffffffffffffffffffffffffffffffffffff16141515612d0157600080fd5b600090505b82829050811015612da0576000601d60008585858181101515612d2557fe5b9050602002013573ffffffffffffffffffffffffffffffffffffffff1673ffffffffffffffffffffffffffffffffffffffff1673ffffffffffffffffffffffffffffffffffffffff16815260200190815260200160002060006101000a81548160ff0219169083151502179055508080600101915050612d06565b505050565b80601e60008473ffffffffffffffffffffffffffffffffffffffff1673ffffffffffffffffffffffffffffffffffffffff168152602001908152602001600020906005612df3929190614441565b505050565b60046020528160005260406000206020528060005260406000206000915091509054906101000a900460ff1681565b601d6020528060005260406000206000915054906101000a900460ff1681565b601060009054906101000a900473ffffffffffffffffffffffffffffffffffffffff1673ffffffffffffffffffffffffffffffffffffffff163373ffffffffffffffffffffffffffffffffffffffff16141515612ea357600080fd5b612eac81613a3b565b50565b600080601260008473ffffffffffffffffffffffffffffffffffffffff1673ffffffffffffffffffffffffffffffffffffffff16815260200190815260200160002090508060050160008573ffffffffffffffffffffffffffffffffffffffff1673ffffffffffffffffffffffffffffffffffffffff1681526020019081526020016000205491505092915050565b6000601460060160008373ffffffffffffffffffffffffffffffffffffffff1673ffffffffffffffffffffffffffffffffffffffff168152602001908152602001600020549050919050565b600260205281600052604060002081815481101515612fa557fe5b906000526020600020016000915091509054906101000a900473ffffffffffffffffffffffffffffffffffffffff1681565b600080601360008473ffffffffffffffffffffffffffffffffffffffff1673ffffffffffffffffffffffffffffffffffffffff16815260200190815260200160002090508060050160008573ffffffffffffffffffffffffffffffffffffffff1673ffffffffffffffffffffffffffffffffffffffff1681526020019081526020016000205491505092915050565b60018110806130755750600581115b1561307f57613195565b6001600b60008473ffffffffffffffffffffffffffffffffffffffff1673ffffffffffffffffffffffffffffffffffffffff16815260200190815260200160002060008573ffffffffffffffffffffffffffffffffffffffff1673ffffffffffffffffffffffffffffffffffffffff1681526020019081526020016000206000828254019250508190555080600a60008473ffffffffffffffffffffffffffffffffffffffff1673ffffffffffffffffffffffffffffffffffffffff16815260200190815260200160002060008573ffffffffffffffffffffffffffffffffffffffff1673ffffffffffffffffffffffffffffffffffffffff168152602001908152602001600020600082825401925050819055505b505050565b60018110806131a95750600581115b156131b35761324f565b6001600960008473ffffffffffffffffffffffffffffffffffffffff1673ffffffffffffffffffffffffffffffffffffffff1681526020019081526020016000206000828254019250508190555080600860008473ffffffffffffffffffffffffffffffffffffffff1673ffffffffffffffffffffffffffffffffffffffff168152602001908152602001600020600082825401925050819055505b5050565b600080601e60008573ffffffffffffffffffffffffffffffffffffffff1673ffffffffffffffffffffffffffffffffffffffff168152602001908152602001600020915081600184036005811015156132a857fe5b0154905060008114156132ba5761345d565b601160009054906101000a900473ffffffffffffffffffffffffffffffffffffffff1673ffffffffffffffffffffffffffffffffffffffff166323b872dd8587846040518463ffffffff167c0100000000000000000000000000000000000000000000000000000000028152600401808473ffffffffffffffffffffffffffffffffffffffff1673ffffffffffffffffffffffffffffffffffffffff1681526020018373ffffffffffffffffffffffffffffffffffffffff1673ffffffffffffffffffffffffffffffffffffffff1681526020018281526020019350505050602060405180830381600087803b1580156133b357600080fd5b505af11580156133c7573d6000803e3d6000fd5b505050506040513d60208110156133dd57600080fd5b8101908080519060200190929190505050508373ffffffffffffffffffffffffffffffffffffffff168573ffffffffffffffffffffffffffffffffffffffff167f8066b7cc2c24b344ba3883c32d52f19c0a07e0e8ed01314508387a03b2be35078584604051808381526020018281526020019250505060405180910390a35b5050505050565b6000806000601260008573ffffffffffffffffffffffffffffffffffffffff1673ffffffffffffffffffffffffffffffffffffffff16815260200190815260200160002092508260070160008673ffffffffffffffffffffffffffffffffffffffff1673ffffffffffffffffffffffffffffffffffffffff1681526020019081526020016000205491506134f88386613b37565b60008360050160008773ffffffffffffffffffffffffffffffffffffffff1673ffffffffffffffffffffffffffffffffffffffff1681526020019081526020016000205414156136fb57826003018281548110151561355357fe5b90600052602060002001549050601160009054906101000a900473ffffffffffffffffffffffffffffffffffffffff1673ffffffffffffffffffffffffffffffffffffffff166323b872dd8587846040518463ffffffff167c0100000000000000000000000000000000000000000000000000000000028152600401808473ffffffffffffffffffffffffffffffffffffffff1673ffffffffffffffffffffffffffffffffffffffff1681526020018373ffffffffffffffffffffffffffffffffffffffff1673ffffffffffffffffffffffffffffffffffffffff1681526020018281526020019350505050602060405180830381600087803b15801561365957600080fd5b505af115801561366d573d6000803e3d6000fd5b505050506040513d602081101561368357600080fd5b8101908080519060200190929190505050508373ffffffffffffffffffffffffffffffffffffffff168573ffffffffffffffffffffffffffffffffffffffff167f5a09eab88e066ba36b0e966c6f58a1112bec8eee253aad9e63dbdb6c65ece8bd836040518082815260200191505060405180910390a35b5050505050565b6000806000600584141515613716576139a9565b601360008673ffffffffffffffffffffffffffffffffffffffff1673ffffffffffffffffffffffffffffffffffffffff16815260200190815260200160002092508260070160008773ffffffffffffffffffffffffffffffffffffffff1673ffffffffffffffffffffffffffffffffffffffff1681526020019081526020016000205491506137a58387613b37565b60008360050160008873ffffffffffffffffffffffffffffffffffffffff1673ffffffffffffffffffffffffffffffffffffffff1681526020019081526020016000205414156139a857826003018281548110151561380057fe5b90600052602060002001549050601160009054906101000a900473ffffffffffffffffffffffffffffffffffffffff1673ffffffffffffffffffffffffffffffffffffffff166323b872dd8688846040518463ffffffff167c0100000000000000000000000000000000000000000000000000000000028152600401808473ffffffffffffffffffffffffffffffffffffffff1673ffffffffffffffffffffffffffffffffffffffff1681526020018373ffffffffffffffffffffffffffffffffffffffff1673ffffffffffffffffffffffffffffffffffffffff1681526020018281526020019350505050602060405180830381600087803b15801561390657600080fd5b505af115801561391a573d6000803e3d6000fd5b505050506040513d602081101561393057600080fd5b8101908080519060200190929190505050508473ffffffffffffffffffffffffffffffffffffffff168673ffffffffffffffffffffffffffffffffffffffff167f2fc7ba242568d1b533c6e109f5d4bcd46b30e66bc4bcea519ab1e1254b06b0f2836040518082815260200191505060405180910390a35b5b505050505050565b60001515601d60008473ffffffffffffffffffffffffffffffffffffffff1673ffffffffffffffffffffffffffffffffffffffff16815260200190815260200160002060009054906101000a900460ff1615151415613a0f57613a35565b613a1884613ec0565b6005811415613a2b57613a2a83614128565b5b613a3482614390565b5b50505050565b600073ffffffffffffffffffffffffffffffffffffffff168173ffffffffffffffffffffffffffffffffffffffff1614151515613a7757600080fd5b8073ffffffffffffffffffffffffffffffffffffffff16601060009054906101000a900473ffffffffffffffffffffffffffffffffffffffff1673ffffffffffffffffffffffffffffffffffffffff167f8be0079c531659141344cd1fd0a4f28419497f9722a3daafe3b4186f6b6457e060405160405180910390a380601060006101000a81548173ffffffffffffffffffffffffffffffffffffffff021916908373ffffffffffffffffffffffffffffffffffffffff16021790555050565b60008060008060018660050160008773ffffffffffffffffffffffffffffffffffffffff1673ffffffffffffffffffffffffffffffffffffffff168152602001908152602001600020540193508560000154841415613e675760008660050160008773ffffffffffffffffffffffffffffffffffffffff1673ffffffffffffffffffffffffffffffffffffffff1681526020019081526020016000208190555060018660060160008773ffffffffffffffffffffffffffffffffffffffff1673ffffffffffffffffffffffffffffffffffffffff168152602001908152602001600020540192508560070160008673ffffffffffffffffffffffffffffffffffffffff1673ffffffffffffffffffffffffffffffffffffffff1681526020019081526020016000205491508560010182815481101515613c7357fe5b9060005260206000200154831415613e115760008660060160008773ffffffffffffffffffffffffffffffffffffffff1673ffffffffffffffffffffffffffffffffffffffff1681526020019081526020016000208190555060018660070160008773ffffffffffffffffffffffffffffffffffffffff1673ffffffffffffffffffffffffffffffffffffffff168152602001908152602001600020540190508560020154811415613dbb5760008660070160008773ffffffffffffffffffffffffffffffffffffffff1673ffffffffffffffffffffffffffffffffffffffff1681526020019081526020016000208190555060018660080160008773ffffffffffffffffffffffffffffffffffffffff1673ffffffffffffffffffffffffffffffffffffffff16815260200190815260200160002060008282540192505081905550613e0c565b60018660070160008773ffffffffffffffffffffffffffffffffffffffff1673ffffffffffffffffffffffffffffffffffffffff168152602001908152602001600020600082825401925050819055505b613e62565b60018660060160008773ffffffffffffffffffffffffffffffffffffffff1673ffffffffffffffffffffffffffffffffffffffff168152602001908152602001600020600082825401925050819055505b613eb8565b60018660050160008773ffffffffffffffffffffffffffffffffffffffff1673ffffffffffffffffffffffffffffffffffffffff168152602001908152602001600020600082825401925050819055505b505050505050565b600080601460070160008473ffffffffffffffffffffffffffffffffffffffff1673ffffffffffffffffffffffffffffffffffffffff168152602001908152602001600020549150613f13601484613b37565b6000601460050160008573ffffffffffffffffffffffffffffffffffffffff1673ffffffffffffffffffffffffffffffffffffffff16815260200190815260200160002054141561412357601460030182815481101515613f7057fe5b90600052602060002001549050601160009054906101000a900473ffffffffffffffffffffffffffffffffffffffff1673ffffffffffffffffffffffffffffffffffffffff166323b872dd601060009054906101000a900473ffffffffffffffffffffffffffffffffffffffff1685846040518463ffffffff167c0100000000000000000000000000000000000000000000000000000000028152600401808473ffffffffffffffffffffffffffffffffffffffff1673ffffffffffffffffffffffffffffffffffffffff1681526020018373ffffffffffffffffffffffffffffffffffffffff1673ffffffffffffffffffffffffffffffffffffffff1681526020018281526020019350505050602060405180830381600087803b15801561409857600080fd5b505af11580156140ac573d6000803e3d6000fd5b505050506040513d60208110156140c257600080fd5b8101908080519060200190929190505050508273ffffffffffffffffffffffffffffffffffffffff167f3676827ad9f7dfeea31058476c87811083368ef83009fb4d5f6547059cf4991b826040518082815260200191505060405180910390a25b505050565b600080601460070160008473ffffffffffffffffffffffffffffffffffffffff1673ffffffffffffffffffffffffffffffffffffffff16815260200190815260200160002054915061417b601484613b37565b6000601460050160008573ffffffffffffffffffffffffffffffffffffffff1673ffffffffffffffffffffffffffffffffffffffff16815260200190815260200160002054141561438b576014600301828154811015156141d857fe5b90600052602060002001549050601160009054906101000a900473ffffffffffffffffffffffffffffffffffffffff1673ffffffffffffffffffffffffffffffffffffffff166323b872dd601060009054906101000a900473ffffffffffffffffffffffffffffffffffffffff1685846040518463ffffffff167c0100000000000000000000000000000000000000000000000000000000028152600401808473ffffffffffffffffffffffffffffffffffffffff1673ffffffffffffffffffffffffffffffffffffffff1681526020018373ffffffffffffffffffffffffffffffffffffffff1673ffffffffffffffffffffffffffffffffffffffff1681526020018281526020019350505050602060405180830381600087803b15801561430057600080fd5b505af1158015614314573d6000803e3d6000fd5b505050506040513d602081101561432a57600080fd5b8101908080519060200190929190505050508273ffffffffffffffffffffffffffffffffffffffff167fd3d0f02b2cfb04d8905203795f3095736179332a8c2f956efe9e6cb952caea96826040518082815260200191505060405180910390a25b505050565b61439b601482613b37565b50565b8280548282559060005260206000209081019282156143da579160200282015b828111156143d95782518255916020019190600101906143be565b5b5090506143e79190614481565b5090565b60a06040519081016040528060008152602001606081526020016000815260200160608152602001600080191681525090565b60a060405190810160405280600590602082028038833980820191505090505090565b8260058101928215614470579160200282015b8281111561446f578251825591602001919060010190614454565b5b50905061447d9190614481565b5090565b6144a391905b8082111561449f576000816000905550600101614487565b5090565b905600a165627a7a723058208942181dfdad8c6323ebb9e62235431657367d327636e078ee2611aef97e37e40029",
  "source": "pragma solidity ^0.4.24;\n\nimport './BoomerangActor.sol';\nimport './rewards/BoomerangRewards.sol';\n\ncontract BoomerangRateExperience is BoomerangActor, BoomerangRewards {\n\n  event BoomerangExperienceRating(  address indexed _userAddress,\n                          address indexed _workerAddress,\n                          address indexed _businessAddress,\n                          uint256 _workerRating,\n                          uint256 _businessRating,\n                          bytes32 _ipfsHash);\n\n    // add: 'withCorrectSignature(_businessAddress, _userId, _v, _r, _s)'\n  //                            uint8 _v, bytes32 _r, bytes32 _s, bytes32 _userId,\n\n  function rateBoomerangExperience(  address _userAddress,\n                            address _workerAddress,\n                            address _businessAddress,\n                            uint256 _workerRating,\n                            uint256 _businessRating,\n                            bytes32 _ipfsHash)\n  public {\n\n    emit Debug('workerRating: ', _workerRating);\n    emit Debug('businessRating: ', _businessRating);\n\n    updateWorkerRating(_workerAddress, _businessAddress, _workerRating);\n    updateBusinessRating(_businessAddress, _businessRating);\n\n    rewardWorker(_workerAddress, _businessAddress, _workerRating);\n\n    updateUserRewardProgress(_userAddress, _businessAddress);\n    updateWorkerRewardProgress(_workerAddress, _businessAddress, _workerRating);\n    updateGrowthPoolRewardProgress(_userAddress, _workerAddress, _businessAddress, _workerRating);\n\n    emit BoomerangExperienceRating(_userAddress, _workerAddress, _businessAddress, _workerRating, _businessRating, _ipfsHash);\n  }\n\n  function updateBusinessRating(address _businessAddress, uint256 _businessRating) internal {\n\n    if (_businessRating < 1 || _businessRating > 5) {\n      return;\n    }\n\n    numberOfBusinessRatings[_businessAddress] += 1;\n    businessRatingsSum[_businessAddress] += _businessRating;\n  }\n\n  function updateWorkerRating(address _workerAddress, address _businessAddress, uint256 _workerRating) internal {\n\n    if (_workerRating < 1 || _workerRating > 5) {\n      return;\n    }\n\n    numberOfWorkerRatings[_businessAddress][_workerAddress] += 1;\n    workerRatingsSum[_businessAddress][_workerAddress] += _workerRating;\n  }\n}",
  "sourcePath": "/Users/panda/projects/boomerang/packages/boomerang-contracts/contracts/BoomerangRateExperience.sol",
  "compiler": {
    "name": "solc",
    "version": "0.4.24+commit.e67f0147.Emscripten.clang"
  },
  "schemaVersion": "2.0.1",
  "updatedAt": "2018-08-03T15:53:20.870Z"
}