{
  "contractName": "BoomerangGrowthPoolRewardSystem",
  "abi": [
    {
      "constant": true,
      "inputs": [],
      "name": "growthPoolRewardSystem",
      "outputs": [
        {
          "name": "numberOfRewardSteps",
          "type": "uint256"
        },
        {
          "name": "numberOfRewardLevels",
          "type": "uint256"
        },
        {
          "name": "ipfsHash",
          "type": "bytes32"
        }
      ],
      "payable": false,
      "stateMutability": "view",
      "type": "function"
    },
    {
      "constant": false,
      "inputs": [],
      "name": "renounceOwnership",
      "outputs": [],
      "payable": false,
      "stateMutability": "nonpayable",
      "type": "function"
    },
    {
      "constant": true,
      "inputs": [],
      "name": "owner",
      "outputs": [
        {
          "name": "",
          "type": "address"
        }
      ],
      "payable": false,
      "stateMutability": "view",
      "type": "function"
    },
    {
      "constant": true,
      "inputs": [],
      "name": "boomerangToken",
      "outputs": [
        {
          "name": "",
          "type": "address"
        }
      ],
      "payable": false,
      "stateMutability": "view",
      "type": "function"
    },
    {
      "constant": true,
      "inputs": [
        {
          "name": "",
          "type": "address"
        }
      ],
      "name": "growthPoolBusiness",
      "outputs": [
        {
          "name": "",
          "type": "bool"
        }
      ],
      "payable": false,
      "stateMutability": "view",
      "type": "function"
    },
    {
      "constant": false,
      "inputs": [
        {
          "name": "_newOwner",
          "type": "address"
        }
      ],
      "name": "transferOwnership",
      "outputs": [],
      "payable": false,
      "stateMutability": "nonpayable",
      "type": "function"
    },
    {
      "anonymous": false,
      "inputs": [],
      "name": "RegisterGrowthPoolRewardSystem",
      "type": "event"
    },
    {
      "anonymous": false,
      "inputs": [
        {
          "indexed": true,
          "name": "_userAddress",
          "type": "address"
        },
        {
          "indexed": false,
          "name": "_rewardValue",
          "type": "uint256"
        }
      ],
      "name": "GrowthPoolRewardForUser",
      "type": "event"
    },
    {
      "anonymous": false,
      "inputs": [
        {
          "indexed": true,
          "name": "_workerAddress",
          "type": "address"
        },
        {
          "indexed": false,
          "name": "_rewardValue",
          "type": "uint256"
        }
      ],
      "name": "GrowthPoolRewardForWorker",
      "type": "event"
    },
    {
      "anonymous": false,
      "inputs": [
        {
          "indexed": true,
          "name": "_businessAddress",
          "type": "address"
        },
        {
          "indexed": false,
          "name": "_rewardValue",
          "type": "uint256"
        }
      ],
      "name": "GrowthPoolRewardForBusiness",
      "type": "event"
    },
    {
      "anonymous": false,
      "inputs": [
        {
          "indexed": false,
          "name": "_id",
          "type": "string"
        },
        {
          "indexed": false,
          "name": "_arg",
          "type": "uint256"
        }
      ],
      "name": "Debug",
      "type": "event"
    },
    {
      "anonymous": false,
      "inputs": [
        {
          "indexed": true,
          "name": "previousOwner",
          "type": "address"
        }
      ],
      "name": "OwnershipRenounced",
      "type": "event"
    },
    {
      "anonymous": false,
      "inputs": [
        {
          "indexed": true,
          "name": "previousOwner",
          "type": "address"
        },
        {
          "indexed": true,
          "name": "newOwner",
          "type": "address"
        }
      ],
      "name": "OwnershipTransferred",
      "type": "event"
    },
    {
      "constant": false,
      "inputs": [
        {
          "name": "_numberOfRewardSteps",
          "type": "uint256"
        },
        {
          "name": "_numberOfRewardCyclesForLevel",
          "type": "uint256[]"
        },
        {
          "name": "_numberOfRewardLevels",
          "type": "uint256"
        },
        {
          "name": "_levelRewards",
          "type": "uint256[]"
        },
        {
          "name": "_ipfsHash",
          "type": "bytes32"
        }
      ],
      "name": "registerGrowthPoolRewardSystem",
      "outputs": [],
      "payable": false,
      "stateMutability": "nonpayable",
      "type": "function"
    },
    {
      "constant": false,
      "inputs": [
        {
          "name": "businesses",
          "type": "address[]"
        }
      ],
      "name": "addBusinessesToGrowthPoolRewardsSystem",
      "outputs": [],
      "payable": false,
      "stateMutability": "nonpayable",
      "type": "function"
    },
    {
      "constant": false,
      "inputs": [
        {
          "name": "businesses",
          "type": "address[]"
        }
      ],
      "name": "removeBusinessesFromGrowthPoolRewardsSystem",
      "outputs": [],
      "payable": false,
      "stateMutability": "nonpayable",
      "type": "function"
    },
    {
      "constant": true,
      "inputs": [],
      "name": "getGrowthPoolRewardSystem",
      "outputs": [
        {
          "name": "_numberOfRewardSteps",
          "type": "uint256"
        },
        {
          "name": "_numberOfRewardCyclesForLevel",
          "type": "uint256[]"
        },
        {
          "name": "_numberOfRewardLevels",
          "type": "uint256"
        },
        {
          "name": "_levelRewards",
          "type": "uint256[]"
        },
        {
          "name": "_ipfsHash",
          "type": "bytes32"
        }
      ],
      "payable": false,
      "stateMutability": "view",
      "type": "function"
    },
    {
      "constant": true,
      "inputs": [
        {
          "name": "_address",
          "type": "address"
        }
      ],
      "name": "getGrowthPoolRewardStep",
      "outputs": [
        {
          "name": "_rewardStep",
          "type": "uint256"
        }
      ],
      "payable": false,
      "stateMutability": "view",
      "type": "function"
    },
    {
      "constant": true,
      "inputs": [
        {
          "name": "_address",
          "type": "address"
        }
      ],
      "name": "getGrowthPoolRewardCycle",
      "outputs": [
        {
          "name": "_rewardCycle",
          "type": "uint256"
        }
      ],
      "payable": false,
      "stateMutability": "view",
      "type": "function"
    },
    {
      "constant": true,
      "inputs": [
        {
          "name": "_address",
          "type": "address"
        }
      ],
      "name": "getGrowthPoolRewardLevel",
      "outputs": [
        {
          "name": "_rewardLevel",
          "type": "uint256"
        }
      ],
      "payable": false,
      "stateMutability": "view",
      "type": "function"
    },
    {
      "constant": true,
      "inputs": [
        {
          "name": "_address",
          "type": "address"
        }
      ],
      "name": "getGrowthPoolRewardRank",
      "outputs": [
        {
          "name": "_rewardRank",
          "type": "uint256"
        }
      ],
      "payable": false,
      "stateMutability": "view",
      "type": "function"
    }
  ],
  "bytecode": "0x6080604052336000806101000a81548173ffffffffffffffffffffffffffffffffffffffff021916908373ffffffffffffffffffffffffffffffffffffffff160217905550610e8e806100536000396000f3006080604052600436106100d0576000357c0100000000000000000000000000000000000000000000000000000000900463ffffffff16806303d7c87d146100d557806319268566146101a05780631c946952146101f7578063715018a6146102385780638da5cb5b1461024f5780639d0696ed146102a6578063a0a6b771146102fd578063b0106aa314610354578063c304c93b14610425578063d656790f1461047c578063d8fb8c1f146104b7578063e5d87e76146104f2578063f2fde38b1461054d578063f776757b14610590575b600080fd5b3480156100e157600080fd5b5061019e6004803603810190808035906020019092919080359060200190820180359060200190808060200260200160405190810160405280939291908181526020018383602002808284378201915050505050509192919290803590602001909291908035906020019082018035906020019080806020026020016040519081016040528093929190818152602001838360200280828437820191505050505050919291929080356000191690602001909291905050506105e7565b005b3480156101ac57600080fd5b506101e1600480360381019080803573ffffffffffffffffffffffffffffffffffffffff169060200190929190505050610704565b6040518082815260200191505060405180910390f35b34801561020357600080fd5b5061020c610750565b604051808481526020018381526020018260001916600019168152602001935050505060405180910390f35b34801561024457600080fd5b5061024d610768565b005b34801561025b57600080fd5b5061026461086a565b604051808273ffffffffffffffffffffffffffffffffffffffff1673ffffffffffffffffffffffffffffffffffffffff16815260200191505060405180910390f35b3480156102b257600080fd5b506102bb61088f565b604051808273ffffffffffffffffffffffffffffffffffffffff1673ffffffffffffffffffffffffffffffffffffffff16815260200191505060405180910390f35b34801561030957600080fd5b5061033e600480360381019080803573ffffffffffffffffffffffffffffffffffffffff1690602001909291905050506108b5565b6040518082815260200191505060405180910390f35b34801561036057600080fd5b50610369610901565b6040518086815260200180602001858152602001806020018460001916600019168152602001838103835287818151815260200191508051906020019060200280838360005b838110156103ca5780820151818401526020810190506103af565b50505050905001838103825285818151815260200191508051906020019060200280838360005b8381101561040c5780820151818401526020810190506103f1565b5050505090500197505050505050505060405180910390f35b34801561043157600080fd5b50610466600480360381019080803573ffffffffffffffffffffffffffffffffffffffff1690602001909291905050506109d5565b6040518082815260200191505060405180910390f35b34801561048857600080fd5b506104b5600480360381019080803590602001908201803590602001919091929391929390505050610a21565b005b3480156104c357600080fd5b506104f0600480360381019080803590602001908201803590602001919091929391929390505050610b22565b005b3480156104fe57600080fd5b50610533600480360381019080803573ffffffffffffffffffffffffffffffffffffffff169060200190929190505050610c23565b604051808215151515815260200191505060405180910390f35b34801561055957600080fd5b5061058e600480360381019080803573ffffffffffffffffffffffffffffffffffffffff169060200190929190505050610c43565b005b34801561059c57600080fd5b506105d1600480360381019080803573ffffffffffffffffffffffffffffffffffffffff169060200190929190505050610caa565b6040518082815260200191505060405180910390f35b6000809054906101000a900473ffffffffffffffffffffffffffffffffffffffff1673ffffffffffffffffffffffffffffffffffffffff163373ffffffffffffffffffffffffffffffffffffffff1614151561064257600080fd5b60a06040519081016040528086815260200185815260200184815260200183815260200182600019168152506002600082015181600001556020820151816001019080519060200190610696929190610df0565b506040820151816002015560608201518160030190805190602001906106bd929190610df0565b50608082015181600401906000191690559050507fcecb7f2a433f872143ebb31ebe6bc5cd169e6a657bc645805e460bf08188818960405160405180910390a15050505050565b6000600260080160008373ffffffffffffffffffffffffffffffffffffffff1673ffffffffffffffffffffffffffffffffffffffff168152602001908152602001600020549050919050565b60028060000154908060020154908060040154905083565b6000809054906101000a900473ffffffffffffffffffffffffffffffffffffffff1673ffffffffffffffffffffffffffffffffffffffff163373ffffffffffffffffffffffffffffffffffffffff161415156107c357600080fd5b6000809054906101000a900473ffffffffffffffffffffffffffffffffffffffff1673ffffffffffffffffffffffffffffffffffffffff167ff8df31144d9c2f0f6b59d69b8b98abd5459d07f2742c4df920b25aae33c6482060405160405180910390a260008060006101000a81548173ffffffffffffffffffffffffffffffffffffffff021916908373ffffffffffffffffffffffffffffffffffffffff160217905550565b6000809054906101000a900473ffffffffffffffffffffffffffffffffffffffff1681565b600160009054906101000a900473ffffffffffffffffffffffffffffffffffffffff1681565b6000600260070160008373ffffffffffffffffffffffffffffffffffffffff1673ffffffffffffffffffffffffffffffffffffffff168152602001908152602001600020549050919050565b600060606000606060006002600001549450600260010180548060200260200160405190810160405280929190818152602001828054801561096257602002820191906000526020600020905b81548152602001906001019080831161094e575b505050505093506002800154925060026003018054806020026020016040519081016040528092919081815260200182805480156109bf57602002820191906000526020600020905b8154815260200190600101908083116109ab575b5050505050915060026004015490509091929394565b6000600260050160008373ffffffffffffffffffffffffffffffffffffffff1673ffffffffffffffffffffffffffffffffffffffff168152602001908152602001600020549050919050565b60008060009054906101000a900473ffffffffffffffffffffffffffffffffffffffff1673ffffffffffffffffffffffffffffffffffffffff163373ffffffffffffffffffffffffffffffffffffffff16141515610a7e57600080fd5b600090505b82829050811015610b1d576001600b60008585858181101515610aa257fe5b9050602002013573ffffffffffffffffffffffffffffffffffffffff1673ffffffffffffffffffffffffffffffffffffffff1673ffffffffffffffffffffffffffffffffffffffff16815260200190815260200160002060006101000a81548160ff0219169083151502179055508080600101915050610a83565b505050565b60008060009054906101000a900473ffffffffffffffffffffffffffffffffffffffff1673ffffffffffffffffffffffffffffffffffffffff163373ffffffffffffffffffffffffffffffffffffffff16141515610b7f57600080fd5b600090505b82829050811015610c1e576000600b60008585858181101515610ba357fe5b9050602002013573ffffffffffffffffffffffffffffffffffffffff1673ffffffffffffffffffffffffffffffffffffffff1673ffffffffffffffffffffffffffffffffffffffff16815260200190815260200160002060006101000a81548160ff0219169083151502179055508080600101915050610b84565b505050565b600b6020528060005260406000206000915054906101000a900460ff1681565b6000809054906101000a900473ffffffffffffffffffffffffffffffffffffffff1673ffffffffffffffffffffffffffffffffffffffff163373ffffffffffffffffffffffffffffffffffffffff16141515610c9e57600080fd5b610ca781610cf6565b50565b6000600260060160008373ffffffffffffffffffffffffffffffffffffffff1673ffffffffffffffffffffffffffffffffffffffff168152602001908152602001600020549050919050565b600073ffffffffffffffffffffffffffffffffffffffff168173ffffffffffffffffffffffffffffffffffffffff1614151515610d3257600080fd5b8073ffffffffffffffffffffffffffffffffffffffff166000809054906101000a900473ffffffffffffffffffffffffffffffffffffffff1673ffffffffffffffffffffffffffffffffffffffff167f8be0079c531659141344cd1fd0a4f28419497f9722a3daafe3b4186f6b6457e060405160405180910390a3806000806101000a81548173ffffffffffffffffffffffffffffffffffffffff021916908373ffffffffffffffffffffffffffffffffffffffff16021790555050565b828054828255906000526020600020908101928215610e2c579160200282015b82811115610e2b578251825591602001919060010190610e10565b5b509050610e399190610e3d565b5090565b610e5f91905b80821115610e5b576000816000905550600101610e43565b5090565b905600a165627a7a72305820e232395283bcc1d6c400c0d5c7acf995880900b581dc66f04894fab64d9ccbca0029",
  "source": "pragma solidity ^0.4.24;\n\nimport './BoomerangRewardSystem.sol';\n\ncontract BoomerangGrowthPoolRewardSystem is BoomerangRewardSystem {\n\n  event RegisterGrowthPoolRewardSystem();\n  event GrowthPoolRewardForUser(address indexed _userAddress, uint256 _rewardValue);\n  event GrowthPoolRewardForWorker(address indexed _workerAddress, uint256 _rewardValue);\n  event GrowthPoolRewardForBusiness(address indexed _businessAddress, uint256 _rewardValue);\n\n  RewardSystem public growthPoolRewardSystem;\n  mapping (address => bool) public growthPoolBusiness;\n\n  function registerGrowthPoolRewardSystem(uint256 _numberOfRewardSteps, uint256[] _numberOfRewardCyclesForLevel, uint256 _numberOfRewardLevels, uint256[] _levelRewards, bytes32 _ipfsHash) public onlyOwner {\n\n    growthPoolRewardSystem = RewardSystem(_numberOfRewardSteps, _numberOfRewardCyclesForLevel, _numberOfRewardLevels, _levelRewards, _ipfsHash);\n    emit RegisterGrowthPoolRewardSystem();\n  }\n\n  function updateGrowthPoolRewardProgress(address _userAddress, address _workerAddress, address _businessAddress, uint256 _workerRating) internal {\n\n    if (growthPoolBusiness[_businessAddress] == false) {\n      return;\n    }\n\n    updateGrowthPoolRewardProgressForUser(_userAddress);\n\n    if (_workerRating == 5) {\n      updateGrowthPoolRewardProgressForWorker(_workerAddress);\n    }\n\n    updateGrowthPoolRewardProgressForBusiness(_businessAddress);\n  }\n\n  function updateGrowthPoolRewardProgressForUser(address _userAddress) internal {\n\n    uint256 userRewardLevel = growthPoolRewardSystem.rewardLevel[_userAddress];\n    incrementRewardProgress(growthPoolRewardSystem, _userAddress);\n\n    if (growthPoolRewardSystem.rewardStep[_userAddress] == 0) {\n      uint256 rewardValue = growthPoolRewardSystem.levelRewards[userRewardLevel];\n      boomerangToken.transferFrom(owner, _userAddress, rewardValue);\n      emit GrowthPoolRewardForUser(_userAddress, rewardValue);\n    }\n  }\n\n\n  function updateGrowthPoolRewardProgressForWorker(address _workerAddress) internal {\n\n    uint256 workerRewardLevel = growthPoolRewardSystem.rewardLevel[_workerAddress];\n    incrementRewardProgress(growthPoolRewardSystem, _workerAddress);\n\n    if (growthPoolRewardSystem.rewardStep[_workerAddress] == 0) {\n      uint256 rewardValue = growthPoolRewardSystem.levelRewards[workerRewardLevel];\n      boomerangToken.transferFrom(owner, _workerAddress, rewardValue);\n      emit GrowthPoolRewardForWorker(_workerAddress, rewardValue);\n    }\n  }\n\n  function updateGrowthPoolRewardProgressForBusiness(address _businessAddress) internal {\n    incrementRewardProgress(growthPoolRewardSystem, _businessAddress);\n  }\n\n\n   function addBusinessesToGrowthPoolRewardsSystem(address[] businesses) external onlyOwner {\n      for (uint i = 0; i < businesses.length; i++) {\n         growthPoolBusiness[businesses[i]] = true;\n      }\n   }\n\n   function removeBusinessesFromGrowthPoolRewardsSystem(address[] businesses) external onlyOwner {\n      for (uint i = 0; i < businesses.length; i++) {\n         growthPoolBusiness[businesses[i]] = false;\n      }\n   }\n\n  function getGrowthPoolRewardSystem() public view returns (uint256 _numberOfRewardSteps, uint256[] _numberOfRewardCyclesForLevel, uint256 _numberOfRewardLevels, uint256[] _levelRewards, bytes32 _ipfsHash) {\n\n    _numberOfRewardSteps = growthPoolRewardSystem.numberOfRewardSteps;\n    _numberOfRewardCyclesForLevel = growthPoolRewardSystem.numberOfRewardCyclesForLevel;\n    _numberOfRewardLevels = growthPoolRewardSystem.numberOfRewardLevels;\n    _levelRewards = growthPoolRewardSystem.levelRewards;\n    _ipfsHash = growthPoolRewardSystem.ipfsHash;\n  }\n\n  function getGrowthPoolRewardStep(address _address) public view returns (uint256 _rewardStep) {\n\n    _rewardStep = growthPoolRewardSystem.rewardStep[_address];\n  }\n\n  function getGrowthPoolRewardCycle(address _address) public view returns (uint256 _rewardCycle) {\n\n    _rewardCycle = growthPoolRewardSystem.rewardCycle[_address];\n  }\n\n  function getGrowthPoolRewardLevel(address _address) public view returns (uint256 _rewardLevel) {\n\n    _rewardLevel = growthPoolRewardSystem.rewardLevel[_address];\n  }\n\n  function getGrowthPoolRewardRank(address _address) public view returns (uint256 _rewardRank) {\n\n    _rewardRank = growthPoolRewardSystem.rewardRank[_address];\n  }\n}",
  "sourcePath": "/Users/panda/projects/boomerang/packages/boomerang-contracts/contracts/rewards/BoomerangGrowthPoolRewardSystem.sol",
  "compiler": {
    "name": "solc",
    "version": "0.4.24+commit.e67f0147.Emscripten.clang"
  },
  "schemaVersion": "2.0.1",
  "updatedAt": "2018-08-02T18:15:44.023Z"
}