{
  "contractName": "BoomerangWorker",
  "abi": [
    {
      "constant": true,
      "inputs": [
        {
          "name": "",
          "type": "address"
        },
        {
          "name": "",
          "type": "address"
        }
      ],
      "name": "businessHasApprovedWorker",
      "outputs": [
        {
          "name": "",
          "type": "bool"
        }
      ],
      "payable": false,
      "stateMutability": "view",
      "type": "function"
    },
    {
      "constant": true,
      "inputs": [
        {
          "name": "",
          "type": "address"
        },
        {
          "name": "",
          "type": "address"
        }
      ],
      "name": "numberOfWorkerRatings",
      "outputs": [
        {
          "name": "",
          "type": "uint256"
        }
      ],
      "payable": false,
      "stateMutability": "view",
      "type": "function"
    },
    {
      "constant": true,
      "inputs": [
        {
          "name": "",
          "type": "address"
        },
        {
          "name": "",
          "type": "uint256"
        }
      ],
      "name": "businessList",
      "outputs": [
        {
          "name": "",
          "type": "address"
        }
      ],
      "payable": false,
      "stateMutability": "view",
      "type": "function"
    },
    {
      "constant": true,
      "inputs": [
        {
          "name": "",
          "type": "address"
        }
      ],
      "name": "isBusiness",
      "outputs": [
        {
          "name": "",
          "type": "bool"
        }
      ],
      "payable": false,
      "stateMutability": "view",
      "type": "function"
    },
    {
      "constant": true,
      "inputs": [
        {
          "name": "",
          "type": "address"
        },
        {
          "name": "",
          "type": "address"
        }
      ],
      "name": "workerAverageRating",
      "outputs": [
        {
          "name": "",
          "type": "uint256"
        }
      ],
      "payable": false,
      "stateMutability": "view",
      "type": "function"
    },
    {
      "constant": true,
      "inputs": [
        {
          "name": "businessAddress",
          "type": "address"
        }
      ],
      "name": "getNumberOfWorkers",
      "outputs": [
        {
          "name": "count",
          "type": "uint256"
        }
      ],
      "payable": false,
      "stateMutability": "view",
      "type": "function"
    },
    {
      "constant": true,
      "inputs": [
        {
          "name": "",
          "type": "address"
        }
      ],
      "name": "isUser",
      "outputs": [
        {
          "name": "",
          "type": "bool"
        }
      ],
      "payable": false,
      "stateMutability": "view",
      "type": "function"
    },
    {
      "constant": true,
      "inputs": [
        {
          "name": "",
          "type": "address"
        },
        {
          "name": "",
          "type": "address"
        }
      ],
      "name": "isEmployed",
      "outputs": [
        {
          "name": "",
          "type": "bool"
        }
      ],
      "payable": false,
      "stateMutability": "view",
      "type": "function"
    },
    {
      "constant": true,
      "inputs": [
        {
          "name": "",
          "type": "address"
        }
      ],
      "name": "numberOfBusinessRatings",
      "outputs": [
        {
          "name": "",
          "type": "uint256"
        }
      ],
      "payable": false,
      "stateMutability": "view",
      "type": "function"
    },
    {
      "constant": true,
      "inputs": [
        {
          "name": "",
          "type": "address"
        }
      ],
      "name": "isWorker",
      "outputs": [
        {
          "name": "",
          "type": "bool"
        }
      ],
      "payable": false,
      "stateMutability": "view",
      "type": "function"
    },
    {
      "constant": true,
      "inputs": [
        {
          "name": "",
          "type": "address"
        }
      ],
      "name": "numberOfUserRatings",
      "outputs": [
        {
          "name": "",
          "type": "uint256"
        }
      ],
      "payable": false,
      "stateMutability": "view",
      "type": "function"
    },
    {
      "constant": true,
      "inputs": [
        {
          "name": "",
          "type": "address"
        },
        {
          "name": "",
          "type": "address"
        }
      ],
      "name": "workerHasApprovedBusiness",
      "outputs": [
        {
          "name": "",
          "type": "bool"
        }
      ],
      "payable": false,
      "stateMutability": "view",
      "type": "function"
    },
    {
      "constant": true,
      "inputs": [
        {
          "name": "",
          "type": "address"
        }
      ],
      "name": "businessAverageRating",
      "outputs": [
        {
          "name": "",
          "type": "uint256"
        }
      ],
      "payable": false,
      "stateMutability": "view",
      "type": "function"
    },
    {
      "constant": true,
      "inputs": [
        {
          "name": "",
          "type": "address"
        },
        {
          "name": "",
          "type": "uint256"
        }
      ],
      "name": "workerList",
      "outputs": [
        {
          "name": "",
          "type": "address"
        }
      ],
      "payable": false,
      "stateMutability": "view",
      "type": "function"
    },
    {
      "constant": true,
      "inputs": [
        {
          "name": "",
          "type": "address"
        }
      ],
      "name": "userAverageRating",
      "outputs": [
        {
          "name": "",
          "type": "uint256"
        }
      ],
      "payable": false,
      "stateMutability": "view",
      "type": "function"
    },
    {
      "anonymous": false,
      "inputs": [
        {
          "indexed": true,
          "name": "_workerAddress",
          "type": "address"
        },
        {
          "indexed": false,
          "name": "_ipfsHash",
          "type": "bytes32"
        }
      ],
      "name": "WorkerProfileUpdated",
      "type": "event"
    },
    {
      "anonymous": false,
      "inputs": [
        {
          "indexed": true,
          "name": "_workerAddress",
          "type": "address"
        },
        {
          "indexed": true,
          "name": "_businessAddress",
          "type": "address"
        }
      ],
      "name": "WorkerHasApprovedBusiness",
      "type": "event"
    },
    {
      "anonymous": false,
      "inputs": [
        {
          "indexed": true,
          "name": "_userAddress",
          "type": "address"
        },
        {
          "indexed": true,
          "name": "_workerAddress",
          "type": "address"
        },
        {
          "indexed": true,
          "name": "_businessAddress",
          "type": "address"
        },
        {
          "indexed": false,
          "name": "_userRating",
          "type": "uint256"
        },
        {
          "indexed": false,
          "name": "_ipfsHash",
          "type": "bytes32"
        }
      ],
      "name": "UserRating",
      "type": "event"
    },
    {
      "constant": false,
      "inputs": [
        {
          "name": "_workerAddress",
          "type": "address"
        },
        {
          "name": "_ipfsHash",
          "type": "bytes32"
        }
      ],
      "name": "registerAsWorker",
      "outputs": [],
      "payable": false,
      "stateMutability": "nonpayable",
      "type": "function"
    },
    {
      "constant": false,
      "inputs": [
        {
          "name": "_workerAddress",
          "type": "address"
        },
        {
          "name": "_ipfsHash",
          "type": "bytes32"
        }
      ],
      "name": "updateWorkerProfile",
      "outputs": [],
      "payable": false,
      "stateMutability": "nonpayable",
      "type": "function"
    },
    {
      "constant": false,
      "inputs": [
        {
          "name": "_workerAddress",
          "type": "address"
        },
        {
          "name": "_businessAddress",
          "type": "address"
        }
      ],
      "name": "addBusiness",
      "outputs": [],
      "payable": false,
      "stateMutability": "nonpayable",
      "type": "function"
    },
    {
      "constant": false,
      "inputs": [
        {
          "name": "_userAddress",
          "type": "address"
        },
        {
          "name": "_workerAddress",
          "type": "address"
        },
        {
          "name": "_businessAddress",
          "type": "address"
        },
        {
          "name": "_userRating",
          "type": "uint256"
        },
        {
          "name": "_ipfsHash",
          "type": "bytes32"
        }
      ],
      "name": "rateUser",
      "outputs": [],
      "payable": false,
      "stateMutability": "nonpayable",
      "type": "function"
    }
  ],
  "bytecode": "0x608060405234801561001057600080fd5b506111fb806100206000396000f300608060405260043610610107576000357c0100000000000000000000000000000000000000000000000000000000900463ffffffff168063067a09491461010c5780630e2be26614610187578063130ee376146101fe5780631466d0191461028b57806323d954dd146102e65780632f64550a146103375780632fccafb5146103ae5780634209fff114610405578063603fe1f8146104605780637b1d0c83146104c35780638ec666131461053e5780639708c61f146105d9578063aa15664514610630578063abd4e7ad1461068b578063b265c33d146106dc578063e336379314610733578063ec5df15a146107ae578063f901188814610805578063ffb3379314610892575b600080fd5b34801561011857600080fd5b5061016d600480360381019080803573ffffffffffffffffffffffffffffffffffffffff169060200190929190803573ffffffffffffffffffffffffffffffffffffffff1690602001909291905050506108e9565b604051808215151515815260200191505060405180910390f35b34801561019357600080fd5b506101e8600480360381019080803573ffffffffffffffffffffffffffffffffffffffff169060200190929190803573ffffffffffffffffffffffffffffffffffffffff169060200190929190505050610918565b6040518082815260200191505060405180910390f35b34801561020a57600080fd5b50610249600480360381019080803573ffffffffffffffffffffffffffffffffffffffff1690602001909291908035906020019092919050505061093d565b604051808273ffffffffffffffffffffffffffffffffffffffff1673ffffffffffffffffffffffffffffffffffffffff16815260200191505060405180910390f35b34801561029757600080fd5b506102cc600480360381019080803573ffffffffffffffffffffffffffffffffffffffff16906020019092919050505061098a565b604051808215151515815260200191505060405180910390f35b3480156102f257600080fd5b50610335600480360381019080803573ffffffffffffffffffffffffffffffffffffffff16906020019092919080356000191690602001909291905050506109aa565b005b34801561034357600080fd5b50610398600480360381019080803573ffffffffffffffffffffffffffffffffffffffff169060200190929190803573ffffffffffffffffffffffffffffffffffffffff169060200190929190505050610a04565b6040518082815260200191505060405180910390f35b3480156103ba57600080fd5b506103ef600480360381019080803573ffffffffffffffffffffffffffffffffffffffff169060200190929190505050610a29565b6040518082815260200191505060405180910390f35b34801561041157600080fd5b50610446600480360381019080803573ffffffffffffffffffffffffffffffffffffffff169060200190929190505050610a75565b604051808215151515815260200191505060405180910390f35b34801561046c57600080fd5b506104c1600480360381019080803573ffffffffffffffffffffffffffffffffffffffff169060200190929190803573ffffffffffffffffffffffffffffffffffffffff169060200190929190505050610a95565b005b3480156104cf57600080fd5b50610524600480360381019080803573ffffffffffffffffffffffffffffffffffffffff169060200190929190803573ffffffffffffffffffffffffffffffffffffffff169060200190929190505050610de3565b604051808215151515815260200191505060405180910390f35b34801561054a57600080fd5b506105d7600480360381019080803573ffffffffffffffffffffffffffffffffffffffff169060200190929190803573ffffffffffffffffffffffffffffffffffffffff169060200190929190803573ffffffffffffffffffffffffffffffffffffffff169060200190929190803590602001909291908035600019169060200190929190505050610e12565b005b3480156105e557600080fd5b5061061a600480360381019080803573ffffffffffffffffffffffffffffffffffffffff169060200190929190505050610fc2565b6040518082815260200191505060405180910390f35b34801561063c57600080fd5b50610671600480360381019080803573ffffffffffffffffffffffffffffffffffffffff169060200190929190505050610fda565b604051808215151515815260200191505060405180910390f35b34801561069757600080fd5b506106da600480360381019080803573ffffffffffffffffffffffffffffffffffffffff1690602001909291908035600019169060200190929190505050610ffa565b005b3480156106e857600080fd5b5061071d600480360381019080803573ffffffffffffffffffffffffffffffffffffffff16906020019092919050505061110b565b6040518082815260200191505060405180910390f35b34801561073f57600080fd5b50610794600480360381019080803573ffffffffffffffffffffffffffffffffffffffff169060200190929190803573ffffffffffffffffffffffffffffffffffffffff169060200190929190505050611123565b604051808215151515815260200191505060405180910390f35b3480156107ba57600080fd5b506107ef600480360381019080803573ffffffffffffffffffffffffffffffffffffffff169060200190929190505050611152565b6040518082815260200191505060405180910390f35b34801561081157600080fd5b50610850600480360381019080803573ffffffffffffffffffffffffffffffffffffffff1690602001909291908035906020019092919050505061116a565b604051808273ffffffffffffffffffffffffffffffffffffffff1673ffffffffffffffffffffffffffffffffffffffff16815260200191505060405180910390f35b34801561089e57600080fd5b506108d3600480360381019080803573ffffffffffffffffffffffffffffffffffffffff1690602001909291905050506111b7565b6040518082815260200191505060405180910390f35b60016020528160005260406000206020528060005260406000206000915091509054906101000a900460ff1681565b6009602052816000526040600020602052806000526040600020600091509150505481565b60076020528160005260406000208181548110151561095857fe5b906000526020600020016000915091509054906101000a900473ffffffffffffffffffffffffffffffffffffffff1681565b60006020528060005260406000206000915054906101000a900460ff1681565b8173ffffffffffffffffffffffffffffffffffffffff167f8fb235aae8b3763345e1356f94de91f152d0b918d771d87ae2868925ad266ae78260405180826000191660001916815260200191505060405180910390a25050565b6008602052816000526040600020602052806000526040600020600091509150505481565b6000600260008373ffffffffffffffffffffffffffffffffffffffff1673ffffffffffffffffffffffffffffffffffffffff168152602001908152602001600020805490509050919050565b600c6020528060005260406000206000915054906101000a900460ff1681565b6001600660008473ffffffffffffffffffffffffffffffffffffffff1673ffffffffffffffffffffffffffffffffffffffff16815260200190815260200160002060008373ffffffffffffffffffffffffffffffffffffffff1673ffffffffffffffffffffffffffffffffffffffff16815260200190815260200160002060006101000a81548160ff0219169083151502179055508073ffffffffffffffffffffffffffffffffffffffff168273ffffffffffffffffffffffffffffffffffffffff167fae442d2ee17216b3bc2662322adeb26046e30349fd3fa9a3dc135a6d610628d260405160405180910390a3600160008273ffffffffffffffffffffffffffffffffffffffff1673ffffffffffffffffffffffffffffffffffffffff16815260200190815260200160002060008373ffffffffffffffffffffffffffffffffffffffff1673ffffffffffffffffffffffffffffffffffffffff16815260200190815260200160002060009054906101000a900460ff168015610ca15750600d60008273ffffffffffffffffffffffffffffffffffffffff1673ffffffffffffffffffffffffffffffffffffffff16815260200190815260200160002060008373ffffffffffffffffffffffffffffffffffffffff1673ffffffffffffffffffffffffffffffffffffffff16815260200190815260200160002060009054906101000a900460ff16155b15610ddf576001600d60008373ffffffffffffffffffffffffffffffffffffffff1673ffffffffffffffffffffffffffffffffffffffff16815260200190815260200160002060008473ffffffffffffffffffffffffffffffffffffffff1673ffffffffffffffffffffffffffffffffffffffff16815260200190815260200160002060006101000a81548160ff021916908315150217905550600260008273ffffffffffffffffffffffffffffffffffffffff1673ffffffffffffffffffffffffffffffffffffffff1681526020019081526020016000208290806001815401808255809150509060018203906000526020600020016000909192909190916101000a81548173ffffffffffffffffffffffffffffffffffffffff021916908373ffffffffffffffffffffffffffffffffffffffff160217905550505b5050565b600d6020528160005260406000206020528060005260406000206000915091509054906101000a900460ff1681565b6001600b60008773ffffffffffffffffffffffffffffffffffffffff1673ffffffffffffffffffffffffffffffffffffffff16815260200190815260200160002060008282540192505081905550600b60008673ffffffffffffffffffffffffffffffffffffffff1673ffffffffffffffffffffffffffffffffffffffff1681526020019081526020016000205482600a60008873ffffffffffffffffffffffffffffffffffffffff1673ffffffffffffffffffffffffffffffffffffffff1681526020019081526020016000205401811515610eeb57fe5b04600a60008773ffffffffffffffffffffffffffffffffffffffff1673ffffffffffffffffffffffffffffffffffffffff168152602001908152602001600020819055508473ffffffffffffffffffffffffffffffffffffffff168473ffffffffffffffffffffffffffffffffffffffff168473ffffffffffffffffffffffffffffffffffffffff167f5e6c3e11b9f623c99dc31ad34b46ba46f967b91b7502625b3e75c0191871e1df85856040518083815260200182600019166000191681526020019250505060405180910390a45050505050565b60046020528060005260406000206000915090505481565b60056020528060005260406000206000915054906101000a900460ff1681565b60001515600560008473ffffffffffffffffffffffffffffffffffffffff1673ffffffffffffffffffffffffffffffffffffffff16815260200190815260200160002060009054906101000a900460ff16151514151561105957600080fd5b6001600560008473ffffffffffffffffffffffffffffffffffffffff1673ffffffffffffffffffffffffffffffffffffffff16815260200190815260200160002060006101000a81548160ff0219169083151502179055508173ffffffffffffffffffffffffffffffffffffffff167f8fb235aae8b3763345e1356f94de91f152d0b918d771d87ae2868925ad266ae78260405180826000191660001916815260200191505060405180910390a25050565b600b6020528060005260406000206000915090505481565b60066020528160005260406000206020528060005260406000206000915091509054906101000a900460ff1681565b60036020528060005260406000206000915090505481565b60026020528160005260406000208181548110151561118557fe5b906000526020600020016000915091509054906101000a900473ffffffffffffffffffffffffffffffffffffffff1681565b600a60205280600052604060002060009150905054815600a165627a7a723058202a9f308585167ce1df13f2d60845cd5f07ba24c5934944e5e26b70b9e742067f0029",
  "source": "pragma solidity ^0.4.24;\n\nimport './BoomerangActor.sol';\n\ncontract BoomerangWorker is BoomerangActor {\n\n  event WorkerProfileUpdated(address indexed _workerAddress, bytes32 _ipfsHash);\n  event WorkerHasApprovedBusiness(address indexed _workerAddress, address indexed _businessAddress);\n\n  event UserRating( address indexed _userAddress,\n                    address indexed _workerAddress,\n                    address indexed _businessAddress,\n                    uint256 _userRating,\n                    bytes32 _ipfsHash);\n\n  function registerAsWorker(address _workerAddress, bytes32 _ipfsHash) public {\n\n    require(isWorker[_workerAddress] == false);\n    isWorker[_workerAddress] = true;\n    emit WorkerProfileUpdated(_workerAddress, _ipfsHash);\n  }\n\n  function updateWorkerProfile(address _workerAddress, bytes32 _ipfsHash) public {\n    emit WorkerProfileUpdated(_workerAddress, _ipfsHash);\n  }\n\n  function addBusiness(address _workerAddress, address _businessAddress) public {\n\n    workerHasApprovedBusiness[_workerAddress][_businessAddress] = true;\n    emit WorkerHasApprovedBusiness(_workerAddress, _businessAddress);\n\n    if (businessHasApprovedWorker[_businessAddress][_workerAddress] && !isEmployed[_businessAddress][_workerAddress]) {\n      isEmployed[_businessAddress][_workerAddress] = true;\n      workerList[_businessAddress].push(_workerAddress);\n    }\n\n    // any add business init\n  }\n\n  function rateUser(address _userAddress, address _workerAddress, address _businessAddress, uint256 _userRating, bytes32 _ipfsHash) public {\n\n    numberOfUserRatings[_userAddress] += 1;\n    userAverageRating[_userAddress] = (userAverageRating[_userAddress] + _userRating) / numberOfUserRatings[_userAddress];\n    emit UserRating(_businessAddress, _workerAddress, _userAddress, _userRating, _ipfsHash);\n  }\n}",
  "sourcePath": "/Users/panda/projects/boomerang/packages/boomerang-contracts/contracts/BoomerangWorker.sol",
  "compiler": {
    "name": "solc",
    "version": "0.4.24+commit.e67f0147.Emscripten.clang"
  },
  "schemaVersion": "2.0.1",
  "updatedAt": "2018-07-31T17:40:50.774Z"
}