{
  "contractName": "BoomerangWorkerRewardSystem",
  "abi": [
    {
      "constant": true,
      "inputs": [],
      "name": "boomerangAuth",
      "outputs": [
        {
          "name": "",
          "type": "address"
        }
      ],
      "payable": false,
      "stateMutability": "view",
      "type": "function"
    },
    {
      "constant": false,
      "inputs": [],
      "name": "renounceOwnership",
      "outputs": [],
      "payable": false,
      "stateMutability": "nonpayable",
      "type": "function"
    },
    {
      "constant": true,
      "inputs": [
        {
          "name": "",
          "type": "address"
        }
      ],
      "name": "workerRewardSystem",
      "outputs": [
        {
          "name": "numberOfRewardSteps",
          "type": "uint256"
        },
        {
          "name": "numberOfRewardLevels",
          "type": "uint256"
        },
        {
          "name": "ipfsHash",
          "type": "bytes32"
        }
      ],
      "payable": false,
      "stateMutability": "view",
      "type": "function"
    },
    {
      "constant": true,
      "inputs": [],
      "name": "owner",
      "outputs": [
        {
          "name": "",
          "type": "address"
        }
      ],
      "payable": false,
      "stateMutability": "view",
      "type": "function"
    },
    {
      "constant": true,
      "inputs": [],
      "name": "boomerangToken",
      "outputs": [
        {
          "name": "",
          "type": "address"
        }
      ],
      "payable": false,
      "stateMutability": "view",
      "type": "function"
    },
    {
      "constant": false,
      "inputs": [
        {
          "name": "_newOwner",
          "type": "address"
        }
      ],
      "name": "transferOwnership",
      "outputs": [],
      "payable": false,
      "stateMutability": "nonpayable",
      "type": "function"
    },
    {
      "anonymous": false,
      "inputs": [
        {
          "indexed": true,
          "name": "_businessAddress",
          "type": "address"
        }
      ],
      "name": "RegisterWorkerRewardSystem",
      "type": "event"
    },
    {
      "anonymous": false,
      "inputs": [
        {
          "indexed": true,
          "name": "_workerAddress",
          "type": "address"
        },
        {
          "indexed": true,
          "name": "_businessAddress",
          "type": "address"
        },
        {
          "indexed": false,
          "name": "_rewardValue",
          "type": "uint256"
        }
      ],
      "name": "PerformanceReward",
      "type": "event"
    },
    {
      "anonymous": false,
      "inputs": [
        {
          "indexed": true,
          "name": "previousOwner",
          "type": "address"
        }
      ],
      "name": "OwnershipRenounced",
      "type": "event"
    },
    {
      "anonymous": false,
      "inputs": [
        {
          "indexed": true,
          "name": "previousOwner",
          "type": "address"
        },
        {
          "indexed": true,
          "name": "newOwner",
          "type": "address"
        }
      ],
      "name": "OwnershipTransferred",
      "type": "event"
    },
    {
      "constant": false,
      "inputs": [
        {
          "name": "_businessAddress",
          "type": "address"
        },
        {
          "name": "_numberOfRewardSteps",
          "type": "uint256"
        },
        {
          "name": "_numberOfRewardCyclesForLevel",
          "type": "uint256[]"
        },
        {
          "name": "_numberOfRewardLevels",
          "type": "uint256"
        },
        {
          "name": "_levelRewards",
          "type": "uint256[]"
        },
        {
          "name": "_ipfsHash",
          "type": "bytes32"
        },
        {
          "name": "_v",
          "type": "uint8"
        },
        {
          "name": "_r",
          "type": "bytes32"
        },
        {
          "name": "_s",
          "type": "bytes32"
        }
      ],
      "name": "registerWorkerRewardSystem",
      "outputs": [],
      "payable": false,
      "stateMutability": "nonpayable",
      "type": "function"
    },
    {
      "constant": true,
      "inputs": [
        {
          "name": "_businessAddress",
          "type": "address"
        }
      ],
      "name": "getWorkerRewardSystem",
      "outputs": [
        {
          "name": "_numberOfRewardSteps",
          "type": "uint256"
        },
        {
          "name": "_numberOfRewardCyclesForLevel",
          "type": "uint256[]"
        },
        {
          "name": "_numberOfRewardLevels",
          "type": "uint256"
        },
        {
          "name": "_levelRewards",
          "type": "uint256[]"
        },
        {
          "name": "_ipfsHash",
          "type": "bytes32"
        }
      ],
      "payable": false,
      "stateMutability": "view",
      "type": "function"
    },
    {
      "constant": true,
      "inputs": [
        {
          "name": "_workerAddress",
          "type": "address"
        },
        {
          "name": "_businessAddress",
          "type": "address"
        }
      ],
      "name": "getWorkerRewardStep",
      "outputs": [
        {
          "name": "_rewardStep",
          "type": "uint256"
        }
      ],
      "payable": false,
      "stateMutability": "view",
      "type": "function"
    },
    {
      "constant": true,
      "inputs": [
        {
          "name": "_workerAddress",
          "type": "address"
        },
        {
          "name": "_businessAddress",
          "type": "address"
        }
      ],
      "name": "getWorkerRewardCycle",
      "outputs": [
        {
          "name": "_rewardCycle",
          "type": "uint256"
        }
      ],
      "payable": false,
      "stateMutability": "view",
      "type": "function"
    },
    {
      "constant": true,
      "inputs": [
        {
          "name": "_workerAddress",
          "type": "address"
        },
        {
          "name": "_businessAddress",
          "type": "address"
        }
      ],
      "name": "getWorkerRewardLevel",
      "outputs": [
        {
          "name": "_rewardLevel",
          "type": "uint256"
        }
      ],
      "payable": false,
      "stateMutability": "view",
      "type": "function"
    },
    {
      "constant": true,
      "inputs": [
        {
          "name": "_workerAddress",
          "type": "address"
        },
        {
          "name": "_businessAddress",
          "type": "address"
        }
      ],
      "name": "getWorkerRewardRank",
      "outputs": [
        {
          "name": "_rewardRank",
          "type": "uint256"
        }
      ],
      "payable": false,
      "stateMutability": "view",
      "type": "function"
    }
  ],
  "bytecode": "0x608060405233600160006101000a81548173ffffffffffffffffffffffffffffffffffffffff021916908373ffffffffffffffffffffffffffffffffffffffff160217905550611012806100546000396000f3006080604052600436106100ba576000357c0100000000000000000000000000000000000000000000000000000000900463ffffffff1680631241f478146100bf578063261d22f01461013657806344ab4a47146101ad578063715018a61461020457806378939f9d1461021b5780638b3504f2146103185780638da5cb5b146103855780639d0696ed146103dc578063a7ce1cff14610433578063cdb3a57f146104aa578063f2fde38b14610568578063fc476272146105ab575b600080fd5b3480156100cb57600080fd5b50610120600480360381019080803573ffffffffffffffffffffffffffffffffffffffff169060200190929190803573ffffffffffffffffffffffffffffffffffffffff169060200190929190505050610622565b6040518082815260200191505060405180910390f35b34801561014257600080fd5b50610197600480360381019080803573ffffffffffffffffffffffffffffffffffffffff169060200190929190803573ffffffffffffffffffffffffffffffffffffffff1690602001909291905050506106b1565b6040518082815260200191505060405180910390f35b3480156101b957600080fd5b506101c2610740565b604051808273ffffffffffffffffffffffffffffffffffffffff1673ffffffffffffffffffffffffffffffffffffffff16815260200191505060405180910390f35b34801561021057600080fd5b50610219610766565b005b34801561022757600080fd5b5061025c600480360381019080803573ffffffffffffffffffffffffffffffffffffffff16906020019092919050505061086b565b6040518086815260200180602001858152602001806020018460001916600019168152602001838103835287818151815260200191508051906020019060200280838360005b838110156102bd5780820151818401526020810190506102a2565b50505050905001838103825285818151815260200191508051906020019060200280838360005b838110156102ff5780820151818401526020810190506102e4565b5050505090500197505050505050505060405180910390f35b34801561032457600080fd5b50610359600480360381019080803573ffffffffffffffffffffffffffffffffffffffff1690602001909291905050506109cd565b604051808481526020018381526020018260001916600019168152602001935050505060405180910390f35b34801561039157600080fd5b5061039a6109f7565b604051808273ffffffffffffffffffffffffffffffffffffffff1673ffffffffffffffffffffffffffffffffffffffff16815260200191505060405180910390f35b3480156103e857600080fd5b506103f1610a1d565b604051808273ffffffffffffffffffffffffffffffffffffffff1673ffffffffffffffffffffffffffffffffffffffff16815260200191505060405180910390f35b34801561043f57600080fd5b50610494600480360381019080803573ffffffffffffffffffffffffffffffffffffffff169060200190929190803573ffffffffffffffffffffffffffffffffffffffff169060200190929190505050610a42565b6040518082815260200191505060405180910390f35b3480156104b657600080fd5b50610566600480360381019080803573ffffffffffffffffffffffffffffffffffffffff16906020019092919080359060200190929190803590602001908201803590602001919091929391929390803590602001909291908035906020019082018035906020019190919293919293908035600019169060200190929190803560ff16906020019092919080356000191690602001909291908035600019169060200190929190505050610ad1565b005b34801561057457600080fd5b506105a9600480360381019080803573ffffffffffffffffffffffffffffffffffffffff169060200190929190505050610d4e565b005b3480156105b757600080fd5b5061060c600480360381019080803573ffffffffffffffffffffffffffffffffffffffff169060200190929190803573ffffffffffffffffffffffffffffffffffffffff169060200190929190505050610db6565b6040518082815260200191505060405180910390f35b600080600360008473ffffffffffffffffffffffffffffffffffffffff1673ffffffffffffffffffffffffffffffffffffffff16815260200190815260200160002090508060080160008573ffffffffffffffffffffffffffffffffffffffff1673ffffffffffffffffffffffffffffffffffffffff1681526020019081526020016000205491505092915050565b600080600360008473ffffffffffffffffffffffffffffffffffffffff1673ffffffffffffffffffffffffffffffffffffffff16815260200190815260200160002090508060060160008573ffffffffffffffffffffffffffffffffffffffff1673ffffffffffffffffffffffffffffffffffffffff1681526020019081526020016000205491505092915050565b600260009054906101000a900473ffffffffffffffffffffffffffffffffffffffff1681565b600160009054906101000a900473ffffffffffffffffffffffffffffffffffffffff1673ffffffffffffffffffffffffffffffffffffffff163373ffffffffffffffffffffffffffffffffffffffff161415156107c257600080fd5b600160009054906101000a900473ffffffffffffffffffffffffffffffffffffffff1673ffffffffffffffffffffffffffffffffffffffff167ff8df31144d9c2f0f6b59d69b8b98abd5459d07f2742c4df920b25aae33c6482060405160405180910390a26000600160006101000a81548173ffffffffffffffffffffffffffffffffffffffff021916908373ffffffffffffffffffffffffffffffffffffffff160217905550565b6000606060006060600061087d610f41565b600360008873ffffffffffffffffffffffffffffffffffffffff1673ffffffffffffffffffffffffffffffffffffffff16815260200190815260200160002060a06040519081016040529081600082015481526020016001820180548060200260200160405190810160405280929190818152602001828054801561092157602002820191906000526020600020905b81548152602001906001019080831161090d575b50505050508152602001600282015481526020016003820180548060200260200160405190810160405280929190818152602001828054801561098357602002820191906000526020600020905b81548152602001906001019080831161096f575b505050505081526020016004820154600019166000191681525050905080600001519550806020015194508060400151935080606001519250806080015191505091939590929450565b60036020528060005260406000206000915090508060000154908060020154908060040154905083565b600160009054906101000a900473ffffffffffffffffffffffffffffffffffffffff1681565b6000809054906101000a900473ffffffffffffffffffffffffffffffffffffffff1681565b600080600360008473ffffffffffffffffffffffffffffffffffffffff1673ffffffffffffffffffffffffffffffffffffffff16815260200190815260200160002090508060070160008573ffffffffffffffffffffffffffffffffffffffff1673ffffffffffffffffffffffffffffffffffffffff1681526020019081526020016000205491505092915050565b600260009054906101000a900473ffffffffffffffffffffffffffffffffffffffff1673ffffffffffffffffffffffffffffffffffffffff166396fc22568c8585856040518563ffffffff167c0100000000000000000000000000000000000000000000000000000000028152600401808573ffffffffffffffffffffffffffffffffffffffff1673ffffffffffffffffffffffffffffffffffffffff1681526020018460ff1660ff16815260200183600019166000191681526020018260001916600019168152602001945050505050600060405180830381600087803b158015610bbc57600080fd5b505af1158015610bd0573d6000803e3d6000fd5b5050505060a0604051908101604052808b81526020018a8a80806020026020016040519081016040528093929190818152602001838360200280828437820191505050505050815260200188815260200187878080602002602001604051908101604052809392919081815260200183836020028082843782019150505050505081526020018560001916815250600360008d73ffffffffffffffffffffffffffffffffffffffff1673ffffffffffffffffffffffffffffffffffffffff168152602001908152602001600020600082015181600001556020820151816001019080519060200190610cc3929190610f74565b50604082015181600201556060820151816003019080519060200190610cea929190610f74565b50608082015181600401906000191690559050508a73ffffffffffffffffffffffffffffffffffffffff167f910de68bbeafb3b17db876b63617e0d84a56e46ed90d7b475ca836fc62ec82c960405160405180910390a25050505050505050505050565b600160009054906101000a900473ffffffffffffffffffffffffffffffffffffffff1673ffffffffffffffffffffffffffffffffffffffff163373ffffffffffffffffffffffffffffffffffffffff16141515610daa57600080fd5b610db381610e45565b50565b600080600360008473ffffffffffffffffffffffffffffffffffffffff1673ffffffffffffffffffffffffffffffffffffffff16815260200190815260200160002090508060050160008573ffffffffffffffffffffffffffffffffffffffff1673ffffffffffffffffffffffffffffffffffffffff1681526020019081526020016000205491505092915050565b600073ffffffffffffffffffffffffffffffffffffffff168173ffffffffffffffffffffffffffffffffffffffff1614151515610e8157600080fd5b8073ffffffffffffffffffffffffffffffffffffffff16600160009054906101000a900473ffffffffffffffffffffffffffffffffffffffff1673ffffffffffffffffffffffffffffffffffffffff167f8be0079c531659141344cd1fd0a4f28419497f9722a3daafe3b4186f6b6457e060405160405180910390a380600160006101000a81548173ffffffffffffffffffffffffffffffffffffffff021916908373ffffffffffffffffffffffffffffffffffffffff16021790555050565b60a06040519081016040528060008152602001606081526020016000815260200160608152602001600080191681525090565b828054828255906000526020600020908101928215610fb0579160200282015b82811115610faf578251825591602001919060010190610f94565b5b509050610fbd9190610fc1565b5090565b610fe391905b80821115610fdf576000816000905550600101610fc7565b5090565b905600a165627a7a7230582083f4d3a9b5172dac108e02d2f487605f8405b144f6a810227d4cf5d199f3db470029",
  "source": "pragma solidity ^0.4.24;\n//pragma experimental ABIEncoderV2;\n\nimport './BoomerangRewardSystem.sol';\n\ncontract BoomerangWorkerRewardSystem is BoomerangRewardSystem {\n\n  event RegisterWorkerRewardSystem(address indexed _businessAddress);\n  event PerformanceReward(address indexed _workerAddress, address indexed _businessAddress, uint256 _rewardValue);\n\n  mapping(address => RewardSystem) public workerRewardSystem;\n\n  function registerWorkerRewardSystem(address _businessAddress,\n                                      uint256 _numberOfRewardSteps,\n                                      uint256[] _numberOfRewardCyclesForLevel,\n                                      uint256 _numberOfRewardLevels,\n                                      uint256[] _levelRewards,\n                                      bytes32 _ipfsHash,\n                                      uint8 _v,\n                                      bytes32 _r,\n                                      bytes32 _s) external {\n\n    boomerangAuth.verify(_businessAddress, _v, _r, _s);\n    workerRewardSystem[_businessAddress] = RewardSystem(_numberOfRewardSteps, _numberOfRewardCyclesForLevel, _numberOfRewardLevels, _levelRewards, _ipfsHash);\n    emit RegisterWorkerRewardSystem(_businessAddress);\n  }\n\n  function updateWorkerRewardProgress(address _workerAddress, address _businessAddress, uint256 _workerRating) internal {\n\n    if (_workerRating != 5) {\n      return;\n    }\n\n    RewardSystem storage rewardSystem = workerRewardSystem[_businessAddress];\n    uint256 workerRewardLevel = rewardSystem.rewardLevel[_workerAddress];\n    incrementRewardProgress(rewardSystem, _workerAddress);\n\n    if (rewardSystem.rewardStep[_workerAddress] == 0) {\n      uint256 rewardValue = rewardSystem.levelRewards[workerRewardLevel];\n      boomerangToken.transferFrom(_businessAddress, _workerAddress, rewardValue);\n      emit PerformanceReward(_workerAddress, _businessAddress, rewardValue);\n    }\n  }\n\n  function getWorkerRewardSystem(address _businessAddress) public view returns (uint256 _numberOfRewardSteps, uint256[] _numberOfRewardCyclesForLevel, uint256 _numberOfRewardLevels, uint256[] _levelRewards, bytes32 _ipfsHash) {\n\n    RewardSystem memory rewardSystem = workerRewardSystem[_businessAddress];\n\n    _numberOfRewardSteps = rewardSystem.numberOfRewardSteps;\n    _numberOfRewardCyclesForLevel = rewardSystem.numberOfRewardCyclesForLevel;\n    _numberOfRewardLevels = rewardSystem.numberOfRewardLevels;\n    _levelRewards = rewardSystem.levelRewards;\n    _ipfsHash = rewardSystem.ipfsHash;\n  }\n\n  function getWorkerRewardStep(address _workerAddress, address _businessAddress) public view returns (uint256 _rewardStep) {\n\n    RewardSystem storage rewardSystem = workerRewardSystem[_businessAddress];\n    _rewardStep = rewardSystem.rewardStep[_workerAddress];\n  }\n\n  function getWorkerRewardCycle(address _workerAddress, address _businessAddress) public view returns (uint256 _rewardCycle) {\n\n    RewardSystem storage rewardSystem = workerRewardSystem[_businessAddress];\n    _rewardCycle = rewardSystem.rewardCycle[_workerAddress];\n  }\n\n  function getWorkerRewardLevel(address _workerAddress, address _businessAddress) public view returns (uint256 _rewardLevel) {\n\n    RewardSystem storage rewardSystem = workerRewardSystem[_businessAddress];\n    _rewardLevel = rewardSystem.rewardLevel[_workerAddress];\n  }\n\n  function getWorkerRewardRank(address _workerAddress, address _businessAddress) public view returns (uint256 _rewardRank) {\n\n    RewardSystem storage rewardSystem = workerRewardSystem[_businessAddress];\n    _rewardRank = rewardSystem.rewardRank[_workerAddress];\n  }\n}",
  "sourcePath": "/Users/panda/projects/boomerang/packages/boomerang-contracts/contracts/experience/rewards/BoomerangWorkerRewardSystem.sol",
  "compiler": {
    "name": "solc",
    "version": "0.4.24+commit.e67f0147.Emscripten.clang"
  },
  "schemaVersion": "2.0.1",
  "updatedAt": "2018-08-22T15:34:49.056Z"
}