{
  "contractName": "BoomerangRateExperience",
  "abi": [
    {
      "constant": false,
      "inputs": [
        {
          "name": "_numberOfRewardSteps",
          "type": "uint256"
        },
        {
          "name": "_numberOfRewardCyclesForLevel",
          "type": "uint256[]"
        },
        {
          "name": "_numberOfRewardLevels",
          "type": "uint256"
        },
        {
          "name": "_levelRewards",
          "type": "uint256[]"
        },
        {
          "name": "_ipfsHash",
          "type": "bytes32"
        }
      ],
      "name": "registerGrowthPoolRewardSystem",
      "outputs": [],
      "payable": false,
      "stateMutability": "nonpayable",
      "type": "function"
    },
    {
      "constant": true,
      "inputs": [
        {
          "name": "",
          "type": "address"
        },
        {
          "name": "",
          "type": "address"
        }
      ],
      "name": "businessHasApprovedWorker",
      "outputs": [
        {
          "name": "",
          "type": "bool"
        }
      ],
      "payable": false,
      "stateMutability": "view",
      "type": "function"
    },
    {
      "constant": true,
      "inputs": [
        {
          "name": "",
          "type": "address"
        },
        {
          "name": "",
          "type": "address"
        }
      ],
      "name": "numberOfWorkerRatings",
      "outputs": [
        {
          "name": "",
          "type": "uint256"
        }
      ],
      "payable": false,
      "stateMutability": "view",
      "type": "function"
    },
    {
      "constant": true,
      "inputs": [
        {
          "name": "_workerAddress",
          "type": "address"
        },
        {
          "name": "_businessAddress",
          "type": "address"
        }
      ],
      "name": "getWorkerRewardRank",
      "outputs": [
        {
          "name": "_rewardRank",
          "type": "uint256"
        }
      ],
      "payable": false,
      "stateMutability": "view",
      "type": "function"
    },
    {
      "constant": true,
      "inputs": [
        {
          "name": "",
          "type": "address"
        },
        {
          "name": "",
          "type": "uint256"
        }
      ],
      "name": "businessList",
      "outputs": [
        {
          "name": "",
          "type": "address"
        }
      ],
      "payable": false,
      "stateMutability": "view",
      "type": "function"
    },
    {
      "constant": true,
      "inputs": [
        {
          "name": "",
          "type": "address"
        }
      ],
      "name": "isBusiness",
      "outputs": [
        {
          "name": "",
          "type": "bool"
        }
      ],
      "payable": false,
      "stateMutability": "view",
      "type": "function"
    },
    {
      "constant": true,
      "inputs": [
        {
          "name": "_address",
          "type": "address"
        }
      ],
      "name": "getGrowthPoolRewardRank",
      "outputs": [
        {
          "name": "_rewardRank",
          "type": "uint256"
        }
      ],
      "payable": false,
      "stateMutability": "view",
      "type": "function"
    },
    {
      "constant": true,
      "inputs": [
        {
          "name": "_businessAddress",
          "type": "address"
        }
      ],
      "name": "getUserRewardSystem",
      "outputs": [
        {
          "name": "_numberOfRewardSteps",
          "type": "uint256"
        },
        {
          "name": "_numberOfRewardCyclesForLevel",
          "type": "uint256[]"
        },
        {
          "name": "_numberOfRewardLevels",
          "type": "uint256"
        },
        {
          "name": "_levelRewards",
          "type": "uint256[]"
        },
        {
          "name": "_ipfsHash",
          "type": "bytes32"
        }
      ],
      "payable": false,
      "stateMutability": "view",
      "type": "function"
    },
    {
      "constant": true,
      "inputs": [],
      "name": "growthPoolRewardSystem",
      "outputs": [
        {
          "name": "numberOfRewardSteps",
          "type": "uint256"
        },
        {
          "name": "numberOfRewardLevels",
          "type": "uint256"
        },
        {
          "name": "ipfsHash",
          "type": "bytes32"
        }
      ],
      "payable": false,
      "stateMutability": "view",
      "type": "function"
    },
    {
      "constant": true,
      "inputs": [
        {
          "name": "_workerAddress",
          "type": "address"
        },
        {
          "name": "_businessAddress",
          "type": "address"
        }
      ],
      "name": "getWorkerRewardCycle",
      "outputs": [
        {
          "name": "_rewardCycle",
          "type": "uint256"
        }
      ],
      "payable": false,
      "stateMutability": "view",
      "type": "function"
    },
    {
      "constant": true,
      "inputs": [
        {
          "name": "",
          "type": "address"
        }
      ],
      "name": "userRatingsSum",
      "outputs": [
        {
          "name": "",
          "type": "uint256"
        }
      ],
      "payable": false,
      "stateMutability": "view",
      "type": "function"
    },
    {
      "constant": true,
      "inputs": [
        {
          "name": "_userAddress",
          "type": "address"
        },
        {
          "name": "_businessAddress",
          "type": "address"
        }
      ],
      "name": "getUserRewardRank",
      "outputs": [
        {
          "name": "_rewardRank",
          "type": "uint256"
        }
      ],
      "payable": false,
      "stateMutability": "view",
      "type": "function"
    },
    {
      "constant": true,
      "inputs": [
        {
          "name": "",
          "type": "address"
        }
      ],
      "name": "isUser",
      "outputs": [
        {
          "name": "",
          "type": "bool"
        }
      ],
      "payable": false,
      "stateMutability": "view",
      "type": "function"
    },
    {
      "constant": false,
      "inputs": [
        {
          "name": "_businessAddress",
          "type": "address"
        },
        {
          "name": "_numberOfRewardSteps",
          "type": "uint256"
        },
        {
          "name": "_numberOfRewardCyclesForLevel",
          "type": "uint256[]"
        },
        {
          "name": "_numberOfRewardLevels",
          "type": "uint256"
        },
        {
          "name": "_levelRewards",
          "type": "uint256[]"
        },
        {
          "name": "_ipfsHash",
          "type": "bytes32"
        }
      ],
      "name": "registerUserRewardSystem",
      "outputs": [],
      "payable": false,
      "stateMutability": "nonpayable",
      "type": "function"
    },
    {
      "constant": true,
      "inputs": [
        {
          "name": "_userAddress",
          "type": "address"
        },
        {
          "name": "_businessAddress",
          "type": "address"
        }
      ],
      "name": "getUserRewardCycle",
      "outputs": [
        {
          "name": "_rewardCycle",
          "type": "uint256"
        }
      ],
      "payable": false,
      "stateMutability": "view",
      "type": "function"
    },
    {
      "constant": true,
      "inputs": [
        {
          "name": "",
          "type": "address"
        }
      ],
      "name": "businessRatingsSum",
      "outputs": [
        {
          "name": "",
          "type": "uint256"
        }
      ],
      "payable": false,
      "stateMutability": "view",
      "type": "function"
    },
    {
      "constant": true,
      "inputs": [
        {
          "name": "_businessAddress",
          "type": "address"
        }
      ],
      "name": "getRatingRewards",
      "outputs": [
        {
          "name": "_ratingRewards",
          "type": "uint256[5]"
        }
      ],
      "payable": false,
      "stateMutability": "view",
      "type": "function"
    },
    {
      "constant": true,
      "inputs": [
        {
          "name": "",
          "type": "address"
        },
        {
          "name": "",
          "type": "address"
        }
      ],
      "name": "nonceValueForNewRating",
      "outputs": [
        {
          "name": "",
          "type": "uint256"
        }
      ],
      "payable": false,
      "stateMutability": "view",
      "type": "function"
    },
    {
      "constant": true,
      "inputs": [
        {
          "name": "",
          "type": "address"
        }
      ],
      "name": "userRewardSystem",
      "outputs": [
        {
          "name": "numberOfRewardSteps",
          "type": "uint256"
        },
        {
          "name": "numberOfRewardLevels",
          "type": "uint256"
        },
        {
          "name": "ipfsHash",
          "type": "bytes32"
        }
      ],
      "payable": false,
      "stateMutability": "view",
      "type": "function"
    },
    {
      "constant": false,
      "inputs": [],
      "name": "renounceOwnership",
      "outputs": [],
      "payable": false,
      "stateMutability": "nonpayable",
      "type": "function"
    },
    {
      "constant": true,
      "inputs": [
        {
          "name": "_userAddress",
          "type": "address"
        },
        {
          "name": "_businessAddress",
          "type": "address"
        }
      ],
      "name": "getUserRewardLevel",
      "outputs": [
        {
          "name": "_rewardLevel",
          "type": "uint256"
        }
      ],
      "payable": false,
      "stateMutability": "view",
      "type": "function"
    },
    {
      "constant": true,
      "inputs": [
        {
          "name": "_businessAddress",
          "type": "address"
        }
      ],
      "name": "getWorkerRewardSystem",
      "outputs": [
        {
          "name": "_numberOfRewardSteps",
          "type": "uint256"
        },
        {
          "name": "_numberOfRewardCyclesForLevel",
          "type": "uint256[]"
        },
        {
          "name": "_numberOfRewardLevels",
          "type": "uint256"
        },
        {
          "name": "_levelRewards",
          "type": "uint256[]"
        },
        {
          "name": "_ipfsHash",
          "type": "bytes32"
        }
      ],
      "payable": false,
      "stateMutability": "view",
      "type": "function"
    },
    {
      "constant": true,
      "inputs": [
        {
          "name": "",
          "type": "address"
        },
        {
          "name": "",
          "type": "address"
        }
      ],
      "name": "isEmployed",
      "outputs": [
        {
          "name": "",
          "type": "bool"
        }
      ],
      "payable": false,
      "stateMutability": "view",
      "type": "function"
    },
    {
      "constant": true,
      "inputs": [
        {
          "name": "",
          "type": "address"
        }
      ],
      "name": "workerRewardSystem",
      "outputs": [
        {
          "name": "numberOfRewardSteps",
          "type": "uint256"
        },
        {
          "name": "numberOfRewardLevels",
          "type": "uint256"
        },
        {
          "name": "ipfsHash",
          "type": "bytes32"
        }
      ],
      "payable": false,
      "stateMutability": "view",
      "type": "function"
    },
    {
      "constant": true,
      "inputs": [],
      "name": "owner",
      "outputs": [
        {
          "name": "",
          "type": "address"
        }
      ],
      "payable": false,
      "stateMutability": "view",
      "type": "function"
    },
    {
      "constant": true,
      "inputs": [
        {
          "name": "",
          "type": "address"
        }
      ],
      "name": "numberOfBusinessRatings",
      "outputs": [
        {
          "name": "",
          "type": "uint256"
        }
      ],
      "payable": false,
      "stateMutability": "view",
      "type": "function"
    },
    {
      "constant": true,
      "inputs": [
        {
          "name": "",
          "type": "address"
        }
      ],
      "name": "nonceValueForGasSubsidy",
      "outputs": [
        {
          "name": "",
          "type": "uint256"
        }
      ],
      "payable": false,
      "stateMutability": "view",
      "type": "function"
    },
    {
      "constant": true,
      "inputs": [],
      "name": "boomerangToken",
      "outputs": [
        {
          "name": "",
          "type": "address"
        }
      ],
      "payable": false,
      "stateMutability": "view",
      "type": "function"
    },
    {
      "constant": true,
      "inputs": [
        {
          "name": "_address",
          "type": "address"
        }
      ],
      "name": "getGrowthPoolRewardLevel",
      "outputs": [
        {
          "name": "_rewardLevel",
          "type": "uint256"
        }
      ],
      "payable": false,
      "stateMutability": "view",
      "type": "function"
    },
    {
      "constant": true,
      "inputs": [
        {
          "name": "_workerAddress",
          "type": "address"
        },
        {
          "name": "_businessAddress",
          "type": "address"
        }
      ],
      "name": "getWorkerRewardLevel",
      "outputs": [
        {
          "name": "_rewardLevel",
          "type": "uint256"
        }
      ],
      "payable": false,
      "stateMutability": "view",
      "type": "function"
    },
    {
      "constant": true,
      "inputs": [
        {
          "name": "",
          "type": "address"
        }
      ],
      "name": "isWorker",
      "outputs": [
        {
          "name": "",
          "type": "bool"
        }
      ],
      "payable": false,
      "stateMutability": "view",
      "type": "function"
    },
    {
      "constant": true,
      "inputs": [
        {
          "name": "",
          "type": "address"
        },
        {
          "name": "",
          "type": "uint256"
        }
      ],
      "name": "ratingRewards",
      "outputs": [
        {
          "name": "",
          "type": "uint256"
        }
      ],
      "payable": false,
      "stateMutability": "view",
      "type": "function"
    },
    {
      "constant": true,
      "inputs": [],
      "name": "getGrowthPoolRewardSystem",
      "outputs": [
        {
          "name": "_numberOfRewardSteps",
          "type": "uint256"
        },
        {
          "name": "_numberOfRewardCyclesForLevel",
          "type": "uint256[]"
        },
        {
          "name": "_numberOfRewardLevels",
          "type": "uint256"
        },
        {
          "name": "_levelRewards",
          "type": "uint256[]"
        },
        {
          "name": "_ipfsHash",
          "type": "bytes32"
        }
      ],
      "payable": false,
      "stateMutability": "view",
      "type": "function"
    },
    {
      "constant": false,
      "inputs": [
        {
          "name": "_businessAddress",
          "type": "address"
        },
        {
          "name": "_numberOfRewardSteps",
          "type": "uint256"
        },
        {
          "name": "_numberOfRewardCyclesForLevel",
          "type": "uint256[]"
        },
        {
          "name": "_numberOfRewardLevels",
          "type": "uint256"
        },
        {
          "name": "_levelRewards",
          "type": "uint256[]"
        },
        {
          "name": "_ipfsHash",
          "type": "bytes32"
        }
      ],
      "name": "registerWorkerRewardSystem",
      "outputs": [],
      "payable": false,
      "stateMutability": "nonpayable",
      "type": "function"
    },
    {
      "constant": true,
      "inputs": [
        {
          "name": "",
          "type": "address"
        }
      ],
      "name": "numberOfUserRatings",
      "outputs": [
        {
          "name": "",
          "type": "uint256"
        }
      ],
      "payable": false,
      "stateMutability": "view",
      "type": "function"
    },
    {
      "constant": true,
      "inputs": [
        {
          "name": "_address",
          "type": "address"
        }
      ],
      "name": "getGrowthPoolRewardStep",
      "outputs": [
        {
          "name": "_rewardStep",
          "type": "uint256"
        }
      ],
      "payable": false,
      "stateMutability": "view",
      "type": "function"
    },
    {
      "constant": true,
      "inputs": [
        {
          "name": "",
          "type": "address"
        },
        {
          "name": "",
          "type": "address"
        }
      ],
      "name": "workerRatingsSum",
      "outputs": [
        {
          "name": "",
          "type": "uint256"
        }
      ],
      "payable": false,
      "stateMutability": "view",
      "type": "function"
    },
    {
      "constant": true,
      "inputs": [
        {
          "name": "_actorAddress",
          "type": "address"
        }
      ],
      "name": "getNonceValueForGasSubsidy",
      "outputs": [
        {
          "name": "_nonceValue",
          "type": "uint256"
        }
      ],
      "payable": false,
      "stateMutability": "view",
      "type": "function"
    },
    {
      "constant": false,
      "inputs": [
        {
          "name": "businesses",
          "type": "address[]"
        }
      ],
      "name": "addBusinessesToGrowthPoolRewardsSystem",
      "outputs": [],
      "payable": false,
      "stateMutability": "nonpayable",
      "type": "function"
    },
    {
      "constant": false,
      "inputs": [
        {
          "name": "businesses",
          "type": "address[]"
        }
      ],
      "name": "removeBusinessesFromGrowthPoolRewardsSystem",
      "outputs": [],
      "payable": false,
      "stateMutability": "nonpayable",
      "type": "function"
    },
    {
      "constant": false,
      "inputs": [
        {
          "name": "_businessAddress",
          "type": "address"
        },
        {
          "name": "_ratingRewards",
          "type": "uint256[5]"
        }
      ],
      "name": "setRatingRewards",
      "outputs": [],
      "payable": false,
      "stateMutability": "nonpayable",
      "type": "function"
    },
    {
      "constant": true,
      "inputs": [
        {
          "name": "",
          "type": "address"
        },
        {
          "name": "",
          "type": "address"
        }
      ],
      "name": "workerHasApprovedBusiness",
      "outputs": [
        {
          "name": "",
          "type": "bool"
        }
      ],
      "payable": false,
      "stateMutability": "view",
      "type": "function"
    },
    {
      "constant": true,
      "inputs": [
        {
          "name": "",
          "type": "address"
        }
      ],
      "name": "growthPoolBusiness",
      "outputs": [
        {
          "name": "",
          "type": "bool"
        }
      ],
      "payable": false,
      "stateMutability": "view",
      "type": "function"
    },
    {
      "constant": false,
      "inputs": [
        {
          "name": "_newOwner",
          "type": "address"
        }
      ],
      "name": "transferOwnership",
      "outputs": [],
      "payable": false,
      "stateMutability": "nonpayable",
      "type": "function"
    },
    {
      "constant": true,
      "inputs": [
        {
          "name": "_userAddress",
          "type": "address"
        },
        {
          "name": "_businessAddress",
          "type": "address"
        }
      ],
      "name": "getUserRewardStep",
      "outputs": [
        {
          "name": "_rewardStep",
          "type": "uint256"
        }
      ],
      "payable": false,
      "stateMutability": "view",
      "type": "function"
    },
    {
      "constant": true,
      "inputs": [
        {
          "name": "_address",
          "type": "address"
        }
      ],
      "name": "getGrowthPoolRewardCycle",
      "outputs": [
        {
          "name": "_rewardCycle",
          "type": "uint256"
        }
      ],
      "payable": false,
      "stateMutability": "view",
      "type": "function"
    },
    {
      "constant": true,
      "inputs": [
        {
          "name": "",
          "type": "address"
        },
        {
          "name": "",
          "type": "uint256"
        }
      ],
      "name": "workerList",
      "outputs": [
        {
          "name": "",
          "type": "address"
        }
      ],
      "payable": false,
      "stateMutability": "view",
      "type": "function"
    },
    {
      "constant": true,
      "inputs": [
        {
          "name": "_workerAddress",
          "type": "address"
        },
        {
          "name": "_businessAddress",
          "type": "address"
        }
      ],
      "name": "getWorkerRewardStep",
      "outputs": [
        {
          "name": "_rewardStep",
          "type": "uint256"
        }
      ],
      "payable": false,
      "stateMutability": "view",
      "type": "function"
    },
    {
      "anonymous": false,
      "inputs": [
        {
          "indexed": false,
          "name": "_id",
          "type": "string"
        },
        {
          "indexed": false,
          "name": "_arg",
          "type": "uint8"
        }
      ],
      "name": "DebugInt",
      "type": "event"
    },
    {
      "anonymous": false,
      "inputs": [
        {
          "indexed": false,
          "name": "_id",
          "type": "string"
        },
        {
          "indexed": false,
          "name": "_arg",
          "type": "bytes32"
        }
      ],
      "name": "DebugBytes",
      "type": "event"
    },
    {
      "anonymous": false,
      "inputs": [
        {
          "indexed": true,
          "name": "_userAddress",
          "type": "address"
        },
        {
          "indexed": true,
          "name": "_workerAddress",
          "type": "address"
        },
        {
          "indexed": true,
          "name": "_businessAddress",
          "type": "address"
        },
        {
          "indexed": false,
          "name": "_workerRating",
          "type": "uint256"
        },
        {
          "indexed": false,
          "name": "_businessRating",
          "type": "uint256"
        },
        {
          "indexed": false,
          "name": "_ipfsHash",
          "type": "bytes32"
        }
      ],
      "name": "BoomerangExperienceRating",
      "type": "event"
    },
    {
      "anonymous": false,
      "inputs": [
        {
          "indexed": true,
          "name": "_workerAddress",
          "type": "address"
        },
        {
          "indexed": true,
          "name": "_businessAddress",
          "type": "address"
        },
        {
          "indexed": false,
          "name": "_workerRating",
          "type": "uint256"
        },
        {
          "indexed": false,
          "name": "_rewardValue",
          "type": "uint256"
        }
      ],
      "name": "WorkerReward",
      "type": "event"
    },
    {
      "anonymous": false,
      "inputs": [],
      "name": "RegisterGrowthPoolRewardSystem",
      "type": "event"
    },
    {
      "anonymous": false,
      "inputs": [
        {
          "indexed": false,
          "name": "_type",
          "type": "string"
        },
        {
          "indexed": true,
          "name": "_address",
          "type": "address"
        },
        {
          "indexed": false,
          "name": "_rewardValue",
          "type": "uint256"
        }
      ],
      "name": "GrowthPoolReward",
      "type": "event"
    },
    {
      "anonymous": false,
      "inputs": [
        {
          "indexed": true,
          "name": "_businessAddress",
          "type": "address"
        }
      ],
      "name": "RegisterWorkerRewardSystem",
      "type": "event"
    },
    {
      "anonymous": false,
      "inputs": [
        {
          "indexed": true,
          "name": "_workerAddress",
          "type": "address"
        },
        {
          "indexed": true,
          "name": "_businessAddress",
          "type": "address"
        },
        {
          "indexed": false,
          "name": "_rewardValue",
          "type": "uint256"
        }
      ],
      "name": "PerformanceReward",
      "type": "event"
    },
    {
      "anonymous": false,
      "inputs": [
        {
          "indexed": true,
          "name": "_businessAddress",
          "type": "address"
        }
      ],
      "name": "RegisterUserRewardSystem",
      "type": "event"
    },
    {
      "anonymous": false,
      "inputs": [
        {
          "indexed": true,
          "name": "_userAddress",
          "type": "address"
        },
        {
          "indexed": true,
          "name": "_businessAddress",
          "type": "address"
        },
        {
          "indexed": false,
          "name": "_rewardValue",
          "type": "uint256"
        }
      ],
      "name": "LoyaltyReward",
      "type": "event"
    },
    {
      "anonymous": false,
      "inputs": [
        {
          "indexed": false,
          "name": "_id",
          "type": "string"
        },
        {
          "indexed": false,
          "name": "_arg",
          "type": "uint256"
        }
      ],
      "name": "Debug",
      "type": "event"
    },
    {
      "anonymous": false,
      "inputs": [
        {
          "indexed": true,
          "name": "previousOwner",
          "type": "address"
        }
      ],
      "name": "OwnershipRenounced",
      "type": "event"
    },
    {
      "anonymous": false,
      "inputs": [
        {
          "indexed": true,
          "name": "previousOwner",
          "type": "address"
        },
        {
          "indexed": true,
          "name": "newOwner",
          "type": "address"
        }
      ],
      "name": "OwnershipTransferred",
      "type": "event"
    },
    {
      "constant": true,
      "inputs": [
        {
          "name": "_businessAddress",
          "type": "address"
        },
        {
          "name": "_userAddress",
          "type": "address"
        }
      ],
      "name": "getNonceValueForNewRating",
      "outputs": [
        {
          "name": "_nonceValue",
          "type": "uint256"
        }
      ],
      "payable": false,
      "stateMutability": "view",
      "type": "function"
    },
    {
      "constant": false,
      "inputs": [
        {
          "name": "_userAddress",
          "type": "address"
        },
        {
          "name": "_businessAddress",
          "type": "address"
        },
        {
          "name": "signature",
          "type": "bytes32[3]"
        }
      ],
      "name": "test",
      "outputs": [],
      "payable": false,
      "stateMutability": "nonpayable",
      "type": "function"
    },
    {
      "constant": false,
      "inputs": [
        {
          "name": "_userAddress",
          "type": "address"
        },
        {
          "name": "_workerAddress",
          "type": "address"
        },
        {
          "name": "_businessAddress",
          "type": "address"
        },
        {
          "name": "_workerRating",
          "type": "uint256"
        },
        {
          "name": "_businessRating",
          "type": "uint256"
        },
        {
          "name": "_ipfsHash",
          "type": "bytes32"
        },
        {
          "name": "signature",
          "type": "bytes32[3]"
        }
      ],
      "name": "rateBoomerangExperience",
      "outputs": [],
      "payable": false,
      "stateMutability": "nonpayable",
      "type": "function"
    }
  ],
  "bytecode": "0x608060405233600f60006101000a81548173ffffffffffffffffffffffffffffffffffffffff021916908373ffffffffffffffffffffffffffffffffffffffff160217905550614781806100546000396000f300608060405260043610610267576000357c0100000000000000000000000000000000000000000000000000000000900463ffffffff16806303d7c87d1461026c578063067a0949146103375780630e2be266146103b25780631241f47814610429578063130ee376146104a05780631466d0191461052d5780631926856614610588578063193ad4e7146105df5780631c946952146106dc57806322a887f41461071d578063261d22f014610794578063324558171461080b5780634038faed146108625780634209fff1146108d957806347d2bc701461093457806351fa2f3a14610a1f5780635e27d39814610a9657806364765d4414610aed57806364ca9da114610b6c5780636885295714610be3578063715018a614610c5057806371ee525b14610c6757806378939f9d14610cde5780637b1d0c8314610ddb5780637c24055614610e565780638b3504f214610ec35780638da5cb5b14610f305780639708c61f14610f875780639b5f770214610fde5780639ba164041461108d5780639d0696ed146110e4578063a0a6b7711461113b578063a7ce1cff14611192578063aa15664514611209578063abd9a4ef14611264578063b0106aa3146112c5578063b06af56b14611396578063b265c33d14611481578063c304c93b146114d8578063ca2027921461152f578063d167b8c8146115a6578063d656790f146115fd578063d8fb8c1f14611638578063dd89d81914611673578063e3363793146116e5578063e5d87e7614611760578063f2fde38b146117bb578063f31c7034146117fe578063f776757b14611875578063f9011888146118cc578063fc47627214611959575b600080fd5b34801561027857600080fd5b506103356004803603810190808035906020019092919080359060200190820180359060200190808060200260200160405190810160405280939291908181526020018383602002808284378201915050505050509192919290803590602001909291908035906020019082018035906020019080806020026020016040519081016040528093929190818152602001838360200280828437820191505050505050919291929080356000191690602001909291905050506119d0565b005b34801561034357600080fd5b50610398600480360381019080803573ffffffffffffffffffffffffffffffffffffffff169060200190929190803573ffffffffffffffffffffffffffffffffffffffff169060200190929190505050611aee565b604051808215151515815260200191505060405180910390f35b3480156103be57600080fd5b50610413600480360381019080803573ffffffffffffffffffffffffffffffffffffffff169060200190929190803573ffffffffffffffffffffffffffffffffffffffff169060200190929190505050611b1d565b6040518082815260200191505060405180910390f35b34801561043557600080fd5b5061048a600480360381019080803573ffffffffffffffffffffffffffffffffffffffff169060200190929190803573ffffffffffffffffffffffffffffffffffffffff169060200190929190505050611b42565b6040518082815260200191505060405180910390f35b3480156104ac57600080fd5b506104eb600480360381019080803573ffffffffffffffffffffffffffffffffffffffff16906020019092919080359060200190929190505050611bd1565b604051808273ffffffffffffffffffffffffffffffffffffffff1673ffffffffffffffffffffffffffffffffffffffff16815260200191505060405180910390f35b34801561053957600080fd5b5061056e600480360381019080803573ffffffffffffffffffffffffffffffffffffffff169060200190929190505050611c1e565b604051808215151515815260200191505060405180910390f35b34801561059457600080fd5b506105c9600480360381019080803573ffffffffffffffffffffffffffffffffffffffff169060200190929190505050611c3e565b6040518082815260200191505060405180910390f35b3480156105eb57600080fd5b50610620600480360381019080803573ffffffffffffffffffffffffffffffffffffffff169060200190929190505050611c8a565b6040518086815260200180602001858152602001806020018460001916600019168152602001838103835287818151815260200191508051906020019060200280838360005b83811015610681578082015181840152602081019050610666565b50505050905001838103825285818151815260200191508051906020019060200280838360005b838110156106c35780820151818401526020810190506106a8565b5050505090500197505050505050505060405180910390f35b3480156106e857600080fd5b506106f1611dec565b604051808481526020018381526020018260001916600019168152602001935050505060405180910390f35b34801561072957600080fd5b5061077e600480360381019080803573ffffffffffffffffffffffffffffffffffffffff169060200190929190803573ffffffffffffffffffffffffffffffffffffffff169060200190929190505050611e04565b6040518082815260200191505060405180910390f35b3480156107a057600080fd5b506107f5600480360381019080803573ffffffffffffffffffffffffffffffffffffffff169060200190929190803573ffffffffffffffffffffffffffffffffffffffff169060200190929190505050611e8b565b6040518082815260200191505060405180910390f35b34801561081757600080fd5b5061084c600480360381019080803573ffffffffffffffffffffffffffffffffffffffff169060200190929190505050611f1a565b6040518082815260200191505060405180910390f35b34801561086e57600080fd5b506108c3600480360381019080803573ffffffffffffffffffffffffffffffffffffffff169060200190929190803573ffffffffffffffffffffffffffffffffffffffff169060200190929190505050611f32565b6040518082815260200191505060405180910390f35b3480156108e557600080fd5b5061091a600480360381019080803573ffffffffffffffffffffffffffffffffffffffff169060200190929190505050611fc1565b604051808215151515815260200191505060405180910390f35b34801561094057600080fd5b50610a1d600480360381019080803573ffffffffffffffffffffffffffffffffffffffff169060200190929190803590602001909291908035906020019082018035906020019080806020026020016040519081016040528093929190818152602001838360200280828437820191505050505050919291929080359060200190929190803590602001908201803590602001908080602002602001604051908101604052809392919081815260200183836020028082843782019150505050505091929192908035600019169060200190929190505050611fe1565b005b348015610a2b57600080fd5b50610a80600480360381019080803573ffffffffffffffffffffffffffffffffffffffff169060200190929190803573ffffffffffffffffffffffffffffffffffffffff1690602001909291905050506120f8565b6040518082815260200191505060405180910390f35b348015610aa257600080fd5b50610ad7600480360381019080803573ffffffffffffffffffffffffffffffffffffffff169060200190929190505050612187565b6040518082815260200191505060405180910390f35b348015610af957600080fd5b50610b2e600480360381019080803573ffffffffffffffffffffffffffffffffffffffff16906020019092919050505061219f565b6040518082600560200280838360005b83811015610b59578082015181840152602081019050610b3e565b5050505090500191505060405180910390f35b348015610b7857600080fd5b50610bcd600480360381019080803573ffffffffffffffffffffffffffffffffffffffff169060200190929190803573ffffffffffffffffffffffffffffffffffffffff169060200190929190505050612229565b6040518082815260200191505060405180910390f35b348015610bef57600080fd5b50610c24600480360381019080803573ffffffffffffffffffffffffffffffffffffffff16906020019092919050505061224e565b604051808481526020018381526020018260001916600019168152602001935050505060405180910390f35b348015610c5c57600080fd5b50610c65612278565b005b348015610c7357600080fd5b50610cc8600480360381019080803573ffffffffffffffffffffffffffffffffffffffff169060200190929190803573ffffffffffffffffffffffffffffffffffffffff16906020019092919050505061237d565b6040518082815260200191505060405180910390f35b348015610cea57600080fd5b50610d1f600480360381019080803573ffffffffffffffffffffffffffffffffffffffff16906020019092919050505061240c565b6040518086815260200180602001858152602001806020018460001916600019168152602001838103835287818151815260200191508051906020019060200280838360005b83811015610d80578082015181840152602081019050610d65565b50505050905001838103825285818151815260200191508051906020019060200280838360005b83811015610dc2578082015181840152602081019050610da7565b5050505090500197505050505050505060405180910390f35b348015610de757600080fd5b50610e3c600480360381019080803573ffffffffffffffffffffffffffffffffffffffff169060200190929190803573ffffffffffffffffffffffffffffffffffffffff16906020019092919050505061256e565b604051808215151515815260200191505060405180910390f35b348015610e6257600080fd5b50610ec1600480360381019080803573ffffffffffffffffffffffffffffffffffffffff169060200190929190803573ffffffffffffffffffffffffffffffffffffffff1690602001909291908060600190919291929050505061259d565b005b348015610ecf57600080fd5b50610f04600480360381019080803573ffffffffffffffffffffffffffffffffffffffff169060200190929190505050612631565b604051808481526020018381526020018260001916600019168152602001935050505060405180910390f35b348015610f3c57600080fd5b50610f4561265b565b604051808273ffffffffffffffffffffffffffffffffffffffff1673ffffffffffffffffffffffffffffffffffffffff16815260200191505060405180910390f35b348015610f9357600080fd5b50610fc8600480360381019080803573ffffffffffffffffffffffffffffffffffffffff169060200190929190505050612681565b6040518082815260200191505060405180910390f35b348015610fea57600080fd5b5061108b600480360381019080803573ffffffffffffffffffffffffffffffffffffffff169060200190929190803573ffffffffffffffffffffffffffffffffffffffff169060200190929190803573ffffffffffffffffffffffffffffffffffffffff1690602001909291908035906020019092919080359060200190929190803560001916906020019092919080606001909192919290505050612699565b005b34801561109957600080fd5b506110ce600480360381019080803573ffffffffffffffffffffffffffffffffffffffff1690602001909291905050506127a7565b6040518082815260200191505060405180910390f35b3480156110f057600080fd5b506110f96127bf565b604051808273ffffffffffffffffffffffffffffffffffffffff1673ffffffffffffffffffffffffffffffffffffffff16815260200191505060405180910390f35b34801561114757600080fd5b5061117c600480360381019080803573ffffffffffffffffffffffffffffffffffffffff1690602001909291905050506127e5565b6040518082815260200191505060405180910390f35b34801561119e57600080fd5b506111f3600480360381019080803573ffffffffffffffffffffffffffffffffffffffff169060200190929190803573ffffffffffffffffffffffffffffffffffffffff169060200190929190505050612831565b6040518082815260200191505060405180910390f35b34801561121557600080fd5b5061124a600480360381019080803573ffffffffffffffffffffffffffffffffffffffff1690602001909291905050506128c0565b604051808215151515815260200191505060405180910390f35b34801561127057600080fd5b506112af600480360381019080803573ffffffffffffffffffffffffffffffffffffffff169060200190929190803590602001909291905050506128e0565b6040518082815260200191505060405180910390f35b3480156112d157600080fd5b506112da612907565b6040518086815260200180602001858152602001806020018460001916600019168152602001838103835287818151815260200191508051906020019060200280838360005b8381101561133b578082015181840152602081019050611320565b50505050905001838103825285818151815260200191508051906020019060200280838360005b8381101561137d578082015181840152602081019050611362565b5050505090500197505050505050505060405180910390f35b3480156113a257600080fd5b5061147f600480360381019080803573ffffffffffffffffffffffffffffffffffffffff1690602001909291908035906020019092919080359060200190820180359060200190808060200260200160405190810160405280939291908181526020018383602002808284378201915050505050509192919290803590602001909291908035906020019082018035906020019080806020026020016040519081016040528093929190818152602001838360200280828437820191505050505050919291929080356000191690602001909291905050506129dc565b005b34801561148d57600080fd5b506114c2600480360381019080803573ffffffffffffffffffffffffffffffffffffffff169060200190929190505050612af3565b6040518082815260200191505060405180910390f35b3480156114e457600080fd5b50611519600480360381019080803573ffffffffffffffffffffffffffffffffffffffff169060200190929190505050612b0b565b6040518082815260200191505060405180910390f35b34801561153b57600080fd5b50611590600480360381019080803573ffffffffffffffffffffffffffffffffffffffff169060200190929190803573ffffffffffffffffffffffffffffffffffffffff169060200190929190505050612b57565b6040518082815260200191505060405180910390f35b3480156115b257600080fd5b506115e7600480360381019080803573ffffffffffffffffffffffffffffffffffffffff169060200190929190505050612b7c565b6040518082815260200191505060405180910390f35b34801561160957600080fd5b50611636600480360381019080803590602001908201803590602001919091929391929390505050612bc5565b005b34801561164457600080fd5b50611671600480360381019080803590602001908201803590602001919091929391929390505050612cc7565b005b34801561167f57600080fd5b506116e3600480360381019080803573ffffffffffffffffffffffffffffffffffffffff1690602001909291908060a00190600580602002604051908101604052809291908260056020028082843782019150505050509192919290505050612dc9565b005b3480156116f157600080fd5b50611746600480360381019080803573ffffffffffffffffffffffffffffffffffffffff169060200190929190803573ffffffffffffffffffffffffffffffffffffffff169060200190929190505050612e1c565b604051808215151515815260200191505060405180910390f35b34801561176c57600080fd5b506117a1600480360381019080803573ffffffffffffffffffffffffffffffffffffffff169060200190929190505050612e4b565b604051808215151515815260200191505060405180910390f35b3480156117c757600080fd5b506117fc600480360381019080803573ffffffffffffffffffffffffffffffffffffffff169060200190929190505050612e6b565b005b34801561180a57600080fd5b5061185f600480360381019080803573ffffffffffffffffffffffffffffffffffffffff169060200190929190803573ffffffffffffffffffffffffffffffffffffffff169060200190929190505050612ed3565b6040518082815260200191505060405180910390f35b34801561188157600080fd5b506118b6600480360381019080803573ffffffffffffffffffffffffffffffffffffffff169060200190929190505050612f62565b6040518082815260200191505060405180910390f35b3480156118d857600080fd5b50611917600480360381019080803573ffffffffffffffffffffffffffffffffffffffff16906020019092919080359060200190929190505050612fae565b604051808273ffffffffffffffffffffffffffffffffffffffff1673ffffffffffffffffffffffffffffffffffffffff16815260200191505060405180910390f35b34801561196557600080fd5b506119ba600480360381019080803573ffffffffffffffffffffffffffffffffffffffff169060200190929190803573ffffffffffffffffffffffffffffffffffffffff169060200190929190505050612ffb565b6040518082815260200191505060405180910390f35b600f60009054906101000a900473ffffffffffffffffffffffffffffffffffffffff1673ffffffffffffffffffffffffffffffffffffffff163373ffffffffffffffffffffffffffffffffffffffff16141515611a2c57600080fd5b60a06040519081016040528086815260200185815260200184815260200183815260200182600019168152506013600082015181600001556020820151816001019080519060200190611a8092919061464d565b50604082015181600201556060820151816003019080519060200190611aa792919061464d565b50608082015181600401906000191690559050507fcecb7f2a433f872143ebb31ebe6bc5cd169e6a657bc645805e460bf08188818960405160405180910390a15050505050565b60016020528160005260406000206020528060005260406000206000915091509054906101000a900460ff1681565b600b602052816000526040600020602052806000526040600020600091509150505481565b600080601260008473ffffffffffffffffffffffffffffffffffffffff1673ffffffffffffffffffffffffffffffffffffffff16815260200190815260200160002090508060080160008573ffffffffffffffffffffffffffffffffffffffff1673ffffffffffffffffffffffffffffffffffffffff1681526020019081526020016000205491505092915050565b600560205281600052604060002081815481101515611bec57fe5b906000526020600020016000915091509054906101000a900473ffffffffffffffffffffffffffffffffffffffff1681565b60006020528060005260406000206000915054906101000a900460ff1681565b6000601360080160008373ffffffffffffffffffffffffffffffffffffffff1673ffffffffffffffffffffffffffffffffffffffff168152602001908152602001600020549050919050565b60006060600060606000611c9c61469a565b601160008873ffffffffffffffffffffffffffffffffffffffff1673ffffffffffffffffffffffffffffffffffffffff16815260200190815260200160002060a060405190810160405290816000820154815260200160018201805480602002602001604051908101604052809291908181526020018280548015611d4057602002820191906000526020600020905b815481526020019060010190808311611d2c575b505050505081526020016002820154815260200160038201805480602002602001604051908101604052809291908181526020018280548015611da257602002820191906000526020600020905b815481526020019060010190808311611d8e575b505050505081526020016004820154600019166000191681525050905080600001519550806020015194508060400151935080606001519250806080015191505091939590929450565b60138060000154908060020154908060040154905083565b6000601e60008473ffffffffffffffffffffffffffffffffffffffff1673ffffffffffffffffffffffffffffffffffffffff16815260200190815260200160002060008373ffffffffffffffffffffffffffffffffffffffff1673ffffffffffffffffffffffffffffffffffffffff16815260200190815260200160002054905092915050565b600080601260008473ffffffffffffffffffffffffffffffffffffffff1673ffffffffffffffffffffffffffffffffffffffff16815260200190815260200160002090508060060160008573ffffffffffffffffffffffffffffffffffffffff1673ffffffffffffffffffffffffffffffffffffffff1681526020019081526020016000205491505092915050565b600c6020528060005260406000206000915090505481565b600080601160008473ffffffffffffffffffffffffffffffffffffffff1673ffffffffffffffffffffffffffffffffffffffff16815260200190815260200160002090508060080160008573ffffffffffffffffffffffffffffffffffffffff1673ffffffffffffffffffffffffffffffffffffffff1681526020019081526020016000205491505092915050565b60066020528060005260406000206000915054906101000a900460ff1681565b60a0604051908101604052808681526020018581526020018481526020018381526020018260001916815250601160008873ffffffffffffffffffffffffffffffffffffffff1673ffffffffffffffffffffffffffffffffffffffff16815260200190815260200160002060008201518160000155602082015181600101908051906020019061207292919061464d565b5060408201518160020155606082015181600301908051906020019061209992919061464d565b50608082015181600401906000191690559050508573ffffffffffffffffffffffffffffffffffffffff167fe04286428ba72349229a5e6d1ffcd9120bd0eecad71b420398ad31e81682d38760405160405180910390a2505050505050565b600080601160008473ffffffffffffffffffffffffffffffffffffffff1673ffffffffffffffffffffffffffffffffffffffff16815260200190815260200160002090508060060160008573ffffffffffffffffffffffffffffffffffffffff1673ffffffffffffffffffffffffffffffffffffffff1681526020019081526020016000205491505092915050565b60086020528060005260406000206000915090505481565b6121a76146cd565b601d60008373ffffffffffffffffffffffffffffffffffffffff1673ffffffffffffffffffffffffffffffffffffffff16815260200190815260200160002060058060200260405190810160405280929190826005801561221d576020028201915b815481526020019060010190808311612209575b50505050509050919050565b601e602052816000526040600020602052806000526040600020600091509150505481565b60116020528060005260406000206000915090508060000154908060020154908060040154905083565b600f60009054906101000a900473ffffffffffffffffffffffffffffffffffffffff1673ffffffffffffffffffffffffffffffffffffffff163373ffffffffffffffffffffffffffffffffffffffff161415156122d457600080fd5b600f60009054906101000a900473ffffffffffffffffffffffffffffffffffffffff1673ffffffffffffffffffffffffffffffffffffffff167ff8df31144d9c2f0f6b59d69b8b98abd5459d07f2742c4df920b25aae33c6482060405160405180910390a26000600f60006101000a81548173ffffffffffffffffffffffffffffffffffffffff021916908373ffffffffffffffffffffffffffffffffffffffff160217905550565b600080601160008473ffffffffffffffffffffffffffffffffffffffff1673ffffffffffffffffffffffffffffffffffffffff16815260200190815260200160002090508060070160008573ffffffffffffffffffffffffffffffffffffffff1673ffffffffffffffffffffffffffffffffffffffff1681526020019081526020016000205491505092915050565b6000606060006060600061241e61469a565b601260008873ffffffffffffffffffffffffffffffffffffffff1673ffffffffffffffffffffffffffffffffffffffff16815260200190815260200160002060a0604051908101604052908160008201548152602001600182018054806020026020016040519081016040528092919081815260200182805480156124c257602002820191906000526020600020905b8154815260200190600101908083116124ae575b50505050508152602001600282015481526020016003820180548060200260200160405190810160405280929190818152602001828054801561252457602002820191906000526020600020905b815481526020019060010190808311612510575b505050505081526020016004820154600019166000191681525050905080600001519550806020015194508060400151935080606001519250806080015191505091939590929450565b60076020528160005260406000206020528060005260406000206000915091509054906101000a900460ff1681565b7f7ffb4de5d173c12d05354f715a4ea71440a6c6eb61a509e17e3cf51e40f22b058160016003811015156125cd57fe5b60200201356000191660405180806020018360001916600019168152602001828103825260018152602001807f62000000000000000000000000000000000000000000000000000000000000008152506020019250505060405180910390a1505050565b60126020528060005260406000206000915090508060000154908060020154908060040154905083565b600f60009054906101000a900473ffffffffffffffffffffffffffffffffffffffff1681565b60096020528060005260406000206000915090505481565b6126c98786836003806020026040519081016040528092919082600360200280828437820191505050505061308a565b6126d486868661347b565b6126de85846135af565b6126e9868686613668565b6126f38786613879565b6126fe868686613b17565b61270a87878787613dc6565b8473ffffffffffffffffffffffffffffffffffffffff168673ffffffffffffffffffffffffffffffffffffffff168873ffffffffffffffffffffffffffffffffffffffff167fefacfbc0fb9802faf88a34c9a029ab7a5c59b0681e8a310fd991f8cd88617b33878787604051808481526020018381526020018260001916600019168152602001935050505060405180910390a450505050505050565b600e6020528060005260406000206000915090505481565b601060009054906101000a900473ffffffffffffffffffffffffffffffffffffffff1681565b6000601360070160008373ffffffffffffffffffffffffffffffffffffffff1673ffffffffffffffffffffffffffffffffffffffff168152602001908152602001600020549050919050565b600080601260008473ffffffffffffffffffffffffffffffffffffffff1673ffffffffffffffffffffffffffffffffffffffff16815260200190815260200160002090508060070160008573ffffffffffffffffffffffffffffffffffffffff1673ffffffffffffffffffffffffffffffffffffffff1681526020019081526020016000205491505092915050565b60036020528060005260406000206000915054906101000a900460ff1681565b601d602052816000526040600020816005811015156128fb57fe5b01600091509150505481565b600060606000606060006013600001549450601360010180548060200260200160405190810160405280929190818152602001828054801561296857602002820191906000526020600020905b815481526020019060010190808311612954575b50505050509350601360020154925060136003018054806020026020016040519081016040528092919081815260200182805480156129c657602002820191906000526020600020905b8154815260200190600101908083116129b2575b5050505050915060136004015490509091929394565b60a0604051908101604052808681526020018581526020018481526020018381526020018260001916815250601260008873ffffffffffffffffffffffffffffffffffffffff1673ffffffffffffffffffffffffffffffffffffffff168152602001908152602001600020600082015181600001556020820151816001019080519060200190612a6d92919061464d565b50604082015181600201556060820151816003019080519060200190612a9492919061464d565b50608082015181600401906000191690559050508573ffffffffffffffffffffffffffffffffffffffff167f910de68bbeafb3b17db876b63617e0d84a56e46ed90d7b475ca836fc62ec82c960405160405180910390a2505050505050565b600d6020528060005260406000206000915090505481565b6000601360050160008373ffffffffffffffffffffffffffffffffffffffff1673ffffffffffffffffffffffffffffffffffffffff168152602001908152602001600020549050919050565b600a602052816000526040600020602052806000526040600020600091509150505481565b6000600e60008373ffffffffffffffffffffffffffffffffffffffff1673ffffffffffffffffffffffffffffffffffffffff168152602001908152602001600020549050919050565b6000600f60009054906101000a900473ffffffffffffffffffffffffffffffffffffffff1673ffffffffffffffffffffffffffffffffffffffff163373ffffffffffffffffffffffffffffffffffffffff16141515612c2357600080fd5b600090505b82829050811015612cc2576001601c60008585858181101515612c4757fe5b9050602002013573ffffffffffffffffffffffffffffffffffffffff1673ffffffffffffffffffffffffffffffffffffffff1673ffffffffffffffffffffffffffffffffffffffff16815260200190815260200160002060006101000a81548160ff0219169083151502179055508080600101915050612c28565b505050565b6000600f60009054906101000a900473ffffffffffffffffffffffffffffffffffffffff1673ffffffffffffffffffffffffffffffffffffffff163373ffffffffffffffffffffffffffffffffffffffff16141515612d2557600080fd5b600090505b82829050811015612dc4576000601c60008585858181101515612d4957fe5b9050602002013573ffffffffffffffffffffffffffffffffffffffff1673ffffffffffffffffffffffffffffffffffffffff1673ffffffffffffffffffffffffffffffffffffffff16815260200190815260200160002060006101000a81548160ff0219169083151502179055508080600101915050612d2a565b505050565b80601d60008473ffffffffffffffffffffffffffffffffffffffff1673ffffffffffffffffffffffffffffffffffffffff168152602001908152602001600020906005612e179291906146f0565b505050565b60046020528160005260406000206020528060005260406000206000915091509054906101000a900460ff1681565b601c6020528060005260406000206000915054906101000a900460ff1681565b600f60009054906101000a900473ffffffffffffffffffffffffffffffffffffffff1673ffffffffffffffffffffffffffffffffffffffff163373ffffffffffffffffffffffffffffffffffffffff16141515612ec757600080fd5b612ed081613ef2565b50565b600080601160008473ffffffffffffffffffffffffffffffffffffffff1673ffffffffffffffffffffffffffffffffffffffff16815260200190815260200160002090508060050160008573ffffffffffffffffffffffffffffffffffffffff1673ffffffffffffffffffffffffffffffffffffffff1681526020019081526020016000205491505092915050565b6000601360060160008373ffffffffffffffffffffffffffffffffffffffff1673ffffffffffffffffffffffffffffffffffffffff168152602001908152602001600020549050919050565b600260205281600052604060002081815481101515612fc957fe5b906000526020600020016000915091509054906101000a900473ffffffffffffffffffffffffffffffffffffffff1681565b600080601260008473ffffffffffffffffffffffffffffffffffffffff1673ffffffffffffffffffffffffffffffffffffffff16815260200190815260200160002090508060050160008573ffffffffffffffffffffffffffffffffffffffff1673ffffffffffffffffffffffffffffffffffffffff1681526020019081526020016000205491505092915050565b6000606060008086601e60008873ffffffffffffffffffffffffffffffffffffffff1673ffffffffffffffffffffffffffffffffffffffff16815260200190815260200160002060008973ffffffffffffffffffffffffffffffffffffffff1673ffffffffffffffffffffffffffffffffffffffff16815260200190815260200160002054604051602001808373ffffffffffffffffffffffffffffffffffffffff1673ffffffffffffffffffffffffffffffffffffffff166c01000000000000000000000000028152601401828152602001925050506040516020818303038152906040526040518082805190602001908083835b6020831015156131a55780518252602082019150602081019050602083039250613180565b6001836020036101000a038019825116818451168082178552505050505050905001915050604051809103902093506040805190810160405280601c81526020017f19457468657265756d205369676e6564204d6573736167653a0a333200000000815250925082846040516020018083805190602001908083835b6020831015156132465780518252602082019150602081019050602083039250613221565b6001836020036101000a0380198251168184511680821785525050505050509050018260001916600019168152602001925050506040516020818303038152906040526040518082805190602001908083835b6020831015156132be5780518252602082019150602081019050602083039250613299565b6001836020036101000a038019825116818451168082178552505050505050905001915050604051809103902091506001828660006003811015156132ff57fe5b60200201516001900487600160038110151561331757fe5b602002015188600260038110151561332b57fe5b6020020151604051600081526020016040526040518085600019166000191681526020018460ff1660ff1681526020018360001916600019168152602001826000191660001916815260200194505050505060206040516020810390808403906000865af11580156133a1573d6000803e3d6000fd5b5050506020604051035190508573ffffffffffffffffffffffffffffffffffffffff168173ffffffffffffffffffffffffffffffffffffffff161415156133e757600080fd5b6001601e60008873ffffffffffffffffffffffffffffffffffffffff1673ffffffffffffffffffffffffffffffffffffffff16815260200190815260200160002060008973ffffffffffffffffffffffffffffffffffffffff1673ffffffffffffffffffffffffffffffffffffffff1681526020019081526020016000206000828254019250508190555050505050505050565b600181108061348a5750600581115b15613494576135aa565b6001600b60008473ffffffffffffffffffffffffffffffffffffffff1673ffffffffffffffffffffffffffffffffffffffff16815260200190815260200160002060008573ffffffffffffffffffffffffffffffffffffffff1673ffffffffffffffffffffffffffffffffffffffff1681526020019081526020016000206000828254019250508190555080600a60008473ffffffffffffffffffffffffffffffffffffffff1673ffffffffffffffffffffffffffffffffffffffff16815260200190815260200160002060008573ffffffffffffffffffffffffffffffffffffffff1673ffffffffffffffffffffffffffffffffffffffff168152602001908152602001600020600082825401925050819055505b505050565b60018110806135be5750600581115b156135c857613664565b6001600960008473ffffffffffffffffffffffffffffffffffffffff1673ffffffffffffffffffffffffffffffffffffffff1681526020019081526020016000206000828254019250508190555080600860008473ffffffffffffffffffffffffffffffffffffffff1673ffffffffffffffffffffffffffffffffffffffff168152602001908152602001600020600082825401925050819055505b5050565b600080601d60008573ffffffffffffffffffffffffffffffffffffffff1673ffffffffffffffffffffffffffffffffffffffff168152602001908152602001600020915081600184036005811015156136bd57fe5b0154905060008114156136cf57613872565b601060009054906101000a900473ffffffffffffffffffffffffffffffffffffffff1673ffffffffffffffffffffffffffffffffffffffff166323b872dd8587846040518463ffffffff167c0100000000000000000000000000000000000000000000000000000000028152600401808473ffffffffffffffffffffffffffffffffffffffff1673ffffffffffffffffffffffffffffffffffffffff1681526020018373ffffffffffffffffffffffffffffffffffffffff1673ffffffffffffffffffffffffffffffffffffffff1681526020018281526020019350505050602060405180830381600087803b1580156137c857600080fd5b505af11580156137dc573d6000803e3d6000fd5b505050506040513d60208110156137f257600080fd5b8101908080519060200190929190505050508373ffffffffffffffffffffffffffffffffffffffff168573ffffffffffffffffffffffffffffffffffffffff167f8066b7cc2c24b344ba3883c32d52f19c0a07e0e8ed01314508387a03b2be35078584604051808381526020018281526020019250505060405180910390a35b5050505050565b6000806000601160008573ffffffffffffffffffffffffffffffffffffffff1673ffffffffffffffffffffffffffffffffffffffff16815260200190815260200160002092508260070160008673ffffffffffffffffffffffffffffffffffffffff1673ffffffffffffffffffffffffffffffffffffffff16815260200190815260200160002054915061390d8386613fee565b60008360050160008773ffffffffffffffffffffffffffffffffffffffff1673ffffffffffffffffffffffffffffffffffffffff168152602001908152602001600020541415613b1057826003018281548110151561396857fe5b90600052602060002001549050601060009054906101000a900473ffffffffffffffffffffffffffffffffffffffff1673ffffffffffffffffffffffffffffffffffffffff166323b872dd8587846040518463ffffffff167c0100000000000000000000000000000000000000000000000000000000028152600401808473ffffffffffffffffffffffffffffffffffffffff1673ffffffffffffffffffffffffffffffffffffffff1681526020018373ffffffffffffffffffffffffffffffffffffffff1673ffffffffffffffffffffffffffffffffffffffff1681526020018281526020019350505050602060405180830381600087803b158015613a6e57600080fd5b505af1158015613a82573d6000803e3d6000fd5b505050506040513d6020811015613a9857600080fd5b8101908080519060200190929190505050508373ffffffffffffffffffffffffffffffffffffffff168573ffffffffffffffffffffffffffffffffffffffff167f5a09eab88e066ba36b0e966c6f58a1112bec8eee253aad9e63dbdb6c65ece8bd836040518082815260200191505060405180910390a35b5050505050565b6000806000600584141515613b2b57613dbe565b601260008673ffffffffffffffffffffffffffffffffffffffff1673ffffffffffffffffffffffffffffffffffffffff16815260200190815260200160002092508260070160008773ffffffffffffffffffffffffffffffffffffffff1673ffffffffffffffffffffffffffffffffffffffff168152602001908152602001600020549150613bba8387613fee565b60008360050160008873ffffffffffffffffffffffffffffffffffffffff1673ffffffffffffffffffffffffffffffffffffffff168152602001908152602001600020541415613dbd578260030182815481101515613c1557fe5b90600052602060002001549050601060009054906101000a900473ffffffffffffffffffffffffffffffffffffffff1673ffffffffffffffffffffffffffffffffffffffff166323b872dd8688846040518463ffffffff167c0100000000000000000000000000000000000000000000000000000000028152600401808473ffffffffffffffffffffffffffffffffffffffff1673ffffffffffffffffffffffffffffffffffffffff1681526020018373ffffffffffffffffffffffffffffffffffffffff1673ffffffffffffffffffffffffffffffffffffffff1681526020018281526020019350505050602060405180830381600087803b158015613d1b57600080fd5b505af1158015613d2f573d6000803e3d6000fd5b505050506040513d6020811015613d4557600080fd5b8101908080519060200190929190505050508473ffffffffffffffffffffffffffffffffffffffff168673ffffffffffffffffffffffffffffffffffffffff167f2fc7ba242568d1b533c6e109f5d4bcd46b30e66bc4bcea519ab1e1254b06b0f2836040518082815260200191505060405180910390a35b5b505050505050565b60001515601c60008473ffffffffffffffffffffffffffffffffffffffff1673ffffffffffffffffffffffffffffffffffffffff16815260200190815260200160002060009054906101000a900460ff1615151415613e2457613eec565b613e636040805190810160405280600481526020017f757365720000000000000000000000000000000000000000000000000000000081525085614377565b6005811415613eac57613eab6040805190810160405280600681526020017f776f726b6572000000000000000000000000000000000000000000000000000081525084614377565b5b613eeb6040805190810160405280600881526020017f627573696e65737300000000000000000000000000000000000000000000000081525083614377565b5b50505050565b600073ffffffffffffffffffffffffffffffffffffffff168173ffffffffffffffffffffffffffffffffffffffff1614151515613f2e57600080fd5b8073ffffffffffffffffffffffffffffffffffffffff16600f60009054906101000a900473ffffffffffffffffffffffffffffffffffffffff1673ffffffffffffffffffffffffffffffffffffffff167f8be0079c531659141344cd1fd0a4f28419497f9722a3daafe3b4186f6b6457e060405160405180910390a380600f60006101000a81548173ffffffffffffffffffffffffffffffffffffffff021916908373ffffffffffffffffffffffffffffffffffffffff16021790555050565b60008060008060018660050160008773ffffffffffffffffffffffffffffffffffffffff1673ffffffffffffffffffffffffffffffffffffffff16815260200190815260200160002054019350856000015484141561431e5760008660050160008773ffffffffffffffffffffffffffffffffffffffff1673ffffffffffffffffffffffffffffffffffffffff1681526020019081526020016000208190555060018660060160008773ffffffffffffffffffffffffffffffffffffffff1673ffffffffffffffffffffffffffffffffffffffff168152602001908152602001600020540192508560070160008673ffffffffffffffffffffffffffffffffffffffff1673ffffffffffffffffffffffffffffffffffffffff168152602001908152602001600020549150856001018281548110151561412a57fe5b90600052602060002001548314156142c85760008660060160008773ffffffffffffffffffffffffffffffffffffffff1673ffffffffffffffffffffffffffffffffffffffff1681526020019081526020016000208190555060018660070160008773ffffffffffffffffffffffffffffffffffffffff1673ffffffffffffffffffffffffffffffffffffffff1681526020019081526020016000205401905085600201548114156142725760008660070160008773ffffffffffffffffffffffffffffffffffffffff1673ffffffffffffffffffffffffffffffffffffffff1681526020019081526020016000208190555060018660080160008773ffffffffffffffffffffffffffffffffffffffff1673ffffffffffffffffffffffffffffffffffffffff168152602001908152602001600020600082825401925050819055506142c3565b60018660070160008773ffffffffffffffffffffffffffffffffffffffff1673ffffffffffffffffffffffffffffffffffffffff168152602001908152602001600020600082825401925050819055505b614319565b60018660060160008773ffffffffffffffffffffffffffffffffffffffff1673ffffffffffffffffffffffffffffffffffffffff168152602001908152602001600020600082825401925050819055505b61436f565b60018660050160008773ffffffffffffffffffffffffffffffffffffffff1673ffffffffffffffffffffffffffffffffffffffff168152602001908152602001600020600082825401925050819055505b505050505050565b600080601360070160008473ffffffffffffffffffffffffffffffffffffffff1673ffffffffffffffffffffffffffffffffffffffff1681526020019081526020016000205491506143ca601384613fee565b6000601360050160008573ffffffffffffffffffffffffffffffffffffffff1673ffffffffffffffffffffffffffffffffffffffff1681526020019081526020016000205414156146475760136003018281548110151561442757fe5b90600052602060002001549050601060009054906101000a900473ffffffffffffffffffffffffffffffffffffffff1673ffffffffffffffffffffffffffffffffffffffff166323b872dd600f60009054906101000a900473ffffffffffffffffffffffffffffffffffffffff1685846040518463ffffffff167c0100000000000000000000000000000000000000000000000000000000028152600401808473ffffffffffffffffffffffffffffffffffffffff1673ffffffffffffffffffffffffffffffffffffffff1681526020018373ffffffffffffffffffffffffffffffffffffffff1673ffffffffffffffffffffffffffffffffffffffff1681526020018281526020019350505050602060405180830381600087803b15801561454f57600080fd5b505af1158015614563573d6000803e3d6000fd5b505050506040513d602081101561457957600080fd5b8101908080519060200190929190505050508273ffffffffffffffffffffffffffffffffffffffff167f4725b3b40e2a5e1411d9bdb27609143517e8a442f6913d8c617801de5478427e85836040518080602001838152602001828103825284818151815260200191508051906020019080838360005b8381101561460b5780820151818401526020810190506145f0565b50505050905090810190601f1680156146385780820380516001836020036101000a031916815260200191505b50935050505060405180910390a25b50505050565b828054828255906000526020600020908101928215614689579160200282015b8281111561468857825182559160200191906001019061466d565b5b5090506146969190614730565b5090565b60a06040519081016040528060008152602001606081526020016000815260200160608152602001600080191681525090565b60a060405190810160405280600590602082028038833980820191505090505090565b826005810192821561471f579160200282015b8281111561471e578251825591602001919060010190614703565b5b50905061472c9190614730565b5090565b61475291905b8082111561474e576000816000905550600101614736565b5090565b905600a165627a7a723058200392b019d79f9b8c27b0d7aa6f35da62ff9c5e31e65d3a5cd0a49206cb8bcb460029",
  "source": "pragma solidity ^0.4.24;\n\nimport './BoomerangActor.sol';\nimport './rewards/BoomerangRewards.sol';\n\ncontract BoomerangRateExperience is BoomerangActor, BoomerangRewards {\n\n  // businessAddress => userAddress => nonceValueForNewRating\n  mapping(address => mapping(address => uint256)) public nonceValueForNewRating;\n\n  function getNonceValueForNewRating(address _businessAddress, address _userAddress) public view returns (uint256 _nonceValue) {\n    _nonceValue = nonceValueForNewRating[_businessAddress][_userAddress];\n  }\n\n  event DebugInt(string _id, uint8 _arg);\n  event DebugBytes(string _id, bytes32 _arg);\n\n  event BoomerangExperienceRating(  address indexed _userAddress,\n                          address indexed _workerAddress,\n                          address indexed _businessAddress,\n                          uint256 _workerRating,\n                          uint256 _businessRating,\n                          bytes32 _ipfsHash);\n\n  function test(address _userAddress, address _businessAddress, bytes32[3] signature) external {\n\n//    emit DebugInt('a', uint8(signature[0]));\n\n//    bytes32 someBytes = signature[0];\n//    bytes32 someOtherBytes = bytes32(0xc25fe672ad9a174313135ca77d6e26eea15bdf73671ca0d397831226bd00f603);\n\n//    emit DebugInt('a', uint8(somethingElse));\n//    emit DebugInt('a', uint8(signature[0]));\n    emit DebugBytes('b', signature[1]);\n//    emit DebugBytes('c', signature[2]);\n\n\n//    onlyAuthorizedUser(_userAddress, _businessAddress, signature);\n  }\n\n  function rateBoomerangExperience( address _userAddress,\n                            address _workerAddress,\n                            address _businessAddress,\n                            uint256 _workerRating,\n                            uint256 _businessRating,\n                            bytes32 _ipfsHash,\n                            bytes32[3] signature)\n  external {\n\n    onlyAuthorizedUser(_userAddress, _businessAddress, signature);\n\n    updateWorkerRating(_workerAddress, _businessAddress, _workerRating);\n    updateBusinessRating(_businessAddress, _businessRating);\n\n    rewardWorker(_workerAddress, _businessAddress, _workerRating);\n\n    updateUserRewardProgress(_userAddress, _businessAddress);\n    updateWorkerRewardProgress(_workerAddress, _businessAddress, _workerRating);\n    updateGrowthPoolRewardProgress(_userAddress, _workerAddress, _businessAddress, _workerRating);\n\n    emit BoomerangExperienceRating(_userAddress, _workerAddress, _businessAddress, _workerRating, _businessRating, _ipfsHash);\n  }\n\n  function updateBusinessRating(address _businessAddress, uint256 _businessRating) internal {\n\n    if (_businessRating < 1 || _businessRating > 5) {\n      return;\n    }\n\n    numberOfBusinessRatings[_businessAddress] += 1;\n    businessRatingsSum[_businessAddress] += _businessRating;\n  }\n\n  function updateWorkerRating(address _workerAddress, address _businessAddress, uint256 _workerRating) internal {\n\n    if (_workerRating < 1 || _workerRating > 5) {\n      return;\n    }\n\n    numberOfWorkerRatings[_businessAddress][_workerAddress] += 1;\n    workerRatingsSum[_businessAddress][_workerAddress] += _workerRating;\n  }\n\n  function onlyAuthorizedUser(address _userAddress, address _businessAddress, bytes32[3] signature) internal {\n\n    bytes32 nonceHash = keccak256(abi.encodePacked(_userAddress, nonceValueForNewRating[_businessAddress][_userAddress]));\n    bytes memory prefix = '\\x19Ethereum Signed Message:\\n32';\n    bytes32 prefixedHash = keccak256(abi.encodePacked(prefix, nonceHash));\n    address recoveredAddress = ecrecover(prefixedHash, uint8(signature[0]), signature[1], signature[2]);\n    require(recoveredAddress == _businessAddress);\n\n    nonceValueForNewRating[_businessAddress][_userAddress] += 1;\n  }\n}",
  "sourcePath": "/Users/panda/projects/boomerang/packages/boomerang-contracts/contracts/BoomerangRateExperience.sol",
  "compiler": {
    "name": "solc",
    "version": "0.4.24+commit.e67f0147.Emscripten.clang"
  },
  "schemaVersion": "2.0.1",
  "updatedAt": "2018-08-17T17:50:32.244Z"
}