{
  "contractName": "BoomerangPresaleTokenLockup",
  "abi": [
    {
      "constant": true,
      "inputs": [],
      "name": "beneficiary",
      "outputs": [
        {
          "name": "",
          "type": "address"
        }
      ],
      "payable": false,
      "stateMutability": "view",
      "type": "function"
    },
    {
      "constant": true,
      "inputs": [],
      "name": "releaseTime",
      "outputs": [
        {
          "name": "",
          "type": "uint256"
        }
      ],
      "payable": false,
      "stateMutability": "view",
      "type": "function"
    },
    {
      "inputs": [
        {
          "name": "_tokenContractAddress",
          "type": "address"
        },
        {
          "name": "_beneficiary",
          "type": "address"
        }
      ],
      "payable": false,
      "stateMutability": "nonpayable",
      "type": "constructor"
    },
    {
      "constant": false,
      "inputs": [],
      "name": "release",
      "outputs": [],
      "payable": false,
      "stateMutability": "nonpayable",
      "type": "function"
    },
    {
      "constant": true,
      "inputs": [],
      "name": "fundsAreAvailable",
      "outputs": [
        {
          "name": "",
          "type": "bool"
        }
      ],
      "payable": false,
      "stateMutability": "view",
      "type": "function"
    }
  ],
  "bytecode": "0x608060405234801561001057600080fd5b5060405160408061052d8339810180604052810190808051906020019092919080519060200190929190505050600073ffffffffffffffffffffffffffffffffffffffff168273ffffffffffffffffffffffffffffffffffffffff161415151561007957600080fd5b600073ffffffffffffffffffffffffffffffffffffffff168173ffffffffffffffffffffffffffffffffffffffff16141515156100b557600080fd5b635a0c4860600281905550816000806101000a81548173ffffffffffffffffffffffffffffffffffffffff021916908373ffffffffffffffffffffffffffffffffffffffff16021790555080600160006101000a81548173ffffffffffffffffffffffffffffffffffffffff021916908373ffffffffffffffffffffffffffffffffffffffff16021790555050506103db806101526000396000f300608060405260043610610062576000357c0100000000000000000000000000000000000000000000000000000000900463ffffffff16806338af3eed146100675780637ce645a6146100be57806386d1a69f146100ed578063b91d400114610104575b600080fd5b34801561007357600080fd5b5061007c61012f565b604051808273ffffffffffffffffffffffffffffffffffffffff1673ffffffffffffffffffffffffffffffffffffffff16815260200191505060405180910390f35b3480156100ca57600080fd5b506100d3610155565b604051808215151515815260200191505060405180910390f35b3480156100f957600080fd5b50610102610162565b005b34801561011057600080fd5b506101196103a9565b6040518082815260200191505060405180910390f35b600160009054906101000a900473ffffffffffffffffffffffffffffffffffffffff1681565b6000600254421015905090565b6000600254421015151561017557600080fd5b6000809054906101000a900473ffffffffffffffffffffffffffffffffffffffff1673ffffffffffffffffffffffffffffffffffffffff166370a08231306040518263ffffffff167c0100000000000000000000000000000000000000000000000000000000028152600401808273ffffffffffffffffffffffffffffffffffffffff1673ffffffffffffffffffffffffffffffffffffffff168152602001915050602060405180830381600087803b15801561023157600080fd5b505af1158015610245573d6000803e3d6000fd5b505050506040513d602081101561025b57600080fd5b8101908080519060200190929190505050905060008111151561027d57600080fd5b6000809054906101000a900473ffffffffffffffffffffffffffffffffffffffff1673ffffffffffffffffffffffffffffffffffffffff1663a9059cbb600160009054906101000a900473ffffffffffffffffffffffffffffffffffffffff16836040518363ffffffff167c0100000000000000000000000000000000000000000000000000000000028152600401808373ffffffffffffffffffffffffffffffffffffffff1673ffffffffffffffffffffffffffffffffffffffff16815260200182815260200192505050602060405180830381600087803b15801561036357600080fd5b505af1158015610377573d6000803e3d6000fd5b505050506040513d602081101561038d57600080fd5b810190808051906020019092919050505015156103a657fe5b50565b600254815600a165627a7a72305820caee8442bc00cbb8ad678e6b92d996fad0a3b8b9ff94cc5a21e3d05936ce11250029",
  "source": "pragma solidity ^0.4.24;\n\nimport \"./SafeMath.sol\";\nimport './BoomerangToken.sol';\n\n/**\n * @title BoomerangPresaleTokenLockup\n * @author Ben Johnson\n *\n * @dev BoomerangPresaleTokenLockup will allow a beneficiary to extract the tokens on 11/15/2017 at 9 AM EST\n * @dev Based on TokenTimelock by OpenZeppelin: https://github.com/OpenZeppelin/zeppelin-solidity\n */\ncontract BoomerangPresaleTokenLockup {\n   using SafeMath for uint256;\n\n   BoomerangToken boomerangToken;\n\n   // beneficiary of tokens after they are released\n   address public beneficiary;\n\n   // timestamp when token release is enabled\n   uint256 public releaseTime;\n\n   constructor(address _tokenContractAddress, address _beneficiary) public {\n      require(_tokenContractAddress != address(0));\n      require(_beneficiary != address(0));\n      releaseTime = 1510754400;\n      boomerangToken = BoomerangToken(_tokenContractAddress);\n      beneficiary = _beneficiary;\n   }\n\n   /**\n   * @notice Transfers tokens held by timelock to beneficiary.\n   */\n   function release() public {\n      require(now >= releaseTime);\n\n      uint256 balance = boomerangToken.balanceOf(this);\n      require(balance > 0);\n\n      assert(boomerangToken.transfer(beneficiary, balance));\n   }\n\n   function fundsAreAvailable() public view returns (bool) {\n      return now >= releaseTime;\n   }\n}\n",
  "sourcePath": "/Users/panda/projects/boomerang/packages/boomerang-token-contracts/contracts/BoomerangPresaleTokenLockup.sol",
  "compiler": {
    "name": "solc",
    "version": "0.4.24+commit.e67f0147.Emscripten.clang"
  },
  "schemaVersion": "2.0.1",
  "updatedAt": "2018-07-31T15:50:51.062Z"
}