{
  "contractName": "Boomerang",
  "abi": [
    {
      "constant": false,
      "inputs": [
        {
          "name": "_numberOfRewardSteps",
          "type": "uint256"
        },
        {
          "name": "_numberOfRewardCyclesForLevel",
          "type": "uint256[]"
        },
        {
          "name": "_numberOfRewardLevels",
          "type": "uint256"
        },
        {
          "name": "_levelRewards",
          "type": "uint256[]"
        },
        {
          "name": "_ipfsHash",
          "type": "bytes32"
        }
      ],
      "name": "registerGrowthPoolRewardSystem",
      "outputs": [],
      "payable": false,
      "stateMutability": "nonpayable",
      "type": "function"
    },
    {
      "constant": true,
      "inputs": [
        {
          "name": "",
          "type": "address"
        },
        {
          "name": "",
          "type": "address"
        }
      ],
      "name": "businessHasApprovedWorker",
      "outputs": [
        {
          "name": "",
          "type": "bool"
        }
      ],
      "payable": false,
      "stateMutability": "view",
      "type": "function"
    },
    {
      "constant": true,
      "inputs": [
        {
          "name": "",
          "type": "address"
        },
        {
          "name": "",
          "type": "address"
        }
      ],
      "name": "numberOfWorkerRatings",
      "outputs": [
        {
          "name": "",
          "type": "uint256"
        }
      ],
      "payable": false,
      "stateMutability": "view",
      "type": "function"
    },
    {
      "constant": true,
      "inputs": [
        {
          "name": "_workerAddress",
          "type": "address"
        },
        {
          "name": "_businessAddress",
          "type": "address"
        }
      ],
      "name": "getWorkerRewardRank",
      "outputs": [
        {
          "name": "_rewardRank",
          "type": "uint256"
        }
      ],
      "payable": false,
      "stateMutability": "view",
      "type": "function"
    },
    {
      "constant": true,
      "inputs": [
        {
          "name": "",
          "type": "address"
        },
        {
          "name": "",
          "type": "uint256"
        }
      ],
      "name": "businessList",
      "outputs": [
        {
          "name": "",
          "type": "address"
        }
      ],
      "payable": false,
      "stateMutability": "view",
      "type": "function"
    },
    {
      "constant": true,
      "inputs": [
        {
          "name": "",
          "type": "address"
        }
      ],
      "name": "isBusiness",
      "outputs": [
        {
          "name": "",
          "type": "bool"
        }
      ],
      "payable": false,
      "stateMutability": "view",
      "type": "function"
    },
    {
      "constant": true,
      "inputs": [
        {
          "name": "_address",
          "type": "address"
        }
      ],
      "name": "getGrowthPoolRewardRank",
      "outputs": [
        {
          "name": "_rewardRank",
          "type": "uint256"
        }
      ],
      "payable": false,
      "stateMutability": "view",
      "type": "function"
    },
    {
      "constant": true,
      "inputs": [
        {
          "name": "_businessAddress",
          "type": "address"
        }
      ],
      "name": "getUserRewardSystem",
      "outputs": [
        {
          "name": "_numberOfRewardSteps",
          "type": "uint256"
        },
        {
          "name": "_numberOfRewardCyclesForLevel",
          "type": "uint256[]"
        },
        {
          "name": "_numberOfRewardLevels",
          "type": "uint256"
        },
        {
          "name": "_levelRewards",
          "type": "uint256[]"
        },
        {
          "name": "_ipfsHash",
          "type": "bytes32"
        }
      ],
      "payable": false,
      "stateMutability": "view",
      "type": "function"
    },
    {
      "constant": true,
      "inputs": [],
      "name": "growthPoolRewardSystem",
      "outputs": [
        {
          "name": "numberOfRewardSteps",
          "type": "uint256"
        },
        {
          "name": "numberOfRewardLevels",
          "type": "uint256"
        },
        {
          "name": "ipfsHash",
          "type": "bytes32"
        }
      ],
      "payable": false,
      "stateMutability": "view",
      "type": "function"
    },
    {
      "constant": true,
      "inputs": [],
      "name": "updatedContractAddress",
      "outputs": [
        {
          "name": "",
          "type": "address"
        }
      ],
      "payable": false,
      "stateMutability": "view",
      "type": "function"
    },
    {
      "constant": true,
      "inputs": [
        {
          "name": "_businessAddress",
          "type": "address"
        },
        {
          "name": "_userAddress",
          "type": "address"
        }
      ],
      "name": "getNonceValueForNewRating",
      "outputs": [
        {
          "name": "_nonceValue",
          "type": "uint256"
        }
      ],
      "payable": false,
      "stateMutability": "view",
      "type": "function"
    },
    {
      "constant": true,
      "inputs": [
        {
          "name": "_workerAddress",
          "type": "address"
        },
        {
          "name": "_businessAddress",
          "type": "address"
        }
      ],
      "name": "getWorkerRewardCycle",
      "outputs": [
        {
          "name": "_rewardCycle",
          "type": "uint256"
        }
      ],
      "payable": false,
      "stateMutability": "view",
      "type": "function"
    },
    {
      "constant": true,
      "inputs": [
        {
          "name": "",
          "type": "address"
        }
      ],
      "name": "userRatingsSum",
      "outputs": [
        {
          "name": "",
          "type": "uint256"
        }
      ],
      "payable": false,
      "stateMutability": "view",
      "type": "function"
    },
    {
      "constant": false,
      "inputs": [
        {
          "name": "_userAddress",
          "type": "address"
        },
        {
          "name": "_workerAddress",
          "type": "address"
        },
        {
          "name": "_businessAddress",
          "type": "address"
        },
        {
          "name": "_workerRating",
          "type": "uint256"
        },
        {
          "name": "_businessRating",
          "type": "uint256"
        },
        {
          "name": "_ipfsHash",
          "type": "bytes32"
        },
        {
          "name": "_v",
          "type": "uint8"
        },
        {
          "name": "_r",
          "type": "bytes32"
        },
        {
          "name": "_s",
          "type": "bytes32"
        }
      ],
      "name": "rateBoomerangExperience",
      "outputs": [],
      "payable": false,
      "stateMutability": "nonpayable",
      "type": "function"
    },
    {
      "constant": false,
      "inputs": [
        {
          "name": "_businessAddress",
          "type": "address"
        },
        {
          "name": "_ratingRewards",
          "type": "uint256[5]"
        },
        {
          "name": "_v",
          "type": "uint8"
        },
        {
          "name": "_r",
          "type": "bytes32"
        },
        {
          "name": "_s",
          "type": "bytes32"
        }
      ],
      "name": "setRatingRewards",
      "outputs": [],
      "payable": false,
      "stateMutability": "nonpayable",
      "type": "function"
    },
    {
      "constant": true,
      "inputs": [
        {
          "name": "_userAddress",
          "type": "address"
        },
        {
          "name": "_businessAddress",
          "type": "address"
        }
      ],
      "name": "getUserRewardRank",
      "outputs": [
        {
          "name": "_rewardRank",
          "type": "uint256"
        }
      ],
      "payable": false,
      "stateMutability": "view",
      "type": "function"
    },
    {
      "constant": true,
      "inputs": [
        {
          "name": "",
          "type": "address"
        }
      ],
      "name": "isUser",
      "outputs": [
        {
          "name": "",
          "type": "bool"
        }
      ],
      "payable": false,
      "stateMutability": "view",
      "type": "function"
    },
    {
      "constant": false,
      "inputs": [
        {
          "name": "_businessAddress",
          "type": "address"
        },
        {
          "name": "_numberOfRewardSteps",
          "type": "uint256"
        },
        {
          "name": "_numberOfRewardCyclesForLevel",
          "type": "uint256[]"
        },
        {
          "name": "_numberOfRewardLevels",
          "type": "uint256"
        },
        {
          "name": "_levelRewards",
          "type": "uint256[]"
        },
        {
          "name": "_ipfsHash",
          "type": "bytes32"
        }
      ],
      "name": "registerUserRewardSystem",
      "outputs": [],
      "payable": false,
      "stateMutability": "nonpayable",
      "type": "function"
    },
    {
      "constant": true,
      "inputs": [
        {
          "name": "_userAddress",
          "type": "address"
        },
        {
          "name": "_businessAddress",
          "type": "address"
        }
      ],
      "name": "getUserRewardCycle",
      "outputs": [
        {
          "name": "_rewardCycle",
          "type": "uint256"
        }
      ],
      "payable": false,
      "stateMutability": "view",
      "type": "function"
    },
    {
      "constant": true,
      "inputs": [
        {
          "name": "",
          "type": "address"
        }
      ],
      "name": "businessRatingsSum",
      "outputs": [
        {
          "name": "",
          "type": "uint256"
        }
      ],
      "payable": false,
      "stateMutability": "view",
      "type": "function"
    },
    {
      "constant": true,
      "inputs": [
        {
          "name": "_businessAddress",
          "type": "address"
        }
      ],
      "name": "getRatingRewards",
      "outputs": [
        {
          "name": "_ratingRewards",
          "type": "uint256[5]"
        }
      ],
      "payable": false,
      "stateMutability": "view",
      "type": "function"
    },
    {
      "constant": true,
      "inputs": [
        {
          "name": "",
          "type": "address"
        },
        {
          "name": "",
          "type": "address"
        }
      ],
      "name": "nonceValueForNewRating",
      "outputs": [
        {
          "name": "",
          "type": "uint256"
        }
      ],
      "payable": false,
      "stateMutability": "view",
      "type": "function"
    },
    {
      "constant": true,
      "inputs": [
        {
          "name": "",
          "type": "address"
        }
      ],
      "name": "userRewardSystem",
      "outputs": [
        {
          "name": "numberOfRewardSteps",
          "type": "uint256"
        },
        {
          "name": "numberOfRewardLevels",
          "type": "uint256"
        },
        {
          "name": "ipfsHash",
          "type": "bytes32"
        }
      ],
      "payable": false,
      "stateMutability": "view",
      "type": "function"
    },
    {
      "constant": false,
      "inputs": [],
      "name": "renounceOwnership",
      "outputs": [],
      "payable": false,
      "stateMutability": "nonpayable",
      "type": "function"
    },
    {
      "constant": true,
      "inputs": [
        {
          "name": "_userAddress",
          "type": "address"
        },
        {
          "name": "_businessAddress",
          "type": "address"
        }
      ],
      "name": "getUserRewardLevel",
      "outputs": [
        {
          "name": "_rewardLevel",
          "type": "uint256"
        }
      ],
      "payable": false,
      "stateMutability": "view",
      "type": "function"
    },
    {
      "constant": true,
      "inputs": [
        {
          "name": "",
          "type": "address"
        }
      ],
      "name": "onlyTestMapping",
      "outputs": [
        {
          "name": "",
          "type": "uint256"
        }
      ],
      "payable": false,
      "stateMutability": "view",
      "type": "function"
    },
    {
      "constant": true,
      "inputs": [
        {
          "name": "_businessAddress",
          "type": "address"
        }
      ],
      "name": "getWorkerRewardSystem",
      "outputs": [
        {
          "name": "_numberOfRewardSteps",
          "type": "uint256"
        },
        {
          "name": "_numberOfRewardCyclesForLevel",
          "type": "uint256[]"
        },
        {
          "name": "_numberOfRewardLevels",
          "type": "uint256"
        },
        {
          "name": "_levelRewards",
          "type": "uint256[]"
        },
        {
          "name": "_ipfsHash",
          "type": "bytes32"
        }
      ],
      "payable": false,
      "stateMutability": "view",
      "type": "function"
    },
    {
      "constant": true,
      "inputs": [
        {
          "name": "",
          "type": "address"
        },
        {
          "name": "",
          "type": "address"
        }
      ],
      "name": "isEmployed",
      "outputs": [
        {
          "name": "",
          "type": "bool"
        }
      ],
      "payable": false,
      "stateMutability": "view",
      "type": "function"
    },
    {
      "constant": true,
      "inputs": [
        {
          "name": "",
          "type": "address"
        }
      ],
      "name": "workerRewardSystem",
      "outputs": [
        {
          "name": "numberOfRewardSteps",
          "type": "uint256"
        },
        {
          "name": "numberOfRewardLevels",
          "type": "uint256"
        },
        {
          "name": "ipfsHash",
          "type": "bytes32"
        }
      ],
      "payable": false,
      "stateMutability": "view",
      "type": "function"
    },
    {
      "constant": true,
      "inputs": [],
      "name": "owner",
      "outputs": [
        {
          "name": "",
          "type": "address"
        }
      ],
      "payable": false,
      "stateMutability": "view",
      "type": "function"
    },
    {
      "constant": true,
      "inputs": [
        {
          "name": "",
          "type": "address"
        }
      ],
      "name": "numberOfBusinessRatings",
      "outputs": [
        {
          "name": "",
          "type": "uint256"
        }
      ],
      "payable": false,
      "stateMutability": "view",
      "type": "function"
    },
    {
      "constant": true,
      "inputs": [
        {
          "name": "",
          "type": "address"
        }
      ],
      "name": "nonceValueForGasSubsidy",
      "outputs": [
        {
          "name": "",
          "type": "uint256"
        }
      ],
      "payable": false,
      "stateMutability": "view",
      "type": "function"
    },
    {
      "constant": true,
      "inputs": [],
      "name": "boomerangToken",
      "outputs": [
        {
          "name": "",
          "type": "address"
        }
      ],
      "payable": false,
      "stateMutability": "view",
      "type": "function"
    },
    {
      "constant": true,
      "inputs": [
        {
          "name": "_address",
          "type": "address"
        }
      ],
      "name": "getGrowthPoolRewardLevel",
      "outputs": [
        {
          "name": "_rewardLevel",
          "type": "uint256"
        }
      ],
      "payable": false,
      "stateMutability": "view",
      "type": "function"
    },
    {
      "constant": true,
      "inputs": [
        {
          "name": "_workerAddress",
          "type": "address"
        },
        {
          "name": "_businessAddress",
          "type": "address"
        }
      ],
      "name": "getWorkerRewardLevel",
      "outputs": [
        {
          "name": "_rewardLevel",
          "type": "uint256"
        }
      ],
      "payable": false,
      "stateMutability": "view",
      "type": "function"
    },
    {
      "constant": true,
      "inputs": [
        {
          "name": "",
          "type": "address"
        }
      ],
      "name": "isWorker",
      "outputs": [
        {
          "name": "",
          "type": "bool"
        }
      ],
      "payable": false,
      "stateMutability": "view",
      "type": "function"
    },
    {
      "constant": true,
      "inputs": [
        {
          "name": "",
          "type": "address"
        },
        {
          "name": "",
          "type": "uint256"
        }
      ],
      "name": "ratingRewards",
      "outputs": [
        {
          "name": "",
          "type": "uint256"
        }
      ],
      "payable": false,
      "stateMutability": "view",
      "type": "function"
    },
    {
      "constant": true,
      "inputs": [],
      "name": "getGrowthPoolRewardSystem",
      "outputs": [
        {
          "name": "_numberOfRewardSteps",
          "type": "uint256"
        },
        {
          "name": "_numberOfRewardCyclesForLevel",
          "type": "uint256[]"
        },
        {
          "name": "_numberOfRewardLevels",
          "type": "uint256"
        },
        {
          "name": "_levelRewards",
          "type": "uint256[]"
        },
        {
          "name": "_ipfsHash",
          "type": "bytes32"
        }
      ],
      "payable": false,
      "stateMutability": "view",
      "type": "function"
    },
    {
      "constant": false,
      "inputs": [
        {
          "name": "_businessAddress",
          "type": "address"
        },
        {
          "name": "_numberOfRewardSteps",
          "type": "uint256"
        },
        {
          "name": "_numberOfRewardCyclesForLevel",
          "type": "uint256[]"
        },
        {
          "name": "_numberOfRewardLevels",
          "type": "uint256"
        },
        {
          "name": "_levelRewards",
          "type": "uint256[]"
        },
        {
          "name": "_ipfsHash",
          "type": "bytes32"
        }
      ],
      "name": "registerWorkerRewardSystem",
      "outputs": [],
      "payable": false,
      "stateMutability": "nonpayable",
      "type": "function"
    },
    {
      "constant": true,
      "inputs": [
        {
          "name": "",
          "type": "address"
        }
      ],
      "name": "numberOfUserRatings",
      "outputs": [
        {
          "name": "",
          "type": "uint256"
        }
      ],
      "payable": false,
      "stateMutability": "view",
      "type": "function"
    },
    {
      "constant": true,
      "inputs": [
        {
          "name": "_address",
          "type": "address"
        }
      ],
      "name": "getGrowthPoolRewardStep",
      "outputs": [
        {
          "name": "_rewardStep",
          "type": "uint256"
        }
      ],
      "payable": false,
      "stateMutability": "view",
      "type": "function"
    },
    {
      "constant": true,
      "inputs": [
        {
          "name": "",
          "type": "address"
        },
        {
          "name": "",
          "type": "address"
        }
      ],
      "name": "workerRatingsSum",
      "outputs": [
        {
          "name": "",
          "type": "uint256"
        }
      ],
      "payable": false,
      "stateMutability": "view",
      "type": "function"
    },
    {
      "constant": true,
      "inputs": [
        {
          "name": "_actorAddress",
          "type": "address"
        }
      ],
      "name": "getNonceValueForGasSubsidy",
      "outputs": [
        {
          "name": "_nonceValue",
          "type": "uint256"
        }
      ],
      "payable": false,
      "stateMutability": "view",
      "type": "function"
    },
    {
      "constant": false,
      "inputs": [
        {
          "name": "businesses",
          "type": "address[]"
        }
      ],
      "name": "addBusinessesToGrowthPoolRewardsSystem",
      "outputs": [],
      "payable": false,
      "stateMutability": "nonpayable",
      "type": "function"
    },
    {
      "constant": false,
      "inputs": [
        {
          "name": "businesses",
          "type": "address[]"
        }
      ],
      "name": "removeBusinessesFromGrowthPoolRewardsSystem",
      "outputs": [],
      "payable": false,
      "stateMutability": "nonpayable",
      "type": "function"
    },
    {
      "constant": true,
      "inputs": [
        {
          "name": "",
          "type": "address"
        },
        {
          "name": "",
          "type": "address"
        }
      ],
      "name": "workerHasApprovedBusiness",
      "outputs": [
        {
          "name": "",
          "type": "bool"
        }
      ],
      "payable": false,
      "stateMutability": "view",
      "type": "function"
    },
    {
      "constant": true,
      "inputs": [
        {
          "name": "",
          "type": "address"
        }
      ],
      "name": "growthPoolBusiness",
      "outputs": [
        {
          "name": "",
          "type": "bool"
        }
      ],
      "payable": false,
      "stateMutability": "view",
      "type": "function"
    },
    {
      "constant": false,
      "inputs": [
        {
          "name": "_newOwner",
          "type": "address"
        }
      ],
      "name": "transferOwnership",
      "outputs": [],
      "payable": false,
      "stateMutability": "nonpayable",
      "type": "function"
    },
    {
      "constant": true,
      "inputs": [
        {
          "name": "_userAddress",
          "type": "address"
        },
        {
          "name": "_businessAddress",
          "type": "address"
        }
      ],
      "name": "getUserRewardStep",
      "outputs": [
        {
          "name": "_rewardStep",
          "type": "uint256"
        }
      ],
      "payable": false,
      "stateMutability": "view",
      "type": "function"
    },
    {
      "constant": true,
      "inputs": [
        {
          "name": "_address",
          "type": "address"
        }
      ],
      "name": "getGrowthPoolRewardCycle",
      "outputs": [
        {
          "name": "_rewardCycle",
          "type": "uint256"
        }
      ],
      "payable": false,
      "stateMutability": "view",
      "type": "function"
    },
    {
      "constant": true,
      "inputs": [
        {
          "name": "",
          "type": "address"
        },
        {
          "name": "",
          "type": "uint256"
        }
      ],
      "name": "workerList",
      "outputs": [
        {
          "name": "",
          "type": "address"
        }
      ],
      "payable": false,
      "stateMutability": "view",
      "type": "function"
    },
    {
      "constant": true,
      "inputs": [
        {
          "name": "_workerAddress",
          "type": "address"
        },
        {
          "name": "_businessAddress",
          "type": "address"
        }
      ],
      "name": "getWorkerRewardStep",
      "outputs": [
        {
          "name": "_rewardStep",
          "type": "uint256"
        }
      ],
      "payable": false,
      "stateMutability": "view",
      "type": "function"
    },
    {
      "inputs": [
        {
          "name": "_tokenContractAddress",
          "type": "address"
        }
      ],
      "payable": false,
      "stateMutability": "nonpayable",
      "type": "constructor"
    },
    {
      "anonymous": false,
      "inputs": [
        {
          "indexed": true,
          "name": "_userAddress",
          "type": "address"
        },
        {
          "indexed": true,
          "name": "_workerAddress",
          "type": "address"
        },
        {
          "indexed": true,
          "name": "_businessAddress",
          "type": "address"
        },
        {
          "indexed": false,
          "name": "_workerRating",
          "type": "uint256"
        },
        {
          "indexed": false,
          "name": "_businessRating",
          "type": "uint256"
        },
        {
          "indexed": false,
          "name": "_ipfsHash",
          "type": "bytes32"
        }
      ],
      "name": "BoomerangExperienceRating",
      "type": "event"
    },
    {
      "anonymous": false,
      "inputs": [
        {
          "indexed": true,
          "name": "_workerAddress",
          "type": "address"
        },
        {
          "indexed": true,
          "name": "_businessAddress",
          "type": "address"
        },
        {
          "indexed": false,
          "name": "_workerRating",
          "type": "uint256"
        },
        {
          "indexed": false,
          "name": "_rewardValue",
          "type": "uint256"
        }
      ],
      "name": "WorkerReward",
      "type": "event"
    },
    {
      "anonymous": false,
      "inputs": [],
      "name": "RegisterGrowthPoolRewardSystem",
      "type": "event"
    },
    {
      "anonymous": false,
      "inputs": [
        {
          "indexed": false,
          "name": "_type",
          "type": "string"
        },
        {
          "indexed": true,
          "name": "_address",
          "type": "address"
        },
        {
          "indexed": false,
          "name": "_rewardValue",
          "type": "uint256"
        }
      ],
      "name": "GrowthPoolReward",
      "type": "event"
    },
    {
      "anonymous": false,
      "inputs": [
        {
          "indexed": true,
          "name": "_businessAddress",
          "type": "address"
        }
      ],
      "name": "RegisterWorkerRewardSystem",
      "type": "event"
    },
    {
      "anonymous": false,
      "inputs": [
        {
          "indexed": true,
          "name": "_workerAddress",
          "type": "address"
        },
        {
          "indexed": true,
          "name": "_businessAddress",
          "type": "address"
        },
        {
          "indexed": false,
          "name": "_rewardValue",
          "type": "uint256"
        }
      ],
      "name": "PerformanceReward",
      "type": "event"
    },
    {
      "anonymous": false,
      "inputs": [
        {
          "indexed": true,
          "name": "_businessAddress",
          "type": "address"
        }
      ],
      "name": "RegisterUserRewardSystem",
      "type": "event"
    },
    {
      "anonymous": false,
      "inputs": [
        {
          "indexed": true,
          "name": "_userAddress",
          "type": "address"
        },
        {
          "indexed": true,
          "name": "_businessAddress",
          "type": "address"
        },
        {
          "indexed": false,
          "name": "_rewardValue",
          "type": "uint256"
        }
      ],
      "name": "LoyaltyReward",
      "type": "event"
    },
    {
      "anonymous": false,
      "inputs": [
        {
          "indexed": false,
          "name": "_id",
          "type": "string"
        },
        {
          "indexed": false,
          "name": "_arg",
          "type": "uint256"
        }
      ],
      "name": "Debug",
      "type": "event"
    },
    {
      "anonymous": false,
      "inputs": [
        {
          "indexed": false,
          "name": "_id",
          "type": "string"
        },
        {
          "indexed": false,
          "name": "_arg",
          "type": "uint8"
        }
      ],
      "name": "DebugInt",
      "type": "event"
    },
    {
      "anonymous": false,
      "inputs": [
        {
          "indexed": false,
          "name": "_id",
          "type": "string"
        },
        {
          "indexed": false,
          "name": "_arg",
          "type": "string"
        }
      ],
      "name": "DebugBytes",
      "type": "event"
    },
    {
      "anonymous": false,
      "inputs": [
        {
          "indexed": true,
          "name": "previousOwner",
          "type": "address"
        }
      ],
      "name": "OwnershipRenounced",
      "type": "event"
    },
    {
      "anonymous": false,
      "inputs": [
        {
          "indexed": true,
          "name": "previousOwner",
          "type": "address"
        },
        {
          "indexed": true,
          "name": "newOwner",
          "type": "address"
        }
      ],
      "name": "OwnershipTransferred",
      "type": "event"
    },
    {
      "constant": false,
      "inputs": [
        {
          "name": "_updatedContractAddress",
          "type": "address"
        }
      ],
      "name": "setUpdatedContractAddress",
      "outputs": [],
      "payable": false,
      "stateMutability": "nonpayable",
      "type": "function"
    }
  ],
  "bytecode": "0x608060405234801561001057600080fd5b50604051602080614c4c83398101806040528101908080519060200190929190505050336000806101000a81548173ffffffffffffffffffffffffffffffffffffffff021916908373ffffffffffffffffffffffffffffffffffffffff16021790555080600160006101000a81548173ffffffffffffffffffffffffffffffffffffffff021916908373ffffffffffffffffffffffffffffffffffffffff16021790555050614b88806100c46000396000f30060806040526004361061027d576000357c0100000000000000000000000000000000000000000000000000000000900463ffffffff16806303d7c87d14610282578063067a0949146102f75780630e2be266146103725780631241f478146103e9578063130ee376146104605780631466d019146104ed5780631926856614610548578063193ad4e71461059f5780631c9469521461069c5780631f85b4c8146106dd57806322a887f414610734578063261d22f0146107ab578063324558171461082257806339d2fc79146108795780633e210f8b146109475780634038faed146109bd5780634209fff114610a3457806347d2bc7014610a8f57806351fa2f3a14610b245780635e27d39814610b9b57806364765d4414610bf257806364ca9da114610c715780636885295714610ce8578063715018a614610d5557806371ee525b14610d6c578063761173bc14610de357806378939f9d14610e3a5780637b1d0c8314610f375780638b3504f214610fb25780638da5cb5b1461101f5780639708c61f146110765780639ba16404146110cd5780639d0696ed14611124578063a0a6b7711461117b578063a7ce1cff146111d2578063aa15664514611249578063abd9a4ef146112a4578063b0106aa314611305578063b06af56b146113d6578063b265c33d1461146b578063c304c93b146114c2578063ca20279214611519578063d167b8c814611590578063d656790f146115e7578063d8fb8c1f14611622578063e33637931461165d578063e5d87e76146116d8578063ed69324214611733578063f2fde38b14611776578063f31c7034146117b9578063f776757b14611830578063f901188814611887578063fc47627214611914575b600080fd5b34801561028e57600080fd5b506102f56004803603810190808035906020019092919080359060200190820180359060200191909192939192939080359060200190929190803590602001908201803590602001919091929391929390803560001916906020019092919050505061198b565b005b34801561030357600080fd5b50610358600480360381019080803573ffffffffffffffffffffffffffffffffffffffff169060200190929190803573ffffffffffffffffffffffffffffffffffffffff169060200190929190505050611b08565b604051808215151515815260200191505060405180910390f35b34801561037e57600080fd5b506103d3600480360381019080803573ffffffffffffffffffffffffffffffffffffffff169060200190929190803573ffffffffffffffffffffffffffffffffffffffff169060200190929190505050611b37565b6040518082815260200191505060405180910390f35b3480156103f557600080fd5b5061044a600480360381019080803573ffffffffffffffffffffffffffffffffffffffff169060200190929190803573ffffffffffffffffffffffffffffffffffffffff169060200190929190505050611b5c565b6040518082815260200191505060405180910390f35b34801561046c57600080fd5b506104ab600480360381019080803573ffffffffffffffffffffffffffffffffffffffff16906020019092919080359060200190929190505050611beb565b604051808273ffffffffffffffffffffffffffffffffffffffff1673ffffffffffffffffffffffffffffffffffffffff16815260200191505060405180910390f35b3480156104f957600080fd5b5061052e600480360381019080803573ffffffffffffffffffffffffffffffffffffffff169060200190929190505050611c38565b604051808215151515815260200191505060405180910390f35b34801561055457600080fd5b50610589600480360381019080803573ffffffffffffffffffffffffffffffffffffffff169060200190929190505050611c58565b6040518082815260200191505060405180910390f35b3480156105ab57600080fd5b506105e0600480360381019080803573ffffffffffffffffffffffffffffffffffffffff169060200190929190505050611ca4565b6040518086815260200180602001858152602001806020018460001916600019168152602001838103835287818151815260200191508051906020019060200280838360005b83811015610641578082015181840152602081019050610626565b50505050905001838103825285818151815260200191508051906020019060200280838360005b83811015610683578082015181840152602081019050610668565b5050505090500197505050505050505060405180910390f35b3480156106a857600080fd5b506106b1611e06565b604051808481526020018381526020018260001916600019168152602001935050505060405180910390f35b3480156106e957600080fd5b506106f2611e1e565b604051808273ffffffffffffffffffffffffffffffffffffffff1673ffffffffffffffffffffffffffffffffffffffff16815260200191505060405180910390f35b34801561074057600080fd5b50610795600480360381019080803573ffffffffffffffffffffffffffffffffffffffff169060200190929190803573ffffffffffffffffffffffffffffffffffffffff169060200190929190505050611e44565b6040518082815260200191505060405180910390f35b3480156107b757600080fd5b5061080c600480360381019080803573ffffffffffffffffffffffffffffffffffffffff169060200190929190803573ffffffffffffffffffffffffffffffffffffffff169060200190929190505050611ecb565b6040518082815260200191505060405180910390f35b34801561082e57600080fd5b50610863600480360381019080803573ffffffffffffffffffffffffffffffffffffffff169060200190929190505050611f5a565b6040518082815260200191505060405180910390f35b34801561088557600080fd5b50610945600480360381019080803573ffffffffffffffffffffffffffffffffffffffff169060200190929190803573ffffffffffffffffffffffffffffffffffffffff169060200190929190803573ffffffffffffffffffffffffffffffffffffffff16906020019092919080359060200190929190803590602001909291908035600019169060200190929190803560ff16906020019092919080356000191690602001909291908035600019169060200190929190505050611f72565b005b34801561095357600080fd5b506109bb600480360381019080803573ffffffffffffffffffffffffffffffffffffffff1690602001909291908060a001909192919290803560ff1690602001909291908035600019169060200190929190803560001916906020019092919050505061205f565b005b3480156109c957600080fd5b50610a1e600480360381019080803573ffffffffffffffffffffffffffffffffffffffff169060200190929190803573ffffffffffffffffffffffffffffffffffffffff1690602001909291905050506120c1565b6040518082815260200191505060405180910390f35b348015610a4057600080fd5b50610a75600480360381019080803573ffffffffffffffffffffffffffffffffffffffff169060200190929190505050612150565b604051808215151515815260200191505060405180910390f35b348015610a9b57600080fd5b50610b22600480360381019080803573ffffffffffffffffffffffffffffffffffffffff16906020019092919080359060200190929190803590602001908201803590602001919091929391929390803590602001909291908035906020019082018035906020019190919293919293908035600019169060200190929190505050612170565b005b348015610b3057600080fd5b50610b85600480360381019080803573ffffffffffffffffffffffffffffffffffffffff169060200190929190803573ffffffffffffffffffffffffffffffffffffffff1690602001909291905050506122e7565b6040518082815260200191505060405180910390f35b348015610ba757600080fd5b50610bdc600480360381019080803573ffffffffffffffffffffffffffffffffffffffff169060200190929190505050612376565b6040518082815260200191505060405180910390f35b348015610bfe57600080fd5b50610c33600480360381019080803573ffffffffffffffffffffffffffffffffffffffff16906020019092919050505061238e565b6040518082600560200280838360005b83811015610c5e578082015181840152602081019050610c43565b5050505090500191505060405180910390f35b348015610c7d57600080fd5b50610cd2600480360381019080803573ffffffffffffffffffffffffffffffffffffffff169060200190929190803573ffffffffffffffffffffffffffffffffffffffff169060200190929190505050612418565b6040518082815260200191505060405180910390f35b348015610cf457600080fd5b50610d29600480360381019080803573ffffffffffffffffffffffffffffffffffffffff16906020019092919050505061243d565b604051808481526020018381526020018260001916600019168152602001935050505060405180910390f35b348015610d6157600080fd5b50610d6a612467565b005b348015610d7857600080fd5b50610dcd600480360381019080803573ffffffffffffffffffffffffffffffffffffffff169060200190929190803573ffffffffffffffffffffffffffffffffffffffff169060200190929190505050612569565b6040518082815260200191505060405180910390f35b348015610def57600080fd5b50610e24600480360381019080803573ffffffffffffffffffffffffffffffffffffffff1690602001909291905050506125f8565b6040518082815260200191505060405180910390f35b348015610e4657600080fd5b50610e7b600480360381019080803573ffffffffffffffffffffffffffffffffffffffff169060200190929190505050612610565b6040518086815260200180602001858152602001806020018460001916600019168152602001838103835287818151815260200191508051906020019060200280838360005b83811015610edc578082015181840152602081019050610ec1565b50505050905001838103825285818151815260200191508051906020019060200280838360005b83811015610f1e578082015181840152602081019050610f03565b5050505090500197505050505050505060405180910390f35b348015610f4357600080fd5b50610f98600480360381019080803573ffffffffffffffffffffffffffffffffffffffff169060200190929190803573ffffffffffffffffffffffffffffffffffffffff169060200190929190505050612772565b604051808215151515815260200191505060405180910390f35b348015610fbe57600080fd5b50610ff3600480360381019080803573ffffffffffffffffffffffffffffffffffffffff1690602001909291905050506127a1565b604051808481526020018381526020018260001916600019168152602001935050505060405180910390f35b34801561102b57600080fd5b506110346127cb565b604051808273ffffffffffffffffffffffffffffffffffffffff1673ffffffffffffffffffffffffffffffffffffffff16815260200191505060405180910390f35b34801561108257600080fd5b506110b7600480360381019080803573ffffffffffffffffffffffffffffffffffffffff1690602001909291905050506127f0565b6040518082815260200191505060405180910390f35b3480156110d957600080fd5b5061110e600480360381019080803573ffffffffffffffffffffffffffffffffffffffff169060200190929190505050612808565b6040518082815260200191505060405180910390f35b34801561113057600080fd5b50611139612820565b604051808273ffffffffffffffffffffffffffffffffffffffff1673ffffffffffffffffffffffffffffffffffffffff16815260200191505060405180910390f35b34801561118757600080fd5b506111bc600480360381019080803573ffffffffffffffffffffffffffffffffffffffff169060200190929190505050612846565b6040518082815260200191505060405180910390f35b3480156111de57600080fd5b50611233600480360381019080803573ffffffffffffffffffffffffffffffffffffffff169060200190929190803573ffffffffffffffffffffffffffffffffffffffff169060200190929190505050612892565b6040518082815260200191505060405180910390f35b34801561125557600080fd5b5061128a600480360381019080803573ffffffffffffffffffffffffffffffffffffffff169060200190929190505050612921565b604051808215151515815260200191505060405180910390f35b3480156112b057600080fd5b506112ef600480360381019080803573ffffffffffffffffffffffffffffffffffffffff16906020019092919080359060200190929190505050612941565b6040518082815260200191505060405180910390f35b34801561131157600080fd5b5061131a612968565b6040518086815260200180602001858152602001806020018460001916600019168152602001838103835287818151815260200191508051906020019060200280838360005b8381101561137b578082015181840152602081019050611360565b50505050905001838103825285818151815260200191508051906020019060200280838360005b838110156113bd5780820151818401526020810190506113a2565b5050505090500197505050505050505060405180910390f35b3480156113e257600080fd5b50611469600480360381019080803573ffffffffffffffffffffffffffffffffffffffff16906020019092919080359060200190929190803590602001908201803590602001919091929391929390803590602001909291908035906020019082018035906020019190919293919293908035600019169060200190929190505050612a3d565b005b34801561147757600080fd5b506114ac600480360381019080803573ffffffffffffffffffffffffffffffffffffffff169060200190929190505050612bb4565b6040518082815260200191505060405180910390f35b3480156114ce57600080fd5b50611503600480360381019080803573ffffffffffffffffffffffffffffffffffffffff169060200190929190505050612bcc565b6040518082815260200191505060405180910390f35b34801561152557600080fd5b5061157a600480360381019080803573ffffffffffffffffffffffffffffffffffffffff169060200190929190803573ffffffffffffffffffffffffffffffffffffffff169060200190929190505050612c18565b6040518082815260200191505060405180910390f35b34801561159c57600080fd5b506115d1600480360381019080803573ffffffffffffffffffffffffffffffffffffffff169060200190929190505050612c3d565b6040518082815260200191505060405180910390f35b3480156115f357600080fd5b50611620600480360381019080803590602001908201803590602001919091929391929390505050612c86565b005b34801561162e57600080fd5b5061165b600480360381019080803590602001908201803590602001919091929391929390505050612d87565b005b34801561166957600080fd5b506116be600480360381019080803573ffffffffffffffffffffffffffffffffffffffff169060200190929190803573ffffffffffffffffffffffffffffffffffffffff169060200190929190505050612e88565b604051808215151515815260200191505060405180910390f35b3480156116e457600080fd5b50611719600480360381019080803573ffffffffffffffffffffffffffffffffffffffff169060200190929190505050612eb7565b604051808215151515815260200191505060405180910390f35b34801561173f57600080fd5b50611774600480360381019080803573ffffffffffffffffffffffffffffffffffffffff169060200190929190505050612ed7565b005b34801561178257600080fd5b506117b7600480360381019080803573ffffffffffffffffffffffffffffffffffffffff169060200190929190505050612f76565b005b3480156117c557600080fd5b5061181a600480360381019080803573ffffffffffffffffffffffffffffffffffffffff169060200190929190803573ffffffffffffffffffffffffffffffffffffffff169060200190929190505050612fdd565b6040518082815260200191505060405180910390f35b34801561183c57600080fd5b50611871600480360381019080803573ffffffffffffffffffffffffffffffffffffffff16906020019092919050505061306c565b6040518082815260200191505060405180910390f35b34801561189357600080fd5b506118d2600480360381019080803573ffffffffffffffffffffffffffffffffffffffff169060200190929190803590602001909291905050506130b8565b604051808273ffffffffffffffffffffffffffffffffffffffff1673ffffffffffffffffffffffffffffffffffffffff16815260200191505060405180910390f35b34801561192057600080fd5b50611975600480360381019080803573ffffffffffffffffffffffffffffffffffffffff169060200190929190803573ffffffffffffffffffffffffffffffffffffffff169060200190929190505050613105565b6040518082815260200191505060405180910390f35b6000809054906101000a900473ffffffffffffffffffffffffffffffffffffffff1673ffffffffffffffffffffffffffffffffffffffff163373ffffffffffffffffffffffffffffffffffffffff161415156119e657600080fd5b60a0604051908101604052808881526020018787808060200260200160405190810160405280939291908181526020018383602002808284378201915050505050508152602001858152602001848480806020026020016040519081016040528093929190818152602001838360200280828437820191505050505050815260200182600019168152506013600082015181600001556020820151816001019080519060200190611a98929190614a54565b50604082015181600201556060820151816003019080519060200190611abf929190614a54565b50608082015181600401906000191690559050507fcecb7f2a433f872143ebb31ebe6bc5cd169e6a657bc645805e460bf08188818960405160405180910390a150505050505050565b60036020528160005260406000206020528060005260406000206000915091509054906101000a900460ff1681565b600d602052816000526040600020602052806000526040600020600091509150505481565b600080601260008473ffffffffffffffffffffffffffffffffffffffff1673ffffffffffffffffffffffffffffffffffffffff16815260200190815260200160002090508060080160008573ffffffffffffffffffffffffffffffffffffffff1673ffffffffffffffffffffffffffffffffffffffff1681526020019081526020016000205491505092915050565b600760205281600052604060002081815481101515611c0657fe5b906000526020600020016000915091509054906101000a900473ffffffffffffffffffffffffffffffffffffffff1681565b60026020528060005260406000206000915054906101000a900460ff1681565b6000601360080160008373ffffffffffffffffffffffffffffffffffffffff1673ffffffffffffffffffffffffffffffffffffffff168152602001908152602001600020549050919050565b60006060600060606000611cb6614aa1565b601160008873ffffffffffffffffffffffffffffffffffffffff1673ffffffffffffffffffffffffffffffffffffffff16815260200190815260200160002060a060405190810160405290816000820154815260200160018201805480602002602001604051908101604052809291908181526020018280548015611d5a57602002820191906000526020600020905b815481526020019060010190808311611d46575b505050505081526020016002820154815260200160038201805480602002602001604051908101604052809291908181526020018280548015611dbc57602002820191906000526020600020905b815481526020019060010190808311611da8575b505050505081526020016004820154600019166000191681525050905080600001519550806020015194508060400151935080606001519250806080015191505091939590929450565b60138060000154908060020154908060040154905083565b602060009054906101000a900473ffffffffffffffffffffffffffffffffffffffff1681565b6000601f60008473ffffffffffffffffffffffffffffffffffffffff1673ffffffffffffffffffffffffffffffffffffffff16815260200190815260200160002060008373ffffffffffffffffffffffffffffffffffffffff1673ffffffffffffffffffffffffffffffffffffffff16815260200190815260200160002054905092915050565b600080601260008473ffffffffffffffffffffffffffffffffffffffff1673ffffffffffffffffffffffffffffffffffffffff16815260200190815260200160002090508060060160008573ffffffffffffffffffffffffffffffffffffffff1673ffffffffffffffffffffffffffffffffffffffff1681526020019081526020016000205491505092915050565b600e6020528060005260406000206000915090505481565b611f7f8988858585613194565b611f8a88888861354a565b611f94878661367e565b611f9f888888613737565b611fa98988613948565b611fb4888888613be6565b611fc089898989613e95565b8673ffffffffffffffffffffffffffffffffffffffff168873ffffffffffffffffffffffffffffffffffffffff168a73ffffffffffffffffffffffffffffffffffffffff167fefacfbc0fb9802faf88a34c9a029ab7a5c59b0681e8a310fd991f8cd88617b33898989604051808481526020018381526020018260001916600019168152602001935050505060405180910390a4505050505050505050565b61206b85848484613fc1565b83601d60008773ffffffffffffffffffffffffffffffffffffffff1673ffffffffffffffffffffffffffffffffffffffff1681526020019081526020016000209060056120b9929190614ad4565b505050505050565b600080601160008473ffffffffffffffffffffffffffffffffffffffff1673ffffffffffffffffffffffffffffffffffffffff16815260200190815260200160002090508060080160008573ffffffffffffffffffffffffffffffffffffffff1673ffffffffffffffffffffffffffffffffffffffff1681526020019081526020016000205491505092915050565b60086020528060005260406000206000915054906101000a900460ff1681565b60a060405190810160405280888152602001878780806020026020016040519081016040528093929190818152602001838360200280828437820191505050505050815260200185815260200184848080602002602001604051908101604052809392919081815260200183836020028082843782019150505050505081526020018260001916815250601160008a73ffffffffffffffffffffffffffffffffffffffff1673ffffffffffffffffffffffffffffffffffffffff16815260200190815260200160002060008201518160000155602082015181600101908051906020019061225f929190614a54565b50604082015181600201556060820151816003019080519060200190612286929190614a54565b50608082015181600401906000191690559050508773ffffffffffffffffffffffffffffffffffffffff167fe04286428ba72349229a5e6d1ffcd9120bd0eecad71b420398ad31e81682d38760405160405180910390a25050505050505050565b600080601160008473ffffffffffffffffffffffffffffffffffffffff1673ffffffffffffffffffffffffffffffffffffffff16815260200190815260200160002090508060060160008573ffffffffffffffffffffffffffffffffffffffff1673ffffffffffffffffffffffffffffffffffffffff1681526020019081526020016000205491505092915050565b600a6020528060005260406000206000915090505481565b612396614b14565b601d60008373ffffffffffffffffffffffffffffffffffffffff1673ffffffffffffffffffffffffffffffffffffffff16815260200190815260200160002060058060200260405190810160405280929190826005801561240c576020028201915b8154815260200190600101908083116123f8575b50505050509050919050565b601f602052816000526040600020602052806000526040600020600091509150505481565b60116020528060005260406000206000915090508060000154908060020154908060040154905083565b6000809054906101000a900473ffffffffffffffffffffffffffffffffffffffff1673ffffffffffffffffffffffffffffffffffffffff163373ffffffffffffffffffffffffffffffffffffffff161415156124c257600080fd5b6000809054906101000a900473ffffffffffffffffffffffffffffffffffffffff1673ffffffffffffffffffffffffffffffffffffffff167ff8df31144d9c2f0f6b59d69b8b98abd5459d07f2742c4df920b25aae33c6482060405160405180910390a260008060006101000a81548173ffffffffffffffffffffffffffffffffffffffff021916908373ffffffffffffffffffffffffffffffffffffffff160217905550565b600080601160008473ffffffffffffffffffffffffffffffffffffffff1673ffffffffffffffffffffffffffffffffffffffff16815260200190815260200160002090508060070160008573ffffffffffffffffffffffffffffffffffffffff1673ffffffffffffffffffffffffffffffffffffffff1681526020019081526020016000205491505092915050565b601e6020528060005260406000206000915090505481565b60006060600060606000612622614aa1565b601260008873ffffffffffffffffffffffffffffffffffffffff1673ffffffffffffffffffffffffffffffffffffffff16815260200190815260200160002060a0604051908101604052908160008201548152602001600182018054806020026020016040519081016040528092919081815260200182805480156126c657602002820191906000526020600020905b8154815260200190600101908083116126b2575b50505050508152602001600282015481526020016003820180548060200260200160405190810160405280929190818152602001828054801561272857602002820191906000526020600020905b815481526020019060010190808311612714575b505050505081526020016004820154600019166000191681525050905080600001519550806020015194508060400151935080606001519250806080015191505091939590929450565b60096020528160005260406000206020528060005260406000206000915091509054906101000a900460ff1681565b60126020528060005260406000206000915090508060000154908060020154908060040154905083565b6000809054906101000a900473ffffffffffffffffffffffffffffffffffffffff1681565b600b6020528060005260406000206000915090505481565b60106020528060005260406000206000915090505481565b600160009054906101000a900473ffffffffffffffffffffffffffffffffffffffff1681565b6000601360070160008373ffffffffffffffffffffffffffffffffffffffff1673ffffffffffffffffffffffffffffffffffffffff168152602001908152602001600020549050919050565b600080601260008473ffffffffffffffffffffffffffffffffffffffff1673ffffffffffffffffffffffffffffffffffffffff16815260200190815260200160002090508060070160008573ffffffffffffffffffffffffffffffffffffffff1673ffffffffffffffffffffffffffffffffffffffff1681526020019081526020016000205491505092915050565b60056020528060005260406000206000915054906101000a900460ff1681565b601d6020528160005260406000208160058110151561295c57fe5b01600091509150505481565b60006060600060606000601360000154945060136001018054806020026020016040519081016040528092919081815260200182805480156129c957602002820191906000526020600020905b8154815260200190600101908083116129b5575b5050505050935060136002015492506013600301805480602002602001604051908101604052809291908181526020018280548015612a2757602002820191906000526020600020905b815481526020019060010190808311612a13575b5050505050915060136004015490509091929394565b60a060405190810160405280888152602001878780806020026020016040519081016040528093929190818152602001838360200280828437820191505050505050815260200185815260200184848080602002602001604051908101604052809392919081815260200183836020028082843782019150505050505081526020018260001916815250601260008a73ffffffffffffffffffffffffffffffffffffffff1673ffffffffffffffffffffffffffffffffffffffff168152602001908152602001600020600082015181600001556020820151816001019080519060200190612b2c929190614a54565b50604082015181600201556060820151816003019080519060200190612b53929190614a54565b50608082015181600401906000191690559050508773ffffffffffffffffffffffffffffffffffffffff167f910de68bbeafb3b17db876b63617e0d84a56e46ed90d7b475ca836fc62ec82c960405160405180910390a25050505050505050565b600f6020528060005260406000206000915090505481565b6000601360050160008373ffffffffffffffffffffffffffffffffffffffff1673ffffffffffffffffffffffffffffffffffffffff168152602001908152602001600020549050919050565b600c602052816000526040600020602052806000526040600020600091509150505481565b6000601060008373ffffffffffffffffffffffffffffffffffffffff1673ffffffffffffffffffffffffffffffffffffffff168152602001908152602001600020549050919050565b60008060009054906101000a900473ffffffffffffffffffffffffffffffffffffffff1673ffffffffffffffffffffffffffffffffffffffff163373ffffffffffffffffffffffffffffffffffffffff16141515612ce357600080fd5b600090505b82829050811015612d82576001601c60008585858181101515612d0757fe5b9050602002013573ffffffffffffffffffffffffffffffffffffffff1673ffffffffffffffffffffffffffffffffffffffff1673ffffffffffffffffffffffffffffffffffffffff16815260200190815260200160002060006101000a81548160ff0219169083151502179055508080600101915050612ce8565b505050565b60008060009054906101000a900473ffffffffffffffffffffffffffffffffffffffff1673ffffffffffffffffffffffffffffffffffffffff163373ffffffffffffffffffffffffffffffffffffffff16141515612de457600080fd5b600090505b82829050811015612e83576000601c60008585858181101515612e0857fe5b9050602002013573ffffffffffffffffffffffffffffffffffffffff1673ffffffffffffffffffffffffffffffffffffffff1673ffffffffffffffffffffffffffffffffffffffff16815260200190815260200160002060006101000a81548160ff0219169083151502179055508080600101915050612de9565b505050565b60066020528160005260406000206020528060005260406000206000915091509054906101000a900460ff1681565b601c6020528060005260406000206000915054906101000a900460ff1681565b6000809054906101000a900473ffffffffffffffffffffffffffffffffffffffff1673ffffffffffffffffffffffffffffffffffffffff163373ffffffffffffffffffffffffffffffffffffffff16141515612f3257600080fd5b80602060006101000a81548173ffffffffffffffffffffffffffffffffffffffff021916908373ffffffffffffffffffffffffffffffffffffffff16021790555050565b6000809054906101000a900473ffffffffffffffffffffffffffffffffffffffff1673ffffffffffffffffffffffffffffffffffffffff163373ffffffffffffffffffffffffffffffffffffffff16141515612fd157600080fd5b612fda816142fc565b50565b600080601160008473ffffffffffffffffffffffffffffffffffffffff1673ffffffffffffffffffffffffffffffffffffffff16815260200190815260200160002090508060050160008573ffffffffffffffffffffffffffffffffffffffff1673ffffffffffffffffffffffffffffffffffffffff1681526020019081526020016000205491505092915050565b6000601360060160008373ffffffffffffffffffffffffffffffffffffffff1673ffffffffffffffffffffffffffffffffffffffff168152602001908152602001600020549050919050565b6004602052816000526040600020818154811015156130d357fe5b906000526020600020016000915091509054906101000a900473ffffffffffffffffffffffffffffffffffffffff1681565b600080601260008473ffffffffffffffffffffffffffffffffffffffff1673ffffffffffffffffffffffffffffffffffffffff16815260200190815260200160002090508060050160008573ffffffffffffffffffffffffffffffffffffffff1673ffffffffffffffffffffffffffffffffffffffff1681526020019081526020016000205491505092915050565b6000606060008088601f60008a73ffffffffffffffffffffffffffffffffffffffff1673ffffffffffffffffffffffffffffffffffffffff16815260200190815260200160002060008b73ffffffffffffffffffffffffffffffffffffffff1673ffffffffffffffffffffffffffffffffffffffff16815260200190815260200160002054604051602001808373ffffffffffffffffffffffffffffffffffffffff1673ffffffffffffffffffffffffffffffffffffffff166c01000000000000000000000000028152601401828152602001925050506040516020818303038152906040526040518082805190602001908083835b6020831015156132af578051825260208201915060208101905060208303925061328a565b6001836020036101000a038019825116818451168082178552505050505050905001915050604051809103902093506040805190810160405280601c81526020017f19457468657265756d205369676e6564204d6573736167653a0a333200000000815250925082846040516020018083805190602001908083835b602083101515613350578051825260208201915060208101905060208303925061332b565b6001836020036101000a0380198251168184511680821785525050505050509050018260001916600019168152602001925050506040516020818303038152906040526040518082805190602001908083835b6020831015156133c857805182526020820191506020810190506020830392506133a3565b6001836020036101000a03801982511681845116808217855250505050505090500191505060405180910390209150600182888888604051600081526020016040526040518085600019166000191681526020018460ff1660ff1681526020018360001916600019168152602001826000191660001916815260200194505050505060206040516020810390808403906000865af115801561346e573d6000803e3d6000fd5b5050506020604051035190508773ffffffffffffffffffffffffffffffffffffffff168173ffffffffffffffffffffffffffffffffffffffff161415156134b457600080fd5b6001601f60008a73ffffffffffffffffffffffffffffffffffffffff1673ffffffffffffffffffffffffffffffffffffffff16815260200190815260200160002060008b73ffffffffffffffffffffffffffffffffffffffff1673ffffffffffffffffffffffffffffffffffffffff16815260200190815260200160002060008282540192505081905550505050505050505050565b60018110806135595750600581115b1561356357613679565b6001600d60008473ffffffffffffffffffffffffffffffffffffffff1673ffffffffffffffffffffffffffffffffffffffff16815260200190815260200160002060008573ffffffffffffffffffffffffffffffffffffffff1673ffffffffffffffffffffffffffffffffffffffff1681526020019081526020016000206000828254019250508190555080600c60008473ffffffffffffffffffffffffffffffffffffffff1673ffffffffffffffffffffffffffffffffffffffff16815260200190815260200160002060008573ffffffffffffffffffffffffffffffffffffffff1673ffffffffffffffffffffffffffffffffffffffff168152602001908152602001600020600082825401925050819055505b505050565b600181108061368d5750600581115b1561369757613733565b6001600b60008473ffffffffffffffffffffffffffffffffffffffff1673ffffffffffffffffffffffffffffffffffffffff1681526020019081526020016000206000828254019250508190555080600a60008473ffffffffffffffffffffffffffffffffffffffff1673ffffffffffffffffffffffffffffffffffffffff168152602001908152602001600020600082825401925050819055505b5050565b600080601d60008573ffffffffffffffffffffffffffffffffffffffff1673ffffffffffffffffffffffffffffffffffffffff1681526020019081526020016000209150816001840360058110151561378c57fe5b01549050600081141561379e57613941565b600160009054906101000a900473ffffffffffffffffffffffffffffffffffffffff1673ffffffffffffffffffffffffffffffffffffffff166323b872dd8587846040518463ffffffff167c0100000000000000000000000000000000000000000000000000000000028152600401808473ffffffffffffffffffffffffffffffffffffffff1673ffffffffffffffffffffffffffffffffffffffff1681526020018373ffffffffffffffffffffffffffffffffffffffff1673ffffffffffffffffffffffffffffffffffffffff1681526020018281526020019350505050602060405180830381600087803b15801561389757600080fd5b505af11580156138ab573d6000803e3d6000fd5b505050506040513d60208110156138c157600080fd5b8101908080519060200190929190505050508373ffffffffffffffffffffffffffffffffffffffff168573ffffffffffffffffffffffffffffffffffffffff167f8066b7cc2c24b344ba3883c32d52f19c0a07e0e8ed01314508387a03b2be35078584604051808381526020018281526020019250505060405180910390a35b5050505050565b6000806000601160008573ffffffffffffffffffffffffffffffffffffffff1673ffffffffffffffffffffffffffffffffffffffff16815260200190815260200160002092508260070160008673ffffffffffffffffffffffffffffffffffffffff1673ffffffffffffffffffffffffffffffffffffffff1681526020019081526020016000205491506139dc83866143f6565b60008360050160008773ffffffffffffffffffffffffffffffffffffffff1673ffffffffffffffffffffffffffffffffffffffff168152602001908152602001600020541415613bdf578260030182815481101515613a3757fe5b90600052602060002001549050600160009054906101000a900473ffffffffffffffffffffffffffffffffffffffff1673ffffffffffffffffffffffffffffffffffffffff166323b872dd8587846040518463ffffffff167c0100000000000000000000000000000000000000000000000000000000028152600401808473ffffffffffffffffffffffffffffffffffffffff1673ffffffffffffffffffffffffffffffffffffffff1681526020018373ffffffffffffffffffffffffffffffffffffffff1673ffffffffffffffffffffffffffffffffffffffff1681526020018281526020019350505050602060405180830381600087803b158015613b3d57600080fd5b505af1158015613b51573d6000803e3d6000fd5b505050506040513d6020811015613b6757600080fd5b8101908080519060200190929190505050508373ffffffffffffffffffffffffffffffffffffffff168573ffffffffffffffffffffffffffffffffffffffff167f5a09eab88e066ba36b0e966c6f58a1112bec8eee253aad9e63dbdb6c65ece8bd836040518082815260200191505060405180910390a35b5050505050565b6000806000600584141515613bfa57613e8d565b601260008673ffffffffffffffffffffffffffffffffffffffff1673ffffffffffffffffffffffffffffffffffffffff16815260200190815260200160002092508260070160008773ffffffffffffffffffffffffffffffffffffffff1673ffffffffffffffffffffffffffffffffffffffff168152602001908152602001600020549150613c8983876143f6565b60008360050160008873ffffffffffffffffffffffffffffffffffffffff1673ffffffffffffffffffffffffffffffffffffffff168152602001908152602001600020541415613e8c578260030182815481101515613ce457fe5b90600052602060002001549050600160009054906101000a900473ffffffffffffffffffffffffffffffffffffffff1673ffffffffffffffffffffffffffffffffffffffff166323b872dd8688846040518463ffffffff167c0100000000000000000000000000000000000000000000000000000000028152600401808473ffffffffffffffffffffffffffffffffffffffff1673ffffffffffffffffffffffffffffffffffffffff1681526020018373ffffffffffffffffffffffffffffffffffffffff1673ffffffffffffffffffffffffffffffffffffffff1681526020018281526020019350505050602060405180830381600087803b158015613dea57600080fd5b505af1158015613dfe573d6000803e3d6000fd5b505050506040513d6020811015613e1457600080fd5b8101908080519060200190929190505050508473ffffffffffffffffffffffffffffffffffffffff168673ffffffffffffffffffffffffffffffffffffffff167f2fc7ba242568d1b533c6e109f5d4bcd46b30e66bc4bcea519ab1e1254b06b0f2836040518082815260200191505060405180910390a35b5b505050505050565b60001515601c60008473ffffffffffffffffffffffffffffffffffffffff1673ffffffffffffffffffffffffffffffffffffffff16815260200190815260200160002060009054906101000a900460ff1615151415613ef357613fbb565b613f326040805190810160405280600481526020017f75736572000000000000000000000000000000000000000000000000000000008152508561477f565b6005811415613f7b57613f7a6040805190810160405280600681526020017f776f726b657200000000000000000000000000000000000000000000000000008152508461477f565b5b613fba6040805190810160405280600881526020017f627573696e6573730000000000000000000000000000000000000000000000008152508361477f565b5b50505050565b6000606060008087601e60008a73ffffffffffffffffffffffffffffffffffffffff1673ffffffffffffffffffffffffffffffffffffffff16815260200190815260200160002054604051602001808373ffffffffffffffffffffffffffffffffffffffff1673ffffffffffffffffffffffffffffffffffffffff166c01000000000000000000000000028152601401828152602001925050506040516020818303038152906040526040518082805190602001908083835b60208310151561409f578051825260208201915060208101905060208303925061407a565b6001836020036101000a038019825116818451168082178552505050505050905001915050604051809103902093506040805190810160405280601c81526020017f19457468657265756d205369676e6564204d6573736167653a0a333200000000815250925082846040516020018083805190602001908083835b602083101515614140578051825260208201915060208101905060208303925061411b565b6001836020036101000a0380198251168184511680821785525050505050509050018260001916600019168152602001925050506040516020818303038152906040526040518082805190602001908083835b6020831015156141b85780518252602082019150602081019050602083039250614193565b6001836020036101000a03801982511681845116808217855250505050505090500191505060405180910390209150600182888888604051600081526020016040526040518085600019166000191681526020018460ff1660ff1681526020018360001916600019168152602001826000191660001916815260200194505050505060206040516020810390808403906000865af115801561425e573d6000803e3d6000fd5b5050506020604051035190508773ffffffffffffffffffffffffffffffffffffffff168173ffffffffffffffffffffffffffffffffffffffff161415156142a457600080fd5b6001601e60008a73ffffffffffffffffffffffffffffffffffffffff1673ffffffffffffffffffffffffffffffffffffffff168152602001908152602001600020600082825401925050819055505050505050505050565b600073ffffffffffffffffffffffffffffffffffffffff168173ffffffffffffffffffffffffffffffffffffffff161415151561433857600080fd5b8073ffffffffffffffffffffffffffffffffffffffff166000809054906101000a900473ffffffffffffffffffffffffffffffffffffffff1673ffffffffffffffffffffffffffffffffffffffff167f8be0079c531659141344cd1fd0a4f28419497f9722a3daafe3b4186f6b6457e060405160405180910390a3806000806101000a81548173ffffffffffffffffffffffffffffffffffffffff021916908373ffffffffffffffffffffffffffffffffffffffff16021790555050565b60008060008060018660050160008773ffffffffffffffffffffffffffffffffffffffff1673ffffffffffffffffffffffffffffffffffffffff1681526020019081526020016000205401935085600001548414156147265760008660050160008773ffffffffffffffffffffffffffffffffffffffff1673ffffffffffffffffffffffffffffffffffffffff1681526020019081526020016000208190555060018660060160008773ffffffffffffffffffffffffffffffffffffffff1673ffffffffffffffffffffffffffffffffffffffff168152602001908152602001600020540192508560070160008673ffffffffffffffffffffffffffffffffffffffff1673ffffffffffffffffffffffffffffffffffffffff168152602001908152602001600020549150856001018281548110151561453257fe5b90600052602060002001548314156146d05760008660060160008773ffffffffffffffffffffffffffffffffffffffff1673ffffffffffffffffffffffffffffffffffffffff1681526020019081526020016000208190555060018660070160008773ffffffffffffffffffffffffffffffffffffffff1673ffffffffffffffffffffffffffffffffffffffff16815260200190815260200160002054019050856002015481141561467a5760008660070160008773ffffffffffffffffffffffffffffffffffffffff1673ffffffffffffffffffffffffffffffffffffffff1681526020019081526020016000208190555060018660080160008773ffffffffffffffffffffffffffffffffffffffff1673ffffffffffffffffffffffffffffffffffffffff168152602001908152602001600020600082825401925050819055506146cb565b60018660070160008773ffffffffffffffffffffffffffffffffffffffff1673ffffffffffffffffffffffffffffffffffffffff168152602001908152602001600020600082825401925050819055505b614721565b60018660060160008773ffffffffffffffffffffffffffffffffffffffff1673ffffffffffffffffffffffffffffffffffffffff168152602001908152602001600020600082825401925050819055505b614777565b60018660050160008773ffffffffffffffffffffffffffffffffffffffff1673ffffffffffffffffffffffffffffffffffffffff168152602001908152602001600020600082825401925050819055505b505050505050565b600080601360070160008473ffffffffffffffffffffffffffffffffffffffff1673ffffffffffffffffffffffffffffffffffffffff1681526020019081526020016000205491506147d26013846143f6565b6000601360050160008573ffffffffffffffffffffffffffffffffffffffff1673ffffffffffffffffffffffffffffffffffffffff168152602001908152602001600020541415614a4e5760136003018281548110151561482f57fe5b90600052602060002001549050600160009054906101000a900473ffffffffffffffffffffffffffffffffffffffff1673ffffffffffffffffffffffffffffffffffffffff166323b872dd6000809054906101000a900473ffffffffffffffffffffffffffffffffffffffff1685846040518463ffffffff167c0100000000000000000000000000000000000000000000000000000000028152600401808473ffffffffffffffffffffffffffffffffffffffff1673ffffffffffffffffffffffffffffffffffffffff1681526020018373ffffffffffffffffffffffffffffffffffffffff1673ffffffffffffffffffffffffffffffffffffffff1681526020018281526020019350505050602060405180830381600087803b15801561495657600080fd5b505af115801561496a573d6000803e3d6000fd5b505050506040513d602081101561498057600080fd5b8101908080519060200190929190505050508273ffffffffffffffffffffffffffffffffffffffff167f4725b3b40e2a5e1411d9bdb27609143517e8a442f6913d8c617801de5478427e85836040518080602001838152602001828103825284818151815260200191508051906020019080838360005b83811015614a125780820151818401526020810190506149f7565b50505050905090810190601f168015614a3f5780820380516001836020036101000a031916815260200191505b50935050505060405180910390a25b50505050565b828054828255906000526020600020908101928215614a90579160200282015b82811115614a8f578251825591602001919060010190614a74565b5b509050614a9d9190614b37565b5090565b60a06040519081016040528060008152602001606081526020016000815260200160608152602001600080191681525090565b8260058101928215614b03579160200282015b82811115614b02578235825591602001919060010190614ae7565b5b509050614b109190614b37565b5090565b60a060405190810160405280600590602082028038833980820191505090505090565b614b5991905b80821115614b55576000816000905550600101614b3d565b5090565b905600a165627a7a72305820093f3967898d7f54207b4ab4c4450c98c6a5fda561c3c8da9eedcaffd4dbb91a0029",
  "source": "pragma solidity ^0.4.24;\n//pragma experimental ABIEncoderV2;\n\nimport './BoomerangUser.sol';\nimport './BoomerangWorker.sol';\nimport './BoomerangBusiness.sol';\nimport './BoomerangRateExperience.sol';\n\ncontract Boomerang is  BoomerangRateExperience {\n\n  constructor(address _tokenContractAddress) public {\n    boomerangToken = ERC20Token(_tokenContractAddress);\n  }\n\n  address public updatedContractAddress;\n\n  function setUpdatedContractAddress(address _updatedContractAddress) external onlyOwner {\n    updatedContractAddress = _updatedContractAddress;\n  }\n}",
  "sourcePath": "/Users/panda/projects/boomerang/packages/boomerang-contracts/contracts/Boomerang.sol",
  "compiler": {
    "name": "solc",
    "version": "0.4.24+commit.e67f0147.Emscripten.clang"
  },
  "schemaVersion": "2.0.1",
  "updatedAt": "2018-08-20T18:26:03.620Z"
}