{
  "contractName": "BoomerangRewardSystem",
  "abi": [
    {
      "constant": false,
      "inputs": [],
      "name": "renounceOwnership",
      "outputs": [],
      "payable": false,
      "stateMutability": "nonpayable",
      "type": "function"
    },
    {
      "constant": true,
      "inputs": [],
      "name": "owner",
      "outputs": [
        {
          "name": "",
          "type": "address"
        }
      ],
      "payable": false,
      "stateMutability": "view",
      "type": "function"
    },
    {
      "constant": true,
      "inputs": [],
      "name": "boomerangToken",
      "outputs": [
        {
          "name": "",
          "type": "address"
        }
      ],
      "payable": false,
      "stateMutability": "view",
      "type": "function"
    },
    {
      "constant": false,
      "inputs": [
        {
          "name": "_newOwner",
          "type": "address"
        }
      ],
      "name": "transferOwnership",
      "outputs": [],
      "payable": false,
      "stateMutability": "nonpayable",
      "type": "function"
    },
    {
      "anonymous": false,
      "inputs": [
        {
          "indexed": false,
          "name": "_id",
          "type": "string"
        },
        {
          "indexed": false,
          "name": "_arg",
          "type": "uint256"
        }
      ],
      "name": "Debug",
      "type": "event"
    },
    {
      "anonymous": false,
      "inputs": [
        {
          "indexed": true,
          "name": "previousOwner",
          "type": "address"
        }
      ],
      "name": "OwnershipRenounced",
      "type": "event"
    },
    {
      "anonymous": false,
      "inputs": [
        {
          "indexed": true,
          "name": "previousOwner",
          "type": "address"
        },
        {
          "indexed": true,
          "name": "newOwner",
          "type": "address"
        }
      ],
      "name": "OwnershipTransferred",
      "type": "event"
    }
  ],
  "bytecode": "0x6080604052336000806101000a81548173ffffffffffffffffffffffffffffffffffffffff021916908373ffffffffffffffffffffffffffffffffffffffff160217905550610449806100536000396000f300608060405260043610610062576000357c0100000000000000000000000000000000000000000000000000000000900463ffffffff168063715018a6146100675780638da5cb5b1461007e5780639d0696ed146100d5578063f2fde38b1461012c575b600080fd5b34801561007357600080fd5b5061007c61016f565b005b34801561008a57600080fd5b50610093610271565b604051808273ffffffffffffffffffffffffffffffffffffffff1673ffffffffffffffffffffffffffffffffffffffff16815260200191505060405180910390f35b3480156100e157600080fd5b506100ea610296565b604051808273ffffffffffffffffffffffffffffffffffffffff1673ffffffffffffffffffffffffffffffffffffffff16815260200191505060405180910390f35b34801561013857600080fd5b5061016d600480360381019080803573ffffffffffffffffffffffffffffffffffffffff1690602001909291905050506102bc565b005b6000809054906101000a900473ffffffffffffffffffffffffffffffffffffffff1673ffffffffffffffffffffffffffffffffffffffff163373ffffffffffffffffffffffffffffffffffffffff161415156101ca57600080fd5b6000809054906101000a900473ffffffffffffffffffffffffffffffffffffffff1673ffffffffffffffffffffffffffffffffffffffff167ff8df31144d9c2f0f6b59d69b8b98abd5459d07f2742c4df920b25aae33c6482060405160405180910390a260008060006101000a81548173ffffffffffffffffffffffffffffffffffffffff021916908373ffffffffffffffffffffffffffffffffffffffff160217905550565b6000809054906101000a900473ffffffffffffffffffffffffffffffffffffffff1681565b600160009054906101000a900473ffffffffffffffffffffffffffffffffffffffff1681565b6000809054906101000a900473ffffffffffffffffffffffffffffffffffffffff1673ffffffffffffffffffffffffffffffffffffffff163373ffffffffffffffffffffffffffffffffffffffff1614151561031757600080fd5b61032081610323565b50565b600073ffffffffffffffffffffffffffffffffffffffff168173ffffffffffffffffffffffffffffffffffffffff161415151561035f57600080fd5b8073ffffffffffffffffffffffffffffffffffffffff166000809054906101000a900473ffffffffffffffffffffffffffffffffffffffff1673ffffffffffffffffffffffffffffffffffffffff167f8be0079c531659141344cd1fd0a4f28419497f9722a3daafe3b4186f6b6457e060405160405180910390a3806000806101000a81548173ffffffffffffffffffffffffffffffffffffffff021916908373ffffffffffffffffffffffffffffffffffffffff160217905550505600a165627a7a723058207c939aed4a138c417b0d7e823ad511d7703afba93ed988c55bc5463e7f00c4220029",
  "source": "pragma solidity ^0.4.24;\n\nimport '../Ownable.sol';\nimport \"../../../boomerang-token-contracts/contracts/SafeMath.sol\";\nimport '../../../boomerang-token-contracts/contracts/ERC20Token.sol';\n\ncontract BoomerangRewardSystem is Ownable {\n  using SafeMath for uint256;\n\n  ERC20Token public boomerangToken;\n  event Debug(string _id, uint256 _arg);\n\n  struct RewardSystem {\n\n    uint256 numberOfRewardSteps;\n    uint256[] numberOfRewardCyclesForLevel;\n    uint256 numberOfRewardLevels;\n\n    uint256[] levelRewards;\n    bytes32 ipfsHash;\n\n    mapping(address => uint256) rewardStep;\n    mapping(address => uint256) rewardCycle;\n    mapping(address => uint256) rewardLevel;\n    mapping(address => uint256) rewardRank;\n  }\n\n  function incrementRewardProgress(RewardSystem storage _rewardSystem, address _address) internal {\n\n    uint256 nextRewardStep = _rewardSystem.rewardStep[_address] + 1;\n\n    if (nextRewardStep == _rewardSystem.numberOfRewardSteps) {\n\n      _rewardSystem.rewardStep[_address] = 0;\n      uint256 nextRewardCycle = _rewardSystem.rewardCycle[_address] + 1;\n\n      uint256 currentRewardLevel = _rewardSystem.rewardLevel[_address];\n      if (nextRewardCycle == _rewardSystem.numberOfRewardCyclesForLevel[currentRewardLevel]) {\n\n        _rewardSystem.rewardCycle[_address] = 0;\n        uint256 nextRewardLevel = _rewardSystem.rewardLevel[_address] + 1;\n\n          if (nextRewardLevel == _rewardSystem.numberOfRewardLevels) {\n\n            _rewardSystem.rewardLevel[_address] = 0;\n            _rewardSystem.rewardRank[_address] += 1;\n\n          } else {\n            _rewardSystem.rewardLevel[_address] += 1;\n          }\n\n      } else {\n        _rewardSystem.rewardCycle[_address] += 1;\n      }\n\n    } else {\n      _rewardSystem.rewardStep[_address] += 1;\n    }\n  }\n}\n",
  "sourcePath": "/Users/panda/projects/boomerang/packages/boomerang-contracts/contracts/rewards/BoomerangRewardSystem.sol",
  "compiler": {
    "name": "solc",
    "version": "0.4.24+commit.e67f0147.Emscripten.clang"
  },
  "schemaVersion": "2.0.1",
  "updatedAt": "2018-07-31T17:40:50.796Z"
}