{
  "contractName": "BoomerangTokenSale",
  "abi": [
    {
      "constant": true,
      "inputs": [],
      "name": "ethPriceInDollars",
      "outputs": [
        {
          "name": "",
          "type": "uint256"
        }
      ],
      "payable": false,
      "stateMutability": "view",
      "type": "function"
    },
    {
      "constant": true,
      "inputs": [],
      "name": "goalInDollars",
      "outputs": [
        {
          "name": "",
          "type": "uint256"
        }
      ],
      "payable": false,
      "stateMutability": "view",
      "type": "function"
    },
    {
      "constant": true,
      "inputs": [],
      "name": "cap",
      "outputs": [
        {
          "name": "",
          "type": "uint256"
        }
      ],
      "payable": false,
      "stateMutability": "view",
      "type": "function"
    },
    {
      "constant": true,
      "inputs": [],
      "name": "oneMillion",
      "outputs": [
        {
          "name": "",
          "type": "uint256"
        }
      ],
      "payable": false,
      "stateMutability": "view",
      "type": "function"
    },
    {
      "constant": true,
      "inputs": [],
      "name": "oneBillion",
      "outputs": [
        {
          "name": "",
          "type": "uint256"
        }
      ],
      "payable": false,
      "stateMutability": "view",
      "type": "function"
    },
    {
      "constant": true,
      "inputs": [
        {
          "name": "",
          "type": "address"
        }
      ],
      "name": "participationHistory",
      "outputs": [
        {
          "name": "",
          "type": "uint256"
        }
      ],
      "payable": false,
      "stateMutability": "view",
      "type": "function"
    },
    {
      "constant": true,
      "inputs": [],
      "name": "wallet",
      "outputs": [
        {
          "name": "",
          "type": "address"
        }
      ],
      "payable": false,
      "stateMutability": "view",
      "type": "function"
    },
    {
      "constant": true,
      "inputs": [],
      "name": "amountOfTokensForSale",
      "outputs": [
        {
          "name": "",
          "type": "uint256"
        }
      ],
      "payable": false,
      "stateMutability": "view",
      "type": "function"
    },
    {
      "constant": true,
      "inputs": [],
      "name": "weiPerDollar",
      "outputs": [
        {
          "name": "",
          "type": "uint256"
        }
      ],
      "payable": false,
      "stateMutability": "view",
      "type": "function"
    },
    {
      "constant": false,
      "inputs": [],
      "name": "renounceOwnership",
      "outputs": [],
      "payable": false,
      "stateMutability": "nonpayable",
      "type": "function"
    },
    {
      "constant": true,
      "inputs": [
        {
          "name": "",
          "type": "address"
        }
      ],
      "name": "participationCaps",
      "outputs": [
        {
          "name": "",
          "type": "uint256"
        }
      ],
      "payable": false,
      "stateMutability": "view",
      "type": "function"
    },
    {
      "constant": true,
      "inputs": [],
      "name": "startTime",
      "outputs": [
        {
          "name": "",
          "type": "uint256"
        }
      ],
      "payable": false,
      "stateMutability": "view",
      "type": "function"
    },
    {
      "constant": true,
      "inputs": [],
      "name": "kutoasPerDollar",
      "outputs": [
        {
          "name": "",
          "type": "uint256"
        }
      ],
      "payable": false,
      "stateMutability": "view",
      "type": "function"
    },
    {
      "constant": true,
      "inputs": [],
      "name": "owner",
      "outputs": [
        {
          "name": "",
          "type": "address"
        }
      ],
      "payable": false,
      "stateMutability": "view",
      "type": "function"
    },
    {
      "constant": true,
      "inputs": [],
      "name": "maxValue",
      "outputs": [
        {
          "name": "",
          "type": "uint256"
        }
      ],
      "payable": false,
      "stateMutability": "view",
      "type": "function"
    },
    {
      "constant": true,
      "inputs": [],
      "name": "kutoasPerWei",
      "outputs": [
        {
          "name": "",
          "type": "uint256"
        }
      ],
      "payable": false,
      "stateMutability": "view",
      "type": "function"
    },
    {
      "constant": true,
      "inputs": [],
      "name": "boomerangToken",
      "outputs": [
        {
          "name": "",
          "type": "address"
        }
      ],
      "payable": false,
      "stateMutability": "view",
      "type": "function"
    },
    {
      "constant": false,
      "inputs": [
        {
          "name": "_tokenAddress",
          "type": "address"
        },
        {
          "name": "_amount",
          "type": "uint256"
        }
      ],
      "name": "transferAnyERC20Token",
      "outputs": [
        {
          "name": "success",
          "type": "bool"
        }
      ],
      "payable": false,
      "stateMutability": "nonpayable",
      "type": "function"
    },
    {
      "constant": true,
      "inputs": [],
      "name": "tokenUnit",
      "outputs": [
        {
          "name": "",
          "type": "uint256"
        }
      ],
      "payable": false,
      "stateMutability": "view",
      "type": "function"
    },
    {
      "constant": true,
      "inputs": [],
      "name": "numberOfDays",
      "outputs": [
        {
          "name": "",
          "type": "uint256"
        }
      ],
      "payable": false,
      "stateMutability": "view",
      "type": "function"
    },
    {
      "constant": false,
      "inputs": [
        {
          "name": "_newOwner",
          "type": "address"
        }
      ],
      "name": "transferOwnership",
      "outputs": [],
      "payable": false,
      "stateMutability": "nonpayable",
      "type": "function"
    },
    {
      "inputs": [
        {
          "name": "_wallet",
          "type": "address"
        },
        {
          "name": "_startTime",
          "type": "uint256"
        },
        {
          "name": "_tokenContractAddress",
          "type": "address"
        }
      ],
      "payable": false,
      "stateMutability": "nonpayable",
      "type": "constructor"
    },
    {
      "payable": true,
      "stateMutability": "payable",
      "type": "fallback"
    },
    {
      "anonymous": false,
      "inputs": [
        {
          "indexed": true,
          "name": "to",
          "type": "address"
        },
        {
          "indexed": false,
          "name": "weiValue",
          "type": "uint256"
        },
        {
          "indexed": false,
          "name": "amountOfTokens",
          "type": "uint256"
        }
      ],
      "name": "IssueTokens",
      "type": "event"
    },
    {
      "anonymous": false,
      "inputs": [
        {
          "indexed": true,
          "name": "previousOwner",
          "type": "address"
        }
      ],
      "name": "OwnershipRenounced",
      "type": "event"
    },
    {
      "anonymous": false,
      "inputs": [
        {
          "indexed": true,
          "name": "previousOwner",
          "type": "address"
        },
        {
          "indexed": true,
          "name": "newOwner",
          "type": "address"
        }
      ],
      "name": "OwnershipTransferred",
      "type": "event"
    },
    {
      "constant": true,
      "inputs": [],
      "name": "tokensAvailable",
      "outputs": [
        {
          "name": "",
          "type": "uint256"
        }
      ],
      "payable": false,
      "stateMutability": "view",
      "type": "function"
    },
    {
      "constant": true,
      "inputs": [],
      "name": "isActive",
      "outputs": [
        {
          "name": "",
          "type": "bool"
        }
      ],
      "payable": false,
      "stateMutability": "view",
      "type": "function"
    },
    {
      "constant": true,
      "inputs": [],
      "name": "isAfterStartTime",
      "outputs": [
        {
          "name": "",
          "type": "bool"
        }
      ],
      "payable": false,
      "stateMutability": "view",
      "type": "function"
    },
    {
      "constant": true,
      "inputs": [],
      "name": "isBeforeEndTime",
      "outputs": [
        {
          "name": "",
          "type": "bool"
        }
      ],
      "payable": false,
      "stateMutability": "view",
      "type": "function"
    },
    {
      "constant": true,
      "inputs": [],
      "name": "tokensAreAvailable",
      "outputs": [
        {
          "name": "",
          "type": "bool"
        }
      ],
      "payable": false,
      "stateMutability": "view",
      "type": "function"
    },
    {
      "constant": false,
      "inputs": [],
      "name": "buyTokens",
      "outputs": [],
      "payable": true,
      "stateMutability": "payable",
      "type": "function"
    },
    {
      "constant": false,
      "inputs": [
        {
          "name": "_users",
          "type": "address[]"
        }
      ],
      "name": "registerTier1Users",
      "outputs": [],
      "payable": false,
      "stateMutability": "nonpayable",
      "type": "function"
    },
    {
      "constant": false,
      "inputs": [
        {
          "name": "_users",
          "type": "address[]"
        }
      ],
      "name": "registerTier2Users",
      "outputs": [],
      "payable": false,
      "stateMutability": "nonpayable",
      "type": "function"
    },
    {
      "constant": false,
      "inputs": [
        {
          "name": "_users",
          "type": "address[]"
        }
      ],
      "name": "unregisterUsers",
      "outputs": [],
      "payable": false,
      "stateMutability": "nonpayable",
      "type": "function"
    },
    {
      "constant": false,
      "inputs": [],
      "name": "endTokenSale",
      "outputs": [],
      "payable": false,
      "stateMutability": "nonpayable",
      "type": "function"
    }
  ],
  "bytecode": "0x608060405234801561001057600080fd5b50604051606080611ba1833981018060405281019080805190602001909291908051906020019092919080519060200190929190505050336000806101000a81548173ffffffffffffffffffffffffffffffffffffffff021916908373ffffffffffffffffffffffffffffffffffffffff160217905550600073ffffffffffffffffffffffffffffffffffffffff168373ffffffffffffffffffffffffffffffffffffffff16141515156100c357600080fd5b4282101515156100d257600080fd5b600073ffffffffffffffffffffffffffffffffffffffff168173ffffffffffffffffffffffffffffffffffffffff161415151561010e57600080fd5b82600360006101000a81548173ffffffffffffffffffffffffffffffffffffffff021916908373ffffffffffffffffffffffffffffffffffffffff1602179055508160028190555080600160006101000a81548173ffffffffffffffffffffffffffffffffffffffff021916908373ffffffffffffffffffffffffffffffffffffffff1602179055505050506119f8806101a96000396000f30060806040526004361061018b576000357c0100000000000000000000000000000000000000000000000000000000900463ffffffff168063035d5d0514610195578063137db869146101c057806322f3e2d4146101eb578063307edff81461021a578063355274ea14610231578063413e920d1461025c578063448a991514610287578063488cec69146102b257806349432923146102e1578063521eb2731461033857806359bc74a41461038f57806360659a92146103ba5780636f717c31146103e5578063715018a61461041057806376e532211461042757806378e979251461047e578063887d23a6146104a957806389280da6146104d85780638da5cb5b1461050357806394a5c2e41461055a5780639734a214146105855780639d0696ed146105b0578063a0a695fe14610607578063a92ec66114610642578063bbb37f7614610671578063d0febe4c146106ac578063dc39d06d146106b6578063e42d6efa1461071b578063e93c980d14610756578063e9f6bd0b14610781578063f2fde38b146107ac575b6101936107ef565b005b3480156101a157600080fd5b506101aa61083b565b6040518082815260200191505060405180910390f35b3480156101cc57600080fd5b506101d5610841565b6040518082815260200191505060405180910390f35b3480156101f757600080fd5b5061020061084b565b604051808215151515815260200191505060405180910390f35b34801561022657600080fd5b5061022f61087a565b005b34801561023d57600080fd5b50610246610b0c565b6040518082815260200191505060405180910390f35b34801561026857600080fd5b50610271610b2a565b6040518082815260200191505060405180910390f35b34801561029357600080fd5b5061029c610b31565b6040518082815260200191505060405180910390f35b3480156102be57600080fd5b506102c7610b39565b604051808215151515815260200191505060405180910390f35b3480156102ed57600080fd5b50610322600480360381019080803573ffffffffffffffffffffffffffffffffffffffff169060200190929190505050610b4a565b6040518082815260200191505060405180910390f35b34801561034457600080fd5b5061034d610b62565b604051808273ffffffffffffffffffffffffffffffffffffffff1673ffffffffffffffffffffffffffffffffffffffff16815260200191505060405180910390f35b34801561039b57600080fd5b506103a4610b88565b6040518082815260200191505060405180910390f35b3480156103c657600080fd5b506103cf610b9d565b6040518082815260200191505060405180910390f35b3480156103f157600080fd5b506103fa610c9c565b6040518082815260200191505060405180910390f35b34801561041c57600080fd5b50610425610cb5565b005b34801561043357600080fd5b50610468600480360381019080803573ffffffffffffffffffffffffffffffffffffffff169060200190929190505050610db7565b6040518082815260200191505060405180910390f35b34801561048a57600080fd5b50610493610dcf565b6040518082815260200191505060405180910390f35b3480156104b557600080fd5b506104be610dd5565b604051808215151515815260200191505060405180910390f35b3480156104e457600080fd5b506104ed610dfa565b6040518082815260200191505060405180910390f35b34801561050f57600080fd5b50610518610e20565b604051808273ffffffffffffffffffffffffffffffffffffffff1673ffffffffffffffffffffffffffffffffffffffff16815260200191505060405180910390f35b34801561056657600080fd5b5061056f610e45565b6040518082815260200191505060405180910390f35b34801561059157600080fd5b5061059a610e69565b6040518082815260200191505060405180910390f35b3480156105bc57600080fd5b506105c5610eaf565b604051808273ffffffffffffffffffffffffffffffffffffffff1673ffffffffffffffffffffffffffffffffffffffff16815260200191505060405180910390f35b34801561061357600080fd5b50610640600480360381019080803590602001908201803590602001919091929391929390505050610ed5565b005b34801561064e57600080fd5b50610657610f87565b604051808215151515815260200191505060405180910390f35b34801561067d57600080fd5b506106aa600480360381019080803590602001908201803590602001919091929391929390505050610f94565b005b6106b46107ef565b005b3480156106c257600080fd5b50610701600480360381019080803573ffffffffffffffffffffffffffffffffffffffff1690602001909291908035906020019092919050505061104c565b604051808215151515815260200191505060405180910390f35b34801561072757600080fd5b506107546004803603810190808035906020019082018035906020019190919293919293905050506111b0565b005b34801561076257600080fd5b5061076b611249565b6040518082815260200191505060405180910390f35b34801561078d57600080fd5b50610796611255565b6040518082815260200191505060405180910390f35b3480156107b857600080fd5b506107ed600480360381019080803573ffffffffffffffffffffffffffffffffffffffff16906020019092919050505061125a565b005b60006107f961084b565b151561080457600080fd5b60003411151561081357600080fd5b61081b6112c1565b905061082681611446565b61082f816114b2565b61083881611621565b50565b61012c81565b620f4240601e0281565b6000610855610f87565b80156108655750610864610dd5565b5b80156108755750610874610b39565b5b905090565b60008060009054906101000a900473ffffffffffffffffffffffffffffffffffffffff1673ffffffffffffffffffffffffffffffffffffffff163373ffffffffffffffffffffffffffffffffffffffff161415156108d757600080fd5b600160009054906101000a900473ffffffffffffffffffffffffffffffffffffffff1673ffffffffffffffffffffffffffffffffffffffff166370a08231306040518263ffffffff167c0100000000000000000000000000000000000000000000000000000000028152600401808273ffffffffffffffffffffffffffffffffffffffff1673ffffffffffffffffffffffffffffffffffffffff168152602001915050602060405180830381600087803b15801561099457600080fd5b505af11580156109a8573d6000803e3d6000fd5b505050506040513d60208110156109be57600080fd5b810190808051906020019092919050505090506000811115156109e057600080fd5b600160009054906101000a900473ffffffffffffffffffffffffffffffffffffffff1673ffffffffffffffffffffffffffffffffffffffff1663a9059cbb6000809054906101000a900473ffffffffffffffffffffffffffffffffffffffff16836040518363ffffffff167c0100000000000000000000000000000000000000000000000000000000028152600401808373ffffffffffffffffffffffffffffffffffffffff1673ffffffffffffffffffffffffffffffffffffffff16815260200182815260200192505050602060405180830381600087803b158015610ac657600080fd5b505af1158015610ada573d6000803e3d6000fd5b505050506040513d6020811015610af057600080fd5b81019080805190602001909291905050501515610b0957fe5b50565b61012c670de0b6b3a7640000811515610b2157fe5b04620186a00281565b620f424081565b633b9aca0081565b600080610b44610b9d565b11905090565b60046020528060005260406000206000915090505481565b600360009054906101000a900473ffffffffffffffffffffffffffffffffffffffff1681565b670de0b6b3a7640000633b9aca006004020281565b6000600160009054906101000a900473ffffffffffffffffffffffffffffffffffffffff1673ffffffffffffffffffffffffffffffffffffffff166370a08231306040518263ffffffff167c0100000000000000000000000000000000000000000000000000000000028152600401808273ffffffffffffffffffffffffffffffffffffffff1673ffffffffffffffffffffffffffffffffffffffff168152602001915050602060405180830381600087803b158015610c5c57600080fd5b505af1158015610c70573d6000803e3d6000fd5b505050506040513d6020811015610c8657600080fd5b8101908080519060200190929190505050905090565b61012c670de0b6b3a7640000811515610cb157fe5b0481565b6000809054906101000a900473ffffffffffffffffffffffffffffffffffffffff1673ffffffffffffffffffffffffffffffffffffffff163373ffffffffffffffffffffffffffffffffffffffff16141515610d1057600080fd5b6000809054906101000a900473ffffffffffffffffffffffffffffffffffffffff1673ffffffffffffffffffffffffffffffffffffffff167ff8df31144d9c2f0f6b59d69b8b98abd5459d07f2742c4df920b25aae33c6482060405160405180910390a260008060006101000a81548173ffffffffffffffffffffffffffffffffffffffff021916908373ffffffffffffffffffffffffffffffffffffffff160217905550565b60056020528060005260406000206000915090505481565b60025481565b6000610df262015180601e0260025461168d90919063ffffffff16565b421115905090565b620f4240601e02670de0b6b3a7640000633b9aca0060040202811515610e1c57fe5b0481565b6000809054906101000a900473ffffffffffffffffffffffffffffffffffffffff1681565b7fffffffffffffffffffffffffffffffffffffffffffffffffffffffffffffffff81565b61012c670de0b6b3a7640000811515610e7e57fe5b04620f4240601e02670de0b6b3a7640000633b9aca0060040202811515610ea157fe5b04811515610eab57fe5b0481565b600160009054906101000a900473ffffffffffffffffffffffffffffffffffffffff1681565b6000809054906101000a900473ffffffffffffffffffffffffffffffffffffffff1673ffffffffffffffffffffffffffffffffffffffff163373ffffffffffffffffffffffffffffffffffffffff16141515610f3057600080fd5b610f8382828080602002602001604051908101604052809392919081815260200183836020028082843782019150505050505061012c670de0b6b3a7640000811515610f7857fe5b04620186a0026116a9565b5050565b6000600254421015905090565b6000809054906101000a900473ffffffffffffffffffffffffffffffffffffffff1673ffffffffffffffffffffffffffffffffffffffff163373ffffffffffffffffffffffffffffffffffffffff16141515610fef57600080fd5b6110488282808060200260200160405190810160405280939291908181526020018383602002808284378201915050505050507fffffffffffffffffffffffffffffffffffffffffffffffffffffffffffffffff6116a9565b5050565b60008060009054906101000a900473ffffffffffffffffffffffffffffffffffffffff1673ffffffffffffffffffffffffffffffffffffffff163373ffffffffffffffffffffffffffffffffffffffff161415156110a957600080fd5b8273ffffffffffffffffffffffffffffffffffffffff1663a9059cbb6000809054906101000a900473ffffffffffffffffffffffffffffffffffffffff16846040518363ffffffff167c0100000000000000000000000000000000000000000000000000000000028152600401808373ffffffffffffffffffffffffffffffffffffffff1673ffffffffffffffffffffffffffffffffffffffff16815260200182815260200192505050602060405180830381600087803b15801561116d57600080fd5b505af1158015611181573d6000803e3d6000fd5b505050506040513d602081101561119757600080fd5b8101908080519060200190929190505050905092915050565b6000809054906101000a900473ffffffffffffffffffffffffffffffffffffffff1673ffffffffffffffffffffffffffffffffffffffff163373ffffffffffffffffffffffffffffffffffffffff1614151561120b57600080fd5b61124582828080602002602001604051908101604052809392919081815260200183836020028082843782019150505050505060006116a9565b5050565b670de0b6b3a764000081565b601e81565b6000809054906101000a900473ffffffffffffffffffffffffffffffffffffffff1673ffffffffffffffffffffffffffffffffffffffff163373ffffffffffffffffffffffffffffffffffffffff161415156112b557600080fd5b6112be81611781565b50565b600080600080600080600460003373ffffffffffffffffffffffffffffffffffffffff1673ffffffffffffffffffffffffffffffffffffffff168152602001908152602001600020549450600560003373ffffffffffffffffffffffffffffffffffffffff1673ffffffffffffffffffffffffffffffffffffffff16815260200190815260200160002054935061136a34611365878761187b90919063ffffffff16565b611894565b925060008311151561137b57600080fd5b6113d761012c670de0b6b3a764000081151561139357fe5b04620f4240601e02670de0b6b3a7640000633b9aca00600402028115156113b657fe5b048115156113c057fe5b046113c9610b9d565b6118ad90919063ffffffff16565b91506113e38383611894565b90506113f8818661168d90919063ffffffff16565b600460003373ffffffffffffffffffffffffffffffffffffffff1673ffffffffffffffffffffffffffffffffffffffff16815260200190815260200160002081905550809550505050505090565b600360009054906101000a900473ffffffffffffffffffffffffffffffffffffffff1673ffffffffffffffffffffffffffffffffffffffff166108fc829081150290604051600060405180830381858888f193505050501580156114ae573d6000803e3d6000fd5b5050565b60006114bd826118c3565b9050600160009054906101000a900473ffffffffffffffffffffffffffffffffffffffff1673ffffffffffffffffffffffffffffffffffffffff1663a9059cbb33836040518363ffffffff167c0100000000000000000000000000000000000000000000000000000000028152600401808373ffffffffffffffffffffffffffffffffffffffff1673ffffffffffffffffffffffffffffffffffffffff16815260200182815260200192505050602060405180830381600087803b15801561158457600080fd5b505af1158015611598573d6000803e3d6000fd5b505050506040513d60208110156115ae57600080fd5b810190808051906020019092919050505015156115c757fe5b3373ffffffffffffffffffffffffffffffffffffffff167f502d7599639522d17e32ff92615dddd3a5b73e7fe4cd03bedc1cfd22e19fa1df8383604051808381526020018281526020019250505060405180910390a25050565b6000611636823461187b90919063ffffffff16565b90506000811115611689573373ffffffffffffffffffffffffffffffffffffffff166108fc829081150290604051600060405180830381858888f19350505050158015611687573d6000803e3d6000fd5b505b5050565b600081830190508281101515156116a057fe5b80905092915050565b60008060009054906101000a900473ffffffffffffffffffffffffffffffffffffffff1673ffffffffffffffffffffffffffffffffffffffff163373ffffffffffffffffffffffffffffffffffffffff1614151561170657600080fd5b600090505b825181101561177c578160056000858481518110151561172757fe5b9060200190602002015173ffffffffffffffffffffffffffffffffffffffff1673ffffffffffffffffffffffffffffffffffffffff16815260200190815260200160002081905550808060010191505061170b565b505050565b600073ffffffffffffffffffffffffffffffffffffffff168173ffffffffffffffffffffffffffffffffffffffff16141515156117bd57600080fd5b8073ffffffffffffffffffffffffffffffffffffffff166000809054906101000a900473ffffffffffffffffffffffffffffffffffffffff1673ffffffffffffffffffffffffffffffffffffffff167f8be0079c531659141344cd1fd0a4f28419497f9722a3daafe3b4186f6b6457e060405160405180910390a3806000806101000a81548173ffffffffffffffffffffffffffffffffffffffff021916908373ffffffffffffffffffffffffffffffffffffffff16021790555050565b600082821115151561188957fe5b818303905092915050565b60008183106118a357816118a5565b825b905092915050565b600081838115156118ba57fe5b04905092915050565b60008061191b61012c670de0b6b3a76400008115156118de57fe5b04620f4240601e02670de0b6b3a7640000633b9aca006004020281151561190157fe5b0481151561190b57fe5b048461199490919063ffffffff16565b905061012c670de0b6b3a764000081151561193257fe5b04620f4240601e02670de0b6b3a7640000633b9aca006004020281151561195557fe5b0481151561195f57fe5b0461197a8261196c610b9d565b61187b90919063ffffffff16565b101561198b57611988610b9d565b90505b80915050919050565b6000808314156119a757600090506119c6565b81830290508183828115156119b857fe5b041415156119c257fe5b8090505b929150505600a165627a7a723058207ebe8cb66b5b3425e010cb3318b95b6cbf103217a93e8d3c2f32917327830ebe0029",
  "source": "pragma solidity ^0.4.24;\n\nimport \"./Ownable.sol\";\nimport \"./SafeMath.sol\";\nimport \"./BoomerangToken.sol\";\n\n/**\n * @title BoomerangTokenSale\n * @author Ben Johnson\n *\n * @dev BoomerangTokenSale is a token crowdsale contract\n * @dev Based on KinTokenSale contract: https://github.com/kikinteractive/kin-token\n * @dev Based on WildCryptoICO's Crowdsale contract: https://github.com/WildCryptoICO/Wild-Crypto-Token\n */\ncontract BoomerangTokenSale is Ownable, TokenHolder {\n   using SafeMath for uint256;\n\n   BoomerangToken public boomerangToken;\n\n   uint256 public startTime;\n   uint256 public constant numberOfDays = 30;\n   uint256 public constant ethPriceInDollars = 300;\n   address public wallet;\n\n   uint256 public constant tokenUnit = 10 ** 18;\n   uint256 public constant oneMillion = 10 ** 6;\n   uint256 public constant oneBillion = 10 ** 9;\n   uint256 public constant amountOfTokensForSale = 4 * oneBillion * tokenUnit;\n\n   uint256 public constant goalInDollars = 30 * oneMillion;\n   uint256 public constant kutoasPerDollar = amountOfTokensForSale/goalInDollars;\n\n   uint256 public constant weiPerDollar = tokenUnit / ethPriceInDollars;\n   uint256 public constant kutoasPerWei = kutoasPerDollar / weiPerDollar;\n\n   uint256 public constant cap = 100000 * weiPerDollar;\n   uint256 public constant maxValue = uint256(-1);\n\n   mapping (address => uint256) public participationHistory;\n   mapping (address => uint256) public participationCaps;\n\n   constructor(address _wallet, uint256 _startTime, address _tokenContractAddress) public {\n\n      require(_wallet != address(0));\n      require(_startTime >= now);\n      require(_tokenContractAddress != address(0));\n\n      wallet = _wallet;\n      startTime = _startTime;\n      boomerangToken = BoomerangToken(_tokenContractAddress);\n   }\n\n   function tokensAvailable() public view returns (uint256) {\n      return boomerangToken.balanceOf(this);\n   }\n\n   modifier whenTokenSaleIsActive() {\n      require(isActive());\n      _;\n   }\n\n   function isActive() public view returns (bool) {\n      return (\n         isAfterStartTime() &&\n         isBeforeEndTime() &&\n         tokensAreAvailable()\n      );\n   }\n\n   function isAfterStartTime() public view returns (bool) {\n      return now >= startTime;\n   }\n\n   function isBeforeEndTime() public view returns (bool) {\n      return now <= startTime.add(numberOfDays * 1 days);\n   }\n\n   function tokensAreAvailable() public view returns (bool) {\n      return tokensAvailable() > 0;\n   }\n\n   function () public payable {\n      buyTokens();\n   }\n\n   event IssueTokens(address indexed to, uint256 weiValue, uint256 amountOfTokens);\n\n   function buyTokens() public payable whenTokenSaleIsActive {\n\n      require(msg.value > 0);\n\n      uint256 weiValue = getWeiValue();\n\n      transferWeiToWallet(weiValue);\n      issueTokensToBuyer(weiValue);\n      issueRefundIfNecessary(weiValue);\n   }\n\n   function getWeiValue() internal returns (uint256) {\n\n      // Enforce participation cap (in Wei received).\n      uint256 weiAlreadyParticipated = participationHistory[msg.sender];\n      uint256 participationCap = participationCaps[msg.sender];\n      uint256 cappedWeiReceived = SafeMath.min256(msg.value, participationCap.sub(weiAlreadyParticipated));\n      require(cappedWeiReceived > 0);\n\n      // Accept funds and transfer to funding recipient.\n      uint256 weiLeftInSale = tokensAvailable().div(kutoasPerWei);\n      uint256 weiValue = SafeMath.min256(cappedWeiReceived, weiLeftInSale);\n      participationHistory[msg.sender] = weiAlreadyParticipated.add(weiValue);\n\n      return weiValue;\n   }\n\n   function transferWeiToWallet(uint256 weiValue) internal  {\n      wallet.transfer(weiValue);\n   }\n\n   function issueTokensToBuyer(uint256 weiValue) internal  {\n      uint256 amountOfTokens = getNumberOfTokensToIssue(weiValue);\n      assert(boomerangToken.transfer(msg.sender, amountOfTokens));\n      emit IssueTokens(msg.sender, weiValue, amountOfTokens);\n   }\n\n   function getNumberOfTokensToIssue(uint256 weiValue) internal constant returns (uint256) {\n\n      uint256 numberOfTokensToIssue = weiValue.mul(kutoasPerWei);\n\n      // if purchase would cause less kutoasPerWei tokens left available that nobody could ever buy them,\n      // then gift them to the last buyer.\n      if (tokensAvailable().sub(numberOfTokensToIssue) < kutoasPerWei) {\n         numberOfTokensToIssue = tokensAvailable();\n      }\n\n      return numberOfTokensToIssue;\n   }\n\n   function issueRefundIfNecessary(uint256 weiValue) internal  {\n\n      // partial refund if full participation not possible due to cap being reached\n      uint256 refund = msg.value.sub(weiValue);\n\n      if (refund > 0) {\n          msg.sender.transfer(refund);\n      }\n   }\n\n   function registerTier1Users(address[] _users) external onlyOwner {\n      setParticipationCap(_users, cap);\n   }\n\n   function registerTier2Users(address[] _users) external onlyOwner {\n      setParticipationCap(_users, maxValue);\n   }\n\n   function unregisterUsers(address[] _users) external onlyOwner {\n      setParticipationCap(_users, 0);\n   }\n\n   function setParticipationCap(address[] _users, uint256 _cap) private onlyOwner {\n      for (uint i = 0; i < _users.length; i++) {\n         participationCaps[_users[i]] = _cap;\n      }\n   }\n\n   function endTokenSale() public onlyOwner {\n\n      // transfer unsold tokens back to owner\n      uint256 balance = boomerangToken.balanceOf(this);\n      require(balance > 0);\n      assert(boomerangToken.transfer(owner, balance));\n   }\n}\n",
  "sourcePath": "/Users/panda/projects/boomerang/packages/boomerang-token-contracts/contracts/BoomerangTokenSale.sol",
  "compiler": {
    "name": "solc",
    "version": "0.4.24+commit.e67f0147.Emscripten.clang"
  },
  "schemaVersion": "2.0.1",
  "updatedAt": "2018-08-03T20:10:12.445Z"
}