{
  "contractName": "BoomerangActor",
  "abi": [
    {
      "constant": true,
      "inputs": [
        {
          "name": "",
          "type": "address"
        },
        {
          "name": "",
          "type": "address"
        }
      ],
      "name": "businessHasApprovedWorker",
      "outputs": [
        {
          "name": "",
          "type": "bool"
        }
      ],
      "payable": false,
      "stateMutability": "view",
      "type": "function"
    },
    {
      "constant": true,
      "inputs": [
        {
          "name": "",
          "type": "address"
        },
        {
          "name": "",
          "type": "address"
        }
      ],
      "name": "numberOfWorkerRatings",
      "outputs": [
        {
          "name": "",
          "type": "uint256"
        }
      ],
      "payable": false,
      "stateMutability": "view",
      "type": "function"
    },
    {
      "constant": true,
      "inputs": [
        {
          "name": "",
          "type": "address"
        },
        {
          "name": "",
          "type": "uint256"
        }
      ],
      "name": "businessList",
      "outputs": [
        {
          "name": "",
          "type": "address"
        }
      ],
      "payable": false,
      "stateMutability": "view",
      "type": "function"
    },
    {
      "constant": true,
      "inputs": [
        {
          "name": "",
          "type": "address"
        }
      ],
      "name": "isBusiness",
      "outputs": [
        {
          "name": "",
          "type": "bool"
        }
      ],
      "payable": false,
      "stateMutability": "view",
      "type": "function"
    },
    {
      "constant": true,
      "inputs": [
        {
          "name": "",
          "type": "address"
        }
      ],
      "name": "userRatingsSum",
      "outputs": [
        {
          "name": "",
          "type": "uint256"
        }
      ],
      "payable": false,
      "stateMutability": "view",
      "type": "function"
    },
    {
      "constant": true,
      "inputs": [
        {
          "name": "",
          "type": "address"
        }
      ],
      "name": "isUser",
      "outputs": [
        {
          "name": "",
          "type": "bool"
        }
      ],
      "payable": false,
      "stateMutability": "view",
      "type": "function"
    },
    {
      "constant": true,
      "inputs": [
        {
          "name": "",
          "type": "address"
        }
      ],
      "name": "businessRatingsSum",
      "outputs": [
        {
          "name": "",
          "type": "uint256"
        }
      ],
      "payable": false,
      "stateMutability": "view",
      "type": "function"
    },
    {
      "constant": true,
      "inputs": [
        {
          "name": "",
          "type": "address"
        },
        {
          "name": "",
          "type": "address"
        }
      ],
      "name": "isEmployed",
      "outputs": [
        {
          "name": "",
          "type": "bool"
        }
      ],
      "payable": false,
      "stateMutability": "view",
      "type": "function"
    },
    {
      "constant": true,
      "inputs": [
        {
          "name": "",
          "type": "address"
        }
      ],
      "name": "numberOfBusinessRatings",
      "outputs": [
        {
          "name": "",
          "type": "uint256"
        }
      ],
      "payable": false,
      "stateMutability": "view",
      "type": "function"
    },
    {
      "constant": true,
      "inputs": [
        {
          "name": "",
          "type": "address"
        }
      ],
      "name": "nonceValueForGasSubsidy",
      "outputs": [
        {
          "name": "",
          "type": "uint256"
        }
      ],
      "payable": false,
      "stateMutability": "view",
      "type": "function"
    },
    {
      "constant": true,
      "inputs": [
        {
          "name": "",
          "type": "address"
        }
      ],
      "name": "isWorker",
      "outputs": [
        {
          "name": "",
          "type": "bool"
        }
      ],
      "payable": false,
      "stateMutability": "view",
      "type": "function"
    },
    {
      "constant": true,
      "inputs": [
        {
          "name": "",
          "type": "address"
        }
      ],
      "name": "numberOfUserRatings",
      "outputs": [
        {
          "name": "",
          "type": "uint256"
        }
      ],
      "payable": false,
      "stateMutability": "view",
      "type": "function"
    },
    {
      "constant": true,
      "inputs": [
        {
          "name": "",
          "type": "address"
        },
        {
          "name": "",
          "type": "address"
        }
      ],
      "name": "workerRatingsSum",
      "outputs": [
        {
          "name": "",
          "type": "uint256"
        }
      ],
      "payable": false,
      "stateMutability": "view",
      "type": "function"
    },
    {
      "constant": true,
      "inputs": [
        {
          "name": "",
          "type": "address"
        },
        {
          "name": "",
          "type": "address"
        }
      ],
      "name": "workerHasApprovedBusiness",
      "outputs": [
        {
          "name": "",
          "type": "bool"
        }
      ],
      "payable": false,
      "stateMutability": "view",
      "type": "function"
    },
    {
      "constant": true,
      "inputs": [
        {
          "name": "",
          "type": "address"
        },
        {
          "name": "",
          "type": "uint256"
        }
      ],
      "name": "workerList",
      "outputs": [
        {
          "name": "",
          "type": "address"
        }
      ],
      "payable": false,
      "stateMutability": "view",
      "type": "function"
    },
    {
      "constant": true,
      "inputs": [
        {
          "name": "_actorAddress",
          "type": "address"
        }
      ],
      "name": "getNonceValueForGasSubsidy",
      "outputs": [
        {
          "name": "_nonceValue",
          "type": "uint256"
        }
      ],
      "payable": false,
      "stateMutability": "view",
      "type": "function"
    }
  ],
  "bytecode": "0x608060405234801561001057600080fd5b50610a3d806100206000396000f3006080604052600436106100e6576000357c0100000000000000000000000000000000000000000000000000000000900463ffffffff168063067a0949146100eb5780630e2be26614610166578063130ee376146101dd5780631466d0191461026a57806332455817146102c55780634209fff11461031c5780635e27d398146103775780637b1d0c83146103ce5780639708c61f146104495780639ba16404146104a0578063aa156645146104f7578063b265c33d14610552578063ca202792146105a9578063d167b8c814610620578063e336379314610677578063f9011888146106f2575b600080fd5b3480156100f757600080fd5b5061014c600480360381019080803573ffffffffffffffffffffffffffffffffffffffff169060200190929190803573ffffffffffffffffffffffffffffffffffffffff16906020019092919050505061077f565b604051808215151515815260200191505060405180910390f35b34801561017257600080fd5b506101c7600480360381019080803573ffffffffffffffffffffffffffffffffffffffff169060200190929190803573ffffffffffffffffffffffffffffffffffffffff1690602001909291905050506107ae565b6040518082815260200191505060405180910390f35b3480156101e957600080fd5b50610228600480360381019080803573ffffffffffffffffffffffffffffffffffffffff169060200190929190803590602001909291905050506107d3565b604051808273ffffffffffffffffffffffffffffffffffffffff1673ffffffffffffffffffffffffffffffffffffffff16815260200191505060405180910390f35b34801561027657600080fd5b506102ab600480360381019080803573ffffffffffffffffffffffffffffffffffffffff169060200190929190505050610820565b604051808215151515815260200191505060405180910390f35b3480156102d157600080fd5b50610306600480360381019080803573ffffffffffffffffffffffffffffffffffffffff169060200190929190505050610840565b6040518082815260200191505060405180910390f35b34801561032857600080fd5b5061035d600480360381019080803573ffffffffffffffffffffffffffffffffffffffff169060200190929190505050610858565b604051808215151515815260200191505060405180910390f35b34801561038357600080fd5b506103b8600480360381019080803573ffffffffffffffffffffffffffffffffffffffff169060200190929190505050610878565b6040518082815260200191505060405180910390f35b3480156103da57600080fd5b5061042f600480360381019080803573ffffffffffffffffffffffffffffffffffffffff169060200190929190803573ffffffffffffffffffffffffffffffffffffffff169060200190929190505050610890565b604051808215151515815260200191505060405180910390f35b34801561045557600080fd5b5061048a600480360381019080803573ffffffffffffffffffffffffffffffffffffffff1690602001909291905050506108bf565b6040518082815260200191505060405180910390f35b3480156104ac57600080fd5b506104e1600480360381019080803573ffffffffffffffffffffffffffffffffffffffff1690602001909291905050506108d7565b6040518082815260200191505060405180910390f35b34801561050357600080fd5b50610538600480360381019080803573ffffffffffffffffffffffffffffffffffffffff1690602001909291905050506108ef565b604051808215151515815260200191505060405180910390f35b34801561055e57600080fd5b50610593600480360381019080803573ffffffffffffffffffffffffffffffffffffffff16906020019092919050505061090f565b6040518082815260200191505060405180910390f35b3480156105b557600080fd5b5061060a600480360381019080803573ffffffffffffffffffffffffffffffffffffffff169060200190929190803573ffffffffffffffffffffffffffffffffffffffff169060200190929190505050610927565b6040518082815260200191505060405180910390f35b34801561062c57600080fd5b50610661600480360381019080803573ffffffffffffffffffffffffffffffffffffffff16906020019092919050505061094c565b6040518082815260200191505060405180910390f35b34801561068357600080fd5b506106d8600480360381019080803573ffffffffffffffffffffffffffffffffffffffff169060200190929190803573ffffffffffffffffffffffffffffffffffffffff169060200190929190505050610995565b604051808215151515815260200191505060405180910390f35b3480156106fe57600080fd5b5061073d600480360381019080803573ffffffffffffffffffffffffffffffffffffffff169060200190929190803590602001909291905050506109c4565b604051808273ffffffffffffffffffffffffffffffffffffffff1673ffffffffffffffffffffffffffffffffffffffff16815260200191505060405180910390f35b60016020528160005260406000206020528060005260406000206000915091509054906101000a900460ff1681565b600b602052816000526040600020602052806000526040600020600091509150505481565b6005602052816000526040600020818154811015156107ee57fe5b906000526020600020016000915091509054906101000a900473ffffffffffffffffffffffffffffffffffffffff1681565b60006020528060005260406000206000915054906101000a900460ff1681565b600c6020528060005260406000206000915090505481565b60066020528060005260406000206000915054906101000a900460ff1681565b60086020528060005260406000206000915090505481565b60076020528160005260406000206020528060005260406000206000915091509054906101000a900460ff1681565b60096020528060005260406000206000915090505481565b600e6020528060005260406000206000915090505481565b60036020528060005260406000206000915054906101000a900460ff1681565b600d6020528060005260406000206000915090505481565b600a602052816000526040600020602052806000526040600020600091509150505481565b6000600e60008373ffffffffffffffffffffffffffffffffffffffff1673ffffffffffffffffffffffffffffffffffffffff168152602001908152602001600020549050919050565b60046020528160005260406000206020528060005260406000206000915091509054906101000a900460ff1681565b6002602052816000526040600020818154811015156109df57fe5b906000526020600020016000915091509054906101000a900473ffffffffffffffffffffffffffffffffffffffff16815600a165627a7a72305820555c72734de07f0c085b8ea4537f1c5f9930ec04601b2180071b5164ce8403c40029",
  "source": "pragma solidity ^0.4.24;\n\ncontract BoomerangActor {\n\n  // business\n  mapping(address => bool) public isBusiness;\n\n  mapping(address => mapping(address => bool)) public businessHasApprovedWorker;\n  mapping(address => address[]) public workerList;\n\n  // worker\n  mapping(address => bool) public isWorker;\n\n  mapping(address => mapping(address => bool)) public workerHasApprovedBusiness;\n  mapping(address => address[]) public businessList;\n\n  // user\n  mapping(address => bool) public isUser;\n\n  // business + worker\n  mapping(address => mapping(address => bool)) public isEmployed;\n\n  // ratings\n  mapping(address => uint256) public businessRatingsSum;\n  mapping(address => uint256) public numberOfBusinessRatings;\n\n  mapping(address => mapping(address => uint256)) public workerRatingsSum;\n  mapping(address => mapping(address => uint256)) public numberOfWorkerRatings;\n\n  mapping(address => uint256) public userRatingsSum;\n  mapping(address => uint256) public numberOfUserRatings;\n\n  // actorAddress => nonceValue\n  mapping(address => uint256) public nonceValueForGasSubsidy;\n\n  function getNonceValueForGasSubsidy(address _actorAddress) public view returns (uint256 _nonceValue) {\n    _nonceValue = nonceValueForGasSubsidy[_actorAddress];\n  }\n\n  function verifyActor(address _actorAddress, uint8 _v, bytes32 _r, bytes32 _s) internal {\n\n    bytes32 nonceHash = keccak256(abi.encodePacked(_actorAddress, nonceValueForGasSubsidy[_actorAddress]));\n    bytes memory prefix = '\\x19Ethereum Signed Message:\\n32';\n    bytes32 prefixedHash = keccak256(abi.encodePacked(prefix, nonceHash));\n    address recoveredAddress = ecrecover(prefixedHash, _v, _r, _s);\n    require(recoveredAddress == _actorAddress);\n\n    nonceValueForGasSubsidy[_actorAddress] += 1;\n  }\n}\n",
  "sourcePath": "/Users/panda/projects/boomerang/packages/boomerang-contracts/contracts/BoomerangActor.sol",
  "compiler": {
    "name": "solc",
    "version": "0.4.24+commit.e67f0147.Emscripten.clang"
  },
  "schemaVersion": "2.0.1",
  "updatedAt": "2018-08-17T17:50:32.241Z"
}