{
  "contractName": "BoomerangGrowthPoolRewardSystem",
  "abi": [
    {
      "constant": true,
      "inputs": [],
      "name": "growthPoolRewardSystem",
      "outputs": [
        {
          "name": "numberOfRewardSteps",
          "type": "uint256"
        },
        {
          "name": "numberOfRewardLevels",
          "type": "uint256"
        },
        {
          "name": "ipfsHash",
          "type": "bytes32"
        }
      ],
      "payable": false,
      "stateMutability": "view",
      "type": "function"
    },
    {
      "constant": true,
      "inputs": [],
      "name": "boomerangAuth",
      "outputs": [
        {
          "name": "",
          "type": "address"
        }
      ],
      "payable": false,
      "stateMutability": "view",
      "type": "function"
    },
    {
      "constant": false,
      "inputs": [],
      "name": "renounceOwnership",
      "outputs": [],
      "payable": false,
      "stateMutability": "nonpayable",
      "type": "function"
    },
    {
      "constant": true,
      "inputs": [],
      "name": "owner",
      "outputs": [
        {
          "name": "",
          "type": "address"
        }
      ],
      "payable": false,
      "stateMutability": "view",
      "type": "function"
    },
    {
      "constant": true,
      "inputs": [],
      "name": "boomerangToken",
      "outputs": [
        {
          "name": "",
          "type": "address"
        }
      ],
      "payable": false,
      "stateMutability": "view",
      "type": "function"
    },
    {
      "constant": true,
      "inputs": [
        {
          "name": "",
          "type": "address"
        }
      ],
      "name": "growthPoolBusiness",
      "outputs": [
        {
          "name": "",
          "type": "bool"
        }
      ],
      "payable": false,
      "stateMutability": "view",
      "type": "function"
    },
    {
      "constant": false,
      "inputs": [
        {
          "name": "_newOwner",
          "type": "address"
        }
      ],
      "name": "transferOwnership",
      "outputs": [],
      "payable": false,
      "stateMutability": "nonpayable",
      "type": "function"
    },
    {
      "anonymous": false,
      "inputs": [],
      "name": "RegisterGrowthPoolRewardSystem",
      "type": "event"
    },
    {
      "anonymous": false,
      "inputs": [
        {
          "indexed": false,
          "name": "_type",
          "type": "string"
        },
        {
          "indexed": true,
          "name": "_address",
          "type": "address"
        },
        {
          "indexed": false,
          "name": "_rewardValue",
          "type": "uint256"
        }
      ],
      "name": "GrowthPoolReward",
      "type": "event"
    },
    {
      "anonymous": false,
      "inputs": [
        {
          "indexed": true,
          "name": "previousOwner",
          "type": "address"
        }
      ],
      "name": "OwnershipRenounced",
      "type": "event"
    },
    {
      "anonymous": false,
      "inputs": [
        {
          "indexed": true,
          "name": "previousOwner",
          "type": "address"
        },
        {
          "indexed": true,
          "name": "newOwner",
          "type": "address"
        }
      ],
      "name": "OwnershipTransferred",
      "type": "event"
    },
    {
      "constant": false,
      "inputs": [
        {
          "name": "_numberOfRewardSteps",
          "type": "uint256"
        },
        {
          "name": "_numberOfRewardCyclesForLevel",
          "type": "uint256[]"
        },
        {
          "name": "_numberOfRewardLevels",
          "type": "uint256"
        },
        {
          "name": "_levelRewards",
          "type": "uint256[]"
        },
        {
          "name": "_ipfsHash",
          "type": "bytes32"
        }
      ],
      "name": "registerGrowthPoolRewardSystem",
      "outputs": [],
      "payable": false,
      "stateMutability": "nonpayable",
      "type": "function"
    },
    {
      "constant": false,
      "inputs": [
        {
          "name": "businesses",
          "type": "address[]"
        }
      ],
      "name": "addBusinessesToGrowthPoolRewardsSystem",
      "outputs": [],
      "payable": false,
      "stateMutability": "nonpayable",
      "type": "function"
    },
    {
      "constant": false,
      "inputs": [
        {
          "name": "businesses",
          "type": "address[]"
        }
      ],
      "name": "removeBusinessesFromGrowthPoolRewardsSystem",
      "outputs": [],
      "payable": false,
      "stateMutability": "nonpayable",
      "type": "function"
    },
    {
      "constant": true,
      "inputs": [],
      "name": "getGrowthPoolRewardSystem",
      "outputs": [
        {
          "name": "_numberOfRewardSteps",
          "type": "uint256"
        },
        {
          "name": "_numberOfRewardCyclesForLevel",
          "type": "uint256[]"
        },
        {
          "name": "_numberOfRewardLevels",
          "type": "uint256"
        },
        {
          "name": "_levelRewards",
          "type": "uint256[]"
        },
        {
          "name": "_ipfsHash",
          "type": "bytes32"
        }
      ],
      "payable": false,
      "stateMutability": "view",
      "type": "function"
    },
    {
      "constant": true,
      "inputs": [
        {
          "name": "_address",
          "type": "address"
        }
      ],
      "name": "getGrowthPoolRewardStep",
      "outputs": [
        {
          "name": "_rewardStep",
          "type": "uint256"
        }
      ],
      "payable": false,
      "stateMutability": "view",
      "type": "function"
    },
    {
      "constant": true,
      "inputs": [
        {
          "name": "_address",
          "type": "address"
        }
      ],
      "name": "getGrowthPoolRewardCycle",
      "outputs": [
        {
          "name": "_rewardCycle",
          "type": "uint256"
        }
      ],
      "payable": false,
      "stateMutability": "view",
      "type": "function"
    },
    {
      "constant": true,
      "inputs": [
        {
          "name": "_address",
          "type": "address"
        }
      ],
      "name": "getGrowthPoolRewardLevel",
      "outputs": [
        {
          "name": "_rewardLevel",
          "type": "uint256"
        }
      ],
      "payable": false,
      "stateMutability": "view",
      "type": "function"
    },
    {
      "constant": true,
      "inputs": [
        {
          "name": "_address",
          "type": "address"
        }
      ],
      "name": "getGrowthPoolRewardRank",
      "outputs": [
        {
          "name": "_rewardRank",
          "type": "uint256"
        }
      ],
      "payable": false,
      "stateMutability": "view",
      "type": "function"
    }
  ],
  "bytecode": "0x608060405233600160006101000a81548173ffffffffffffffffffffffffffffffffffffffff021916908373ffffffffffffffffffffffffffffffffffffffff160217905550610f29806100546000396000f3006080604052600436106100db576000357c0100000000000000000000000000000000000000000000000000000000900463ffffffff16806303d7c87d146100e057806319268566146101555780631c946952146101ac57806344ab4a47146101ed578063715018a6146102445780638da5cb5b1461025b5780639d0696ed146102b2578063a0a6b77114610309578063b0106aa314610360578063c304c93b14610431578063d656790f14610488578063d8fb8c1f146104c3578063e5d87e76146104fe578063f2fde38b14610559578063f776757b1461059c575b600080fd5b3480156100ec57600080fd5b50610153600480360381019080803590602001909291908035906020019082018035906020019190919293919293908035906020019092919080359060200190820180359060200191909192939192939080356000191690602001909291905050506105f3565b005b34801561016157600080fd5b50610196600480360381019080803573ffffffffffffffffffffffffffffffffffffffff169060200190929190505050610771565b6040518082815260200191505060405180910390f35b3480156101b857600080fd5b506101c16107bd565b604051808481526020018381526020018260001916600019168152602001935050505060405180910390f35b3480156101f957600080fd5b506102026107d5565b604051808273ffffffffffffffffffffffffffffffffffffffff1673ffffffffffffffffffffffffffffffffffffffff16815260200191505060405180910390f35b34801561025057600080fd5b506102596107fb565b005b34801561026757600080fd5b50610270610900565b604051808273ffffffffffffffffffffffffffffffffffffffff1673ffffffffffffffffffffffffffffffffffffffff16815260200191505060405180910390f35b3480156102be57600080fd5b506102c7610926565b604051808273ffffffffffffffffffffffffffffffffffffffff1673ffffffffffffffffffffffffffffffffffffffff16815260200191505060405180910390f35b34801561031557600080fd5b5061034a600480360381019080803573ffffffffffffffffffffffffffffffffffffffff16906020019092919050505061094b565b6040518082815260200191505060405180910390f35b34801561036c57600080fd5b50610375610997565b6040518086815260200180602001858152602001806020018460001916600019168152602001838103835287818151815260200191508051906020019060200280838360005b838110156103d65780820151818401526020810190506103bb565b50505050905001838103825285818151815260200191508051906020019060200280838360005b838110156104185780820151818401526020810190506103fd565b5050505090500197505050505050505060405180910390f35b34801561043d57600080fd5b50610472600480360381019080803573ffffffffffffffffffffffffffffffffffffffff169060200190929190505050610a6b565b6040518082815260200191505060405180910390f35b34801561049457600080fd5b506104c1600480360381019080803590602001908201803590602001919091929391929390505050610ab7565b005b3480156104cf57600080fd5b506104fc600480360381019080803590602001908201803590602001919091929391929390505050610bb9565b005b34801561050a57600080fd5b5061053f600480360381019080803573ffffffffffffffffffffffffffffffffffffffff169060200190929190505050610cbb565b604051808215151515815260200191505060405180910390f35b34801561056557600080fd5b5061059a600480360381019080803573ffffffffffffffffffffffffffffffffffffffff169060200190929190505050610cdb565b005b3480156105a857600080fd5b506105dd600480360381019080803573ffffffffffffffffffffffffffffffffffffffff169060200190929190505050610d43565b6040518082815260200191505060405180910390f35b600160009054906101000a900473ffffffffffffffffffffffffffffffffffffffff1673ffffffffffffffffffffffffffffffffffffffff163373ffffffffffffffffffffffffffffffffffffffff1614151561064f57600080fd5b60a0604051908101604052808881526020018787808060200260200160405190810160405280939291908181526020018383602002808284378201915050505050508152602001858152602001848480806020026020016040519081016040528093929190818152602001838360200280828437820191505050505050815260200182600019168152506003600082015181600001556020820151816001019080519060200190610701929190610e8b565b50604082015181600201556060820151816003019080519060200190610728929190610e8b565b50608082015181600401906000191690559050507fcecb7f2a433f872143ebb31ebe6bc5cd169e6a657bc645805e460bf08188818960405160405180910390a150505050505050565b6000600360080160008373ffffffffffffffffffffffffffffffffffffffff1673ffffffffffffffffffffffffffffffffffffffff168152602001908152602001600020549050919050565b60038060000154908060020154908060040154905083565b600260009054906101000a900473ffffffffffffffffffffffffffffffffffffffff1681565b600160009054906101000a900473ffffffffffffffffffffffffffffffffffffffff1673ffffffffffffffffffffffffffffffffffffffff163373ffffffffffffffffffffffffffffffffffffffff1614151561085757600080fd5b600160009054906101000a900473ffffffffffffffffffffffffffffffffffffffff1673ffffffffffffffffffffffffffffffffffffffff167ff8df31144d9c2f0f6b59d69b8b98abd5459d07f2742c4df920b25aae33c6482060405160405180910390a26000600160006101000a81548173ffffffffffffffffffffffffffffffffffffffff021916908373ffffffffffffffffffffffffffffffffffffffff160217905550565b600160009054906101000a900473ffffffffffffffffffffffffffffffffffffffff1681565b6000809054906101000a900473ffffffffffffffffffffffffffffffffffffffff1681565b6000600360070160008373ffffffffffffffffffffffffffffffffffffffff1673ffffffffffffffffffffffffffffffffffffffff168152602001908152602001600020549050919050565b60006060600060606000600360000154945060036001018054806020026020016040519081016040528092919081815260200182805480156109f857602002820191906000526020600020905b8154815260200190600101908083116109e4575b50505050509350600360020154925060038001805480602002602001604051908101604052809291908181526020018280548015610a5557602002820191906000526020600020905b815481526020019060010190808311610a41575b5050505050915060036004015490509091929394565b6000600360050160008373ffffffffffffffffffffffffffffffffffffffff1673ffffffffffffffffffffffffffffffffffffffff168152602001908152602001600020549050919050565b6000600160009054906101000a900473ffffffffffffffffffffffffffffffffffffffff1673ffffffffffffffffffffffffffffffffffffffff163373ffffffffffffffffffffffffffffffffffffffff16141515610b1557600080fd5b600090505b82829050811015610bb4576001600c60008585858181101515610b3957fe5b9050602002013573ffffffffffffffffffffffffffffffffffffffff1673ffffffffffffffffffffffffffffffffffffffff1673ffffffffffffffffffffffffffffffffffffffff16815260200190815260200160002060006101000a81548160ff0219169083151502179055508080600101915050610b1a565b505050565b6000600160009054906101000a900473ffffffffffffffffffffffffffffffffffffffff1673ffffffffffffffffffffffffffffffffffffffff163373ffffffffffffffffffffffffffffffffffffffff16141515610c1757600080fd5b600090505b82829050811015610cb6576000600c60008585858181101515610c3b57fe5b9050602002013573ffffffffffffffffffffffffffffffffffffffff1673ffffffffffffffffffffffffffffffffffffffff1673ffffffffffffffffffffffffffffffffffffffff16815260200190815260200160002060006101000a81548160ff0219169083151502179055508080600101915050610c1c565b505050565b600c6020528060005260406000206000915054906101000a900460ff1681565b600160009054906101000a900473ffffffffffffffffffffffffffffffffffffffff1673ffffffffffffffffffffffffffffffffffffffff163373ffffffffffffffffffffffffffffffffffffffff16141515610d3757600080fd5b610d4081610d8f565b50565b6000600360060160008373ffffffffffffffffffffffffffffffffffffffff1673ffffffffffffffffffffffffffffffffffffffff168152602001908152602001600020549050919050565b600073ffffffffffffffffffffffffffffffffffffffff168173ffffffffffffffffffffffffffffffffffffffff1614151515610dcb57600080fd5b8073ffffffffffffffffffffffffffffffffffffffff16600160009054906101000a900473ffffffffffffffffffffffffffffffffffffffff1673ffffffffffffffffffffffffffffffffffffffff167f8be0079c531659141344cd1fd0a4f28419497f9722a3daafe3b4186f6b6457e060405160405180910390a380600160006101000a81548173ffffffffffffffffffffffffffffffffffffffff021916908373ffffffffffffffffffffffffffffffffffffffff16021790555050565b828054828255906000526020600020908101928215610ec7579160200282015b82811115610ec6578251825591602001919060010190610eab565b5b509050610ed49190610ed8565b5090565b610efa91905b80821115610ef6576000816000905550600101610ede565b5090565b905600a165627a7a723058205ac951d0b162dd4e4b1fa78a29212a77dc937428843fa20ce17a41e88709cbf20029",
  "source": "pragma solidity ^0.4.24;\n//pragma experimental ABIEncoderV2;\n\nimport './BoomerangRewardSystem.sol';\n\ncontract BoomerangGrowthPoolRewardSystem is BoomerangRewardSystem {\n\n  event RegisterGrowthPoolRewardSystem();\n  event GrowthPoolReward(string _type, address indexed _address, uint256 _rewardValue);\n\n  RewardSystem public growthPoolRewardSystem;\n  mapping (address => bool) public growthPoolBusiness;\n\n  function registerGrowthPoolRewardSystem(uint256 _numberOfRewardSteps, uint256[] _numberOfRewardCyclesForLevel, uint256 _numberOfRewardLevels, uint256[] _levelRewards, bytes32 _ipfsHash) external onlyOwner {\n\n    growthPoolRewardSystem = RewardSystem(_numberOfRewardSteps, _numberOfRewardCyclesForLevel, _numberOfRewardLevels, _levelRewards, _ipfsHash);\n    emit RegisterGrowthPoolRewardSystem();\n  }\n\n  function updateGrowthPoolRewardProgress(address _userAddress, address _workerAddress, address _businessAddress, uint256 _workerRating) internal {\n\n    if (growthPoolBusiness[_businessAddress] == false) {\n      return;\n    }\n\n    updateGrowthPoolRewardProgress('user', _userAddress);\n\n    if (_workerRating == 5) {\n      updateGrowthPoolRewardProgress('worker', _workerAddress);\n    }\n\n    updateGrowthPoolRewardProgress('business', _businessAddress);\n  }\n\n  function updateGrowthPoolRewardProgress(string _type, address _address) internal {\n\n    uint256 rewardLevel = growthPoolRewardSystem.rewardLevel[_address];\n    incrementRewardProgress(growthPoolRewardSystem, _address);\n\n    if (growthPoolRewardSystem.rewardStep[_address] == 0) {\n      uint256 rewardValue = growthPoolRewardSystem.levelRewards[rewardLevel];\n      boomerangToken.transferFrom(owner, _address, rewardValue);\n      emit GrowthPoolReward(_type, _address, rewardValue);\n    }\n  }\n\n   function addBusinessesToGrowthPoolRewardsSystem(address[] businesses) external onlyOwner {\n      for (uint i = 0; i < businesses.length; i++) {\n         growthPoolBusiness[businesses[i]] = true;\n      }\n   }\n\n   function removeBusinessesFromGrowthPoolRewardsSystem(address[] businesses) external onlyOwner {\n      for (uint i = 0; i < businesses.length; i++) {\n         growthPoolBusiness[businesses[i]] = false;\n      }\n   }\n\n  function getGrowthPoolRewardSystem() public view returns (uint256 _numberOfRewardSteps, uint256[] _numberOfRewardCyclesForLevel, uint256 _numberOfRewardLevels, uint256[] _levelRewards, bytes32 _ipfsHash) {\n\n    _numberOfRewardSteps = growthPoolRewardSystem.numberOfRewardSteps;\n    _numberOfRewardCyclesForLevel = growthPoolRewardSystem.numberOfRewardCyclesForLevel;\n    _numberOfRewardLevels = growthPoolRewardSystem.numberOfRewardLevels;\n    _levelRewards = growthPoolRewardSystem.levelRewards;\n    _ipfsHash = growthPoolRewardSystem.ipfsHash;\n  }\n\n  function getGrowthPoolRewardStep(address _address) public view returns (uint256 _rewardStep) {\n\n    _rewardStep = growthPoolRewardSystem.rewardStep[_address];\n  }\n\n  function getGrowthPoolRewardCycle(address _address) public view returns (uint256 _rewardCycle) {\n\n    _rewardCycle = growthPoolRewardSystem.rewardCycle[_address];\n  }\n\n  function getGrowthPoolRewardLevel(address _address) public view returns (uint256 _rewardLevel) {\n\n    _rewardLevel = growthPoolRewardSystem.rewardLevel[_address];\n  }\n\n  function getGrowthPoolRewardRank(address _address) public view returns (uint256 _rewardRank) {\n\n    _rewardRank = growthPoolRewardSystem.rewardRank[_address];\n  }\n}",
  "sourcePath": "/Users/panda/projects/boomerang/packages/boomerang-contracts/contracts/experience/rewards/BoomerangGrowthPoolRewardSystem.sol",
  "compiler": {
    "name": "solc",
    "version": "0.4.24+commit.e67f0147.Emscripten.clang"
  },
  "schemaVersion": "2.0.1",
  "updatedAt": "2018-08-22T15:34:49.044Z"
}