{
  "contractName": "TestContract",
  "abi": [
    {
      "constant": true,
      "inputs": [
        {
          "name": "",
          "type": "address"
        }
      ],
      "name": "onlyTestMapping",
      "outputs": [
        {
          "name": "",
          "type": "uint256"
        }
      ],
      "payable": false,
      "stateMutability": "view",
      "type": "function"
    },
    {
      "constant": true,
      "inputs": [
        {
          "name": "",
          "type": "address"
        },
        {
          "name": "",
          "type": "uint256"
        }
      ],
      "name": "ratingRewards",
      "outputs": [
        {
          "name": "",
          "type": "uint256"
        }
      ],
      "payable": false,
      "stateMutability": "view",
      "type": "function"
    },
    {
      "constant": false,
      "inputs": [
        {
          "name": "_businessAddress",
          "type": "address"
        },
        {
          "name": "_ratingRewards",
          "type": "uint256[5]"
        },
        {
          "name": "_v",
          "type": "uint8"
        },
        {
          "name": "_r",
          "type": "bytes32"
        },
        {
          "name": "_s",
          "type": "bytes32"
        }
      ],
      "name": "setRatingRewards",
      "outputs": [],
      "payable": false,
      "stateMutability": "nonpayable",
      "type": "function"
    }
  ],
  "bytecode": "0x608060405234801561001057600080fd5b506105f5806100206000396000f300608060405260043610610057576000357c0100000000000000000000000000000000000000000000000000000000900463ffffffff1680633e210f8b1461005c578063761173bc146100d2578063abd9a4ef14610129575b600080fd5b34801561006857600080fd5b506100d0600480360381019080803573ffffffffffffffffffffffffffffffffffffffff1690602001909291908060a001909192919290803560ff1690602001909291908035600019169060200190929190803560001916906020019092919050505061018a565b005b3480156100de57600080fd5b50610113600480360381019080803573ffffffffffffffffffffffffffffffffffffffff1690602001909291905050506101eb565b6040518082815260200191505060405180910390f35b34801561013557600080fd5b50610174600480360381019080803573ffffffffffffffffffffffffffffffffffffffff16906020019092919080359060200190929190505050610203565b6040518082815260200191505060405180910390f35b6101968584848461022a565b836000808773ffffffffffffffffffffffffffffffffffffffff1673ffffffffffffffffffffffffffffffffffffffff1681526020019081526020016000209060056101e3929190610564565b505050505050565b60016020528060005260406000206000915090505481565b60006020528160005260406000208160058110151561021e57fe5b01600091509150505481565b6000606060008087600160008a73ffffffffffffffffffffffffffffffffffffffff1673ffffffffffffffffffffffffffffffffffffffff16815260200190815260200160002054604051602001808373ffffffffffffffffffffffffffffffffffffffff1673ffffffffffffffffffffffffffffffffffffffff166c01000000000000000000000000028152601401828152602001925050506040516020818303038152906040526040518082805190602001908083835b60208310151561030857805182526020820191506020810190506020830392506102e3565b6001836020036101000a038019825116818451168082178552505050505050905001915050604051809103902093506040805190810160405280601c81526020017f19457468657265756d205369676e6564204d6573736167653a0a333200000000815250925082846040516020018083805190602001908083835b6020831015156103a95780518252602082019150602081019050602083039250610384565b6001836020036101000a0380198251168184511680821785525050505050509050018260001916600019168152602001925050506040516020818303038152906040526040518082805190602001908083835b60208310151561042157805182526020820191506020810190506020830392506103fc565b6001836020036101000a03801982511681845116808217855250505050505090500191505060405180910390209150600182888888604051600081526020016040526040518085600019166000191681526020018460ff1660ff1681526020018360001916600019168152602001826000191660001916815260200194505050505060206040516020810390808403906000865af11580156104c7573d6000803e3d6000fd5b5050506020604051035190508773ffffffffffffffffffffffffffffffffffffffff168173ffffffffffffffffffffffffffffffffffffffff1614151561050d57600080fd5b60018060008a73ffffffffffffffffffffffffffffffffffffffff1673ffffffffffffffffffffffffffffffffffffffff168152602001908152602001600020600082825401925050819055505050505050505050565b8260058101928215610593579160200282015b82811115610592578235825591602001919060010190610577565b5b5090506105a091906105a4565b5090565b6105c691905b808211156105c25760008160009055506001016105aa565b5090565b905600a165627a7a7230582082fe5bac1b35cf47787f70797f8fd57a582441b2dfcb45a909bef7b9c8cf01970029",
  "source": "pragma solidity ^0.4.24;\n\ncontract TestContract {\n\n\n  mapping(address => uint256[5]) public ratingRewards;\n\n  function setRatingRewards(address _businessAddress,\n                            uint256[5] _ratingRewards,\n                            uint8 _v,\n                            bytes32 _r,\n                            bytes32 _s) external {\n\n    onlyTest(_businessAddress, _v, _r, _s);\n    ratingRewards[_businessAddress] = _ratingRewards;\n  }\n\n    mapping(address => uint256) public onlyTestMapping;\n\n    function onlyTest(address _actorAddress, uint8 _v, bytes32 _r, bytes32 _s) internal {\n\n      bytes32 nonceHash = keccak256(abi.encodePacked(_actorAddress, onlyTestMapping[_actorAddress]));\n      bytes memory prefix = '\\x19Ethereum Signed Message:\\n32';\n      bytes32 prefixedHash = keccak256(abi.encodePacked(prefix, nonceHash));\n      address recoveredAddress = ecrecover(prefixedHash, _v, _r, _s);\n      require(recoveredAddress == _actorAddress);\n\n      onlyTestMapping[_actorAddress] += 1;\n    }\n}",
  "sourcePath": "/Users/panda/projects/boomerang/packages/boomerang-contracts/contracts/TestContract.sol",
  "compiler": {
    "name": "solc",
    "version": "0.4.24+commit.e67f0147.Emscripten.clang"
  },
  "schemaVersion": "2.0.1",
  "updatedAt": "2018-08-27T16:21:55.792Z"
}