{
  "contractName": "Rewards",
  "abi": [
    {
      "constant": true,
      "inputs": [
        {
          "name": "",
          "type": "address"
        },
        {
          "name": "",
          "type": "address"
        }
      ],
      "name": "employeeRewardProgress",
      "outputs": [
        {
          "name": "",
          "type": "uint256"
        }
      ],
      "payable": false,
      "stateMutability": "view",
      "type": "function"
    },
    {
      "constant": true,
      "inputs": [],
      "name": "employeeRewardGoal",
      "outputs": [
        {
          "name": "",
          "type": "uint256"
        }
      ],
      "payable": false,
      "stateMutability": "view",
      "type": "function"
    }
  ],
  "bytecode": "0x6060604052341561000f57600080fd5b61013d8061001e6000396000f30060606040526004361061004c576000357c0100000000000000000000000000000000000000000000000000000000900463ffffffff16806305af341f146100515780630e1478dc146100bd575b600080fd5b341561005c57600080fd5b6100a7600480803573ffffffffffffffffffffffffffffffffffffffff1690602001909190803573ffffffffffffffffffffffffffffffffffffffff169060200190919050506100e6565b6040518082815260200191505060405180910390f35b34156100c857600080fd5b6100d061010b565b6040518082815260200191505060405180910390f35b6000602052816000526040600020602052806000526040600020600091509150505481565b600154815600a165627a7a72305820192ecc0ebe4e8795b708cb32c15bba81b06e67f039449313405c055d8fb002420029",
  "source": "pragma solidity ^0.4.18;\n\ncontract Rewards {\n\n\n  mapping(address => mapping(address => uint256)) public employeeRewardProgress;\n  uint256 public employeeRewardGoal;\n\n}",
  "sourcePath": "/Users/panda/projects/kudos/packages/ethereum/contracts/Rewards.sol",
  "compiler": {
    "name": "solc",
    "version": "0.4.19+commit.c4cbbb05.Emscripten.clang"
  },
  "schemaVersion": "1.0.1",
  "updatedAt": "2018-03-13T23:11:24.163Z"
}