{
  "contractName": "KudosActor",
  "abi": [
    {
      "constant": true,
      "inputs": [
        {
          "name": "",
          "type": "address"
        },
        {
          "name": "",
          "type": "address"
        }
      ],
      "name": "numberOfWorkerRatings",
      "outputs": [
        {
          "name": "",
          "type": "uint256"
        }
      ],
      "payable": false,
      "stateMutability": "view",
      "type": "function"
    },
    {
      "constant": true,
      "inputs": [
        {
          "name": "",
          "type": "address"
        },
        {
          "name": "",
          "type": "uint256"
        }
      ],
      "name": "businessList",
      "outputs": [
        {
          "name": "",
          "type": "address"
        }
      ],
      "payable": false,
      "stateMutability": "view",
      "type": "function"
    },
    {
      "constant": true,
      "inputs": [
        {
          "name": "",
          "type": "address"
        }
      ],
      "name": "isBusiness",
      "outputs": [
        {
          "name": "",
          "type": "bool"
        }
      ],
      "payable": false,
      "stateMutability": "view",
      "type": "function"
    },
    {
      "constant": true,
      "inputs": [
        {
          "name": "",
          "type": "address"
        },
        {
          "name": "",
          "type": "address"
        }
      ],
      "name": "isEmployer",
      "outputs": [
        {
          "name": "",
          "type": "bool"
        }
      ],
      "payable": false,
      "stateMutability": "view",
      "type": "function"
    },
    {
      "constant": true,
      "inputs": [
        {
          "name": "",
          "type": "address"
        },
        {
          "name": "",
          "type": "address"
        }
      ],
      "name": "workerAverageRating",
      "outputs": [
        {
          "name": "",
          "type": "uint256"
        }
      ],
      "payable": false,
      "stateMutability": "view",
      "type": "function"
    },
    {
      "constant": true,
      "inputs": [
        {
          "name": "",
          "type": "address"
        },
        {
          "name": "",
          "type": "uint256"
        }
      ],
      "name": "employeeList",
      "outputs": [
        {
          "name": "",
          "type": "address"
        }
      ],
      "payable": false,
      "stateMutability": "view",
      "type": "function"
    },
    {
      "constant": true,
      "inputs": [
        {
          "name": "",
          "type": "address"
        }
      ],
      "name": "numberOfBusinessRatings",
      "outputs": [
        {
          "name": "",
          "type": "uint256"
        }
      ],
      "payable": false,
      "stateMutability": "view",
      "type": "function"
    },
    {
      "constant": true,
      "inputs": [
        {
          "name": "",
          "type": "address"
        }
      ],
      "name": "isWorker",
      "outputs": [
        {
          "name": "",
          "type": "bool"
        }
      ],
      "payable": false,
      "stateMutability": "view",
      "type": "function"
    },
    {
      "constant": true,
      "inputs": [
        {
          "name": "",
          "type": "address"
        }
      ],
      "name": "numberOfUserRatings",
      "outputs": [
        {
          "name": "",
          "type": "uint256"
        }
      ],
      "payable": false,
      "stateMutability": "view",
      "type": "function"
    },
    {
      "constant": true,
      "inputs": [
        {
          "name": "",
          "type": "address"
        },
        {
          "name": "",
          "type": "address"
        }
      ],
      "name": "isEmployee",
      "outputs": [
        {
          "name": "",
          "type": "bool"
        }
      ],
      "payable": false,
      "stateMutability": "view",
      "type": "function"
    },
    {
      "constant": true,
      "inputs": [
        {
          "name": "",
          "type": "address"
        }
      ],
      "name": "businessAverageRating",
      "outputs": [
        {
          "name": "",
          "type": "uint256"
        }
      ],
      "payable": false,
      "stateMutability": "view",
      "type": "function"
    },
    {
      "constant": true,
      "inputs": [
        {
          "name": "",
          "type": "address"
        }
      ],
      "name": "userAverageRating",
      "outputs": [
        {
          "name": "",
          "type": "uint256"
        }
      ],
      "payable": false,
      "stateMutability": "view",
      "type": "function"
    }
  ],
  "bytecode": "0x6060604052341561000f57600080fd5b6107618061001e6000396000f3006060604052600436106100ba576000357c0100000000000000000000000000000000000000000000000000000000900463ffffffff1680630e2be266146100bf578063130ee3761461012b5780631466d019146101ad5780631bb0d49a146101fe5780632f64550a1461026e57806345561eff146102da5780639708c61f1461035c578063aa156645146103a9578063b265c33d146103fa578063c2cd763214610447578063ec5df15a146104b7578063ffb3379314610504575b600080fd5b34156100ca57600080fd5b610115600480803573ffffffffffffffffffffffffffffffffffffffff1690602001909190803573ffffffffffffffffffffffffffffffffffffffff16906020019091905050610551565b6040518082815260200191505060405180910390f35b341561013657600080fd5b61016b600480803573ffffffffffffffffffffffffffffffffffffffff16906020019091908035906020019091905050610576565b604051808273ffffffffffffffffffffffffffffffffffffffff1673ffffffffffffffffffffffffffffffffffffffff16815260200191505060405180910390f35b34156101b857600080fd5b6101e4600480803573ffffffffffffffffffffffffffffffffffffffff169060200190919050506105c4565b604051808215151515815260200191505060405180910390f35b341561020957600080fd5b610254600480803573ffffffffffffffffffffffffffffffffffffffff1690602001909190803573ffffffffffffffffffffffffffffffffffffffff169060200190919050506105e4565b604051808215151515815260200191505060405180910390f35b341561027957600080fd5b6102c4600480803573ffffffffffffffffffffffffffffffffffffffff1690602001909190803573ffffffffffffffffffffffffffffffffffffffff16906020019091905050610613565b6040518082815260200191505060405180910390f35b34156102e557600080fd5b61031a600480803573ffffffffffffffffffffffffffffffffffffffff16906020019091908035906020019091905050610638565b604051808273ffffffffffffffffffffffffffffffffffffffff1673ffffffffffffffffffffffffffffffffffffffff16815260200191505060405180910390f35b341561036757600080fd5b610393600480803573ffffffffffffffffffffffffffffffffffffffff16906020019091905050610686565b6040518082815260200191505060405180910390f35b34156103b457600080fd5b6103e0600480803573ffffffffffffffffffffffffffffffffffffffff1690602001909190505061069e565b604051808215151515815260200191505060405180910390f35b341561040557600080fd5b610431600480803573ffffffffffffffffffffffffffffffffffffffff169060200190919050506106be565b6040518082815260200191505060405180910390f35b341561045257600080fd5b61049d600480803573ffffffffffffffffffffffffffffffffffffffff1690602001909190803573ffffffffffffffffffffffffffffffffffffffff169060200190919050506106d6565b604051808215151515815260200191505060405180910390f35b34156104c257600080fd5b6104ee600480803573ffffffffffffffffffffffffffffffffffffffff16906020019091905050610705565b6040518082815260200191505060405180910390f35b341561050f57600080fd5b61053b600480803573ffffffffffffffffffffffffffffffffffffffff1690602001909190505061071d565b6040518082815260200191505060405180910390f35b6009602052816000526040600020602052806000526040600020600091509150505481565b60076020528160005260406000208181548110151561059157fe5b90600052602060002090016000915091509054906101000a900473ffffffffffffffffffffffffffffffffffffffff1681565b60006020528060005260406000206000915054906101000a900460ff1681565b60066020528160005260406000206020528060005260406000206000915091509054906101000a900460ff1681565b6008602052816000526040600020602052806000526040600020600091509150505481565b60026020528160005260406000208181548110151561065357fe5b90600052602060002090016000915091509054906101000a900473ffffffffffffffffffffffffffffffffffffffff1681565b60046020528060005260406000206000915090505481565b60056020528060005260406000206000915054906101000a900460ff1681565b600b6020528060005260406000206000915090505481565b60016020528160005260406000206020528060005260406000206000915091509054906101000a900460ff1681565b60036020528060005260406000206000915090505481565b600a60205280600052604060002060009150905054815600a165627a7a72305820815403ee8b32eb4ca368341e3bebc188733179e7d5e777bee79b49f13c5753df0029",
  "source": "pragma solidity ^0.4.18;\n\ncontract KudosActor {\n\n  // business\n  mapping(address => bool) public isBusiness;\n\n  mapping(address => mapping(address => bool)) public isEmployee;\n  mapping(address => address[]) public employeeList;\n\n  mapping(address => uint256) public businessAverageRating;\n  mapping(address => uint256) public numberOfBusinessRatings;\n\n  // worker\n  mapping(address => bool) public isWorker;\n\n  mapping(address => mapping(address => bool)) public isEmployer;\n  mapping(address => address[]) public businessList;\n\n  mapping(address => mapping(address => uint256)) public workerAverageRating;\n  mapping(address => mapping(address => uint256)) public numberOfWorkerRatings;\n\n  // user\n  mapping(address => uint256) public userAverageRating;\n  mapping(address => uint256) public numberOfUserRatings;\n\n\n\n//  mapping(address => mapping(bytes32 => uint256)) public nonce;\n}\n",
  "sourcePath": "/Users/panda/projects/kudos/packages/ethereum/contracts/KudosActor.sol",
  "compiler": {
    "name": "solc",
    "version": "0.4.19+commit.c4cbbb05.Emscripten.clang"
  },
  "schemaVersion": "1.0.1",
  "updatedAt": "2018-05-02T20:34:07.794Z"
}