{
  "contractName": "KudosUser",
  "abi": [
    {
      "constant": true,
      "inputs": [
        {
          "name": "",
          "type": "address"
        },
        {
          "name": "",
          "type": "address"
        }
      ],
      "name": "numberOfWorkerRatings",
      "outputs": [
        {
          "name": "",
          "type": "uint256"
        }
      ],
      "payable": false,
      "stateMutability": "view",
      "type": "function"
    },
    {
      "constant": true,
      "inputs": [
        {
          "name": "",
          "type": "address"
        },
        {
          "name": "",
          "type": "uint256"
        }
      ],
      "name": "businessList",
      "outputs": [
        {
          "name": "",
          "type": "address"
        }
      ],
      "payable": false,
      "stateMutability": "view",
      "type": "function"
    },
    {
      "constant": true,
      "inputs": [
        {
          "name": "",
          "type": "address"
        }
      ],
      "name": "isBusiness",
      "outputs": [
        {
          "name": "",
          "type": "bool"
        }
      ],
      "payable": false,
      "stateMutability": "view",
      "type": "function"
    },
    {
      "constant": true,
      "inputs": [
        {
          "name": "",
          "type": "address"
        },
        {
          "name": "",
          "type": "address"
        }
      ],
      "name": "isEmployer",
      "outputs": [
        {
          "name": "",
          "type": "bool"
        }
      ],
      "payable": false,
      "stateMutability": "view",
      "type": "function"
    },
    {
      "constant": true,
      "inputs": [
        {
          "name": "",
          "type": "address"
        },
        {
          "name": "",
          "type": "address"
        }
      ],
      "name": "workerAverageRating",
      "outputs": [
        {
          "name": "",
          "type": "uint256"
        }
      ],
      "payable": false,
      "stateMutability": "view",
      "type": "function"
    },
    {
      "constant": true,
      "inputs": [
        {
          "name": "",
          "type": "address"
        },
        {
          "name": "",
          "type": "uint256"
        }
      ],
      "name": "employeeList",
      "outputs": [
        {
          "name": "",
          "type": "address"
        }
      ],
      "payable": false,
      "stateMutability": "view",
      "type": "function"
    },
    {
      "constant": true,
      "inputs": [
        {
          "name": "",
          "type": "address"
        }
      ],
      "name": "numberOfBusinessRatings",
      "outputs": [
        {
          "name": "",
          "type": "uint256"
        }
      ],
      "payable": false,
      "stateMutability": "view",
      "type": "function"
    },
    {
      "constant": true,
      "inputs": [
        {
          "name": "",
          "type": "address"
        }
      ],
      "name": "isWorker",
      "outputs": [
        {
          "name": "",
          "type": "bool"
        }
      ],
      "payable": false,
      "stateMutability": "view",
      "type": "function"
    },
    {
      "constant": true,
      "inputs": [
        {
          "name": "",
          "type": "address"
        }
      ],
      "name": "numberOfUserRatings",
      "outputs": [
        {
          "name": "",
          "type": "uint256"
        }
      ],
      "payable": false,
      "stateMutability": "view",
      "type": "function"
    },
    {
      "constant": true,
      "inputs": [
        {
          "name": "",
          "type": "address"
        },
        {
          "name": "",
          "type": "address"
        }
      ],
      "name": "isEmployee",
      "outputs": [
        {
          "name": "",
          "type": "bool"
        }
      ],
      "payable": false,
      "stateMutability": "view",
      "type": "function"
    },
    {
      "constant": true,
      "inputs": [
        {
          "name": "",
          "type": "address"
        }
      ],
      "name": "businessAverageRating",
      "outputs": [
        {
          "name": "",
          "type": "uint256"
        }
      ],
      "payable": false,
      "stateMutability": "view",
      "type": "function"
    },
    {
      "constant": true,
      "inputs": [
        {
          "name": "",
          "type": "address"
        }
      ],
      "name": "userAverageRating",
      "outputs": [
        {
          "name": "",
          "type": "uint256"
        }
      ],
      "payable": false,
      "stateMutability": "view",
      "type": "function"
    },
    {
      "anonymous": false,
      "inputs": [
        {
          "indexed": true,
          "name": "_userAddress",
          "type": "address"
        },
        {
          "indexed": true,
          "name": "_workerAddress",
          "type": "address"
        },
        {
          "indexed": true,
          "name": "_businessAddress",
          "type": "address"
        },
        {
          "indexed": false,
          "name": "_businessRating",
          "type": "uint256"
        },
        {
          "indexed": false,
          "name": "_workerRating",
          "type": "uint256"
        },
        {
          "indexed": false,
          "name": "_ipfsHash",
          "type": "bytes32"
        }
      ],
      "name": "KudosExperience",
      "type": "event"
    },
    {
      "constant": false,
      "inputs": [
        {
          "name": "_userAddress",
          "type": "address"
        },
        {
          "name": "_v",
          "type": "uint8"
        },
        {
          "name": "_r",
          "type": "bytes32"
        },
        {
          "name": "_s",
          "type": "bytes32"
        },
        {
          "name": "_userId",
          "type": "bytes32"
        },
        {
          "name": "_businessAddress",
          "type": "address"
        },
        {
          "name": "_businessRating",
          "type": "uint256"
        },
        {
          "name": "_workerAddress",
          "type": "address"
        },
        {
          "name": "_workerRating",
          "type": "uint256"
        },
        {
          "name": "_transactionHash",
          "type": "bytes32"
        }
      ],
      "name": "rateExperience",
      "outputs": [],
      "payable": false,
      "stateMutability": "nonpayable",
      "type": "function"
    }
  ],
  "bytecode": "0x6060604052341561000f57600080fd5b610c538061001e6000396000f3006060604052600436106100c5576000357c0100000000000000000000000000000000000000000000000000000000900463ffffffff1680630e2be266146100ca578063130ee376146101365780631466d019146101b85780631bb0d49a146102095780632f64550a1461027957806345561eff146102e55780636d462b0b146103675780639708c61f14610430578063aa1566451461047d578063b265c33d146104ce578063c2cd76321461051b578063ec5df15a1461058b578063ffb33793146105d8575b600080fd5b34156100d557600080fd5b610120600480803573ffffffffffffffffffffffffffffffffffffffff1690602001909190803573ffffffffffffffffffffffffffffffffffffffff16906020019091905050610625565b6040518082815260200191505060405180910390f35b341561014157600080fd5b610176600480803573ffffffffffffffffffffffffffffffffffffffff1690602001909190803590602001909190505061064a565b604051808273ffffffffffffffffffffffffffffffffffffffff1673ffffffffffffffffffffffffffffffffffffffff16815260200191505060405180910390f35b34156101c357600080fd5b6101ef600480803573ffffffffffffffffffffffffffffffffffffffff16906020019091905050610698565b604051808215151515815260200191505060405180910390f35b341561021457600080fd5b61025f600480803573ffffffffffffffffffffffffffffffffffffffff1690602001909190803573ffffffffffffffffffffffffffffffffffffffff169060200190919050506106b8565b604051808215151515815260200191505060405180910390f35b341561028457600080fd5b6102cf600480803573ffffffffffffffffffffffffffffffffffffffff1690602001909190803573ffffffffffffffffffffffffffffffffffffffff169060200190919050506106e7565b6040518082815260200191505060405180910390f35b34156102f057600080fd5b610325600480803573ffffffffffffffffffffffffffffffffffffffff1690602001909190803590602001909190505061070c565b604051808273ffffffffffffffffffffffffffffffffffffffff1673ffffffffffffffffffffffffffffffffffffffff16815260200191505060405180910390f35b341561037257600080fd5b61042e600480803573ffffffffffffffffffffffffffffffffffffffff1690602001909190803560ff1690602001909190803560001916906020019091908035600019169060200190919080356000191690602001909190803573ffffffffffffffffffffffffffffffffffffffff1690602001909190803590602001909190803573ffffffffffffffffffffffffffffffffffffffff169060200190919080359060200190919080356000191690602001909190505061075a565b005b341561043b57600080fd5b610467600480803573ffffffffffffffffffffffffffffffffffffffff1690602001909190505061083f565b6040518082815260200191505060405180910390f35b341561048857600080fd5b6104b4600480803573ffffffffffffffffffffffffffffffffffffffff16906020019091905050610857565b604051808215151515815260200191505060405180910390f35b34156104d957600080fd5b610505600480803573ffffffffffffffffffffffffffffffffffffffff16906020019091905050610877565b6040518082815260200191505060405180910390f35b341561052657600080fd5b610571600480803573ffffffffffffffffffffffffffffffffffffffff1690602001909190803573ffffffffffffffffffffffffffffffffffffffff1690602001909190505061088f565b604051808215151515815260200191505060405180910390f35b341561059657600080fd5b6105c2600480803573ffffffffffffffffffffffffffffffffffffffff169060200190919050506108be565b6040518082815260200191505060405180910390f35b34156105e357600080fd5b61060f600480803573ffffffffffffffffffffffffffffffffffffffff169060200190919050506108d6565b6040518082815260200191505060405180910390f35b6009602052816000526040600020602052806000526040600020600091509150505481565b60076020528160005260406000208181548110151561066557fe5b90600052602060002090016000915091509054906101000a900473ffffffffffffffffffffffffffffffffffffffff1681565b60006020528060005260406000206000915054906101000a900460ff1681565b60066020528160005260406000206020528060005260406000206000915091509054906101000a900460ff1681565b6008602052816000526040600020602052806000526040600020600091509150505481565b60026020528160005260406000208181548110151561072757fe5b90600052602060002090016000915091509054906101000a900473ffffffffffffffffffffffffffffffffffffffff1681565b60008410158061076b575060058411155b1561077c5761077b8a86866108ee565b5b60008210158061078d575060058211155b1561079f5761079e8a868585610a10565b5b8473ffffffffffffffffffffffffffffffffffffffff168373ffffffffffffffffffffffffffffffffffffffff168b73ffffffffffffffffffffffffffffffffffffffff167f7c48719b116adb330b6cd2d36f502db4997b7f93d323d4a91296af76106b6348878686604051808481526020018381526020018260001916600019168152602001935050505060405180910390a450505050505050505050565b60046020528060005260406000206000915090505481565b60056020528060005260406000206000915054906101000a900460ff1681565b600b6020528060005260406000206000915090505481565b60016020528160005260406000206020528060005260406000206000915091509054906101000a900460ff1681565b60036020528060005260406000206000915090505481565b600a6020528060005260406000206000915090505481565b6001600460008473ffffffffffffffffffffffffffffffffffffffff1673ffffffffffffffffffffffffffffffffffffffff16815260200190815260200160002060008282540192505081905550600460008373ffffffffffffffffffffffffffffffffffffffff1673ffffffffffffffffffffffffffffffffffffffff1681526020019081526020016000205481600360008573ffffffffffffffffffffffffffffffffffffffff1673ffffffffffffffffffffffffffffffffffffffff16815260200190815260200160002054018115156109c757fe5b04600360008473ffffffffffffffffffffffffffffffffffffffff1673ffffffffffffffffffffffffffffffffffffffff16815260200190815260200160002081905550505050565b6001600960008573ffffffffffffffffffffffffffffffffffffffff1673ffffffffffffffffffffffffffffffffffffffff16815260200190815260200160002060008473ffffffffffffffffffffffffffffffffffffffff1673ffffffffffffffffffffffffffffffffffffffff16815260200190815260200160002060008282540192505081905550600960008473ffffffffffffffffffffffffffffffffffffffff1673ffffffffffffffffffffffffffffffffffffffff16815260200190815260200160002060008373ffffffffffffffffffffffffffffffffffffffff1673ffffffffffffffffffffffffffffffffffffffff1681526020019081526020016000205481600860008673ffffffffffffffffffffffffffffffffffffffff1673ffffffffffffffffffffffffffffffffffffffff16815260200190815260200160002060008573ffffffffffffffffffffffffffffffffffffffff1673ffffffffffffffffffffffffffffffffffffffff1681526020019081526020016000205401811515610ba057fe5b04600860008573ffffffffffffffffffffffffffffffffffffffff1673ffffffffffffffffffffffffffffffffffffffff16815260200190815260200160002060008473ffffffffffffffffffffffffffffffffffffffff1673ffffffffffffffffffffffffffffffffffffffff16815260200190815260200160002081905550505050505600a165627a7a72305820fb7b9607534a4fd173c7fa1dab20bd246a5a22e56c6a09ac308d06c6997f4fb10029",
  "source": "pragma solidity ^0.4.18;\n\nimport \"./KudosActor.sol\";\n\ncontract KudosUser is KudosActor {\n\n  event KudosExperience(  address indexed _userAddress,\n                          address indexed _workerAddress,\n                          address indexed _businessAddress,\n                          uint256 _businessRating,\n                          uint256 _workerRating,\n                          bytes32 _ipfsHash);\n\n  // add: \"withCorrectSignature(_businessAddress, _userId, _v, _r, _s)\"\n  function rateExperience(  address _userAddress,\n                            uint8 _v, bytes32 _r, bytes32 _s, bytes32 _userId,\n                            address _businessAddress,\n                            uint256 _businessRating,\n                            address _workerAddress,\n                            uint256 _workerRating,\n                            bytes32 _transactionHash)\n  public {\n\n    if (_businessRating >= 0 || _businessRating <= 5) {\n      updateBusinessRating(_userAddress, _businessAddress, _businessRating);\n    }\n\n    if (_workerRating >= 0 || _workerRating <= 5) {\n      updateWorkerRating(_userAddress, _businessAddress, _workerAddress, _workerRating);\n    }\n\n    KudosExperience(_userAddress, _workerAddress, _businessAddress, _businessRating, _workerRating, _transactionHash);\n  }\n\n  function updateBusinessRating(address _userAddress, address _businessAddress, uint256 _businessRating) internal {\n\n    numberOfBusinessRatings[_businessAddress] += 1;\n    businessAverageRating[_businessAddress] = (businessAverageRating[_businessAddress] + _businessRating) / numberOfBusinessRatings[_businessAddress];\n  }\n\n  function updateWorkerRating(address _userAddress, address _businessAddress, address _workerAddress, uint256 _workerRating) internal {\n\n    numberOfWorkerRatings[_businessAddress][_workerAddress] += 1;\n    workerAverageRating[_businessAddress][_workerAddress] = (workerAverageRating[_businessAddress][_workerAddress] + _workerRating) / numberOfWorkerRatings[_businessAddress][_workerAddress];\n  }\n\n//    modifier withCorrectSignatureFromBusiness(address _businessAddress, bytes32 _userId, uint8 _v, bytes32 _r, bytes32 _s) {\n//\n//      bytes32 nonceHash = keccak256(nonce[_businessAddress][_userId]);\n//      bytes memory prefix = \"\\x19Ethereum Signed Message:\\n32\";\n//      bytes32 prefixedHash = keccak256(prefix, nonceHash);\n//      address recoveredAddress = ecrecover(prefixedHash, _v, _r, _s);\n//\n//      require(recoveredAddress == _businessAddress);\n//      incrementNonce(_businessAddress, _userId);\n//      _;\n//    }\n//\n//    function incrementNonce(address _businessAddress, bytes32 _userId) internal {\n//      nonce[_businessAddress][_userId] += 1;\n//    }\n}\n\n",
  "sourcePath": "/Users/panda/projects/kudos/packages/ethereum/contracts/KudosUser.sol",
  "compiler": {
    "name": "solc",
    "version": "0.4.19+commit.c4cbbb05.Emscripten.clang"
  },
  "schemaVersion": "1.0.1",
  "updatedAt": "2018-05-02T20:34:07.797Z"
}