{
  "contractName": "HashStore",
  "abi": [
    {
      "constant": true,
      "inputs": [
        {
          "name": "",
          "type": "uint256"
        }
      ],
      "name": "hashes",
      "outputs": [
        {
          "name": "sender",
          "type": "address"
        },
        {
          "name": "content",
          "type": "string"
        },
        {
          "name": "timestamp",
          "type": "uint256"
        }
      ],
      "payable": false,
      "stateMutability": "view",
      "type": "function"
    },
    {
      "constant": true,
      "inputs": [],
      "name": "owner",
      "outputs": [
        {
          "name": "",
          "type": "address"
        }
      ],
      "payable": false,
      "stateMutability": "view",
      "type": "function"
    },
    {
      "constant": true,
      "inputs": [],
      "name": "lastHashId",
      "outputs": [
        {
          "name": "",
          "type": "uint256"
        }
      ],
      "payable": false,
      "stateMutability": "view",
      "type": "function"
    },
    {
      "constant": true,
      "inputs": [],
      "name": "price",
      "outputs": [
        {
          "name": "",
          "type": "uint256"
        }
      ],
      "payable": false,
      "stateMutability": "view",
      "type": "function"
    },
    {
      "inputs": [
        {
          "name": "_price",
          "type": "uint256"
        }
      ],
      "payable": false,
      "stateMutability": "nonpayable",
      "type": "constructor"
    },
    {
      "anonymous": false,
      "inputs": [
        {
          "indexed": true,
          "name": "_previousOwner",
          "type": "address"
        },
        {
          "indexed": true,
          "name": "_newOwner",
          "type": "address"
        }
      ],
      "name": "OwnershipTransferred",
      "type": "event"
    },
    {
      "anonymous": false,
      "inputs": [
        {
          "indexed": true,
          "name": "_hashSender",
          "type": "address"
        },
        {
          "indexed": false,
          "name": "_hashId",
          "type": "uint256"
        },
        {
          "indexed": false,
          "name": "_hashContent",
          "type": "string"
        },
        {
          "indexed": false,
          "name": "timestamp",
          "type": "uint256"
        }
      ],
      "name": "NewHashStored",
      "type": "event"
    },
    {
      "anonymous": false,
      "inputs": [
        {
          "indexed": true,
          "name": "_hashSender",
          "type": "address"
        },
        {
          "indexed": false,
          "name": "amount",
          "type": "uint256"
        }
      ],
      "name": "Withdrawn",
      "type": "event"
    },
    {
      "constant": false,
      "inputs": [
        {
          "name": "newOwner",
          "type": "address"
        }
      ],
      "name": "transferOwnership",
      "outputs": [],
      "payable": false,
      "stateMutability": "nonpayable",
      "type": "function"
    },
    {
      "constant": false,
      "inputs": [],
      "name": "withdrawBalance",
      "outputs": [],
      "payable": false,
      "stateMutability": "nonpayable",
      "type": "function"
    },
    {
      "constant": false,
      "inputs": [
        {
          "name": "hashContent",
          "type": "string"
        }
      ],
      "name": "save",
      "outputs": [],
      "payable": true,
      "stateMutability": "payable",
      "type": "function"
    },
    {
      "constant": true,
      "inputs": [
        {
          "name": "hashId",
          "type": "uint256"
        }
      ],
      "name": "find",
      "outputs": [
        {
          "name": "hashSender",
          "type": "address"
        },
        {
          "name": "hashContent",
          "type": "string"
        },
        {
          "name": "hashTimestamp",
          "type": "uint256"
        }
      ],
      "payable": false,
      "stateMutability": "view",
      "type": "function"
    }
  ],
  "bytecode": "0x6060604052341561000f57600080fd5b604051602080610b6c8339810160405280805190602001909190505060008111151561003a57600080fd5b33600160006101000a81548173ffffffffffffffffffffffffffffffffffffffff021916908373ffffffffffffffffffffffffffffffffffffffff16021790555080600381905550600060028190555050610ad28061009a6000396000f30060606040526004361061008e576000357c0100000000000000000000000000000000000000000000000000000000900463ffffffff16806338e48f06146100935780633e530e5b146100e5578063501895ae146101bb5780635fd8c710146102ae5780638da5cb5b146102c35780639f74982714610318578063a035b1fe14610341578063f2fde38b1461036a575b600080fd5b6100e3600480803590602001908201803590602001908080601f016020809104026020016040519081016040528093929190818152602001838380828437820191505050505050919050506103a3565b005b34156100f057600080fd5b61010660048080359060200190919050506105a0565b604051808473ffffffffffffffffffffffffffffffffffffffff1673ffffffffffffffffffffffffffffffffffffffff16815260200180602001838152602001828103825284818151815260200191508051906020019080838360005b8381101561017e578082015181840152602081019050610163565b50505050905090810190601f1680156101ab5780820380516001836020036101000a031916815260200191505b5094505050505060405180910390f35b34156101c657600080fd5b6101dc60048080359060200190919050506106b6565b604051808473ffffffffffffffffffffffffffffffffffffffff1673ffffffffffffffffffffffffffffffffffffffff1681526020018060200183815260200182810382528481815460018160011615610100020316600290048152602001915080546001816001161561010002031660029004801561029d5780601f106102725761010080835404028352916020019161029d565b820191906000526020600020905b81548152906001019060200180831161028057829003601f168201915b505094505050505060405180910390f35b34156102b957600080fd5b6102c16106ff565b005b34156102ce57600080fd5b6102d6610863565b604051808273ffffffffffffffffffffffffffffffffffffffff1673ffffffffffffffffffffffffffffffffffffffff16815260200191505060405180910390f35b341561032357600080fd5b61032b610889565b6040518082815260200191505060405180910390f35b341561034c57600080fd5b61035461088f565b6040518082815260200191505060405180910390f35b341561037557600080fd5b6103a1600480803573ffffffffffffffffffffffffffffffffffffffff16906020019091905050610895565b005b600060035434101515156103b657600080fd5b60026000815460010191905081905590503360008083815260200190815260200160002060000160006101000a81548173ffffffffffffffffffffffffffffffffffffffff021916908373ffffffffffffffffffffffffffffffffffffffff1602179055508160008083815260200190815260200160002060010190805190602001906104449291906109ed565b50426000808381526020019081526020016000206002018190555060008082815260200190815260200160002060000160009054906101000a900473ffffffffffffffffffffffffffffffffffffffff1673ffffffffffffffffffffffffffffffffffffffff167e0e9060aadd104e99f6317d14c9cc79d566a8dee53787abb0882ff038841b6a8260008085815260200190815260200160002060010160008086815260200190815260200160002060020154604051808481526020018060200183815260200182810382528481815460018160011615610100020316600290048152602001915080546001816001161561010002031660029004801561058c5780601f106105615761010080835404028352916020019161058c565b820191906000526020600020905b81548152906001019060200180831161056f57829003601f168201915b505094505050505060405180910390a25050565b60006105aa610a6d565b600080600085815260200190815260200160002060000160009054906101000a900473ffffffffffffffffffffffffffffffffffffffff1660008086815260200190815260200160002060010160008087815260200190815260200160002060020154818054600181600116156101000203166002900480601f0160208091040260200160405190810160405280929190818152602001828054600181600116156101000203166002900480156106a25780601f10610677576101008083540402835291602001916106a2565b820191906000526020600020905b81548152906001019060200180831161068557829003601f168201915b505050505091509250925092509193909250565b60006020528060005260406000206000915090508060000160009054906101000a900473ffffffffffffffffffffffffffffffffffffffff169080600101908060020154905083565b6000600160009054906101000a900473ffffffffffffffffffffffffffffffffffffffff1673ffffffffffffffffffffffffffffffffffffffff163373ffffffffffffffffffffffffffffffffffffffff1614151561075d57600080fd5b3073ffffffffffffffffffffffffffffffffffffffff16319050600160009054906101000a900473ffffffffffffffffffffffffffffffffffffffff1673ffffffffffffffffffffffffffffffffffffffff166108fc3073ffffffffffffffffffffffffffffffffffffffff16319081150290604051600060405180830381858888f1935050505015156107f057600080fd5b600160009054906101000a900473ffffffffffffffffffffffffffffffffffffffff1673ffffffffffffffffffffffffffffffffffffffff167f7084f5476618d8e60b11ef0d7d3f06914655adb8793e28ff7f018d4c76d505d5826040518082815260200191505060405180910390a250565b600160009054906101000a900473ffffffffffffffffffffffffffffffffffffffff1681565b60025481565b60035481565b600160009054906101000a900473ffffffffffffffffffffffffffffffffffffffff1673ffffffffffffffffffffffffffffffffffffffff163373ffffffffffffffffffffffffffffffffffffffff161415156108f157600080fd5b600073ffffffffffffffffffffffffffffffffffffffff168173ffffffffffffffffffffffffffffffffffffffff161415151561092d57600080fd5b8073ffffffffffffffffffffffffffffffffffffffff16600160009054906101000a900473ffffffffffffffffffffffffffffffffffffffff1673ffffffffffffffffffffffffffffffffffffffff167f8be0079c531659141344cd1fd0a4f28419497f9722a3daafe3b4186f6b6457e060405160405180910390a380600160006101000a81548173ffffffffffffffffffffffffffffffffffffffff021916908373ffffffffffffffffffffffffffffffffffffffff16021790555050565b828054600181600116156101000203166002900490600052602060002090601f016020900481019282601f10610a2e57805160ff1916838001178555610a5c565b82800160010185558215610a5c579182015b82811115610a5b578251825591602001919060010190610a40565b5b509050610a699190610a81565b5090565b602060405190810160405280600081525090565b610aa391905b80821115610a9f576000816000905550600101610a87565b5090565b905600a165627a7a72305820fd91a2a25f482e1358a24dc095347a32852f936d128d3f05b1fd44eb7f8ce7ca0029",
  "source": "pragma solidity ^0.4.18;\n\n\ncontract HashStore {\n  struct Hash {\n    address sender;\n    string content;\n    uint timestamp;\n  }\n\n  mapping (uint => Hash) public hashes;\n  address public owner;\n  uint public lastHashId;\n  uint public price;\n\n  event OwnershipTransferred(address indexed _previousOwner, address indexed _newOwner);\n  event NewHashStored(address indexed _hashSender, uint _hashId, string _hashContent, uint timestamp);\n  event Withdrawn(address indexed _hashSender, uint amount);\n\n  function HashStore(uint _price) public {\n    require(_price > 0);\n\n    owner = msg.sender;\n    price = _price;\n    lastHashId = 0;\n  }\n\n  modifier onlyOwner() {\n    require(msg.sender == owner);\n    _;\n  }\n\n  function transferOwnership(address newOwner) onlyOwner public {\n    require(newOwner != address(0));\n    OwnershipTransferred(owner, newOwner);\n    owner = newOwner;\n  }\n\n  function withdrawBalance() onlyOwner public {\n    var amount = this.balance;\n    owner.transfer(this.balance);\n    Withdrawn(owner, amount);\n  }\n\n  function save(string hashContent) payable public {\n    // only save if service price paid\n    require(msg.value >= price);\n\n    uint hashId = ++lastHashId;\n    hashes[hashId].sender = msg.sender;\n    hashes[hashId].content = hashContent;\n    hashes[hashId].timestamp = block.timestamp;\n\n    NewHashStored(hashes[hashId].sender, hashId, hashes[hashId].content, hashes[hashId].timestamp);\n  }\n\n  function find(uint hashId) constant public returns (address hashSender, string hashContent, uint hashTimestamp) {\n    return (hashes[hashId].sender, hashes[hashId].content, hashes[hashId].timestamp);\n  }\n}",
  "sourcePath": "/Users/panda/projects/kudos/packages/ethereum/contracts/HashStore.sol",
  "compiler": {
    "name": "solc",
    "version": "0.4.19+commit.c4cbbb05.Emscripten.clang"
  },
  "schemaVersion": "2.0.0",
  "updatedAt": "2018-03-16T15:20:16.486Z"
}