{
  "contractName": "KudosUser",
  "abi": [
    {
      "constant": true,
      "inputs": [
        {
          "name": "",
          "type": "address"
        },
        {
          "name": "",
          "type": "address"
        }
      ],
      "name": "numberOfWorkerRatings",
      "outputs": [
        {
          "name": "",
          "type": "uint256"
        }
      ],
      "payable": false,
      "stateMutability": "view",
      "type": "function"
    },
    {
      "constant": true,
      "inputs": [
        {
          "name": "",
          "type": "address"
        }
      ],
      "name": "isBusiness",
      "outputs": [
        {
          "name": "",
          "type": "bool"
        }
      ],
      "payable": false,
      "stateMutability": "view",
      "type": "function"
    },
    {
      "constant": true,
      "inputs": [
        {
          "name": "",
          "type": "address"
        },
        {
          "name": "",
          "type": "address"
        }
      ],
      "name": "isEmployer",
      "outputs": [
        {
          "name": "",
          "type": "bool"
        }
      ],
      "payable": false,
      "stateMutability": "view",
      "type": "function"
    },
    {
      "constant": true,
      "inputs": [
        {
          "name": "",
          "type": "address"
        },
        {
          "name": "",
          "type": "address"
        }
      ],
      "name": "workerAverageRating",
      "outputs": [
        {
          "name": "",
          "type": "uint256"
        }
      ],
      "payable": false,
      "stateMutability": "view",
      "type": "function"
    },
    {
      "constant": true,
      "inputs": [
        {
          "name": "",
          "type": "address"
        },
        {
          "name": "",
          "type": "uint256"
        }
      ],
      "name": "employeeList",
      "outputs": [
        {
          "name": "",
          "type": "address"
        }
      ],
      "payable": false,
      "stateMutability": "view",
      "type": "function"
    },
    {
      "constant": true,
      "inputs": [
        {
          "name": "",
          "type": "address"
        },
        {
          "name": "",
          "type": "bytes32"
        }
      ],
      "name": "nonce",
      "outputs": [
        {
          "name": "",
          "type": "uint256"
        }
      ],
      "payable": false,
      "stateMutability": "view",
      "type": "function"
    },
    {
      "constant": true,
      "inputs": [
        {
          "name": "",
          "type": "address"
        }
      ],
      "name": "numberOfBusinessRatings",
      "outputs": [
        {
          "name": "",
          "type": "uint256"
        }
      ],
      "payable": false,
      "stateMutability": "view",
      "type": "function"
    },
    {
      "constant": true,
      "inputs": [
        {
          "name": "",
          "type": "address"
        }
      ],
      "name": "numberOfUserRatings",
      "outputs": [
        {
          "name": "",
          "type": "uint256"
        }
      ],
      "payable": false,
      "stateMutability": "view",
      "type": "function"
    },
    {
      "constant": true,
      "inputs": [
        {
          "name": "",
          "type": "address"
        },
        {
          "name": "",
          "type": "address"
        }
      ],
      "name": "isEmployee",
      "outputs": [
        {
          "name": "",
          "type": "bool"
        }
      ],
      "payable": false,
      "stateMutability": "view",
      "type": "function"
    },
    {
      "constant": true,
      "inputs": [
        {
          "name": "",
          "type": "address"
        }
      ],
      "name": "businessAverageRating",
      "outputs": [
        {
          "name": "",
          "type": "uint256"
        }
      ],
      "payable": false,
      "stateMutability": "view",
      "type": "function"
    },
    {
      "constant": true,
      "inputs": [
        {
          "name": "",
          "type": "address"
        }
      ],
      "name": "userAverageRating",
      "outputs": [
        {
          "name": "",
          "type": "uint256"
        }
      ],
      "payable": false,
      "stateMutability": "view",
      "type": "function"
    },
    {
      "anonymous": false,
      "inputs": [
        {
          "indexed": true,
          "name": "_businessAddress",
          "type": "address"
        },
        {
          "indexed": true,
          "name": "_userAddress",
          "type": "address"
        },
        {
          "indexed": false,
          "name": "_businessRating",
          "type": "uint256"
        },
        {
          "indexed": false,
          "name": "_ipfsHash",
          "type": "bytes32"
        }
      ],
      "name": "BusinessRating",
      "type": "event"
    },
    {
      "anonymous": false,
      "inputs": [
        {
          "indexed": true,
          "name": "_businessAddress",
          "type": "address"
        },
        {
          "indexed": true,
          "name": "_workerAddress",
          "type": "address"
        },
        {
          "indexed": true,
          "name": "_userAddress",
          "type": "address"
        },
        {
          "indexed": false,
          "name": "_workerRating",
          "type": "uint256"
        },
        {
          "indexed": false,
          "name": "_ipfsHash",
          "type": "bytes32"
        }
      ],
      "name": "WorkerRating",
      "type": "event"
    },
    {
      "constant": false,
      "inputs": [
        {
          "name": "_businessAddress",
          "type": "address"
        },
        {
          "name": "_userId",
          "type": "bytes32"
        }
      ],
      "name": "incrementNonce",
      "outputs": [],
      "payable": false,
      "stateMutability": "nonpayable",
      "type": "function"
    },
    {
      "constant": false,
      "inputs": [
        {
          "name": "_v",
          "type": "uint8"
        },
        {
          "name": "_r",
          "type": "bytes32"
        },
        {
          "name": "_s",
          "type": "bytes32"
        },
        {
          "name": "_businessAddress",
          "type": "address"
        },
        {
          "name": "_businessRating",
          "type": "uint256"
        },
        {
          "name": "_workerAddress",
          "type": "address"
        },
        {
          "name": "_workerRating",
          "type": "uint256"
        },
        {
          "name": "_userId",
          "type": "bytes32"
        },
        {
          "name": "_transactionHash",
          "type": "bytes32"
        }
      ],
      "name": "rateExperience",
      "outputs": [],
      "payable": false,
      "stateMutability": "nonpayable",
      "type": "function"
    }
  ],
  "bytecode": "0x6060604052341561000f57600080fd5b610ea68061001e6000396000f3006060604052600436106100c5576000357c0100000000000000000000000000000000000000000000000000000000900463ffffffff1680630e2be266146100ca5780631466d019146101365780631bb0d49a146101875780632f64550a146101f757806345561eff146102635780635528dd4a146102e5578063862e13c31461032b5780639708c61f14610385578063b265c33d146103d2578063c2cd76321461041f578063e9b808281461048f578063ec5df15a14610539578063ffb3379314610586575b600080fd5b34156100d557600080fd5b610120600480803573ffffffffffffffffffffffffffffffffffffffff1690602001909190803573ffffffffffffffffffffffffffffffffffffffff169060200190919050506105d3565b6040518082815260200191505060405180910390f35b341561014157600080fd5b61016d600480803573ffffffffffffffffffffffffffffffffffffffff169060200190919050506105f8565b604051808215151515815260200191505060405180910390f35b341561019257600080fd5b6101dd600480803573ffffffffffffffffffffffffffffffffffffffff1690602001909190803573ffffffffffffffffffffffffffffffffffffffff16906020019091905050610618565b604051808215151515815260200191505060405180910390f35b341561020257600080fd5b61024d600480803573ffffffffffffffffffffffffffffffffffffffff1690602001909190803573ffffffffffffffffffffffffffffffffffffffff16906020019091905050610647565b6040518082815260200191505060405180910390f35b341561026e57600080fd5b6102a3600480803573ffffffffffffffffffffffffffffffffffffffff1690602001909190803590602001909190505061066c565b604051808273ffffffffffffffffffffffffffffffffffffffff1673ffffffffffffffffffffffffffffffffffffffff16815260200191505060405180910390f35b34156102f057600080fd5b610329600480803573ffffffffffffffffffffffffffffffffffffffff16906020019091908035600019169060200190919050506106ba565b005b341561033657600080fd5b61036f600480803573ffffffffffffffffffffffffffffffffffffffff1690602001909190803560001916906020019091905050610725565b6040518082815260200191505060405180910390f35b341561039057600080fd5b6103bc600480803573ffffffffffffffffffffffffffffffffffffffff1690602001909190505061074a565b6040518082815260200191505060405180910390f35b34156103dd57600080fd5b610409600480803573ffffffffffffffffffffffffffffffffffffffff16906020019091905050610762565b6040518082815260200191505060405180910390f35b341561042a57600080fd5b610475600480803573ffffffffffffffffffffffffffffffffffffffff1690602001909190803573ffffffffffffffffffffffffffffffffffffffff1690602001909190505061077a565b604051808215151515815260200191505060405180910390f35b341561049a57600080fd5b610537600480803560ff16906020019091908035600019169060200190919080356000191690602001909190803573ffffffffffffffffffffffffffffffffffffffff1690602001909190803590602001909190803573ffffffffffffffffffffffffffffffffffffffff1690602001909190803590602001909190803560001916906020019091908035600019169060200190919050506107a9565b005b341561054457600080fd5b610570600480803573ffffffffffffffffffffffffffffffffffffffff169060200190919050506109d0565b6040518082815260200191505060405180910390f35b341561059157600080fd5b6105bd600480803573ffffffffffffffffffffffffffffffffffffffff169060200190919050506109e8565b6040518082815260200191505060405180910390f35b6007602052816000526040600020602052806000526040600020600091509150505481565b60006020528060005260406000206000915054906101000a900460ff1681565b60086020528160005260406000206020528060005260406000206000915091509054906101000a900460ff1681565b6006602052816000526040600020602052806000526040600020600091509150505481565b60046020528160005260406000208181548110151561068757fe5b90600052602060002090016000915091509054906101000a900473ffffffffffffffffffffffffffffffffffffffff1681565b6001600560008473ffffffffffffffffffffffffffffffffffffffff1673ffffffffffffffffffffffffffffffffffffffff16815260200190815260200160002060008360001916600019168152602001908152602001600020600082825401925050819055505050565b6005602052816000526040600020602052806000526040600020600091509150505481565b60026020528060005260406000206000915090505481565b600a6020528060005260406000206000915090505481565b60036020528160005260406000206020528060005260406000206000915091509054906101000a900460ff1681565b85828a8a8a60006107b8610e66565b600080600560008a73ffffffffffffffffffffffffffffffffffffffff1673ffffffffffffffffffffffffffffffffffffffff168152602001908152602001600020600089600019166000191681526020019081526020016000205460405180828152602001915050604051809103902093506040805190810160405280601c81526020017f19457468657265756d205369676e6564204d6573736167653a0a333200000000815250925082846040518083805190602001908083835b60208310151561089a5780518252602082019150602081019050602083039250610875565b6001836020036101000a03801982511681845116808217855250505050505090500182600019166000191681526020019250505060405180910390209150600182888888604051600081526020016040526000604051602001526040518085600019166000191681526020018460ff1660ff16815260200183600019166000191681526020018260001916600019168152602001945050505050602060405160208103908084039060008661646e5a03f1151561095657600080fd5b50506020604051035190508873ffffffffffffffffffffffffffffffffffffffff168173ffffffffffffffffffffffffffffffffffffffff1614151561099b57600080fd5b6109a589896106ba565b6109b08f8f8c610a00565b6109bc8f8e8e8d610bad565b505050505050505050505050505050505050565b60016020528060005260406000206000915090505481565b60096020528060005260406000206000915090505481565b600082118015610a105750600682105b15610ba8576001600260008573ffffffffffffffffffffffffffffffffffffffff1673ffffffffffffffffffffffffffffffffffffffff16815260200190815260200160002060008282540192505081905550600260008473ffffffffffffffffffffffffffffffffffffffff1673ffffffffffffffffffffffffffffffffffffffff1681526020019081526020016000205482600160008673ffffffffffffffffffffffffffffffffffffffff1673ffffffffffffffffffffffffffffffffffffffff1681526020019081526020016000205401811515610aee57fe5b04600160008573ffffffffffffffffffffffffffffffffffffffff1673ffffffffffffffffffffffffffffffffffffffff168152602001908152602001600020819055503373ffffffffffffffffffffffffffffffffffffffff168373ffffffffffffffffffffffffffffffffffffffff167f53d05a0f0f58df393b1f191f3869a647447f7789ed082a60e45e8597a9f70df084846040518083815260200182600019166000191681526020019250505060405180910390a35b505050565b600082118015610bbd5750600682105b15610e60576001600760008673ffffffffffffffffffffffffffffffffffffffff1673ffffffffffffffffffffffffffffffffffffffff16815260200190815260200160002060008573ffffffffffffffffffffffffffffffffffffffff1673ffffffffffffffffffffffffffffffffffffffff16815260200190815260200160002060008282540192505081905550600760008573ffffffffffffffffffffffffffffffffffffffff1673ffffffffffffffffffffffffffffffffffffffff16815260200190815260200160002060008473ffffffffffffffffffffffffffffffffffffffff1673ffffffffffffffffffffffffffffffffffffffff1681526020019081526020016000205482600660008773ffffffffffffffffffffffffffffffffffffffff1673ffffffffffffffffffffffffffffffffffffffff16815260200190815260200160002060008673ffffffffffffffffffffffffffffffffffffffff1673ffffffffffffffffffffffffffffffffffffffff1681526020019081526020016000205401811515610d5257fe5b04600660008673ffffffffffffffffffffffffffffffffffffffff1673ffffffffffffffffffffffffffffffffffffffff16815260200190815260200160002060008573ffffffffffffffffffffffffffffffffffffffff1673ffffffffffffffffffffffffffffffffffffffff168152602001908152602001600020819055503373ffffffffffffffffffffffffffffffffffffffff168373ffffffffffffffffffffffffffffffffffffffff168573ffffffffffffffffffffffffffffffffffffffff167f36142010260ae71eecc949984cb0b4a92bf291e31e65e9d2577529a1b358908e85856040518083815260200182600019166000191681526020019250505060405180910390a45b50505050565b6020604051908101604052806000815250905600a165627a7a72305820c8ca811ad051601d4de8177f01cb29eef3f4e75fc9b2031329d21be1c4dd602c0029",
  "source": "pragma solidity ^0.4.18;\n\nimport \"./KudosActor.sol\";\n\ncontract KudosUser is KudosActor {\n\n  event BusinessRating( address indexed _businessAddress,\n                        address indexed _userAddress,\n                        uint256 _businessRating,\n                        bytes32 _ipfsHash);\n\n  event WorkerRating( address indexed _businessAddress,\n                      address indexed _workerAddress,\n                      address indexed _userAddress,\n                      uint256 _workerRating,\n                      bytes32 _ipfsHash);\n\n  modifier withCorrectSignature(address _businessAddress, bytes32 _userId, uint8 _v, bytes32 _r, bytes32 _s) {\n\n    bytes32 nonceHash = sha3(nonce[_businessAddress][_userId]);\n    bytes memory prefix = \"\\x19Ethereum Signed Message:\\n32\";\n    bytes32 prefixedHash = sha3(prefix, nonceHash);\n    address recoveredAddress = ecrecover(prefixedHash, _v, _r, _s);\n\n    require(recoveredAddress == _businessAddress);\n    incrementNonce(_businessAddress, _userId);\n    _;\n  }\n\n  function incrementNonce(address _businessAddress, bytes32 _userId) public {\n    nonce[_businessAddress][_userId] += 1;\n  }\n\n  function rateExperience(  uint8 _v, bytes32 _r, bytes32 _s,\n                            address _businessAddress,\n                            uint256 _businessRating,\n                            address _workerAddress,\n                            uint256 _workerRating,\n                            bytes32 _userId,\n                            bytes32 _transactionHash)\n           withCorrectSignature(_businessAddress, _userId, _v, _r, _s)\n  public {\n\n    recordBusinessRating(_businessAddress, _businessRating, _transactionHash);\n    recordWorkerRating(_businessAddress, _workerAddress, _workerRating, _transactionHash);\n  }\n\n  function recordBusinessRating(address _businessAddress, uint256 _businessRating, bytes32 _transactionHash) internal {\n\n    if (_businessRating > 0 && _businessRating < 6) {\n      numberOfBusinessRatings[_businessAddress] += 1;\n      businessAverageRating[_businessAddress] = (businessAverageRating[_businessAddress] + _businessRating) / numberOfBusinessRatings[_businessAddress];\n      BusinessRating(_businessAddress, msg.sender, _businessRating, _transactionHash);\n    }\n  }\n\n  function recordWorkerRating(address _businessAddress, address _workerAddress, uint256 _workerRating, bytes32 _transactionHash) internal {\n\n    if (_workerRating > 0 && _workerRating < 6) {\n      numberOfWorkerRatings[_businessAddress][_workerAddress] += 1;\n      workerAverageRating[_businessAddress][_workerAddress] = (workerAverageRating[_businessAddress][_workerAddress] + _workerRating) / numberOfWorkerRatings[_businessAddress][_workerAddress];\n      WorkerRating(_businessAddress, _workerAddress, msg.sender, _workerRating, _transactionHash);\n    }\n  }\n}\n\n",
  "sourcePath": "/Users/panda/projects/kudos/packages/ethereum/contracts/KudosUser.sol",
  "compiler": {
    "name": "solc",
    "version": "0.4.19+commit.c4cbbb05.Emscripten.clang"
  },
  "schemaVersion": "1.0.1",
  "updatedAt": "2018-03-19T20:39:16.778Z"
}