{
  "contractName": "Reviews",
  "abi": [
    {
      "constant": true,
      "inputs": [],
      "name": "reviewText",
      "outputs": [
        {
          "name": "",
          "type": "string"
        }
      ],
      "payable": false,
      "stateMutability": "view",
      "type": "function"
    },
    {
      "constant": true,
      "inputs": [],
      "name": "rating",
      "outputs": [
        {
          "name": "",
          "type": "uint256"
        }
      ],
      "payable": false,
      "stateMutability": "view",
      "type": "function"
    },
    {
      "anonymous": false,
      "inputs": [
        {
          "indexed": true,
          "name": "_from",
          "type": "address"
        },
        {
          "indexed": true,
          "name": "_to",
          "type": "address"
        },
        {
          "indexed": false,
          "name": "_value",
          "type": "uint256"
        }
      ],
      "name": "Review",
      "type": "event"
    },
    {
      "constant": false,
      "inputs": [
        {
          "name": "_rating",
          "type": "uint256"
        },
        {
          "name": "_reviewText",
          "type": "string"
        }
      ],
      "name": "storeReview",
      "outputs": [
        {
          "name": "",
          "type": "address"
        }
      ],
      "payable": false,
      "stateMutability": "nonpayable",
      "type": "function"
    }
  ],
  "bytecode": "0x6060604052341561000f57600080fd5b6103578061001e6000396000f300606060405260043610610057576000357c0100000000000000000000000000000000000000000000000000000000900463ffffffff16806378a389f71461005c57806380f474f6146100ea5780639d5e88f214610113575b600080fd5b341561006757600080fd5b61006f6101b9565b6040518080602001828103825283818151815260200191508051906020019080838360005b838110156100af578082015181840152602081019050610094565b50505050905090810190601f1680156100dc5780820380516001836020036101000a031916815260200191505b509250505060405180910390f35b34156100f557600080fd5b6100fd610257565b6040518082815260200191505060405180910390f35b341561011e57600080fd5b610177600480803590602001909190803590602001908201803590602001908080601f0160208091040260200160405190810160405280939291908181526020018383808284378201915050505050509190505061025d565b604051808273ffffffffffffffffffffffffffffffffffffffff1673ffffffffffffffffffffffffffffffffffffffff16815260200191505060405180910390f35b60018054600181600116156101000203166002900480601f01602080910402602001604051908101604052809291908181526020018280546001816001161561010002031660029004801561024f5780601f106102245761010080835404028352916020019161024f565b820191906000526020600020905b81548152906001019060200180831161023257829003601f168201915b505050505081565b60005481565b600082600081905550816001908051906020019061027c929190610286565b5033905092915050565b828054600181600116156101000203166002900490600052602060002090601f016020900481019282601f106102c757805160ff19168380011785556102f5565b828001600101855582156102f5579182015b828111156102f45782518255916020019190600101906102d9565b5b5090506103029190610306565b5090565b61032891905b8082111561032457600081600090555060010161030c565b5090565b905600a165627a7a723058208634abad0b330936f9069d86de4119a17b920f47033796e37d00e1aa5879ee510029",
  "source": "pragma solidity ^0.4.18;\n\ncontract Reviews {\n\n  uint public rating;\n  string public reviewText;\n\n  event Review(address indexed _from, address indexed _to, uint256 _value);\n\n  function storeReview(uint _rating, string _reviewText) public returns (address) {\n    rating = _rating;\n    reviewText = _reviewText;\n    return msg.sender;\n  }\n}",
  "sourcePath": "/Users/panda/projects/kudos/packages/ethereum/contracts/Reviews.sol",
  "compiler": {
    "name": "solc",
    "version": "0.4.19+commit.c4cbbb05.Emscripten.clang"
  },
  "schemaVersion": "2.0.0",
  "updatedAt": "2018-03-16T15:20:16.493Z"
}