{
  "contractName": "HashStore",
  "abi": [
    {
      "constant": true,
      "inputs": [
        {
          "name": "",
          "type": "uint256"
        }
      ],
      "name": "hashes",
      "outputs": [
        {
          "name": "sender",
          "type": "address"
        },
        {
          "name": "content",
          "type": "string"
        },
        {
          "name": "timestamp",
          "type": "uint256"
        }
      ],
      "payable": false,
      "stateMutability": "view",
      "type": "function"
    },
    {
      "constant": true,
      "inputs": [],
      "name": "owner",
      "outputs": [
        {
          "name": "",
          "type": "address"
        }
      ],
      "payable": false,
      "stateMutability": "view",
      "type": "function"
    },
    {
      "constant": true,
      "inputs": [],
      "name": "lastHashId",
      "outputs": [
        {
          "name": "",
          "type": "uint256"
        }
      ],
      "payable": false,
      "stateMutability": "view",
      "type": "function"
    },
    {
      "constant": true,
      "inputs": [],
      "name": "price",
      "outputs": [
        {
          "name": "",
          "type": "uint256"
        }
      ],
      "payable": false,
      "stateMutability": "view",
      "type": "function"
    },
    {
      "inputs": [
        {
          "name": "_price",
          "type": "uint256"
        }
      ],
      "payable": false,
      "stateMutability": "nonpayable",
      "type": "constructor"
    },
    {
      "anonymous": false,
      "inputs": [
        {
          "indexed": true,
          "name": "_previousOwner",
          "type": "address"
        },
        {
          "indexed": true,
          "name": "_newOwner",
          "type": "address"
        }
      ],
      "name": "OwnershipTransferred",
      "type": "event"
    },
    {
      "anonymous": false,
      "inputs": [
        {
          "indexed": true,
          "name": "_hashSender",
          "type": "address"
        },
        {
          "indexed": false,
          "name": "_hashId",
          "type": "uint256"
        },
        {
          "indexed": false,
          "name": "_hashContent",
          "type": "string"
        },
        {
          "indexed": false,
          "name": "timestamp",
          "type": "uint256"
        }
      ],
      "name": "NewHashStored",
      "type": "event"
    },
    {
      "anonymous": false,
      "inputs": [
        {
          "indexed": true,
          "name": "_hashSender",
          "type": "address"
        },
        {
          "indexed": false,
          "name": "amount",
          "type": "uint256"
        }
      ],
      "name": "Withdrawn",
      "type": "event"
    },
    {
      "constant": false,
      "inputs": [
        {
          "name": "newOwner",
          "type": "address"
        }
      ],
      "name": "transferOwnership",
      "outputs": [],
      "payable": false,
      "stateMutability": "nonpayable",
      "type": "function"
    },
    {
      "constant": false,
      "inputs": [],
      "name": "withdrawBalance",
      "outputs": [],
      "payable": false,
      "stateMutability": "nonpayable",
      "type": "function"
    },
    {
      "constant": false,
      "inputs": [
        {
          "name": "hashContent",
          "type": "string"
        }
      ],
      "name": "save",
      "outputs": [],
      "payable": true,
      "stateMutability": "payable",
      "type": "function"
    },
    {
      "constant": true,
      "inputs": [
        {
          "name": "hashId",
          "type": "uint256"
        }
      ],
      "name": "find",
      "outputs": [
        {
          "name": "hashSender",
          "type": "address"
        },
        {
          "name": "hashContent",
          "type": "string"
        },
        {
          "name": "hashTimestamp",
          "type": "uint256"
        }
      ],
      "payable": false,
      "stateMutability": "view",
      "type": "function"
    }
  ],
  "bytecode": "0x608060405234801561001057600080fd5b50604051602080610c0d8339810180604052810190808051906020019092919050505060008111151561004257600080fd5b33600160006101000a81548173ffffffffffffffffffffffffffffffffffffffff021916908373ffffffffffffffffffffffffffffffffffffffff16021790555080600381905550600060028190555050610b6b806100a26000396000f30060806040526004361061008e576000357c0100000000000000000000000000000000000000000000000000000000900463ffffffff16806338e48f06146100935780633e530e5b146100ef578063501895ae146101cf5780635fd8c710146102af5780638da5cb5b146102c65780639f7498271461031d578063a035b1fe14610348578063f2fde38b14610373575b600080fd5b6100ed600480360381019080803590602001908201803590602001908080601f01602080910402602001604051908101604052809392919081815260200183838082843782019150505050505091929192905050506103b6565b005b3480156100fb57600080fd5b5061011a600480360381019080803590602001909291905050506105b3565b604051808473ffffffffffffffffffffffffffffffffffffffff1673ffffffffffffffffffffffffffffffffffffffff16815260200180602001838152602001828103825284818151815260200191508051906020019080838360005b83811015610192578082015181840152602081019050610177565b50505050905090810190601f1680156101bf5780820380516001836020036101000a031916815260200191505b5094505050505060405180910390f35b3480156101db57600080fd5b506101fa600480360381019080803590602001909291905050506106c3565b604051808473ffffffffffffffffffffffffffffffffffffffff1673ffffffffffffffffffffffffffffffffffffffff16815260200180602001838152602001828103825284818151815260200191508051906020019080838360005b83811015610272578082015181840152602081019050610257565b50505050905090810190601f16801561029f5780820380516001836020036101000a031916815260200191505b5094505050505060405180910390f35b3480156102bb57600080fd5b506102c46107a5565b005b3480156102d257600080fd5b506102db610910565b604051808273ffffffffffffffffffffffffffffffffffffffff1673ffffffffffffffffffffffffffffffffffffffff16815260200191505060405180910390f35b34801561032957600080fd5b50610332610936565b6040518082815260200191505060405180910390f35b34801561035457600080fd5b5061035d61093c565b6040518082815260200191505060405180910390f35b34801561037f57600080fd5b506103b4600480360381019080803573ffffffffffffffffffffffffffffffffffffffff169060200190929190505050610942565b005b600060035434101515156103c957600080fd5b60026000815460010191905081905590503360008083815260200190815260200160002060000160006101000a81548173ffffffffffffffffffffffffffffffffffffffff021916908373ffffffffffffffffffffffffffffffffffffffff160217905550816000808381526020019081526020016000206001019080519060200190610457929190610a9a565b50426000808381526020019081526020016000206002018190555060008082815260200190815260200160002060000160009054906101000a900473ffffffffffffffffffffffffffffffffffffffff1673ffffffffffffffffffffffffffffffffffffffff167e0e9060aadd104e99f6317d14c9cc79d566a8dee53787abb0882ff038841b6a8260008085815260200190815260200160002060010160008086815260200190815260200160002060020154604051808481526020018060200183815260200182810382528481815460018160011615610100020316600290048152602001915080546001816001161561010002031660029004801561059f5780601f106105745761010080835404028352916020019161059f565b820191906000526020600020905b81548152906001019060200180831161058257829003601f168201915b505094505050505060405180910390a25050565b60006060600080600085815260200190815260200160002060000160009054906101000a900473ffffffffffffffffffffffffffffffffffffffff1660008086815260200190815260200160002060010160008087815260200190815260200160002060020154818054600181600116156101000203166002900480601f0160208091040260200160405190810160405280929190818152602001828054600181600116156101000203166002900480156106af5780601f10610684576101008083540402835291602001916106af565b820191906000526020600020905b81548152906001019060200180831161069257829003601f168201915b505050505091509250925092509193909250565b60006020528060005260406000206000915090508060000160009054906101000a900473ffffffffffffffffffffffffffffffffffffffff1690806001018054600181600116156101000203166002900480601f0160208091040260200160405190810160405280929190818152602001828054600181600116156101000203166002900480156107955780601f1061076a57610100808354040283529160200191610795565b820191906000526020600020905b81548152906001019060200180831161077857829003601f168201915b5050505050908060020154905083565b6000600160009054906101000a900473ffffffffffffffffffffffffffffffffffffffff1673ffffffffffffffffffffffffffffffffffffffff163373ffffffffffffffffffffffffffffffffffffffff1614151561080357600080fd5b3073ffffffffffffffffffffffffffffffffffffffff16319050600160009054906101000a900473ffffffffffffffffffffffffffffffffffffffff1673ffffffffffffffffffffffffffffffffffffffff166108fc3073ffffffffffffffffffffffffffffffffffffffff16319081150290604051600060405180830381858888f1935050505015801561089c573d6000803e3d6000fd5b50600160009054906101000a900473ffffffffffffffffffffffffffffffffffffffff1673ffffffffffffffffffffffffffffffffffffffff167f7084f5476618d8e60b11ef0d7d3f06914655adb8793e28ff7f018d4c76d505d5826040518082815260200191505060405180910390a250565b600160009054906101000a900473ffffffffffffffffffffffffffffffffffffffff1681565b60025481565b60035481565b600160009054906101000a900473ffffffffffffffffffffffffffffffffffffffff1673ffffffffffffffffffffffffffffffffffffffff163373ffffffffffffffffffffffffffffffffffffffff1614151561099e57600080fd5b600073ffffffffffffffffffffffffffffffffffffffff168173ffffffffffffffffffffffffffffffffffffffff16141515156109da57600080fd5b8073ffffffffffffffffffffffffffffffffffffffff16600160009054906101000a900473ffffffffffffffffffffffffffffffffffffffff1673ffffffffffffffffffffffffffffffffffffffff167f8be0079c531659141344cd1fd0a4f28419497f9722a3daafe3b4186f6b6457e060405160405180910390a380600160006101000a81548173ffffffffffffffffffffffffffffffffffffffff021916908373ffffffffffffffffffffffffffffffffffffffff16021790555050565b828054600181600116156101000203166002900490600052602060002090601f016020900481019282601f10610adb57805160ff1916838001178555610b09565b82800160010185558215610b09579182015b82811115610b08578251825591602001919060010190610aed565b5b509050610b169190610b1a565b5090565b610b3c91905b80821115610b38576000816000905550600101610b20565b5090565b905600a165627a7a72305820ed168fbd73cb4fc8190b6a160274a058aa9070ff5b985c1a55e22de5c59cd6230029",
  "source": "pragma solidity ^0.4.24;\n\n\ncontract HashStore {\n  struct Hash {\n    address sender;\n    string content;\n    uint timestamp;\n  }\n\n  mapping (uint => Hash) public hashes;\n  address public owner;\n  uint public lastHashId;\n  uint public price;\n\n  event OwnershipTransferred(address indexed _previousOwner, address indexed _newOwner);\n  event NewHashStored(address indexed _hashSender, uint _hashId, string _hashContent, uint timestamp);\n  event Withdrawn(address indexed _hashSender, uint amount);\n\n  constructor(uint _price) public {\n    require(_price > 0);\n\n    owner = msg.sender;\n    price = _price;\n    lastHashId = 0;\n  }\n\n  modifier onlyOwner() {\n    require(msg.sender == owner);\n    _;\n  }\n\n  function transferOwnership(address newOwner) onlyOwner public {\n    require(newOwner != address(0));\n    OwnershipTransferred(owner, newOwner);\n    owner = newOwner;\n  }\n\n  function withdrawBalance() onlyOwner public {\n    uint amount = this.balance;\n    owner.transfer(this.balance);\n    Withdrawn(owner, amount);\n  }\n\n  function save(string hashContent) payable public {\n    // only save if service price paid\n    require(msg.value >= price);\n\n    uint hashId = ++lastHashId;\n    hashes[hashId].sender = msg.sender;\n    hashes[hashId].content = hashContent;\n    hashes[hashId].timestamp = block.timestamp;\n\n    NewHashStored(hashes[hashId].sender, hashId, hashes[hashId].content, hashes[hashId].timestamp);\n  }\n\n  function find(uint hashId) constant public returns (address hashSender, string hashContent, uint hashTimestamp) {\n    return (hashes[hashId].sender, hashes[hashId].content, hashes[hashId].timestamp);\n  }\n}",
  "sourcePath": "/Users/panda/projects/kudos/packages/kudos-contracts/contracts/HashStore.sol",
  "compiler": {
    "name": "solc",
    "version": "0.4.24+commit.e67f0147.Emscripten.clang"
  },
  "schemaVersion": "2.0.1",
  "updatedAt": "2018-07-18T18:23:08.896Z"
}