{
  "contractName": "KudosRewards",
  "abi": [
    {
      "constant": true,
      "inputs": [],
      "name": "kudosToken",
      "outputs": [
        {
          "name": "",
          "type": "address"
        }
      ],
      "payable": false,
      "stateMutability": "view",
      "type": "function"
    },
    {
      "constant": true,
      "inputs": [],
      "name": "growthPoolRewardSystem",
      "outputs": [
        {
          "name": "numberOfRewardSteps",
          "type": "uint256"
        },
        {
          "name": "numberOfRewardCycles",
          "type": "uint256"
        },
        {
          "name": "numberOfRewardLevels",
          "type": "uint256"
        },
        {
          "name": "ipfsHash",
          "type": "bytes32"
        }
      ],
      "payable": false,
      "stateMutability": "view",
      "type": "function"
    },
    {
      "constant": true,
      "inputs": [
        {
          "name": "",
          "type": "address"
        },
        {
          "name": "",
          "type": "uint256"
        }
      ],
      "name": "ratingRewardPercentages",
      "outputs": [
        {
          "name": "",
          "type": "uint256"
        }
      ],
      "payable": false,
      "stateMutability": "view",
      "type": "function"
    },
    {
      "constant": true,
      "inputs": [
        {
          "name": "",
          "type": "address"
        }
      ],
      "name": "userRewardSystem",
      "outputs": [
        {
          "name": "numberOfRewardSteps",
          "type": "uint256"
        },
        {
          "name": "numberOfRewardCycles",
          "type": "uint256"
        },
        {
          "name": "numberOfRewardLevels",
          "type": "uint256"
        },
        {
          "name": "ipfsHash",
          "type": "bytes32"
        }
      ],
      "payable": false,
      "stateMutability": "view",
      "type": "function"
    },
    {
      "constant": false,
      "inputs": [],
      "name": "renounceOwnership",
      "outputs": [],
      "payable": false,
      "stateMutability": "nonpayable",
      "type": "function"
    },
    {
      "constant": true,
      "inputs": [
        {
          "name": "",
          "type": "address"
        }
      ],
      "name": "workerRewardSystem",
      "outputs": [
        {
          "name": "numberOfRewardSteps",
          "type": "uint256"
        },
        {
          "name": "numberOfRewardCycles",
          "type": "uint256"
        },
        {
          "name": "numberOfRewardLevels",
          "type": "uint256"
        },
        {
          "name": "ipfsHash",
          "type": "bytes32"
        }
      ],
      "payable": false,
      "stateMutability": "view",
      "type": "function"
    },
    {
      "constant": true,
      "inputs": [],
      "name": "owner",
      "outputs": [
        {
          "name": "",
          "type": "address"
        }
      ],
      "payable": false,
      "stateMutability": "view",
      "type": "function"
    },
    {
      "constant": false,
      "inputs": [
        {
          "name": "_newOwner",
          "type": "address"
        }
      ],
      "name": "transferOwnership",
      "outputs": [],
      "payable": false,
      "stateMutability": "nonpayable",
      "type": "function"
    },
    {
      "anonymous": false,
      "inputs": [
        {
          "indexed": true,
          "name": "_businessAddress",
          "type": "address"
        }
      ],
      "name": "RegisterUserRewardSystem",
      "type": "event"
    },
    {
      "anonymous": false,
      "inputs": [
        {
          "indexed": true,
          "name": "_businessAddress",
          "type": "address"
        }
      ],
      "name": "RegisterWorkerRewardSystem",
      "type": "event"
    },
    {
      "anonymous": false,
      "inputs": [],
      "name": "RegisterGrowthPoolRewardSystem",
      "type": "event"
    },
    {
      "anonymous": false,
      "inputs": [
        {
          "indexed": true,
          "name": "previousOwner",
          "type": "address"
        }
      ],
      "name": "OwnershipRenounced",
      "type": "event"
    },
    {
      "anonymous": false,
      "inputs": [
        {
          "indexed": true,
          "name": "previousOwner",
          "type": "address"
        },
        {
          "indexed": true,
          "name": "newOwner",
          "type": "address"
        }
      ],
      "name": "OwnershipTransferred",
      "type": "event"
    },
    {
      "constant": false,
      "inputs": [
        {
          "name": "_businessAddress",
          "type": "address"
        },
        {
          "name": "_numberOfRewardSteps",
          "type": "uint256"
        },
        {
          "name": "_numberOfRewardCycles",
          "type": "uint256"
        },
        {
          "name": "_numberOfRewardLevels",
          "type": "uint256"
        },
        {
          "name": "_levelRewards",
          "type": "uint256[]"
        },
        {
          "name": "_ipfsHash",
          "type": "bytes32"
        }
      ],
      "name": "registerUserRewardSystem",
      "outputs": [],
      "payable": false,
      "stateMutability": "nonpayable",
      "type": "function"
    },
    {
      "constant": false,
      "inputs": [
        {
          "name": "_businessAddress",
          "type": "address"
        },
        {
          "name": "_numberOfRewardSteps",
          "type": "uint256"
        },
        {
          "name": "_numberOfRewardCycles",
          "type": "uint256"
        },
        {
          "name": "_numberOfRewardLevels",
          "type": "uint256"
        },
        {
          "name": "_levelRewards",
          "type": "uint256[]"
        },
        {
          "name": "_ipfsHash",
          "type": "bytes32"
        }
      ],
      "name": "registerWorkerRewardSystem",
      "outputs": [],
      "payable": false,
      "stateMutability": "nonpayable",
      "type": "function"
    },
    {
      "constant": false,
      "inputs": [
        {
          "name": "_numberOfRewardSteps",
          "type": "uint256"
        },
        {
          "name": "_numberOfRewardCycles",
          "type": "uint256"
        },
        {
          "name": "_numberOfRewardLevels",
          "type": "uint256"
        },
        {
          "name": "_levelRewards",
          "type": "uint256[]"
        },
        {
          "name": "_ipfsHash",
          "type": "bytes32"
        }
      ],
      "name": "registerGrowthPoolRewardSystem",
      "outputs": [],
      "payable": false,
      "stateMutability": "nonpayable",
      "type": "function"
    },
    {
      "constant": true,
      "inputs": [
        {
          "name": "_businessAddress",
          "type": "address"
        }
      ],
      "name": "getUserRewardSystem",
      "outputs": [
        {
          "name": "_numberOfRewardSteps",
          "type": "uint256"
        },
        {
          "name": "_numberOfRewardCycles",
          "type": "uint256"
        },
        {
          "name": "_numberOfRewardLevels",
          "type": "uint256"
        },
        {
          "name": "_levelRewards",
          "type": "uint256[]"
        },
        {
          "name": "_ipfsHash",
          "type": "bytes32"
        }
      ],
      "payable": false,
      "stateMutability": "view",
      "type": "function"
    },
    {
      "constant": true,
      "inputs": [
        {
          "name": "_businessAddress",
          "type": "address"
        }
      ],
      "name": "getWorkerRewardSystem",
      "outputs": [
        {
          "name": "_numberOfRewardSteps",
          "type": "uint256"
        },
        {
          "name": "_numberOfRewardCycles",
          "type": "uint256"
        },
        {
          "name": "_numberOfRewardLevels",
          "type": "uint256"
        },
        {
          "name": "_levelRewards",
          "type": "uint256[]"
        },
        {
          "name": "_ipfsHash",
          "type": "bytes32"
        }
      ],
      "payable": false,
      "stateMutability": "view",
      "type": "function"
    },
    {
      "constant": true,
      "inputs": [],
      "name": "getGrowthPoolRewardSystem",
      "outputs": [
        {
          "name": "_numberOfRewardSteps",
          "type": "uint256"
        },
        {
          "name": "_numberOfRewardCycles",
          "type": "uint256"
        },
        {
          "name": "_numberOfRewardLevels",
          "type": "uint256"
        },
        {
          "name": "_levelRewards",
          "type": "uint256[]"
        },
        {
          "name": "_ipfsHash",
          "type": "bytes32"
        }
      ],
      "payable": false,
      "stateMutability": "view",
      "type": "function"
    }
  ],
  "bytecode": "0x6080604052336000806101000a81548173ffffffffffffffffffffffffffffffffffffffff021916908373ffffffffffffffffffffffffffffffffffffffff16021790555061114d806100536000396000f3006080604052600436106100d0576000357c0100000000000000000000000000000000000000000000000000000000900463ffffffff168063016dd6ff146100d5578063193ad4e71461012c5780631c946952146101e85780633bbc1c8a146102305780634f0b5904146102e25780636885295714610343578063715018a6146103b757806378939f9d146103ce5780638b3504f21461048a5780638da5cb5b146104fe5780639aec8e3714610555578063b0106aa3146105e7578063b19681fd14610677578063f2fde38b14610729575b600080fd5b3480156100e157600080fd5b506100ea61076c565b604051808273ffffffffffffffffffffffffffffffffffffffff1673ffffffffffffffffffffffffffffffffffffffff16815260200191505060405180910390f35b34801561013857600080fd5b5061016d600480360381019080803573ffffffffffffffffffffffffffffffffffffffff169060200190929190505050610792565b60405180868152602001858152602001848152602001806020018360001916600019168152602001828103825284818151815260200191508051906020019060200280838360005b838110156101d05780820151818401526020810190506101b5565b50505050905001965050505050505060405180910390f35b3480156101f457600080fd5b506101fd6108a5565b60405180858152602001848152602001838152602001826000191660001916815260200194505050505060405180910390f35b34801561023c57600080fd5b506102e0600480360381019080803573ffffffffffffffffffffffffffffffffffffffff1690602001909291908035906020019092919080359060200190929190803590602001909291908035906020019082018035906020019080806020026020016040519081016040528093929190818152602001838360200280828437820191505050505050919291929080356000191690602001909291905050506108c3565b005b3480156102ee57600080fd5b5061032d600480360381019080803573ffffffffffffffffffffffffffffffffffffffff169060200190929190803590602001909291905050506109c7565b6040518082815260200191505060405180910390f35b34801561034f57600080fd5b50610384600480360381019080803573ffffffffffffffffffffffffffffffffffffffff1690602001909291905050506109ee565b60405180858152602001848152602001838152602001826000191660001916815260200194505050505060405180910390f35b3480156103c357600080fd5b506103cc610a1e565b005b3480156103da57600080fd5b5061040f600480360381019080803573ffffffffffffffffffffffffffffffffffffffff169060200190929190505050610b20565b60405180868152602001858152602001848152602001806020018360001916600019168152602001828103825284818151815260200191508051906020019060200280838360005b83811015610472578082015181840152602081019050610457565b50505050905001965050505050505060405180910390f35b34801561049657600080fd5b506104cb600480360381019080803573ffffffffffffffffffffffffffffffffffffffff169060200190929190505050610c33565b60405180858152602001848152602001838152602001826000191660001916815260200194505050505060405180910390f35b34801561050a57600080fd5b50610513610c63565b604051808273ffffffffffffffffffffffffffffffffffffffff1673ffffffffffffffffffffffffffffffffffffffff16815260200191505060405180910390f35b34801561056157600080fd5b506105e5600480360381019080803590602001909291908035906020019092919080359060200190929190803590602001908201803590602001908080602002602001604051908101604052809392919081815260200183836020028082843782019150505050505091929192908035600019169060200190929190505050610c88565b005b3480156105f357600080fd5b506105fc610d92565b60405180868152602001858152602001848152602001806020018360001916600019168152602001828103825284818151815260200191508051906020019060200280838360005b8381101561065f578082015181840152602081019050610644565b50505050905001965050505050505060405180910390f35b34801561068357600080fd5b50610727600480360381019080803573ffffffffffffffffffffffffffffffffffffffff169060200190929190803590602001909291908035906020019092919080359060200190929190803590602001908201803590602001908080602002602001604051908101604052809392919081815260200183836020028082843782019150505050505091929192908035600019169060200190929190505050610e17565b005b34801561073557600080fd5b5061076a600480360381019080803573ffffffffffffffffffffffffffffffffffffffff169060200190929190505050610f1b565b005b600160009054906101000a900473ffffffffffffffffffffffffffffffffffffffff1681565b6000806000606060006107a361107c565b600260008873ffffffffffffffffffffffffffffffffffffffff1673ffffffffffffffffffffffffffffffffffffffff16815260200190815260200160002060a060405190810160405290816000820154815260200160018201548152602001600282015481526020016003820180548060200260200160405190810160405280929190818152602001828054801561085b57602002820191906000526020600020905b815481526020019060010190808311610847575b505050505081526020016004820154600019166000191681525050905080600001519550806020015194508060400151935080606001519250806080015191505091939590929450565b60048060000154908060010154908060020154908060040154905084565b60a0604051908101604052808681526020018581526020018481526020018381526020018260001916815250600360008873ffffffffffffffffffffffffffffffffffffffff1673ffffffffffffffffffffffffffffffffffffffff16815260200190815260200160002060008201518160000155602082015181600101556040820151816002015560608201518160030190805190602001906109689291906110af565b50608082015181600401906000191690559050508573ffffffffffffffffffffffffffffffffffffffff167f910de68bbeafb3b17db876b63617e0d84a56e46ed90d7b475ca836fc62ec82c960405160405180910390a2505050505050565b600d602052816000526040600020816005811015156109e257fe5b01600091509150505481565b60026020528060005260406000206000915090508060000154908060010154908060020154908060040154905084565b6000809054906101000a900473ffffffffffffffffffffffffffffffffffffffff1673ffffffffffffffffffffffffffffffffffffffff163373ffffffffffffffffffffffffffffffffffffffff16141515610a7957600080fd5b6000809054906101000a900473ffffffffffffffffffffffffffffffffffffffff1673ffffffffffffffffffffffffffffffffffffffff167ff8df31144d9c2f0f6b59d69b8b98abd5459d07f2742c4df920b25aae33c6482060405160405180910390a260008060006101000a81548173ffffffffffffffffffffffffffffffffffffffff021916908373ffffffffffffffffffffffffffffffffffffffff160217905550565b600080600060606000610b3161107c565b600360008873ffffffffffffffffffffffffffffffffffffffff1673ffffffffffffffffffffffffffffffffffffffff16815260200190815260200160002060a0604051908101604052908160008201548152602001600182015481526020016002820154815260200160038201805480602002602001604051908101604052809291908181526020018280548015610be957602002820191906000526020600020905b815481526020019060010190808311610bd5575b505050505081526020016004820154600019166000191681525050905080600001519550806020015194508060400151935080606001519250806080015191505091939590929450565b60036020528060005260406000206000915090508060000154908060010154908060020154908060040154905084565b6000809054906101000a900473ffffffffffffffffffffffffffffffffffffffff1681565b6000809054906101000a900473ffffffffffffffffffffffffffffffffffffffff1673ffffffffffffffffffffffffffffffffffffffff163373ffffffffffffffffffffffffffffffffffffffff16141515610ce357600080fd5b60a060405190810160405280868152602001858152602001848152602001838152602001826000191681525060046000820151816000015560208201518160010155604082015181600201556060820151816003019080519060200190610d4b9291906110af565b50608082015181600401906000191690559050507fcecb7f2a433f872143ebb31ebe6bc5cd169e6a657bc645805e460bf08188818960405160405180910390a15050505050565b6000806000606060006004600001549450600460010154935060046002015492506004600301805480602002602001604051908101604052809291908181526020018280548015610e0257602002820191906000526020600020905b815481526020019060010190808311610dee575b50505050509150600480015490509091929394565b60a0604051908101604052808681526020018581526020018481526020018381526020018260001916815250600260008873ffffffffffffffffffffffffffffffffffffffff1673ffffffffffffffffffffffffffffffffffffffff1681526020019081526020016000206000820151816000015560208201518160010155604082015181600201556060820151816003019080519060200190610ebc9291906110af565b50608082015181600401906000191690559050508573ffffffffffffffffffffffffffffffffffffffff167fe04286428ba72349229a5e6d1ffcd9120bd0eecad71b420398ad31e81682d38760405160405180910390a2505050505050565b6000809054906101000a900473ffffffffffffffffffffffffffffffffffffffff1673ffffffffffffffffffffffffffffffffffffffff163373ffffffffffffffffffffffffffffffffffffffff16141515610f7657600080fd5b610f7f81610f82565b50565b600073ffffffffffffffffffffffffffffffffffffffff168173ffffffffffffffffffffffffffffffffffffffff1614151515610fbe57600080fd5b8073ffffffffffffffffffffffffffffffffffffffff166000809054906101000a900473ffffffffffffffffffffffffffffffffffffffff1673ffffffffffffffffffffffffffffffffffffffff167f8be0079c531659141344cd1fd0a4f28419497f9722a3daafe3b4186f6b6457e060405160405180910390a3806000806101000a81548173ffffffffffffffffffffffffffffffffffffffff021916908373ffffffffffffffffffffffffffffffffffffffff16021790555050565b60a06040519081016040528060008152602001600081526020016000815260200160608152602001600080191681525090565b8280548282559060005260206000209081019282156110eb579160200282015b828111156110ea5782518255916020019190600101906110cf565b5b5090506110f891906110fc565b5090565b61111e91905b8082111561111a576000816000905550600101611102565b5090565b905600a165627a7a72305820839cbdc375d1fe7c50a63d7d76a006dd765d0e065617400fc6a2f6a5a1790a540029",
  "source": "pragma solidity ^0.4.24;\n\nimport './Ownable.sol';\nimport \"../../kudos-token-contracts/contracts/SafeMath.sol\";\nimport '../../kudos-token-contracts/contracts/ERC20Token.sol';\n\ncontract KudosRewards is Ownable {\n  using SafeMath for uint256;\n\n  ERC20Token public kudosToken;\n  uint256 internal constant tokenUnit = 10 ** 18;\n\n  event RegisterUserRewardSystem(address indexed _businessAddress);\n  event RegisterWorkerRewardSystem(address indexed _businessAddress);\n  event RegisterGrowthPoolRewardSystem();\n\n  struct RewardSystem {\n\n    uint256 numberOfRewardSteps;\n    uint256 numberOfRewardCycles;\n    uint256 numberOfRewardLevels;\n\n    uint256[] levelRewards;\n    bytes32 ipfsHash;\n\n    mapping(address => uint256) rewardStep;\n    mapping(address => uint256) rewardCycle;\n    mapping(address => uint256) rewardLevel;\n    mapping(address => uint256) rewardRank;\n  }\n\n  mapping(address => RewardSystem) public userRewardSystem;\n  mapping(address => RewardSystem) public workerRewardSystem;\n  RewardSystem public growthPoolRewardSystem;\n\n  mapping(address => uint256[5]) public ratingRewardPercentages;\n\n  function rewardWorker(address _workerAddress, address _businessAddress, uint256 _workerRating) internal {\n\n    uint256[5] storage ratingRewardPercentageValues = ratingRewardPercentages[_businessAddress];\n    uint256 rewardValue = ratingRewardPercentageValues[4] * ratingRewardPercentageValues[_workerRating] / 100;\n    kudosToken.transferFrom(_businessAddress, _workerAddress, rewardValue);\n  }\n\n  function registerUserRewardSystem(address _businessAddress, uint256 _numberOfRewardSteps, uint256 _numberOfRewardCycles, uint256 _numberOfRewardLevels, uint256[] _levelRewards, bytes32 _ipfsHash) public {\n\n    userRewardSystem[_businessAddress] = RewardSystem(_numberOfRewardSteps, _numberOfRewardCycles, _numberOfRewardLevels, _levelRewards, _ipfsHash);\n    emit RegisterUserRewardSystem(_businessAddress);\n  }\n\n  function registerWorkerRewardSystem(address _businessAddress, uint256 _numberOfRewardSteps, uint256 _numberOfRewardCycles, uint256 _numberOfRewardLevels, uint256[] _levelRewards, bytes32 _ipfsHash) public {\n\n    workerRewardSystem[_businessAddress] = RewardSystem(_numberOfRewardSteps, _numberOfRewardCycles, _numberOfRewardLevels, _levelRewards, _ipfsHash);\n    emit RegisterWorkerRewardSystem(_businessAddress);\n  }\n\n  function registerGrowthPoolRewardSystem(uint256 _numberOfRewardSteps, uint256 _numberOfRewardCycles, uint256 _numberOfRewardLevels, uint256[] _levelRewards, bytes32 _ipfsHash) public onlyOwner {\n\n    growthPoolRewardSystem = RewardSystem(_numberOfRewardSteps, _numberOfRewardCycles, _numberOfRewardLevels, _levelRewards, _ipfsHash);\n    emit RegisterGrowthPoolRewardSystem();\n  }\n\n  function updateUserRewardProgress(address _userAddress, address _businessAddress) internal {\n\n    RewardSystem storage rewardSystem = userRewardSystem[_businessAddress];\n    incrementRewardProgress(rewardSystem, _userAddress);\n\n    if (rewardSystem.rewardStep[_userAddress] == 0) {\n      uint256 userRewardLevel = rewardSystem.rewardLevel[_userAddress];\n      uint256 rewardValue = rewardSystem.levelRewards[userRewardLevel] * tokenUnit;\n      kudosToken.transferFrom(_businessAddress, _userAddress, rewardValue);\n    }\n  }\n\n  function updateWorkerRewardProgress(address _workerAddress, address _businessAddress) internal {\n\n    RewardSystem storage rewardSystem = workerRewardSystem[_businessAddress];\n    incrementRewardProgress(rewardSystem, _workerAddress);\n\n    if (rewardSystem.rewardStep[_workerAddress] == 0) {\n      uint256 workerRewardLevel = rewardSystem.rewardLevel[_workerAddress];\n      uint256 rewardValue = rewardSystem.levelRewards[workerRewardLevel] * tokenUnit;\n      kudosToken.transferFrom(_businessAddress, _workerAddress, rewardValue);\n    }\n  }\n\n  function updateGrowthPoolRewardProgress(address _userAddress, address _workerAddress, address _businessAddress) internal {\n\n    incrementRewardProgress(growthPoolRewardSystem, _userAddress);\n    incrementRewardProgress(growthPoolRewardSystem, _workerAddress);\n    incrementRewardProgress(growthPoolRewardSystem, _businessAddress);\n  }\n\n  function incrementRewardProgress(RewardSystem storage _rewardSystem, address _address) internal {\n\n    uint256 nextRewardStep = _rewardSystem.rewardStep[_address] + 1;\n\n    if (nextRewardStep > _rewardSystem.numberOfRewardSteps - 1) {\n\n      _rewardSystem.rewardStep[_address] = 0;\n      uint256 nextRewardCycle = _rewardSystem.rewardCycle[_address] + 1;\n\n      if (nextRewardCycle > _rewardSystem.numberOfRewardCycles - 1) {\n\n        _rewardSystem.rewardCycle[_address] = 0;\n        uint256 nextRewardLevel = _rewardSystem.rewardLevel[_address] + 1;\n\n          if (nextRewardLevel > _rewardSystem.numberOfRewardLevels - 1) {\n\n            _rewardSystem.rewardLevel[_address] = 0;\n            _rewardSystem.rewardRank[_address] += 1;\n\n          } else {\n            _rewardSystem.rewardLevel[_address] += 1;\n          }\n\n      } else {\n        _rewardSystem.rewardCycle[_address] += 1;\n      }\n\n    } else {\n      _rewardSystem.rewardStep[_address] += 1;\n    }\n  }\n\n  // getters\n  function getUserRewardSystem(address _businessAddress) public view returns (uint256 _numberOfRewardSteps, uint256 _numberOfRewardCycles, uint256 _numberOfRewardLevels, uint256[] _levelRewards, bytes32 _ipfsHash) {\n\n    RewardSystem memory rewardSystem = userRewardSystem[_businessAddress];\n\n    _numberOfRewardSteps = rewardSystem.numberOfRewardSteps;\n    _numberOfRewardCycles = rewardSystem.numberOfRewardCycles;\n    _numberOfRewardLevels = rewardSystem.numberOfRewardLevels;\n    _levelRewards = rewardSystem.levelRewards;\n    _ipfsHash = rewardSystem.ipfsHash;\n  }\n\n  function getWorkerRewardSystem(address _businessAddress) public view returns (uint256 _numberOfRewardSteps, uint256 _numberOfRewardCycles, uint256 _numberOfRewardLevels, uint256[] _levelRewards, bytes32 _ipfsHash) {\n\n    RewardSystem memory rewardSystem = workerRewardSystem[_businessAddress];\n\n    _numberOfRewardSteps = rewardSystem.numberOfRewardSteps;\n    _numberOfRewardCycles = rewardSystem.numberOfRewardCycles;\n    _numberOfRewardLevels = rewardSystem.numberOfRewardLevels;\n    _levelRewards = rewardSystem.levelRewards;\n    _ipfsHash = rewardSystem.ipfsHash;\n  }\n\n    function getGrowthPoolRewardSystem() public view returns (uint256 _numberOfRewardSteps, uint256 _numberOfRewardCycles, uint256 _numberOfRewardLevels, uint256[] _levelRewards, bytes32 _ipfsHash) {\n\n      _numberOfRewardSteps = growthPoolRewardSystem.numberOfRewardSteps;\n      _numberOfRewardCycles = growthPoolRewardSystem.numberOfRewardCycles;\n      _numberOfRewardLevels = growthPoolRewardSystem.numberOfRewardLevels;\n      _levelRewards = growthPoolRewardSystem.levelRewards;\n      _ipfsHash = growthPoolRewardSystem.ipfsHash;\n    }\n}\n",
  "sourcePath": "/Users/panda/projects/kudos/packages/kudos-contracts/contracts/KudosRewards.sol",
  "compiler": {
    "name": "solc",
    "version": "0.4.24+commit.e67f0147.Emscripten.clang"
  },
  "schemaVersion": "2.0.1",
  "updatedAt": "2018-07-20T14:19:37.742Z"
}