{
  "contractName": "KudosActor",
  "abi": [
    {
      "constant": true,
      "inputs": [
        {
          "name": "",
          "type": "address"
        },
        {
          "name": "",
          "type": "address"
        }
      ],
      "name": "businessHasApprovedWorker",
      "outputs": [
        {
          "name": "",
          "type": "bool"
        }
      ],
      "payable": false,
      "stateMutability": "view",
      "type": "function"
    },
    {
      "constant": false,
      "inputs": [
        {
          "name": "_businessAddress",
          "type": "address"
        },
        {
          "name": "_numberOfRewardSteps",
          "type": "uint256"
        },
        {
          "name": "_numberOfRewardCycles",
          "type": "uint256"
        },
        {
          "name": "_numberOfRewardLevels",
          "type": "uint256"
        },
        {
          "name": "_levelRewards",
          "type": "uint256[]"
        },
        {
          "name": "_ratingRewards",
          "type": "uint256[5]"
        },
        {
          "name": "_ipfsHash",
          "type": "bytes32"
        }
      ],
      "name": "registerWorkerRewardSystem",
      "outputs": [],
      "payable": false,
      "stateMutability": "nonpayable",
      "type": "function"
    },
    {
      "constant": true,
      "inputs": [
        {
          "name": "",
          "type": "address"
        },
        {
          "name": "",
          "type": "address"
        }
      ],
      "name": "numberOfWorkerRatings",
      "outputs": [
        {
          "name": "",
          "type": "uint256"
        }
      ],
      "payable": false,
      "stateMutability": "view",
      "type": "function"
    },
    {
      "constant": true,
      "inputs": [
        {
          "name": "",
          "type": "address"
        },
        {
          "name": "",
          "type": "uint256"
        }
      ],
      "name": "businessList",
      "outputs": [
        {
          "name": "",
          "type": "address"
        }
      ],
      "payable": false,
      "stateMutability": "view",
      "type": "function"
    },
    {
      "constant": true,
      "inputs": [
        {
          "name": "",
          "type": "address"
        }
      ],
      "name": "isBusiness",
      "outputs": [
        {
          "name": "",
          "type": "bool"
        }
      ],
      "payable": false,
      "stateMutability": "view",
      "type": "function"
    },
    {
      "constant": true,
      "inputs": [
        {
          "name": "_businessAddress",
          "type": "address"
        }
      ],
      "name": "getUserRewardSystem",
      "outputs": [
        {
          "name": "_numberOfRewardSteps",
          "type": "uint256"
        },
        {
          "name": "_numberOfRewardCycles",
          "type": "uint256"
        },
        {
          "name": "_numberOfRewardLevels",
          "type": "uint256"
        },
        {
          "name": "_levelRewards",
          "type": "uint256[]"
        },
        {
          "name": "_ratingRewards",
          "type": "uint256[5]"
        },
        {
          "name": "_ipfsHash",
          "type": "bytes32"
        }
      ],
      "payable": false,
      "stateMutability": "view",
      "type": "function"
    },
    {
      "constant": true,
      "inputs": [],
      "name": "growthPoolRewardSystem",
      "outputs": [
        {
          "name": "numberOfRewardSteps",
          "type": "uint256"
        },
        {
          "name": "numberOfRewardCycles",
          "type": "uint256"
        },
        {
          "name": "numberOfRewardLevels",
          "type": "uint256"
        },
        {
          "name": "ipfsHash",
          "type": "bytes32"
        }
      ],
      "payable": false,
      "stateMutability": "view",
      "type": "function"
    },
    {
      "constant": true,
      "inputs": [
        {
          "name": "",
          "type": "address"
        },
        {
          "name": "",
          "type": "address"
        }
      ],
      "name": "workerAverageRating",
      "outputs": [
        {
          "name": "",
          "type": "uint256"
        }
      ],
      "payable": false,
      "stateMutability": "view",
      "type": "function"
    },
    {
      "constant": true,
      "inputs": [
        {
          "name": "",
          "type": "address"
        }
      ],
      "name": "isUser",
      "outputs": [
        {
          "name": "",
          "type": "bool"
        }
      ],
      "payable": false,
      "stateMutability": "view",
      "type": "function"
    },
    {
      "constant": true,
      "inputs": [
        {
          "name": "",
          "type": "address"
        }
      ],
      "name": "userRewardSystem",
      "outputs": [
        {
          "name": "numberOfRewardSteps",
          "type": "uint256"
        },
        {
          "name": "numberOfRewardCycles",
          "type": "uint256"
        },
        {
          "name": "numberOfRewardLevels",
          "type": "uint256"
        },
        {
          "name": "ipfsHash",
          "type": "bytes32"
        }
      ],
      "payable": false,
      "stateMutability": "view",
      "type": "function"
    },
    {
      "constant": true,
      "inputs": [
        {
          "name": "_businessAddress",
          "type": "address"
        }
      ],
      "name": "getWorkerRewardSystem",
      "outputs": [
        {
          "name": "_numberOfRewardSteps",
          "type": "uint256"
        },
        {
          "name": "_numberOfRewardCycles",
          "type": "uint256"
        },
        {
          "name": "_numberOfRewardLevels",
          "type": "uint256"
        },
        {
          "name": "_levelRewards",
          "type": "uint256[]"
        },
        {
          "name": "_ratingRewards",
          "type": "uint256[5]"
        },
        {
          "name": "_ipfsHash",
          "type": "bytes32"
        }
      ],
      "payable": false,
      "stateMutability": "view",
      "type": "function"
    },
    {
      "constant": true,
      "inputs": [
        {
          "name": "",
          "type": "address"
        },
        {
          "name": "",
          "type": "address"
        }
      ],
      "name": "isEmployed",
      "outputs": [
        {
          "name": "",
          "type": "bool"
        }
      ],
      "payable": false,
      "stateMutability": "view",
      "type": "function"
    },
    {
      "constant": true,
      "inputs": [
        {
          "name": "",
          "type": "address"
        }
      ],
      "name": "workerRewardSystem",
      "outputs": [
        {
          "name": "numberOfRewardSteps",
          "type": "uint256"
        },
        {
          "name": "numberOfRewardCycles",
          "type": "uint256"
        },
        {
          "name": "numberOfRewardLevels",
          "type": "uint256"
        },
        {
          "name": "ipfsHash",
          "type": "bytes32"
        }
      ],
      "payable": false,
      "stateMutability": "view",
      "type": "function"
    },
    {
      "constant": true,
      "inputs": [
        {
          "name": "",
          "type": "address"
        }
      ],
      "name": "numberOfBusinessRatings",
      "outputs": [
        {
          "name": "",
          "type": "uint256"
        }
      ],
      "payable": false,
      "stateMutability": "view",
      "type": "function"
    },
    {
      "constant": true,
      "inputs": [
        {
          "name": "",
          "type": "address"
        }
      ],
      "name": "isWorker",
      "outputs": [
        {
          "name": "",
          "type": "bool"
        }
      ],
      "payable": false,
      "stateMutability": "view",
      "type": "function"
    },
    {
      "constant": false,
      "inputs": [
        {
          "name": "_businessAddress",
          "type": "address"
        },
        {
          "name": "_numberOfRewardSteps",
          "type": "uint256"
        },
        {
          "name": "_numberOfRewardCycles",
          "type": "uint256"
        },
        {
          "name": "_numberOfRewardLevels",
          "type": "uint256"
        },
        {
          "name": "_levelRewards",
          "type": "uint256[]"
        },
        {
          "name": "_ipfsHash",
          "type": "bytes32"
        }
      ],
      "name": "registerUserRewardSystem",
      "outputs": [],
      "payable": false,
      "stateMutability": "nonpayable",
      "type": "function"
    },
    {
      "constant": true,
      "inputs": [
        {
          "name": "",
          "type": "address"
        }
      ],
      "name": "numberOfUserRatings",
      "outputs": [
        {
          "name": "",
          "type": "uint256"
        }
      ],
      "payable": false,
      "stateMutability": "view",
      "type": "function"
    },
    {
      "constant": true,
      "inputs": [
        {
          "name": "",
          "type": "address"
        },
        {
          "name": "",
          "type": "address"
        }
      ],
      "name": "workerHasApprovedBusiness",
      "outputs": [
        {
          "name": "",
          "type": "bool"
        }
      ],
      "payable": false,
      "stateMutability": "view",
      "type": "function"
    },
    {
      "constant": true,
      "inputs": [
        {
          "name": "",
          "type": "address"
        }
      ],
      "name": "businessAverageRating",
      "outputs": [
        {
          "name": "",
          "type": "uint256"
        }
      ],
      "payable": false,
      "stateMutability": "view",
      "type": "function"
    },
    {
      "constant": true,
      "inputs": [
        {
          "name": "",
          "type": "address"
        },
        {
          "name": "",
          "type": "uint256"
        }
      ],
      "name": "workerList",
      "outputs": [
        {
          "name": "",
          "type": "address"
        }
      ],
      "payable": false,
      "stateMutability": "view",
      "type": "function"
    },
    {
      "constant": true,
      "inputs": [
        {
          "name": "",
          "type": "address"
        }
      ],
      "name": "userAverageRating",
      "outputs": [
        {
          "name": "",
          "type": "uint256"
        }
      ],
      "payable": false,
      "stateMutability": "view",
      "type": "function"
    },
    {
      "anonymous": false,
      "inputs": [
        {
          "indexed": true,
          "name": "_businessAddress",
          "type": "address"
        }
      ],
      "name": "RegisterUserRewardSystem",
      "type": "event"
    },
    {
      "anonymous": false,
      "inputs": [
        {
          "indexed": true,
          "name": "_businessAddress",
          "type": "address"
        }
      ],
      "name": "RegisterWorkerRewardSystem",
      "type": "event"
    },
    {
      "anonymous": false,
      "inputs": [],
      "name": "RegisterGrowthPoolRewardSystem",
      "type": "event"
    },
    {
      "constant": true,
      "inputs": [
        {
          "name": "businessAddress",
          "type": "address"
        }
      ],
      "name": "getNumberOfWorkers",
      "outputs": [
        {
          "name": "count",
          "type": "uint256"
        }
      ],
      "payable": false,
      "stateMutability": "view",
      "type": "function"
    }
  ],
  "bytecode": "0x608060405234801561001057600080fd5b5061157d806100206000396000f300608060405260043610610128576000357c0100000000000000000000000000000000000000000000000000000000900463ffffffff168063067a09491461012d578063092914ff146101a85780630e2be26614610289578063130ee376146103005780631466d0191461038d578063193ad4e7146103e85780631c946952146104d35780632f64550a1461051b5780632fccafb5146105925780634209fff1146105e9578063688529571461064457806378939f9d146106b85780637b1d0c83146107a35780638b3504f21461081e5780639708c61f14610892578063aa156645146108e9578063b19681fd14610944578063b265c33d146109f6578063e336379314610a4d578063ec5df15a14610ac8578063f901188814610b1f578063ffb3379314610bac575b600080fd5b34801561013957600080fd5b5061018e600480360381019080803573ffffffffffffffffffffffffffffffffffffffff169060200190929190803573ffffffffffffffffffffffffffffffffffffffff169060200190929190505050610c03565b604051808215151515815260200191505060405180910390f35b3480156101b457600080fd5b50610287600480360381019080803573ffffffffffffffffffffffffffffffffffffffff169060200190929190803590602001909291908035906020019092919080359060200190929190803590602001908201803590602001908080602002602001604051908101604052809392919081815260200183836020028082843782019150505050505091929192908060a001906005806020026040519081016040528092919082600560200280828437820191505050505091929192908035600019169060200190929190505050610c32565b005b34801561029557600080fd5b506102ea600480360381019080803573ffffffffffffffffffffffffffffffffffffffff169060200190929190803573ffffffffffffffffffffffffffffffffffffffff169060200190929190505050610d55565b6040518082815260200191505060405180910390f35b34801561030c57600080fd5b5061034b600480360381019080803573ffffffffffffffffffffffffffffffffffffffff16906020019092919080359060200190929190505050610d7a565b604051808273ffffffffffffffffffffffffffffffffffffffff1673ffffffffffffffffffffffffffffffffffffffff16815260200191505060405180910390f35b34801561039957600080fd5b506103ce600480360381019080803573ffffffffffffffffffffffffffffffffffffffff169060200190929190505050610dc7565b604051808215151515815260200191505060405180910390f35b3480156103f457600080fd5b50610429600480360381019080803573ffffffffffffffffffffffffffffffffffffffff169060200190929190505050610de7565b604051808781526020018681526020018581526020018060200184600560200280838360005b8381101561046a57808201518184015260208101905061044f565b505050509050018360001916600019168152602001828103825285818151815260200191508051906020019060200280838360005b838110156104ba57808201518184015260208101905061049f565b5050505090500197505050505050505060405180910390f35b3480156104df57600080fd5b506104e8610f4d565b60405180858152602001848152602001838152602001826000191660001916815260200194505050505060405180910390f35b34801561052757600080fd5b5061057c600480360381019080803573ffffffffffffffffffffffffffffffffffffffff169060200190929190803573ffffffffffffffffffffffffffffffffffffffff169060200190929190505050610f6b565b6040518082815260200191505060405180910390f35b34801561059e57600080fd5b506105d3600480360381019080803573ffffffffffffffffffffffffffffffffffffffff169060200190929190505050610f90565b6040518082815260200191505060405180910390f35b3480156105f557600080fd5b5061062a600480360381019080803573ffffffffffffffffffffffffffffffffffffffff169060200190929190505050610fdc565b604051808215151515815260200191505060405180910390f35b34801561065057600080fd5b50610685600480360381019080803573ffffffffffffffffffffffffffffffffffffffff169060200190929190505050610ffc565b60405180858152602001848152602001838152602001826000191660001916815260200194505050505060405180910390f35b3480156106c457600080fd5b506106f9600480360381019080803573ffffffffffffffffffffffffffffffffffffffff16906020019092919050505061102c565b604051808781526020018681526020018581526020018060200184600560200280838360005b8381101561073a57808201518184015260208101905061071f565b505050509050018360001916600019168152602001828103825285818151815260200191508051906020019060200280838360005b8381101561078a57808201518184015260208101905061076f565b5050505090500197505050505050505060405180910390f35b3480156107af57600080fd5b50610804600480360381019080803573ffffffffffffffffffffffffffffffffffffffff169060200190929190803573ffffffffffffffffffffffffffffffffffffffff169060200190929190505050611193565b604051808215151515815260200191505060405180910390f35b34801561082a57600080fd5b5061085f600480360381019080803573ffffffffffffffffffffffffffffffffffffffff1690602001909291905050506111c2565b60405180858152602001848152602001838152602001826000191660001916815260200194505050505060405180910390f35b34801561089e57600080fd5b506108d3600480360381019080803573ffffffffffffffffffffffffffffffffffffffff1690602001909291905050506111f2565b6040518082815260200191505060405180910390f35b3480156108f557600080fd5b5061092a600480360381019080803573ffffffffffffffffffffffffffffffffffffffff16906020019092919050505061120a565b604051808215151515815260200191505060405180910390f35b34801561095057600080fd5b506109f4600480360381019080803573ffffffffffffffffffffffffffffffffffffffff16906020019092919080359060200190929190803590602001909291908035906020019092919080359060200190820180359060200190808060200260200160405190810160405280939291908181526020018383602002808284378201915050505050509192919290803560001916906020019092919050505061122a565b005b348015610a0257600080fd5b50610a37600480360381019080803573ffffffffffffffffffffffffffffffffffffffff169060200190929190505050611354565b6040518082815260200191505060405180910390f35b348015610a5957600080fd5b50610aae600480360381019080803573ffffffffffffffffffffffffffffffffffffffff169060200190929190803573ffffffffffffffffffffffffffffffffffffffff16906020019092919050505061136c565b604051808215151515815260200191505060405180910390f35b348015610ad457600080fd5b50610b09600480360381019080803573ffffffffffffffffffffffffffffffffffffffff16906020019092919050505061139b565b6040518082815260200191505060405180910390f35b348015610b2b57600080fd5b50610b6a600480360381019080803573ffffffffffffffffffffffffffffffffffffffff169060200190929190803590602001909291905050506113b3565b604051808273ffffffffffffffffffffffffffffffffffffffff1673ffffffffffffffffffffffffffffffffffffffff16815260200191505060405180910390f35b348015610bb857600080fd5b50610bed600480360381019080803573ffffffffffffffffffffffffffffffffffffffff169060200190929190505050611400565b6040518082815260200191505060405180910390f35b60116020528160005260406000206020528060005260406000206000915091509054906101000a900460ff1681565b60c0604051908101604052808781526020018681526020018581526020018481526020018381526020018260001916815250600160008973ffffffffffffffffffffffffffffffffffffffff1673ffffffffffffffffffffffffffffffffffffffff1681526020019081526020016000206000820151816000015560208201518160010155604082015181600201556060820151816003019080519060200190610cdd929190611418565b50608082015181600401906005610cf5929190611465565b5060a082015181600901906000191690559050508673ffffffffffffffffffffffffffffffffffffffff167f910de68bbeafb3b17db876b63617e0d84a56e46ed90d7b475ca836fc62ec82c960405160405180910390a250505050505050565b6019602052816000526040600020602052806000526040600020600091509150505481565b601760205281600052604060002081815481101515610d9557fe5b906000526020600020016000915091509054906101000a900473ffffffffffffffffffffffffffffffffffffffff1681565b60106020528060005260406000206000915054906101000a900460ff1681565b60008060006060610df66114a5565b6000610e006114c8565b6000808973ffffffffffffffffffffffffffffffffffffffff1673ffffffffffffffffffffffffffffffffffffffff16815260200190815260200160002060c0604051908101604052908160008201548152602001600182015481526020016002820154815260200160038201805480602002602001604051908101604052809291908181526020018280548015610eb757602002820191906000526020600020905b815481526020019060010190808311610ea3575b5050505050815260200160048201600580602002604051908101604052809291908260058015610efc576020028201915b815481526020019060010190808311610ee8575b505050505081526020016009820154600019166000191681525050905080600001519650806020015195508060400151945080606001519350806080015192508060a0015191505091939550919395565b60028060000154908060010154908060020154908060090154905084565b6018602052816000526040600020602052806000526040600020600091509150505481565b6000601260008373ffffffffffffffffffffffffffffffffffffffff1673ffffffffffffffffffffffffffffffffffffffff168152602001908152602001600020805490509050919050565b601c6020528060005260406000206000915054906101000a900460ff1681565b60006020528060005260406000206000915090508060000154908060010154908060020154908060090154905084565b6000806000606061103b6114a5565b60006110456114c8565b600160008973ffffffffffffffffffffffffffffffffffffffff1673ffffffffffffffffffffffffffffffffffffffff16815260200190815260200160002060c06040519081016040529081600082015481526020016001820154815260200160028201548152602001600382018054806020026020016040519081016040528092919081815260200182805480156110fd57602002820191906000526020600020905b8154815260200190600101908083116110e9575b5050505050815260200160048201600580602002604051908101604052809291908260058015611142576020028201915b81548152602001906001019080831161112e575b505050505081526020016009820154600019166000191681525050905080600001519650806020015195508060400151945080606001519350806080015192508060a0015191505091939550919395565b601d6020528160005260406000206020528060005260406000206000915091509054906101000a900460ff1681565b60016020528060005260406000206000915090508060000154908060010154908060020154908060090154905084565b60146020528060005260406000206000915090505481565b60156020528060005260406000206000915054906101000a900460ff1681565b6112326114a5565b60c06040519081016040528087815260200186815260200185815260200184815260200182815260200183600019168152506000808973ffffffffffffffffffffffffffffffffffffffff1673ffffffffffffffffffffffffffffffffffffffff16815260200190815260200160002060008201518160000155602082015181600101556040820151816002015560608201518160030190805190602001906112dc929190611418565b506080820151816004019060056112f4929190611465565b5060a082015181600901906000191690559050508673ffffffffffffffffffffffffffffffffffffffff167fe04286428ba72349229a5e6d1ffcd9120bd0eecad71b420398ad31e81682d38760405160405180910390a250505050505050565b601b6020528060005260406000206000915090505481565b60166020528160005260406000206020528060005260406000206000915091509054906101000a900460ff1681565b60136020528060005260406000206000915090505481565b6012602052816000526040600020818154811015156113ce57fe5b906000526020600020016000915091509054906101000a900473ffffffffffffffffffffffffffffffffffffffff1681565b601a6020528060005260406000206000915090505481565b828054828255906000526020600020908101928215611454579160200282015b82811115611453578251825591602001919060010190611438565b5b5090506114619190611509565b5090565b8260058101928215611494579160200282015b82811115611493578251825591602001919060010190611478565b5b5090506114a19190611509565b5090565b60a060405190810160405280600590602082028038833980820191505090505090565b61014060405190810160405280600081526020016000815260200160008152602001606081526020016114f961152e565b8152602001600080191681525090565b61152b91905b8082111561152757600081600090555060010161150f565b5090565b90565b60a0604051908101604052806005906020820280388339808201915050905050905600a165627a7a723058200b389412a248024c3438a00186a0580bcdbbf34fc358076069a477d408008e2e0029",
  "source": "pragma solidity ^0.4.24;\n\nimport \"./KudosRewards.sol\";\n\ncontract KudosActor is KudosRewards {\n\n  // business\n  mapping(address => bool) public isBusiness;\n\n  mapping(address => mapping(address => bool)) public businessHasApprovedWorker;\n  mapping(address => address[]) public workerList;\n\n  function getNumberOfWorkers(address businessAddress) public constant returns(uint count) {\n    return workerList[businessAddress].length;\n  }\n\n  mapping(address => uint256) public businessAverageRating;\n  mapping(address => uint256) public numberOfBusinessRatings;\n\n  // worker\n  mapping(address => bool) public isWorker;\n\n  mapping(address => mapping(address => bool)) public workerHasApprovedBusiness;\n  mapping(address => address[]) public businessList;\n\n  mapping(address => mapping(address => uint256)) public workerAverageRating;\n  mapping(address => mapping(address => uint256)) public numberOfWorkerRatings;\n\n  // user\n  mapping(address => uint256) public userAverageRating;\n  mapping(address => uint256) public numberOfUserRatings;\n\n  mapping(address => bool) public isUser;\n\n  // business + worker\n  mapping(address => mapping(address => bool)) public isEmployed;\n\n\n//  mapping(address => mapping(bytes32 => uint256)) public nonce;\n}\n",
  "sourcePath": "/Users/panda/projects/kudos/packages/kudos-contracts/contracts/KudosActor.sol",
  "compiler": {
    "name": "solc",
    "version": "0.4.24+commit.e67f0147.Emscripten.clang"
  },
  "schemaVersion": "2.0.1",
  "updatedAt": "2018-07-18T19:33:19.596Z"
}