{
  "contractName": "KudosUserRewardSystem",
  "abi": [
    {
      "constant": true,
      "inputs": [],
      "name": "kudosToken",
      "outputs": [
        {
          "name": "",
          "type": "address"
        }
      ],
      "payable": false,
      "stateMutability": "view",
      "type": "function"
    },
    {
      "constant": true,
      "inputs": [
        {
          "name": "",
          "type": "address"
        }
      ],
      "name": "userRewardSystem",
      "outputs": [
        {
          "name": "numberOfRewardSteps",
          "type": "uint256"
        },
        {
          "name": "numberOfRewardLevels",
          "type": "uint256"
        },
        {
          "name": "ipfsHash",
          "type": "bytes32"
        }
      ],
      "payable": false,
      "stateMutability": "view",
      "type": "function"
    },
    {
      "constant": false,
      "inputs": [],
      "name": "renounceOwnership",
      "outputs": [],
      "payable": false,
      "stateMutability": "nonpayable",
      "type": "function"
    },
    {
      "constant": true,
      "inputs": [],
      "name": "owner",
      "outputs": [
        {
          "name": "",
          "type": "address"
        }
      ],
      "payable": false,
      "stateMutability": "view",
      "type": "function"
    },
    {
      "constant": false,
      "inputs": [
        {
          "name": "_newOwner",
          "type": "address"
        }
      ],
      "name": "transferOwnership",
      "outputs": [],
      "payable": false,
      "stateMutability": "nonpayable",
      "type": "function"
    },
    {
      "anonymous": false,
      "inputs": [
        {
          "indexed": true,
          "name": "_businessAddress",
          "type": "address"
        }
      ],
      "name": "RegisterUserRewardSystem",
      "type": "event"
    },
    {
      "anonymous": false,
      "inputs": [
        {
          "indexed": true,
          "name": "_userAddress",
          "type": "address"
        },
        {
          "indexed": true,
          "name": "_businessAddress",
          "type": "address"
        },
        {
          "indexed": false,
          "name": "_rewardValue",
          "type": "uint256"
        }
      ],
      "name": "LoyaltyReward",
      "type": "event"
    },
    {
      "anonymous": false,
      "inputs": [
        {
          "indexed": false,
          "name": "_id",
          "type": "string"
        },
        {
          "indexed": false,
          "name": "_arg",
          "type": "uint256"
        }
      ],
      "name": "Debug",
      "type": "event"
    },
    {
      "anonymous": false,
      "inputs": [
        {
          "indexed": true,
          "name": "previousOwner",
          "type": "address"
        }
      ],
      "name": "OwnershipRenounced",
      "type": "event"
    },
    {
      "anonymous": false,
      "inputs": [
        {
          "indexed": true,
          "name": "previousOwner",
          "type": "address"
        },
        {
          "indexed": true,
          "name": "newOwner",
          "type": "address"
        }
      ],
      "name": "OwnershipTransferred",
      "type": "event"
    },
    {
      "constant": false,
      "inputs": [
        {
          "name": "_businessAddress",
          "type": "address"
        },
        {
          "name": "_numberOfRewardSteps",
          "type": "uint256"
        },
        {
          "name": "_numberOfRewardCyclesForLevel",
          "type": "uint256[]"
        },
        {
          "name": "_numberOfRewardLevels",
          "type": "uint256"
        },
        {
          "name": "_levelRewards",
          "type": "uint256[]"
        },
        {
          "name": "_ipfsHash",
          "type": "bytes32"
        }
      ],
      "name": "registerUserRewardSystem",
      "outputs": [],
      "payable": false,
      "stateMutability": "nonpayable",
      "type": "function"
    },
    {
      "constant": true,
      "inputs": [
        {
          "name": "_businessAddress",
          "type": "address"
        }
      ],
      "name": "getUserRewardSystem",
      "outputs": [
        {
          "name": "_numberOfRewardSteps",
          "type": "uint256"
        },
        {
          "name": "_numberOfRewardCyclesForLevel",
          "type": "uint256[]"
        },
        {
          "name": "_numberOfRewardLevels",
          "type": "uint256"
        },
        {
          "name": "_levelRewards",
          "type": "uint256[]"
        },
        {
          "name": "_ipfsHash",
          "type": "bytes32"
        }
      ],
      "payable": false,
      "stateMutability": "view",
      "type": "function"
    },
    {
      "constant": true,
      "inputs": [
        {
          "name": "_userAddress",
          "type": "address"
        },
        {
          "name": "_businessAddress",
          "type": "address"
        }
      ],
      "name": "getUserRewardStep",
      "outputs": [
        {
          "name": "_rewardStep",
          "type": "uint256"
        }
      ],
      "payable": false,
      "stateMutability": "view",
      "type": "function"
    },
    {
      "constant": true,
      "inputs": [
        {
          "name": "_userAddress",
          "type": "address"
        },
        {
          "name": "_businessAddress",
          "type": "address"
        }
      ],
      "name": "getUserRewardCycle",
      "outputs": [
        {
          "name": "_rewardCycle",
          "type": "uint256"
        }
      ],
      "payable": false,
      "stateMutability": "view",
      "type": "function"
    },
    {
      "constant": true,
      "inputs": [
        {
          "name": "_userAddress",
          "type": "address"
        },
        {
          "name": "_businessAddress",
          "type": "address"
        }
      ],
      "name": "getUserRewardLevel",
      "outputs": [
        {
          "name": "_rewardLevel",
          "type": "uint256"
        }
      ],
      "payable": false,
      "stateMutability": "view",
      "type": "function"
    },
    {
      "constant": true,
      "inputs": [
        {
          "name": "_userAddress",
          "type": "address"
        },
        {
          "name": "_businessAddress",
          "type": "address"
        }
      ],
      "name": "getUserRewardRank",
      "outputs": [
        {
          "name": "_rewardRank",
          "type": "uint256"
        }
      ],
      "payable": false,
      "stateMutability": "view",
      "type": "function"
    }
  ],
  "bytecode": "0x6080604052336000806101000a81548173ffffffffffffffffffffffffffffffffffffffff021916908373ffffffffffffffffffffffffffffffffffffffff160217905550610e4b806100536000396000f3006080604052600436106100af576000357c0100000000000000000000000000000000000000000000000000000000900463ffffffff168063016dd6ff146100b4578063193ad4e71461010b5780634038faed1461020857806347d2bc701461027f57806351fa2f3a1461036a57806368852957146103e1578063715018a61461044e57806371ee525b146104655780638da5cb5b146104dc578063f2fde38b14610533578063f31c703414610576575b600080fd5b3480156100c057600080fd5b506100c96105ed565b604051808273ffffffffffffffffffffffffffffffffffffffff1673ffffffffffffffffffffffffffffffffffffffff16815260200191505060405180910390f35b34801561011757600080fd5b5061014c600480360381019080803573ffffffffffffffffffffffffffffffffffffffff169060200190929190505050610613565b6040518086815260200180602001858152602001806020018460001916600019168152602001838103835287818151815260200191508051906020019060200280838360005b838110156101ad578082015181840152602081019050610192565b50505050905001838103825285818151815260200191508051906020019060200280838360005b838110156101ef5780820151818401526020810190506101d4565b5050505090500197505050505050505060405180910390f35b34801561021457600080fd5b50610269600480360381019080803573ffffffffffffffffffffffffffffffffffffffff169060200190929190803573ffffffffffffffffffffffffffffffffffffffff169060200190929190505050610775565b6040518082815260200191505060405180910390f35b34801561028b57600080fd5b50610368600480360381019080803573ffffffffffffffffffffffffffffffffffffffff169060200190929190803590602001909291908035906020019082018035906020019080806020026020016040519081016040528093929190818152602001838360200280828437820191505050505050919291929080359060200190929190803590602001908201803590602001908080602002602001604051908101604052809392919081815260200183836020028082843782019150505050505091929192908035600019169060200190929190505050610804565b005b34801561037657600080fd5b506103cb600480360381019080803573ffffffffffffffffffffffffffffffffffffffff169060200190929190803573ffffffffffffffffffffffffffffffffffffffff16906020019092919050505061091b565b6040518082815260200191505060405180910390f35b3480156103ed57600080fd5b50610422600480360381019080803573ffffffffffffffffffffffffffffffffffffffff1690602001909291905050506109aa565b604051808481526020018381526020018260001916600019168152602001935050505060405180910390f35b34801561045a57600080fd5b506104636109d4565b005b34801561047157600080fd5b506104c6600480360381019080803573ffffffffffffffffffffffffffffffffffffffff169060200190929190803573ffffffffffffffffffffffffffffffffffffffff169060200190929190505050610ad6565b6040518082815260200191505060405180910390f35b3480156104e857600080fd5b506104f1610b65565b604051808273ffffffffffffffffffffffffffffffffffffffff1673ffffffffffffffffffffffffffffffffffffffff16815260200191505060405180910390f35b34801561053f57600080fd5b50610574600480360381019080803573ffffffffffffffffffffffffffffffffffffffff169060200190929190505050610b8a565b005b34801561058257600080fd5b506105d7600480360381019080803573ffffffffffffffffffffffffffffffffffffffff169060200190929190803573ffffffffffffffffffffffffffffffffffffffff169060200190929190505050610bf1565b6040518082815260200191505060405180910390f35b600160009054906101000a900473ffffffffffffffffffffffffffffffffffffffff1681565b60006060600060606000610625610d7a565b600260008873ffffffffffffffffffffffffffffffffffffffff1673ffffffffffffffffffffffffffffffffffffffff16815260200190815260200160002060a0604051908101604052908160008201548152602001600182018054806020026020016040519081016040528092919081815260200182805480156106c957602002820191906000526020600020905b8154815260200190600101908083116106b5575b50505050508152602001600282015481526020016003820180548060200260200160405190810160405280929190818152602001828054801561072b57602002820191906000526020600020905b815481526020019060010190808311610717575b505050505081526020016004820154600019166000191681525050905080600001519550806020015194508060400151935080606001519250806080015191505091939590929450565b600080600260008473ffffffffffffffffffffffffffffffffffffffff1673ffffffffffffffffffffffffffffffffffffffff16815260200190815260200160002090508060080160008573ffffffffffffffffffffffffffffffffffffffff1673ffffffffffffffffffffffffffffffffffffffff1681526020019081526020016000205491505092915050565b60a0604051908101604052808681526020018581526020018481526020018381526020018260001916815250600260008873ffffffffffffffffffffffffffffffffffffffff1673ffffffffffffffffffffffffffffffffffffffff168152602001908152602001600020600082015181600001556020820151816001019080519060200190610895929190610dad565b506040820151816002015560608201518160030190805190602001906108bc929190610dad565b50608082015181600401906000191690559050508573ffffffffffffffffffffffffffffffffffffffff167fe04286428ba72349229a5e6d1ffcd9120bd0eecad71b420398ad31e81682d38760405160405180910390a2505050505050565b600080600260008473ffffffffffffffffffffffffffffffffffffffff1673ffffffffffffffffffffffffffffffffffffffff16815260200190815260200160002090508060060160008573ffffffffffffffffffffffffffffffffffffffff1673ffffffffffffffffffffffffffffffffffffffff1681526020019081526020016000205491505092915050565b60026020528060005260406000206000915090508060000154908060020154908060040154905083565b6000809054906101000a900473ffffffffffffffffffffffffffffffffffffffff1673ffffffffffffffffffffffffffffffffffffffff163373ffffffffffffffffffffffffffffffffffffffff16141515610a2f57600080fd5b6000809054906101000a900473ffffffffffffffffffffffffffffffffffffffff1673ffffffffffffffffffffffffffffffffffffffff167ff8df31144d9c2f0f6b59d69b8b98abd5459d07f2742c4df920b25aae33c6482060405160405180910390a260008060006101000a81548173ffffffffffffffffffffffffffffffffffffffff021916908373ffffffffffffffffffffffffffffffffffffffff160217905550565b600080600260008473ffffffffffffffffffffffffffffffffffffffff1673ffffffffffffffffffffffffffffffffffffffff16815260200190815260200160002090508060070160008573ffffffffffffffffffffffffffffffffffffffff1673ffffffffffffffffffffffffffffffffffffffff1681526020019081526020016000205491505092915050565b6000809054906101000a900473ffffffffffffffffffffffffffffffffffffffff1681565b6000809054906101000a900473ffffffffffffffffffffffffffffffffffffffff1673ffffffffffffffffffffffffffffffffffffffff163373ffffffffffffffffffffffffffffffffffffffff16141515610be557600080fd5b610bee81610c80565b50565b600080600260008473ffffffffffffffffffffffffffffffffffffffff1673ffffffffffffffffffffffffffffffffffffffff16815260200190815260200160002090508060050160008573ffffffffffffffffffffffffffffffffffffffff1673ffffffffffffffffffffffffffffffffffffffff1681526020019081526020016000205491505092915050565b600073ffffffffffffffffffffffffffffffffffffffff168173ffffffffffffffffffffffffffffffffffffffff1614151515610cbc57600080fd5b8073ffffffffffffffffffffffffffffffffffffffff166000809054906101000a900473ffffffffffffffffffffffffffffffffffffffff1673ffffffffffffffffffffffffffffffffffffffff167f8be0079c531659141344cd1fd0a4f28419497f9722a3daafe3b4186f6b6457e060405160405180910390a3806000806101000a81548173ffffffffffffffffffffffffffffffffffffffff021916908373ffffffffffffffffffffffffffffffffffffffff16021790555050565b60a06040519081016040528060008152602001606081526020016000815260200160608152602001600080191681525090565b828054828255906000526020600020908101928215610de9579160200282015b82811115610de8578251825591602001919060010190610dcd565b5b509050610df69190610dfa565b5090565b610e1c91905b80821115610e18576000816000905550600101610e00565b5090565b905600a165627a7a72305820e04fcac6457d15249bb340ad947af77bc4b7f06270dac591531c7bcd01b814170029",
  "source": "pragma solidity ^0.4.24;\n\nimport './KudosRewardSystem.sol';\n\ncontract KudosUserRewardSystem is KudosRewardSystem {\n\n  event RegisterUserRewardSystem(address indexed _businessAddress);\n  event LoyaltyReward(address indexed _userAddress, address indexed _businessAddress, uint256 _rewardValue);\n\n  mapping(address => RewardSystem) public userRewardSystem;\n\n  function registerUserRewardSystem(address _businessAddress, uint256 _numberOfRewardSteps, uint256[] _numberOfRewardCyclesForLevel, uint256 _numberOfRewardLevels, uint256[] _levelRewards, bytes32 _ipfsHash) public {\n\n    userRewardSystem[_businessAddress] = RewardSystem(_numberOfRewardSteps, _numberOfRewardCyclesForLevel, _numberOfRewardLevels, _levelRewards, _ipfsHash);\n    emit RegisterUserRewardSystem(_businessAddress);\n  }\n\n  function updateUserRewardProgress(address _userAddress, address _businessAddress) internal {\n\n    RewardSystem storage rewardSystem = userRewardSystem[_businessAddress];\n    uint256 userRewardLevel = rewardSystem.rewardLevel[_userAddress];\n\n    incrementRewardProgress(rewardSystem, _userAddress);\n\n    if (rewardSystem.rewardStep[_userAddress] == 0) {\n      uint256 rewardValue = rewardSystem.levelRewards[userRewardLevel];\n      kudosToken.transferFrom(_businessAddress, _userAddress, rewardValue);\n      emit LoyaltyReward(_userAddress, _businessAddress, rewardValue);\n    }\n  }\n\n  function getUserRewardSystem(address _businessAddress) public view returns (uint256 _numberOfRewardSteps, uint256[] _numberOfRewardCyclesForLevel, uint256 _numberOfRewardLevels, uint256[] _levelRewards, bytes32 _ipfsHash) {\n\n    RewardSystem memory rewardSystem = userRewardSystem[_businessAddress];\n\n    _numberOfRewardSteps = rewardSystem.numberOfRewardSteps;\n    _numberOfRewardCyclesForLevel = rewardSystem.numberOfRewardCyclesForLevel;\n    _numberOfRewardLevels = rewardSystem.numberOfRewardLevels;\n    _levelRewards = rewardSystem.levelRewards;\n    _ipfsHash = rewardSystem.ipfsHash;\n  }\n\n  function getUserRewardStep(address _userAddress, address _businessAddress) public view returns (uint256 _rewardStep) {\n\n    RewardSystem storage rewardSystem = userRewardSystem[_businessAddress];\n    _rewardStep = rewardSystem.rewardStep[_userAddress];\n  }\n\n  function getUserRewardCycle(address _userAddress, address _businessAddress) public view returns (uint256 _rewardCycle) {\n\n    RewardSystem storage rewardSystem = userRewardSystem[_businessAddress];\n    _rewardCycle = rewardSystem.rewardCycle[_userAddress];\n  }\n\n  function getUserRewardLevel(address _userAddress, address _businessAddress) public view returns (uint256 _rewardLevel) {\n\n    RewardSystem storage rewardSystem = userRewardSystem[_businessAddress];\n    _rewardLevel = rewardSystem.rewardLevel[_userAddress];\n  }\n\n  function getUserRewardRank(address _userAddress, address _businessAddress) public view returns (uint256 _rewardRank) {\n\n    RewardSystem storage rewardSystem = userRewardSystem[_businessAddress];\n    _rewardRank = rewardSystem.rewardRank[_userAddress];\n  }\n}",
  "sourcePath": "/Users/panda/projects/kudos/packages/kudos-contracts/contracts/rewards/KudosUserRewardSystem.sol",
  "compiler": {
    "name": "solc",
    "version": "0.4.24+commit.e67f0147.Emscripten.clang"
  },
  "schemaVersion": "2.0.1",
  "updatedAt": "2018-07-30T18:33:47.897Z"
}