{
  "contractName": "Kudos",
  "abi": [
    {
      "constant": true,
      "inputs": [],
      "name": "kudosToken",
      "outputs": [
        {
          "name": "",
          "type": "address"
        }
      ],
      "payable": false,
      "stateMutability": "view",
      "type": "function"
    },
    {
      "constant": false,
      "inputs": [
        {
          "name": "_numberOfRewardSteps",
          "type": "uint256"
        },
        {
          "name": "_numberOfRewardCyclesForLevel",
          "type": "uint256[]"
        },
        {
          "name": "_numberOfRewardLevels",
          "type": "uint256"
        },
        {
          "name": "_levelRewards",
          "type": "uint256[]"
        },
        {
          "name": "_ipfsHash",
          "type": "bytes32"
        }
      ],
      "name": "registerGrowthPoolRewardSystem",
      "outputs": [],
      "payable": false,
      "stateMutability": "nonpayable",
      "type": "function"
    },
    {
      "constant": true,
      "inputs": [
        {
          "name": "",
          "type": "address"
        },
        {
          "name": "",
          "type": "address"
        }
      ],
      "name": "businessHasApprovedWorker",
      "outputs": [
        {
          "name": "",
          "type": "bool"
        }
      ],
      "payable": false,
      "stateMutability": "view",
      "type": "function"
    },
    {
      "constant": false,
      "inputs": [
        {
          "name": "_userAddress",
          "type": "address"
        },
        {
          "name": "_workerAddress",
          "type": "address"
        },
        {
          "name": "_businessAddress",
          "type": "address"
        },
        {
          "name": "_workerRating",
          "type": "uint256"
        },
        {
          "name": "_businessRating",
          "type": "uint256"
        },
        {
          "name": "_ipfsHash",
          "type": "bytes32"
        }
      ],
      "name": "rateExperience",
      "outputs": [],
      "payable": false,
      "stateMutability": "nonpayable",
      "type": "function"
    },
    {
      "constant": true,
      "inputs": [
        {
          "name": "",
          "type": "address"
        },
        {
          "name": "",
          "type": "address"
        }
      ],
      "name": "numberOfWorkerRatings",
      "outputs": [
        {
          "name": "",
          "type": "uint256"
        }
      ],
      "payable": false,
      "stateMutability": "view",
      "type": "function"
    },
    {
      "constant": true,
      "inputs": [
        {
          "name": "_workerAddress",
          "type": "address"
        },
        {
          "name": "_businessAddress",
          "type": "address"
        }
      ],
      "name": "getWorkerRewardRank",
      "outputs": [
        {
          "name": "_rewardRank",
          "type": "uint256"
        }
      ],
      "payable": false,
      "stateMutability": "view",
      "type": "function"
    },
    {
      "constant": true,
      "inputs": [
        {
          "name": "",
          "type": "address"
        },
        {
          "name": "",
          "type": "uint256"
        }
      ],
      "name": "businessList",
      "outputs": [
        {
          "name": "",
          "type": "address"
        }
      ],
      "payable": false,
      "stateMutability": "view",
      "type": "function"
    },
    {
      "constant": true,
      "inputs": [
        {
          "name": "",
          "type": "address"
        }
      ],
      "name": "isBusiness",
      "outputs": [
        {
          "name": "",
          "type": "bool"
        }
      ],
      "payable": false,
      "stateMutability": "view",
      "type": "function"
    },
    {
      "constant": true,
      "inputs": [
        {
          "name": "_address",
          "type": "address"
        }
      ],
      "name": "getGrowthPoolRewardRank",
      "outputs": [
        {
          "name": "_rewardRank",
          "type": "uint256"
        }
      ],
      "payable": false,
      "stateMutability": "view",
      "type": "function"
    },
    {
      "constant": true,
      "inputs": [
        {
          "name": "_businessAddress",
          "type": "address"
        }
      ],
      "name": "getUserRewardSystem",
      "outputs": [
        {
          "name": "_numberOfRewardSteps",
          "type": "uint256"
        },
        {
          "name": "_numberOfRewardCyclesForLevel",
          "type": "uint256[]"
        },
        {
          "name": "_numberOfRewardLevels",
          "type": "uint256"
        },
        {
          "name": "_levelRewards",
          "type": "uint256[]"
        },
        {
          "name": "_ipfsHash",
          "type": "bytes32"
        }
      ],
      "payable": false,
      "stateMutability": "view",
      "type": "function"
    },
    {
      "constant": true,
      "inputs": [],
      "name": "growthPoolRewardSystem",
      "outputs": [
        {
          "name": "numberOfRewardSteps",
          "type": "uint256"
        },
        {
          "name": "numberOfRewardLevels",
          "type": "uint256"
        },
        {
          "name": "ipfsHash",
          "type": "bytes32"
        }
      ],
      "payable": false,
      "stateMutability": "view",
      "type": "function"
    },
    {
      "constant": false,
      "inputs": [
        {
          "name": "_workerAddress",
          "type": "address"
        },
        {
          "name": "_ipfsHash",
          "type": "bytes32"
        }
      ],
      "name": "updateWorkerProfile",
      "outputs": [],
      "payable": false,
      "stateMutability": "nonpayable",
      "type": "function"
    },
    {
      "constant": true,
      "inputs": [
        {
          "name": "_workerAddress",
          "type": "address"
        },
        {
          "name": "_businessAddress",
          "type": "address"
        }
      ],
      "name": "getWorkerRewardCycle",
      "outputs": [
        {
          "name": "_rewardCycle",
          "type": "uint256"
        }
      ],
      "payable": false,
      "stateMutability": "view",
      "type": "function"
    },
    {
      "constant": true,
      "inputs": [
        {
          "name": "",
          "type": "address"
        },
        {
          "name": "",
          "type": "address"
        }
      ],
      "name": "workerAverageRating",
      "outputs": [
        {
          "name": "",
          "type": "uint256"
        }
      ],
      "payable": false,
      "stateMutability": "view",
      "type": "function"
    },
    {
      "constant": true,
      "inputs": [
        {
          "name": "businessAddress",
          "type": "address"
        }
      ],
      "name": "getNumberOfWorkers",
      "outputs": [
        {
          "name": "count",
          "type": "uint256"
        }
      ],
      "payable": false,
      "stateMutability": "view",
      "type": "function"
    },
    {
      "constant": false,
      "inputs": [
        {
          "name": "_userAddress",
          "type": "address"
        },
        {
          "name": "_ipfsHash",
          "type": "bytes32"
        }
      ],
      "name": "updateUserProfile",
      "outputs": [],
      "payable": false,
      "stateMutability": "nonpayable",
      "type": "function"
    },
    {
      "constant": false,
      "inputs": [
        {
          "name": "_workerAddress",
          "type": "address"
        },
        {
          "name": "_businessAddress",
          "type": "address"
        }
      ],
      "name": "addWorker",
      "outputs": [],
      "payable": false,
      "stateMutability": "nonpayable",
      "type": "function"
    },
    {
      "constant": true,
      "inputs": [
        {
          "name": "_userAddress",
          "type": "address"
        },
        {
          "name": "_businessAddress",
          "type": "address"
        }
      ],
      "name": "getUserRewardRank",
      "outputs": [
        {
          "name": "_rewardRank",
          "type": "uint256"
        }
      ],
      "payable": false,
      "stateMutability": "view",
      "type": "function"
    },
    {
      "constant": true,
      "inputs": [
        {
          "name": "",
          "type": "address"
        }
      ],
      "name": "isUser",
      "outputs": [
        {
          "name": "",
          "type": "bool"
        }
      ],
      "payable": false,
      "stateMutability": "view",
      "type": "function"
    },
    {
      "constant": true,
      "inputs": [
        {
          "name": "_businessAddress",
          "type": "address"
        },
        {
          "name": "_index",
          "type": "uint256"
        }
      ],
      "name": "getEmployeeAddress",
      "outputs": [
        {
          "name": "",
          "type": "address"
        }
      ],
      "payable": false,
      "stateMutability": "view",
      "type": "function"
    },
    {
      "constant": false,
      "inputs": [
        {
          "name": "_businessAddress",
          "type": "address"
        },
        {
          "name": "_numberOfRewardSteps",
          "type": "uint256"
        },
        {
          "name": "_numberOfRewardCyclesForLevel",
          "type": "uint256[]"
        },
        {
          "name": "_numberOfRewardLevels",
          "type": "uint256"
        },
        {
          "name": "_levelRewards",
          "type": "uint256[]"
        },
        {
          "name": "_ipfsHash",
          "type": "bytes32"
        }
      ],
      "name": "registerUserRewardSystem",
      "outputs": [],
      "payable": false,
      "stateMutability": "nonpayable",
      "type": "function"
    },
    {
      "constant": true,
      "inputs": [
        {
          "name": "",
          "type": "address"
        },
        {
          "name": "",
          "type": "uint256"
        }
      ],
      "name": "ratingRewardPercentages",
      "outputs": [
        {
          "name": "",
          "type": "uint256"
        }
      ],
      "payable": false,
      "stateMutability": "view",
      "type": "function"
    },
    {
      "constant": true,
      "inputs": [
        {
          "name": "_userAddress",
          "type": "address"
        },
        {
          "name": "_businessAddress",
          "type": "address"
        }
      ],
      "name": "getUserRewardCycle",
      "outputs": [
        {
          "name": "_rewardCycle",
          "type": "uint256"
        }
      ],
      "payable": false,
      "stateMutability": "view",
      "type": "function"
    },
    {
      "constant": true,
      "inputs": [
        {
          "name": "",
          "type": "address"
        }
      ],
      "name": "kudosTokensRemainingForBusiness",
      "outputs": [
        {
          "name": "",
          "type": "uint256"
        }
      ],
      "payable": false,
      "stateMutability": "view",
      "type": "function"
    },
    {
      "constant": false,
      "inputs": [
        {
          "name": "_workerAddress",
          "type": "address"
        },
        {
          "name": "_businessAddress",
          "type": "address"
        }
      ],
      "name": "addBusiness",
      "outputs": [],
      "payable": false,
      "stateMutability": "nonpayable",
      "type": "function"
    },
    {
      "constant": true,
      "inputs": [
        {
          "name": "",
          "type": "address"
        }
      ],
      "name": "userRewardSystem",
      "outputs": [
        {
          "name": "numberOfRewardSteps",
          "type": "uint256"
        },
        {
          "name": "numberOfRewardLevels",
          "type": "uint256"
        },
        {
          "name": "ipfsHash",
          "type": "bytes32"
        }
      ],
      "payable": false,
      "stateMutability": "view",
      "type": "function"
    },
    {
      "constant": false,
      "inputs": [],
      "name": "renounceOwnership",
      "outputs": [],
      "payable": false,
      "stateMutability": "nonpayable",
      "type": "function"
    },
    {
      "constant": true,
      "inputs": [
        {
          "name": "_userAddress",
          "type": "address"
        },
        {
          "name": "_businessAddress",
          "type": "address"
        }
      ],
      "name": "getUserRewardLevel",
      "outputs": [
        {
          "name": "_rewardLevel",
          "type": "uint256"
        }
      ],
      "payable": false,
      "stateMutability": "view",
      "type": "function"
    },
    {
      "constant": true,
      "inputs": [
        {
          "name": "_businessAddress",
          "type": "address"
        }
      ],
      "name": "getWorkerRewardSystem",
      "outputs": [
        {
          "name": "_numberOfRewardSteps",
          "type": "uint256"
        },
        {
          "name": "_numberOfRewardCyclesForLevel",
          "type": "uint256[]"
        },
        {
          "name": "_numberOfRewardLevels",
          "type": "uint256"
        },
        {
          "name": "_levelRewards",
          "type": "uint256[]"
        },
        {
          "name": "_ipfsHash",
          "type": "bytes32"
        }
      ],
      "payable": false,
      "stateMutability": "view",
      "type": "function"
    },
    {
      "constant": true,
      "inputs": [
        {
          "name": "",
          "type": "address"
        },
        {
          "name": "",
          "type": "address"
        }
      ],
      "name": "isEmployed",
      "outputs": [
        {
          "name": "",
          "type": "bool"
        }
      ],
      "payable": false,
      "stateMutability": "view",
      "type": "function"
    },
    {
      "constant": true,
      "inputs": [
        {
          "name": "",
          "type": "address"
        }
      ],
      "name": "workerRewardSystem",
      "outputs": [
        {
          "name": "numberOfRewardSteps",
          "type": "uint256"
        },
        {
          "name": "numberOfRewardLevels",
          "type": "uint256"
        },
        {
          "name": "ipfsHash",
          "type": "bytes32"
        }
      ],
      "payable": false,
      "stateMutability": "view",
      "type": "function"
    },
    {
      "constant": true,
      "inputs": [],
      "name": "owner",
      "outputs": [
        {
          "name": "",
          "type": "address"
        }
      ],
      "payable": false,
      "stateMutability": "view",
      "type": "function"
    },
    {
      "constant": false,
      "inputs": [
        {
          "name": "_userAddress",
          "type": "address"
        },
        {
          "name": "_workerAddress",
          "type": "address"
        },
        {
          "name": "_businessAddress",
          "type": "address"
        },
        {
          "name": "_userRating",
          "type": "uint256"
        },
        {
          "name": "_ipfsHash",
          "type": "bytes32"
        }
      ],
      "name": "rateUser",
      "outputs": [],
      "payable": false,
      "stateMutability": "nonpayable",
      "type": "function"
    },
    {
      "constant": true,
      "inputs": [
        {
          "name": "_businessAddress",
          "type": "address"
        }
      ],
      "name": "numberOfEmployees",
      "outputs": [
        {
          "name": "",
          "type": "uint256"
        }
      ],
      "payable": false,
      "stateMutability": "view",
      "type": "function"
    },
    {
      "constant": true,
      "inputs": [
        {
          "name": "",
          "type": "address"
        }
      ],
      "name": "numberOfBusinessRatings",
      "outputs": [
        {
          "name": "",
          "type": "uint256"
        }
      ],
      "payable": false,
      "stateMutability": "view",
      "type": "function"
    },
    {
      "constant": true,
      "inputs": [
        {
          "name": "_address",
          "type": "address"
        }
      ],
      "name": "getGrowthPoolRewardLevel",
      "outputs": [
        {
          "name": "_rewardLevel",
          "type": "uint256"
        }
      ],
      "payable": false,
      "stateMutability": "view",
      "type": "function"
    },
    {
      "constant": true,
      "inputs": [
        {
          "name": "_workerAddress",
          "type": "address"
        },
        {
          "name": "_businessAddress",
          "type": "address"
        }
      ],
      "name": "getWorkerRewardLevel",
      "outputs": [
        {
          "name": "_rewardLevel",
          "type": "uint256"
        }
      ],
      "payable": false,
      "stateMutability": "view",
      "type": "function"
    },
    {
      "constant": true,
      "inputs": [
        {
          "name": "",
          "type": "address"
        }
      ],
      "name": "isWorker",
      "outputs": [
        {
          "name": "",
          "type": "bool"
        }
      ],
      "payable": false,
      "stateMutability": "view",
      "type": "function"
    },
    {
      "constant": false,
      "inputs": [
        {
          "name": "_workerAddress",
          "type": "address"
        },
        {
          "name": "_ipfsHash",
          "type": "bytes32"
        }
      ],
      "name": "registerAsWorker",
      "outputs": [],
      "payable": false,
      "stateMutability": "nonpayable",
      "type": "function"
    },
    {
      "constant": true,
      "inputs": [],
      "name": "getGrowthPoolRewardSystem",
      "outputs": [
        {
          "name": "_numberOfRewardSteps",
          "type": "uint256"
        },
        {
          "name": "_numberOfRewardCyclesForLevel",
          "type": "uint256[]"
        },
        {
          "name": "_numberOfRewardLevels",
          "type": "uint256"
        },
        {
          "name": "_levelRewards",
          "type": "uint256[]"
        },
        {
          "name": "_ipfsHash",
          "type": "bytes32"
        }
      ],
      "payable": false,
      "stateMutability": "view",
      "type": "function"
    },
    {
      "constant": false,
      "inputs": [
        {
          "name": "_businessAddress",
          "type": "address"
        },
        {
          "name": "_numberOfRewardSteps",
          "type": "uint256"
        },
        {
          "name": "_numberOfRewardCyclesForLevel",
          "type": "uint256[]"
        },
        {
          "name": "_numberOfRewardLevels",
          "type": "uint256"
        },
        {
          "name": "_levelRewards",
          "type": "uint256[]"
        },
        {
          "name": "_ipfsHash",
          "type": "bytes32"
        }
      ],
      "name": "registerWorkerRewardSystem",
      "outputs": [],
      "payable": false,
      "stateMutability": "nonpayable",
      "type": "function"
    },
    {
      "constant": true,
      "inputs": [
        {
          "name": "",
          "type": "address"
        }
      ],
      "name": "numberOfUserRatings",
      "outputs": [
        {
          "name": "",
          "type": "uint256"
        }
      ],
      "payable": false,
      "stateMutability": "view",
      "type": "function"
    },
    {
      "constant": true,
      "inputs": [
        {
          "name": "_address",
          "type": "address"
        }
      ],
      "name": "getGrowthPoolRewardStep",
      "outputs": [
        {
          "name": "_rewardStep",
          "type": "uint256"
        }
      ],
      "payable": false,
      "stateMutability": "view",
      "type": "function"
    },
    {
      "constant": false,
      "inputs": [
        {
          "name": "businesses",
          "type": "address[]"
        }
      ],
      "name": "addBusinessesToGrowthPoolRewardsSystem",
      "outputs": [],
      "payable": false,
      "stateMutability": "nonpayable",
      "type": "function"
    },
    {
      "constant": false,
      "inputs": [
        {
          "name": "businesses",
          "type": "address[]"
        }
      ],
      "name": "removeBusinessesFromGrowthPoolRewardsSystem",
      "outputs": [],
      "payable": false,
      "stateMutability": "nonpayable",
      "type": "function"
    },
    {
      "constant": true,
      "inputs": [
        {
          "name": "",
          "type": "address"
        },
        {
          "name": "",
          "type": "address"
        }
      ],
      "name": "workerHasApprovedBusiness",
      "outputs": [
        {
          "name": "",
          "type": "bool"
        }
      ],
      "payable": false,
      "stateMutability": "view",
      "type": "function"
    },
    {
      "constant": true,
      "inputs": [
        {
          "name": "",
          "type": "address"
        }
      ],
      "name": "growthPoolBusiness",
      "outputs": [
        {
          "name": "",
          "type": "bool"
        }
      ],
      "payable": false,
      "stateMutability": "view",
      "type": "function"
    },
    {
      "constant": true,
      "inputs": [
        {
          "name": "",
          "type": "address"
        }
      ],
      "name": "businessAverageRating",
      "outputs": [
        {
          "name": "",
          "type": "uint256"
        }
      ],
      "payable": false,
      "stateMutability": "view",
      "type": "function"
    },
    {
      "constant": false,
      "inputs": [
        {
          "name": "_businessAddress",
          "type": "address"
        },
        {
          "name": "_ipfsHash",
          "type": "bytes32"
        }
      ],
      "name": "updateBusinessProfile",
      "outputs": [],
      "payable": false,
      "stateMutability": "nonpayable",
      "type": "function"
    },
    {
      "constant": false,
      "inputs": [
        {
          "name": "_newOwner",
          "type": "address"
        }
      ],
      "name": "transferOwnership",
      "outputs": [],
      "payable": false,
      "stateMutability": "nonpayable",
      "type": "function"
    },
    {
      "constant": true,
      "inputs": [
        {
          "name": "_userAddress",
          "type": "address"
        },
        {
          "name": "_businessAddress",
          "type": "address"
        }
      ],
      "name": "getUserRewardStep",
      "outputs": [
        {
          "name": "_rewardStep",
          "type": "uint256"
        }
      ],
      "payable": false,
      "stateMutability": "view",
      "type": "function"
    },
    {
      "constant": true,
      "inputs": [
        {
          "name": "_address",
          "type": "address"
        }
      ],
      "name": "getGrowthPoolRewardCycle",
      "outputs": [
        {
          "name": "_rewardCycle",
          "type": "uint256"
        }
      ],
      "payable": false,
      "stateMutability": "view",
      "type": "function"
    },
    {
      "constant": true,
      "inputs": [
        {
          "name": "",
          "type": "address"
        },
        {
          "name": "",
          "type": "uint256"
        }
      ],
      "name": "workerList",
      "outputs": [
        {
          "name": "",
          "type": "address"
        }
      ],
      "payable": false,
      "stateMutability": "view",
      "type": "function"
    },
    {
      "constant": true,
      "inputs": [
        {
          "name": "_workerAddress",
          "type": "address"
        },
        {
          "name": "_businessAddress",
          "type": "address"
        }
      ],
      "name": "getWorkerRewardStep",
      "outputs": [
        {
          "name": "_rewardStep",
          "type": "uint256"
        }
      ],
      "payable": false,
      "stateMutability": "view",
      "type": "function"
    },
    {
      "constant": false,
      "inputs": [
        {
          "name": "_businessAddress",
          "type": "address"
        },
        {
          "name": "_ipfsHash",
          "type": "bytes32"
        }
      ],
      "name": "registerAsBusiness",
      "outputs": [],
      "payable": false,
      "stateMutability": "nonpayable",
      "type": "function"
    },
    {
      "constant": false,
      "inputs": [
        {
          "name": "_userAddress",
          "type": "address"
        },
        {
          "name": "_ipfsHash",
          "type": "bytes32"
        }
      ],
      "name": "registerAsUser",
      "outputs": [],
      "payable": false,
      "stateMutability": "nonpayable",
      "type": "function"
    },
    {
      "constant": true,
      "inputs": [
        {
          "name": "",
          "type": "address"
        }
      ],
      "name": "userAverageRating",
      "outputs": [
        {
          "name": "",
          "type": "uint256"
        }
      ],
      "payable": false,
      "stateMutability": "view",
      "type": "function"
    },
    {
      "inputs": [
        {
          "name": "_tokenContractAddress",
          "type": "address"
        }
      ],
      "payable": false,
      "stateMutability": "nonpayable",
      "type": "constructor"
    },
    {
      "anonymous": false,
      "inputs": [
        {
          "indexed": true,
          "name": "_userAddress",
          "type": "address"
        },
        {
          "indexed": true,
          "name": "_workerAddress",
          "type": "address"
        },
        {
          "indexed": true,
          "name": "_businessAddress",
          "type": "address"
        },
        {
          "indexed": false,
          "name": "_workerRating",
          "type": "uint256"
        },
        {
          "indexed": false,
          "name": "_businessRating",
          "type": "uint256"
        },
        {
          "indexed": false,
          "name": "_ipfsHash",
          "type": "bytes32"
        }
      ],
      "name": "KudosExperience",
      "type": "event"
    },
    {
      "anonymous": false,
      "inputs": [],
      "name": "RegisterGrowthPoolRewardSystem",
      "type": "event"
    },
    {
      "anonymous": false,
      "inputs": [
        {
          "indexed": true,
          "name": "_userAddress",
          "type": "address"
        },
        {
          "indexed": false,
          "name": "_rewardValue",
          "type": "uint256"
        }
      ],
      "name": "GrowthPoolRewardForUser",
      "type": "event"
    },
    {
      "anonymous": false,
      "inputs": [
        {
          "indexed": true,
          "name": "_workerAddress",
          "type": "address"
        },
        {
          "indexed": false,
          "name": "_rewardValue",
          "type": "uint256"
        }
      ],
      "name": "GrowthPoolRewardForWorker",
      "type": "event"
    },
    {
      "anonymous": false,
      "inputs": [
        {
          "indexed": true,
          "name": "_businessAddress",
          "type": "address"
        },
        {
          "indexed": false,
          "name": "_rewardValue",
          "type": "uint256"
        }
      ],
      "name": "GrowthPoolRewardForBusiness",
      "type": "event"
    },
    {
      "anonymous": false,
      "inputs": [
        {
          "indexed": true,
          "name": "_businessAddress",
          "type": "address"
        }
      ],
      "name": "RegisterWorkerRewardSystem",
      "type": "event"
    },
    {
      "anonymous": false,
      "inputs": [
        {
          "indexed": true,
          "name": "_workerAddress",
          "type": "address"
        },
        {
          "indexed": true,
          "name": "_businessAddress",
          "type": "address"
        },
        {
          "indexed": false,
          "name": "_rewardValue",
          "type": "uint256"
        }
      ],
      "name": "PerformanceReward",
      "type": "event"
    },
    {
      "anonymous": false,
      "inputs": [
        {
          "indexed": true,
          "name": "_businessAddress",
          "type": "address"
        }
      ],
      "name": "RegisterUserRewardSystem",
      "type": "event"
    },
    {
      "anonymous": false,
      "inputs": [
        {
          "indexed": true,
          "name": "_userAddress",
          "type": "address"
        },
        {
          "indexed": true,
          "name": "_businessAddress",
          "type": "address"
        },
        {
          "indexed": false,
          "name": "_rewardValue",
          "type": "uint256"
        }
      ],
      "name": "LoyaltyReward",
      "type": "event"
    },
    {
      "anonymous": false,
      "inputs": [
        {
          "indexed": false,
          "name": "_id",
          "type": "string"
        },
        {
          "indexed": false,
          "name": "_arg",
          "type": "uint256"
        }
      ],
      "name": "Debug",
      "type": "event"
    },
    {
      "anonymous": false,
      "inputs": [
        {
          "indexed": true,
          "name": "previousOwner",
          "type": "address"
        }
      ],
      "name": "OwnershipRenounced",
      "type": "event"
    },
    {
      "anonymous": false,
      "inputs": [
        {
          "indexed": true,
          "name": "previousOwner",
          "type": "address"
        },
        {
          "indexed": true,
          "name": "newOwner",
          "type": "address"
        }
      ],
      "name": "OwnershipTransferred",
      "type": "event"
    },
    {
      "anonymous": false,
      "inputs": [
        {
          "indexed": true,
          "name": "_businessAddress",
          "type": "address"
        },
        {
          "indexed": false,
          "name": "_ipfsHash",
          "type": "bytes32"
        }
      ],
      "name": "BusinessProfileUpdated",
      "type": "event"
    },
    {
      "anonymous": false,
      "inputs": [
        {
          "indexed": true,
          "name": "_businessAddress",
          "type": "address"
        },
        {
          "indexed": true,
          "name": "_workerAddress",
          "type": "address"
        }
      ],
      "name": "BusinessHasApprovedWorker",
      "type": "event"
    },
    {
      "anonymous": false,
      "inputs": [
        {
          "indexed": true,
          "name": "_workerAddress",
          "type": "address"
        },
        {
          "indexed": false,
          "name": "_ipfsHash",
          "type": "bytes32"
        }
      ],
      "name": "WorkerProfileUpdated",
      "type": "event"
    },
    {
      "anonymous": false,
      "inputs": [
        {
          "indexed": true,
          "name": "_workerAddress",
          "type": "address"
        },
        {
          "indexed": true,
          "name": "_businessAddress",
          "type": "address"
        }
      ],
      "name": "WorkerHasApprovedBusiness",
      "type": "event"
    },
    {
      "anonymous": false,
      "inputs": [
        {
          "indexed": true,
          "name": "_userAddress",
          "type": "address"
        },
        {
          "indexed": true,
          "name": "_workerAddress",
          "type": "address"
        },
        {
          "indexed": true,
          "name": "_businessAddress",
          "type": "address"
        },
        {
          "indexed": false,
          "name": "_userRating",
          "type": "uint256"
        },
        {
          "indexed": false,
          "name": "_ipfsHash",
          "type": "bytes32"
        }
      ],
      "name": "UserRating",
      "type": "event"
    },
    {
      "anonymous": false,
      "inputs": [
        {
          "indexed": true,
          "name": "_userAddress",
          "type": "address"
        },
        {
          "indexed": false,
          "name": "_ipfsHash",
          "type": "bytes32"
        }
      ],
      "name": "UserProfileUpdated",
      "type": "event"
    }
  ],
  "bytecode": "0x608060405234801561001057600080fd5b506040516020806154c88339810180604052810190808051906020019092919050505033600f60006101000a81548173ffffffffffffffffffffffffffffffffffffffff021916908373ffffffffffffffffffffffffffffffffffffffff16021790555080601060006101000a81548173ffffffffffffffffffffffffffffffffffffffff021916908373ffffffffffffffffffffffffffffffffffffffff16021790555050615403806100c56000396000f3006080604052600436106102a9576000357c0100000000000000000000000000000000000000000000000000000000900463ffffffff168063016dd6ff146102ae57806303d7c87d14610305578063067a0949146103d05780630874b9931461044b5780630e2be266146104f05780631241f47814610567578063130ee376146105de5780631466d0191461066b57806319268566146106c6578063193ad4e71461071d5780631c9469521461081a57806323d954dd1461085b578063261d22f0146108ac5780632f64550a146109235780632fccafb51461099a5780633469a4e3146109f15780633bf0cbf414610a425780634038faed14610aa55780634209fff114610b1c5780634341d99b14610b7757806347d2bc7014610c045780634f0b590414610cef57806351fa2f3a14610d5057806357d1ed0e14610dc7578063603fe1f814610e1e5780636885295714610e81578063715018a614610eee57806371ee525b14610f0557806378939f9d14610f7c5780637b1d0c83146110795780638b3504f2146110f45780638da5cb5b146111615780638ec66613146111b857806392ee014b146112535780639708c61f146112aa578063a0a6b77114611301578063a7ce1cff14611358578063aa156645146113cf578063abd4e7ad1461142a578063b0106aa31461147b578063b06af56b1461154c578063b265c33d14611637578063c304c93b1461168e578063d656790f146116e5578063d8fb8c1f14611720578063e33637931461175b578063e5d87e76146117d6578063ec5df15a14611831578063eec45cb514611888578063f2fde38b146118d9578063f31c70341461191c578063f776757b14611993578063f9011888146119ea578063fc47627214611a77578063fe71510314611aee578063ff5e16a714611b3f578063ffb3379314611b90575b600080fd5b3480156102ba57600080fd5b506102c3611be7565b604051808273ffffffffffffffffffffffffffffffffffffffff1673ffffffffffffffffffffffffffffffffffffffff16815260200191505060405180910390f35b34801561031157600080fd5b506103ce600480360381019080803590602001909291908035906020019082018035906020019080806020026020016040519081016040528093929190818152602001838360200280828437820191505050505050919291929080359060200190929190803590602001908201803590602001908080602002602001604051908101604052809392919081815260200183836020028082843782019150505050505091929192908035600019169060200190929190505050611c0d565b005b3480156103dc57600080fd5b50610431600480360381019080803573ffffffffffffffffffffffffffffffffffffffff169060200190929190803573ffffffffffffffffffffffffffffffffffffffff169060200190929190505050611d2b565b604051808215151515815260200191505060405180910390f35b34801561045757600080fd5b506104ee600480360381019080803573ffffffffffffffffffffffffffffffffffffffff169060200190929190803573ffffffffffffffffffffffffffffffffffffffff169060200190929190803573ffffffffffffffffffffffffffffffffffffffff16906020019092919080359060200190929190803590602001909291908035600019169060200190929190505050611d5a565b005b3480156104fc57600080fd5b50610551600480360381019080803573ffffffffffffffffffffffffffffffffffffffff169060200190929190803573ffffffffffffffffffffffffffffffffffffffff169060200190929190505050611f43565b6040518082815260200191505060405180910390f35b34801561057357600080fd5b506105c8600480360381019080803573ffffffffffffffffffffffffffffffffffffffff169060200190929190803573ffffffffffffffffffffffffffffffffffffffff169060200190929190505050611f68565b6040518082815260200191505060405180910390f35b3480156105ea57600080fd5b50610629600480360381019080803573ffffffffffffffffffffffffffffffffffffffff16906020019092919080359060200190929190505050611ff7565b604051808273ffffffffffffffffffffffffffffffffffffffff1673ffffffffffffffffffffffffffffffffffffffff16815260200191505060405180910390f35b34801561067757600080fd5b506106ac600480360381019080803573ffffffffffffffffffffffffffffffffffffffff169060200190929190505050612044565b604051808215151515815260200191505060405180910390f35b3480156106d257600080fd5b50610707600480360381019080803573ffffffffffffffffffffffffffffffffffffffff169060200190929190505050612064565b6040518082815260200191505060405180910390f35b34801561072957600080fd5b5061075e600480360381019080803573ffffffffffffffffffffffffffffffffffffffff1690602001909291905050506120b0565b6040518086815260200180602001858152602001806020018460001916600019168152602001838103835287818151815260200191508051906020019060200280838360005b838110156107bf5780820151818401526020810190506107a4565b50505050905001838103825285818151815260200191508051906020019060200280838360005b838110156108015780820151818401526020810190506107e6565b5050505090500197505050505050505060405180910390f35b34801561082657600080fd5b5061082f612212565b604051808481526020018381526020018260001916600019168152602001935050505060405180910390f35b34801561086757600080fd5b506108aa600480360381019080803573ffffffffffffffffffffffffffffffffffffffff169060200190929190803560001916906020019092919050505061222a565b005b3480156108b857600080fd5b5061090d600480360381019080803573ffffffffffffffffffffffffffffffffffffffff169060200190929190803573ffffffffffffffffffffffffffffffffffffffff169060200190929190505050612284565b6040518082815260200191505060405180910390f35b34801561092f57600080fd5b50610984600480360381019080803573ffffffffffffffffffffffffffffffffffffffff169060200190929190803573ffffffffffffffffffffffffffffffffffffffff169060200190929190505050612313565b6040518082815260200191505060405180910390f35b3480156109a657600080fd5b506109db600480360381019080803573ffffffffffffffffffffffffffffffffffffffff169060200190929190505050612338565b6040518082815260200191505060405180910390f35b3480156109fd57600080fd5b50610a40600480360381019080803573ffffffffffffffffffffffffffffffffffffffff1690602001909291908035600019169060200190929190505050612384565b005b348015610a4e57600080fd5b50610aa3600480360381019080803573ffffffffffffffffffffffffffffffffffffffff169060200190929190803573ffffffffffffffffffffffffffffffffffffffff1690602001909291905050506123de565b005b348015610ab157600080fd5b50610b06600480360381019080803573ffffffffffffffffffffffffffffffffffffffff169060200190929190803573ffffffffffffffffffffffffffffffffffffffff169060200190929190505050612783565b6040518082815260200191505060405180910390f35b348015610b2857600080fd5b50610b5d600480360381019080803573ffffffffffffffffffffffffffffffffffffffff169060200190929190505050612812565b604051808215151515815260200191505060405180910390f35b348015610b8357600080fd5b50610bc2600480360381019080803573ffffffffffffffffffffffffffffffffffffffff16906020019092919080359060200190929190505050612832565b604051808273ffffffffffffffffffffffffffffffffffffffff1673ffffffffffffffffffffffffffffffffffffffff16815260200191505060405180910390f35b348015610c1057600080fd5b50610ced600480360381019080803573ffffffffffffffffffffffffffffffffffffffff1690602001909291908035906020019092919080359060200190820180359060200190808060200260200160405190810160405280939291908181526020018383602002808284378201915050505050509192919290803590602001909291908035906020019082018035906020019080806020026020016040519081016040528093929190818152602001838360200280828437820191505050505050919291929080356000191690602001909291905050506128b3565b005b348015610cfb57600080fd5b50610d3a600480360381019080803573ffffffffffffffffffffffffffffffffffffffff169060200190929190803590602001909291905050506129ca565b6040518082815260200191505060405180910390f35b348015610d5c57600080fd5b50610db1600480360381019080803573ffffffffffffffffffffffffffffffffffffffff169060200190929190803573ffffffffffffffffffffffffffffffffffffffff1690602001909291905050506129f1565b6040518082815260200191505060405180910390f35b348015610dd357600080fd5b50610e08600480360381019080803573ffffffffffffffffffffffffffffffffffffffff169060200190929190505050612a80565b6040518082815260200191505060405180910390f35b348015610e2a57600080fd5b50610e7f600480360381019080803573ffffffffffffffffffffffffffffffffffffffff169060200190929190803573ffffffffffffffffffffffffffffffffffffffff169060200190929190505050612a98565b005b348015610e8d57600080fd5b50610ec2600480360381019080803573ffffffffffffffffffffffffffffffffffffffff169060200190929190505050612de6565b604051808481526020018381526020018260001916600019168152602001935050505060405180910390f35b348015610efa57600080fd5b50610f03612e10565b005b348015610f1157600080fd5b50610f66600480360381019080803573ffffffffffffffffffffffffffffffffffffffff169060200190929190803573ffffffffffffffffffffffffffffffffffffffff169060200190929190505050612f15565b6040518082815260200191505060405180910390f35b348015610f8857600080fd5b50610fbd600480360381019080803573ffffffffffffffffffffffffffffffffffffffff169060200190929190505050612fa4565b6040518086815260200180602001858152602001806020018460001916600019168152602001838103835287818151815260200191508051906020019060200280838360005b8381101561101e578082015181840152602081019050611003565b50505050905001838103825285818151815260200191508051906020019060200280838360005b83811015611060578082015181840152602081019050611045565b5050505090500197505050505050505060405180910390f35b34801561108557600080fd5b506110da600480360381019080803573ffffffffffffffffffffffffffffffffffffffff169060200190929190803573ffffffffffffffffffffffffffffffffffffffff169060200190929190505050613106565b604051808215151515815260200191505060405180910390f35b34801561110057600080fd5b50611135600480360381019080803573ffffffffffffffffffffffffffffffffffffffff169060200190929190505050613135565b604051808481526020018381526020018260001916600019168152602001935050505060405180910390f35b34801561116d57600080fd5b5061117661315f565b604051808273ffffffffffffffffffffffffffffffffffffffff1673ffffffffffffffffffffffffffffffffffffffff16815260200191505060405180910390f35b3480156111c457600080fd5b50611251600480360381019080803573ffffffffffffffffffffffffffffffffffffffff169060200190929190803573ffffffffffffffffffffffffffffffffffffffff169060200190929190803573ffffffffffffffffffffffffffffffffffffffff169060200190929190803590602001909291908035600019169060200190929190505050613185565b005b34801561125f57600080fd5b50611294600480360381019080803573ffffffffffffffffffffffffffffffffffffffff169060200190929190505050613335565b6040518082815260200191505060405180910390f35b3480156112b657600080fd5b506112eb600480360381019080803573ffffffffffffffffffffffffffffffffffffffff169060200190929190505050613381565b6040518082815260200191505060405180910390f35b34801561130d57600080fd5b50611342600480360381019080803573ffffffffffffffffffffffffffffffffffffffff169060200190929190505050613399565b6040518082815260200191505060405180910390f35b34801561136457600080fd5b506113b9600480360381019080803573ffffffffffffffffffffffffffffffffffffffff169060200190929190803573ffffffffffffffffffffffffffffffffffffffff1690602001909291905050506133e5565b6040518082815260200191505060405180910390f35b3480156113db57600080fd5b50611410600480360381019080803573ffffffffffffffffffffffffffffffffffffffff169060200190929190505050613474565b604051808215151515815260200191505060405180910390f35b34801561143657600080fd5b50611479600480360381019080803573ffffffffffffffffffffffffffffffffffffffff1690602001909291908035600019169060200190929190505050613494565b005b34801561148757600080fd5b506114906135a5565b6040518086815260200180602001858152602001806020018460001916600019168152602001838103835287818151815260200191508051906020019060200280838360005b838110156114f15780820151818401526020810190506114d6565b50505050905001838103825285818151815260200191508051906020019060200280838360005b83811015611533578082015181840152602081019050611518565b5050505090500197505050505050505060405180910390f35b34801561155857600080fd5b50611635600480360381019080803573ffffffffffffffffffffffffffffffffffffffff16906020019092919080359060200190929190803590602001908201803590602001908080602002602001604051908101604052809392919081815260200183836020028082843782019150505050505091929192908035906020019092919080359060200190820180359060200190808060200260200160405190810160405280939291908181526020018383602002808284378201915050505050509192919290803560001916906020019092919050505061367a565b005b34801561164357600080fd5b50611678600480360381019080803573ffffffffffffffffffffffffffffffffffffffff169060200190929190505050613791565b6040518082815260200191505060405180910390f35b34801561169a57600080fd5b506116cf600480360381019080803573ffffffffffffffffffffffffffffffffffffffff1690602001909291905050506137a9565b6040518082815260200191505060405180910390f35b3480156116f157600080fd5b5061171e6004803603810190808035906020019082018035906020019190919293919293905050506137f5565b005b34801561172c57600080fd5b506117596004803603810190808035906020019082018035906020019190919293919293905050506138f7565b005b34801561176757600080fd5b506117bc600480360381019080803573ffffffffffffffffffffffffffffffffffffffff169060200190929190803573ffffffffffffffffffffffffffffffffffffffff1690602001909291905050506139f9565b604051808215151515815260200191505060405180910390f35b3480156117e257600080fd5b50611817600480360381019080803573ffffffffffffffffffffffffffffffffffffffff169060200190929190505050613a28565b604051808215151515815260200191505060405180910390f35b34801561183d57600080fd5b50611872600480360381019080803573ffffffffffffffffffffffffffffffffffffffff169060200190929190505050613a48565b6040518082815260200191505060405180910390f35b34801561189457600080fd5b506118d7600480360381019080803573ffffffffffffffffffffffffffffffffffffffff1690602001909291908035600019169060200190929190505050613a60565b005b3480156118e557600080fd5b5061191a600480360381019080803573ffffffffffffffffffffffffffffffffffffffff169060200190929190505050613aba565b005b34801561192857600080fd5b5061197d600480360381019080803573ffffffffffffffffffffffffffffffffffffffff169060200190929190803573ffffffffffffffffffffffffffffffffffffffff169060200190929190505050613b22565b6040518082815260200191505060405180910390f35b34801561199f57600080fd5b506119d4600480360381019080803573ffffffffffffffffffffffffffffffffffffffff169060200190929190505050613bb1565b6040518082815260200191505060405180910390f35b3480156119f657600080fd5b50611a35600480360381019080803573ffffffffffffffffffffffffffffffffffffffff16906020019092919080359060200190929190505050613bfd565b604051808273ffffffffffffffffffffffffffffffffffffffff1673ffffffffffffffffffffffffffffffffffffffff16815260200191505060405180910390f35b348015611a8357600080fd5b50611ad8600480360381019080803573ffffffffffffffffffffffffffffffffffffffff169060200190929190803573ffffffffffffffffffffffffffffffffffffffff169060200190929190505050613c4a565b6040518082815260200191505060405180910390f35b348015611afa57600080fd5b50611b3d600480360381019080803573ffffffffffffffffffffffffffffffffffffffff1690602001909291908035600019169060200190929190505050613cd9565b005b348015611b4b57600080fd5b50611b8e600480360381019080803573ffffffffffffffffffffffffffffffffffffffff1690602001909291908035600019169060200190929190505050613de8565b005b348015611b9c57600080fd5b50611bd1600480360381019080803573ffffffffffffffffffffffffffffffffffffffff169060200190929190505050613ef9565b6040518082815260200191505060405180910390f35b601060009054906101000a900473ffffffffffffffffffffffffffffffffffffffff1681565b600f60009054906101000a900473ffffffffffffffffffffffffffffffffffffffff1673ffffffffffffffffffffffffffffffffffffffff163373ffffffffffffffffffffffffffffffffffffffff16141515611c6957600080fd5b60a06040519081016040528086815260200185815260200184815260200183815260200182600019168152506013600082015181600001556020820151816001019080519060200190611cbd929190615332565b50604082015181600201556060820151816003019080519060200190611ce4929190615332565b50608082015181600401906000191690559050507fcecb7f2a433f872143ebb31ebe6bc5cd169e6a657bc645805e460bf08188818960405160405180910390a15050505050565b60016020528160005260406000206020528060005260406000206000915091509054906101000a900460ff1681565b7f3c5ad147104e56be34a9176a6692f7df8d2f4b29a5af06bc6b98970d329d65778360405180806020018381526020018281038252600e8152602001807f776f726b6572526174696e673a200000000000000000000000000000000000008152506020019250505060405180910390a17f3c5ad147104e56be34a9176a6692f7df8d2f4b29a5af06bc6b98970d329d6577826040518080602001838152602001828103825260108152602001807f627573696e657373526174696e673a20000000000000000000000000000000008152506020019250505060405180910390a1600082118015611e4a5750600682105b15611e5a57611e598483613f11565b5b600083118015611e6a5750600683105b15611e7b57611e7a858585614032565b5b611e86858585614248565b611e9086856143f8565b611e9b858585614696565b611ea786868686614945565b8373ffffffffffffffffffffffffffffffffffffffff168573ffffffffffffffffffffffffffffffffffffffff168773ffffffffffffffffffffffffffffffffffffffff167f7c48719b116adb330b6cd2d36f502db4997b7f93d323d4a91296af76106b6348868686604051808481526020018381526020018260001916600019168152602001935050505060405180910390a4505050505050565b6009602052816000526040600020602052806000526040600020600091509150505481565b600080601260008473ffffffffffffffffffffffffffffffffffffffff1673ffffffffffffffffffffffffffffffffffffffff16815260200190815260200160002090508060080160008573ffffffffffffffffffffffffffffffffffffffff1673ffffffffffffffffffffffffffffffffffffffff1681526020019081526020016000205491505092915050565b60076020528160005260406000208181548110151561201257fe5b906000526020600020016000915091509054906101000a900473ffffffffffffffffffffffffffffffffffffffff1681565b60006020528060005260406000206000915054906101000a900460ff1681565b6000601360080160008373ffffffffffffffffffffffffffffffffffffffff1673ffffffffffffffffffffffffffffffffffffffff168152602001908152602001600020549050919050565b600060606000606060006120c261537f565b601160008873ffffffffffffffffffffffffffffffffffffffff1673ffffffffffffffffffffffffffffffffffffffff16815260200190815260200160002060a06040519081016040529081600082015481526020016001820180548060200260200160405190810160405280929190818152602001828054801561216657602002820191906000526020600020905b815481526020019060010190808311612152575b5050505050815260200160028201548152602001600382018054806020026020016040519081016040528092919081815260200182805480156121c857602002820191906000526020600020905b8154815260200190600101908083116121b4575b505050505081526020016004820154600019166000191681525050905080600001519550806020015194508060400151935080606001519250806080015191505091939590929450565b60138060000154908060020154908060040154905083565b8173ffffffffffffffffffffffffffffffffffffffff167f8fb235aae8b3763345e1356f94de91f152d0b918d771d87ae2868925ad266ae78260405180826000191660001916815260200191505060405180910390a25050565b600080601260008473ffffffffffffffffffffffffffffffffffffffff1673ffffffffffffffffffffffffffffffffffffffff16815260200190815260200160002090508060060160008573ffffffffffffffffffffffffffffffffffffffff1673ffffffffffffffffffffffffffffffffffffffff1681526020019081526020016000205491505092915050565b6008602052816000526040600020602052806000526040600020600091509150505481565b6000600260008373ffffffffffffffffffffffffffffffffffffffff1673ffffffffffffffffffffffffffffffffffffffff168152602001908152602001600020805490509050919050565b8173ffffffffffffffffffffffffffffffffffffffff167f331a1f487a28b8376d30fb1eb6f8641f7e4f82871e3c61021acec73dc1c856908260405180826000191660001916815260200191505060405180910390a25050565b60018060008373ffffffffffffffffffffffffffffffffffffffff1673ffffffffffffffffffffffffffffffffffffffff16815260200190815260200160002060008473ffffffffffffffffffffffffffffffffffffffff1673ffffffffffffffffffffffffffffffffffffffff16815260200190815260200160002060006101000a81548160ff0219169083151502179055508173ffffffffffffffffffffffffffffffffffffffff168173ffffffffffffffffffffffffffffffffffffffff167f3dbdc219e8ba3e3a7af694c479d212b6ae77e5a332aa7873be1203e91cde258660405160405180910390a3600660008373ffffffffffffffffffffffffffffffffffffffff1673ffffffffffffffffffffffffffffffffffffffff16815260200190815260200160002060008273ffffffffffffffffffffffffffffffffffffffff1673ffffffffffffffffffffffffffffffffffffffff16815260200190815260200160002060009054906101000a900460ff1680156125e95750600d60008273ffffffffffffffffffffffffffffffffffffffff1673ffffffffffffffffffffffffffffffffffffffff16815260200190815260200160002060008373ffffffffffffffffffffffffffffffffffffffff1673ffffffffffffffffffffffffffffffffffffffff16815260200190815260200160002060009054906101000a900460ff16155b1561277f576001600d60008373ffffffffffffffffffffffffffffffffffffffff1673ffffffffffffffffffffffffffffffffffffffff16815260200190815260200160002060008473ffffffffffffffffffffffffffffffffffffffff1673ffffffffffffffffffffffffffffffffffffffff16815260200190815260200160002060006101000a81548160ff021916908315150217905550600260008273ffffffffffffffffffffffffffffffffffffffff1673ffffffffffffffffffffffffffffffffffffffff1681526020019081526020016000208290806001815401808255809150509060018203906000526020600020016000909192909190916101000a81548173ffffffffffffffffffffffffffffffffffffffff021916908373ffffffffffffffffffffffffffffffffffffffff160217905550506001600560008473ffffffffffffffffffffffffffffffffffffffff1673ffffffffffffffffffffffffffffffffffffffff16815260200190815260200160002060006101000a81548160ff0219169083151502179055505b5050565b600080601160008473ffffffffffffffffffffffffffffffffffffffff1673ffffffffffffffffffffffffffffffffffffffff16815260200190815260200160002090508060080160008573ffffffffffffffffffffffffffffffffffffffff1673ffffffffffffffffffffffffffffffffffffffff1681526020019081526020016000205491505092915050565b600c6020528060005260406000206000915054906101000a900460ff1681565b6000600260008473ffffffffffffffffffffffffffffffffffffffff1673ffffffffffffffffffffffffffffffffffffffff1681526020019081526020016000208281548110151561288057fe5b9060005260206000200160009054906101000a900473ffffffffffffffffffffffffffffffffffffffff16905092915050565b60a0604051908101604052808681526020018581526020018481526020018381526020018260001916815250601160008873ffffffffffffffffffffffffffffffffffffffff1673ffffffffffffffffffffffffffffffffffffffff168152602001908152602001600020600082015181600001556020820151816001019080519060200190612944929190615332565b5060408201518160020155606082015181600301908051906020019061296b929190615332565b50608082015181600401906000191690559050508573ffffffffffffffffffffffffffffffffffffffff167fe04286428ba72349229a5e6d1ffcd9120bd0eecad71b420398ad31e81682d38760405160405180910390a2505050505050565b601d602052816000526040600020816005811015156129e557fe5b01600091509150505481565b600080601160008473ffffffffffffffffffffffffffffffffffffffff1673ffffffffffffffffffffffffffffffffffffffff16815260200190815260200160002090508060060160008573ffffffffffffffffffffffffffffffffffffffff1673ffffffffffffffffffffffffffffffffffffffff1681526020019081526020016000205491505092915050565b600e6020528060005260406000206000915090505481565b6001600660008473ffffffffffffffffffffffffffffffffffffffff1673ffffffffffffffffffffffffffffffffffffffff16815260200190815260200160002060008373ffffffffffffffffffffffffffffffffffffffff1673ffffffffffffffffffffffffffffffffffffffff16815260200190815260200160002060006101000a81548160ff0219169083151502179055508073ffffffffffffffffffffffffffffffffffffffff168273ffffffffffffffffffffffffffffffffffffffff167fae442d2ee17216b3bc2662322adeb26046e30349fd3fa9a3dc135a6d610628d260405160405180910390a3600160008273ffffffffffffffffffffffffffffffffffffffff1673ffffffffffffffffffffffffffffffffffffffff16815260200190815260200160002060008373ffffffffffffffffffffffffffffffffffffffff1673ffffffffffffffffffffffffffffffffffffffff16815260200190815260200160002060009054906101000a900460ff168015612ca45750600d60008273ffffffffffffffffffffffffffffffffffffffff1673ffffffffffffffffffffffffffffffffffffffff16815260200190815260200160002060008373ffffffffffffffffffffffffffffffffffffffff1673ffffffffffffffffffffffffffffffffffffffff16815260200190815260200160002060009054906101000a900460ff16155b15612de2576001600d60008373ffffffffffffffffffffffffffffffffffffffff1673ffffffffffffffffffffffffffffffffffffffff16815260200190815260200160002060008473ffffffffffffffffffffffffffffffffffffffff1673ffffffffffffffffffffffffffffffffffffffff16815260200190815260200160002060006101000a81548160ff021916908315150217905550600260008273ffffffffffffffffffffffffffffffffffffffff1673ffffffffffffffffffffffffffffffffffffffff1681526020019081526020016000208290806001815401808255809150509060018203906000526020600020016000909192909190916101000a81548173ffffffffffffffffffffffffffffffffffffffff021916908373ffffffffffffffffffffffffffffffffffffffff160217905550505b5050565b60116020528060005260406000206000915090508060000154908060020154908060040154905083565b600f60009054906101000a900473ffffffffffffffffffffffffffffffffffffffff1673ffffffffffffffffffffffffffffffffffffffff163373ffffffffffffffffffffffffffffffffffffffff16141515612e6c57600080fd5b600f60009054906101000a900473ffffffffffffffffffffffffffffffffffffffff1673ffffffffffffffffffffffffffffffffffffffff167ff8df31144d9c2f0f6b59d69b8b98abd5459d07f2742c4df920b25aae33c6482060405160405180910390a26000600f60006101000a81548173ffffffffffffffffffffffffffffffffffffffff021916908373ffffffffffffffffffffffffffffffffffffffff160217905550565b600080601160008473ffffffffffffffffffffffffffffffffffffffff1673ffffffffffffffffffffffffffffffffffffffff16815260200190815260200160002090508060070160008573ffffffffffffffffffffffffffffffffffffffff1673ffffffffffffffffffffffffffffffffffffffff1681526020019081526020016000205491505092915050565b60006060600060606000612fb661537f565b601260008873ffffffffffffffffffffffffffffffffffffffff1673ffffffffffffffffffffffffffffffffffffffff16815260200190815260200160002060a06040519081016040529081600082015481526020016001820180548060200260200160405190810160405280929190818152602001828054801561305a57602002820191906000526020600020905b815481526020019060010190808311613046575b5050505050815260200160028201548152602001600382018054806020026020016040519081016040528092919081815260200182805480156130bc57602002820191906000526020600020905b8154815260200190600101908083116130a8575b505050505081526020016004820154600019166000191681525050905080600001519550806020015194508060400151935080606001519250806080015191505091939590929450565b600d6020528160005260406000206020528060005260406000206000915091509054906101000a900460ff1681565b60126020528060005260406000206000915090508060000154908060020154908060040154905083565b600f60009054906101000a900473ffffffffffffffffffffffffffffffffffffffff1681565b6001600b60008773ffffffffffffffffffffffffffffffffffffffff1673ffffffffffffffffffffffffffffffffffffffff16815260200190815260200160002060008282540192505081905550600b60008673ffffffffffffffffffffffffffffffffffffffff1673ffffffffffffffffffffffffffffffffffffffff1681526020019081526020016000205482600a60008873ffffffffffffffffffffffffffffffffffffffff1673ffffffffffffffffffffffffffffffffffffffff168152602001908152602001600020540181151561325e57fe5b04600a60008773ffffffffffffffffffffffffffffffffffffffff1673ffffffffffffffffffffffffffffffffffffffff168152602001908152602001600020819055508473ffffffffffffffffffffffffffffffffffffffff168473ffffffffffffffffffffffffffffffffffffffff168473ffffffffffffffffffffffffffffffffffffffff167f5e6c3e11b9f623c99dc31ad34b46ba46f967b91b7502625b3e75c0191871e1df85856040518083815260200182600019166000191681526020019250505060405180910390a45050505050565b6000600260008373ffffffffffffffffffffffffffffffffffffffff1673ffffffffffffffffffffffffffffffffffffffff168152602001908152602001600020805490509050919050565b60046020528060005260406000206000915090505481565b6000601360070160008373ffffffffffffffffffffffffffffffffffffffff1673ffffffffffffffffffffffffffffffffffffffff168152602001908152602001600020549050919050565b600080601260008473ffffffffffffffffffffffffffffffffffffffff1673ffffffffffffffffffffffffffffffffffffffff16815260200190815260200160002090508060070160008573ffffffffffffffffffffffffffffffffffffffff1673ffffffffffffffffffffffffffffffffffffffff1681526020019081526020016000205491505092915050565b60056020528060005260406000206000915054906101000a900460ff1681565b60001515600560008473ffffffffffffffffffffffffffffffffffffffff1673ffffffffffffffffffffffffffffffffffffffff16815260200190815260200160002060009054906101000a900460ff1615151415156134f357600080fd5b6001600560008473ffffffffffffffffffffffffffffffffffffffff1673ffffffffffffffffffffffffffffffffffffffff16815260200190815260200160002060006101000a81548160ff0219169083151502179055508173ffffffffffffffffffffffffffffffffffffffff167f8fb235aae8b3763345e1356f94de91f152d0b918d771d87ae2868925ad266ae78260405180826000191660001916815260200191505060405180910390a25050565b600060606000606060006013600001549450601360010180548060200260200160405190810160405280929190818152602001828054801561360657602002820191906000526020600020905b8154815260200190600101908083116135f2575b505050505093506013600201549250601360030180548060200260200160405190810160405280929190818152602001828054801561366457602002820191906000526020600020905b815481526020019060010190808311613650575b5050505050915060136004015490509091929394565b60a0604051908101604052808681526020018581526020018481526020018381526020018260001916815250601260008873ffffffffffffffffffffffffffffffffffffffff1673ffffffffffffffffffffffffffffffffffffffff16815260200190815260200160002060008201518160000155602082015181600101908051906020019061370b929190615332565b50604082015181600201556060820151816003019080519060200190613732929190615332565b50608082015181600401906000191690559050508573ffffffffffffffffffffffffffffffffffffffff167f910de68bbeafb3b17db876b63617e0d84a56e46ed90d7b475ca836fc62ec82c960405160405180910390a2505050505050565b600b6020528060005260406000206000915090505481565b6000601360050160008373ffffffffffffffffffffffffffffffffffffffff1673ffffffffffffffffffffffffffffffffffffffff168152602001908152602001600020549050919050565b6000600f60009054906101000a900473ffffffffffffffffffffffffffffffffffffffff1673ffffffffffffffffffffffffffffffffffffffff163373ffffffffffffffffffffffffffffffffffffffff1614151561385357600080fd5b600090505b828290508110156138f2576001601c6000858585818110151561387757fe5b9050602002013573ffffffffffffffffffffffffffffffffffffffff1673ffffffffffffffffffffffffffffffffffffffff1673ffffffffffffffffffffffffffffffffffffffff16815260200190815260200160002060006101000a81548160ff0219169083151502179055508080600101915050613858565b505050565b6000600f60009054906101000a900473ffffffffffffffffffffffffffffffffffffffff1673ffffffffffffffffffffffffffffffffffffffff163373ffffffffffffffffffffffffffffffffffffffff1614151561395557600080fd5b600090505b828290508110156139f4576000601c6000858585818110151561397957fe5b9050602002013573ffffffffffffffffffffffffffffffffffffffff1673ffffffffffffffffffffffffffffffffffffffff1673ffffffffffffffffffffffffffffffffffffffff16815260200190815260200160002060006101000a81548160ff021916908315150217905550808060010191505061395a565b505050565b60066020528160005260406000206020528060005260406000206000915091509054906101000a900460ff1681565b601c6020528060005260406000206000915054906101000a900460ff1681565b60036020528060005260406000206000915090505481565b8173ffffffffffffffffffffffffffffffffffffffff167ff871076dc67f0048d9440087eda4425885730b4efffea0c854d794731355b28e8260405180826000191660001916815260200191505060405180910390a25050565b600f60009054906101000a900473ffffffffffffffffffffffffffffffffffffffff1673ffffffffffffffffffffffffffffffffffffffff163373ffffffffffffffffffffffffffffffffffffffff16141515613b1657600080fd5b613b1f816149cf565b50565b600080601160008473ffffffffffffffffffffffffffffffffffffffff1673ffffffffffffffffffffffffffffffffffffffff16815260200190815260200160002090508060050160008573ffffffffffffffffffffffffffffffffffffffff1673ffffffffffffffffffffffffffffffffffffffff1681526020019081526020016000205491505092915050565b6000601360060160008373ffffffffffffffffffffffffffffffffffffffff1673ffffffffffffffffffffffffffffffffffffffff168152602001908152602001600020549050919050565b600260205281600052604060002081815481101515613c1857fe5b906000526020600020016000915091509054906101000a900473ffffffffffffffffffffffffffffffffffffffff1681565b600080601260008473ffffffffffffffffffffffffffffffffffffffff1673ffffffffffffffffffffffffffffffffffffffff16815260200190815260200160002090508060050160008573ffffffffffffffffffffffffffffffffffffffff1673ffffffffffffffffffffffffffffffffffffffff1681526020019081526020016000205491505092915050565b600015156000808473ffffffffffffffffffffffffffffffffffffffff1673ffffffffffffffffffffffffffffffffffffffff16815260200190815260200160002060009054906101000a900460ff161515141515613d3757600080fd5b60016000808473ffffffffffffffffffffffffffffffffffffffff1673ffffffffffffffffffffffffffffffffffffffff16815260200190815260200160002060006101000a81548160ff0219169083151502179055508173ffffffffffffffffffffffffffffffffffffffff167ff871076dc67f0048d9440087eda4425885730b4efffea0c854d794731355b28e8260405180826000191660001916815260200191505060405180910390a25050565b60001515600c60008473ffffffffffffffffffffffffffffffffffffffff1673ffffffffffffffffffffffffffffffffffffffff16815260200190815260200160002060009054906101000a900460ff161515141515613e4757600080fd5b6001600c60008473ffffffffffffffffffffffffffffffffffffffff1673ffffffffffffffffffffffffffffffffffffffff16815260200190815260200160002060006101000a81548160ff0219169083151502179055508173ffffffffffffffffffffffffffffffffffffffff167f331a1f487a28b8376d30fb1eb6f8641f7e4f82871e3c61021acec73dc1c856908260405180826000191660001916815260200191505060405180910390a25050565b600a6020528060005260406000206000915090505481565b6001600460008473ffffffffffffffffffffffffffffffffffffffff1673ffffffffffffffffffffffffffffffffffffffff16815260200190815260200160002060008282540192505081905550600460008373ffffffffffffffffffffffffffffffffffffffff1673ffffffffffffffffffffffffffffffffffffffff1681526020019081526020016000205481600360008573ffffffffffffffffffffffffffffffffffffffff1673ffffffffffffffffffffffffffffffffffffffff1681526020019081526020016000205401811515613fea57fe5b04600360008473ffffffffffffffffffffffffffffffffffffffff1673ffffffffffffffffffffffffffffffffffffffff168152602001908152602001600020819055505050565b6001600960008473ffffffffffffffffffffffffffffffffffffffff1673ffffffffffffffffffffffffffffffffffffffff16815260200190815260200160002060008573ffffffffffffffffffffffffffffffffffffffff1673ffffffffffffffffffffffffffffffffffffffff16815260200190815260200160002060008282540192505081905550600960008373ffffffffffffffffffffffffffffffffffffffff1673ffffffffffffffffffffffffffffffffffffffff16815260200190815260200160002060008473ffffffffffffffffffffffffffffffffffffffff1673ffffffffffffffffffffffffffffffffffffffff1681526020019081526020016000205481600860008573ffffffffffffffffffffffffffffffffffffffff1673ffffffffffffffffffffffffffffffffffffffff16815260200190815260200160002060008673ffffffffffffffffffffffffffffffffffffffff1673ffffffffffffffffffffffffffffffffffffffff16815260200190815260200160002054018115156141c257fe5b04600860008473ffffffffffffffffffffffffffffffffffffffff1673ffffffffffffffffffffffffffffffffffffffff16815260200190815260200160002060008573ffffffffffffffffffffffffffffffffffffffff1673ffffffffffffffffffffffffffffffffffffffff16815260200190815260200160002081905550505050565b600080601d60008573ffffffffffffffffffffffffffffffffffffffff1673ffffffffffffffffffffffffffffffffffffffff16815260200190815260200160002091506064828460058110151561429c57fe5b01548360046005811015156142ad57fe5b0154028115156142b957fe5b049050601060009054906101000a900473ffffffffffffffffffffffffffffffffffffffff1673ffffffffffffffffffffffffffffffffffffffff166323b872dd8587846040518463ffffffff167c0100000000000000000000000000000000000000000000000000000000028152600401808473ffffffffffffffffffffffffffffffffffffffff1673ffffffffffffffffffffffffffffffffffffffff1681526020018373ffffffffffffffffffffffffffffffffffffffff1673ffffffffffffffffffffffffffffffffffffffff1681526020018281526020019350505050602060405180830381600087803b1580156143b557600080fd5b505af11580156143c9573d6000803e3d6000fd5b505050506040513d60208110156143df57600080fd5b8101908080519060200190929190505050505050505050565b6000806000601160008573ffffffffffffffffffffffffffffffffffffffff1673ffffffffffffffffffffffffffffffffffffffff16815260200190815260200160002092508260070160008673ffffffffffffffffffffffffffffffffffffffff1673ffffffffffffffffffffffffffffffffffffffff16815260200190815260200160002054915061448c8386614acb565b60008360050160008773ffffffffffffffffffffffffffffffffffffffff1673ffffffffffffffffffffffffffffffffffffffff16815260200190815260200160002054141561468f5782600301828154811015156144e757fe5b90600052602060002001549050601060009054906101000a900473ffffffffffffffffffffffffffffffffffffffff1673ffffffffffffffffffffffffffffffffffffffff166323b872dd8587846040518463ffffffff167c0100000000000000000000000000000000000000000000000000000000028152600401808473ffffffffffffffffffffffffffffffffffffffff1673ffffffffffffffffffffffffffffffffffffffff1681526020018373ffffffffffffffffffffffffffffffffffffffff1673ffffffffffffffffffffffffffffffffffffffff1681526020018281526020019350505050602060405180830381600087803b1580156145ed57600080fd5b505af1158015614601573d6000803e3d6000fd5b505050506040513d602081101561461757600080fd5b8101908080519060200190929190505050508373ffffffffffffffffffffffffffffffffffffffff168573ffffffffffffffffffffffffffffffffffffffff167f5a09eab88e066ba36b0e966c6f58a1112bec8eee253aad9e63dbdb6c65ece8bd836040518082815260200191505060405180910390a35b5050505050565b60008060006005841415156146aa5761493d565b601260008673ffffffffffffffffffffffffffffffffffffffff1673ffffffffffffffffffffffffffffffffffffffff16815260200190815260200160002092508260070160008773ffffffffffffffffffffffffffffffffffffffff1673ffffffffffffffffffffffffffffffffffffffff1681526020019081526020016000205491506147398387614acb565b60008360050160008873ffffffffffffffffffffffffffffffffffffffff1673ffffffffffffffffffffffffffffffffffffffff16815260200190815260200160002054141561493c57826003018281548110151561479457fe5b90600052602060002001549050601060009054906101000a900473ffffffffffffffffffffffffffffffffffffffff1673ffffffffffffffffffffffffffffffffffffffff166323b872dd8688846040518463ffffffff167c0100000000000000000000000000000000000000000000000000000000028152600401808473ffffffffffffffffffffffffffffffffffffffff1673ffffffffffffffffffffffffffffffffffffffff1681526020018373ffffffffffffffffffffffffffffffffffffffff1673ffffffffffffffffffffffffffffffffffffffff1681526020018281526020019350505050602060405180830381600087803b15801561489a57600080fd5b505af11580156148ae573d6000803e3d6000fd5b505050506040513d60208110156148c457600080fd5b8101908080519060200190929190505050508473ffffffffffffffffffffffffffffffffffffffff168673ffffffffffffffffffffffffffffffffffffffff167f2fc7ba242568d1b533c6e109f5d4bcd46b30e66bc4bcea519ab1e1254b06b0f2836040518082815260200191505060405180910390a35b5b505050505050565b60001515601c60008473ffffffffffffffffffffffffffffffffffffffff1673ffffffffffffffffffffffffffffffffffffffff16815260200190815260200160002060009054906101000a900460ff16151514156149a3576149c9565b6149ac84614e54565b60058114156149bf576149be836150bc565b5b6149c882615324565b5b50505050565b600073ffffffffffffffffffffffffffffffffffffffff168173ffffffffffffffffffffffffffffffffffffffff1614151515614a0b57600080fd5b8073ffffffffffffffffffffffffffffffffffffffff16600f60009054906101000a900473ffffffffffffffffffffffffffffffffffffffff1673ffffffffffffffffffffffffffffffffffffffff167f8be0079c531659141344cd1fd0a4f28419497f9722a3daafe3b4186f6b6457e060405160405180910390a380600f60006101000a81548173ffffffffffffffffffffffffffffffffffffffff021916908373ffffffffffffffffffffffffffffffffffffffff16021790555050565b60008060008060018660050160008773ffffffffffffffffffffffffffffffffffffffff1673ffffffffffffffffffffffffffffffffffffffff168152602001908152602001600020540193508560000154841415614dfb5760008660050160008773ffffffffffffffffffffffffffffffffffffffff1673ffffffffffffffffffffffffffffffffffffffff1681526020019081526020016000208190555060018660060160008773ffffffffffffffffffffffffffffffffffffffff1673ffffffffffffffffffffffffffffffffffffffff168152602001908152602001600020540192508560070160008673ffffffffffffffffffffffffffffffffffffffff1673ffffffffffffffffffffffffffffffffffffffff1681526020019081526020016000205491508560010182815481101515614c0757fe5b9060005260206000200154831415614da55760008660060160008773ffffffffffffffffffffffffffffffffffffffff1673ffffffffffffffffffffffffffffffffffffffff1681526020019081526020016000208190555060018660070160008773ffffffffffffffffffffffffffffffffffffffff1673ffffffffffffffffffffffffffffffffffffffff168152602001908152602001600020540190508560020154811415614d4f5760008660070160008773ffffffffffffffffffffffffffffffffffffffff1673ffffffffffffffffffffffffffffffffffffffff1681526020019081526020016000208190555060018660080160008773ffffffffffffffffffffffffffffffffffffffff1673ffffffffffffffffffffffffffffffffffffffff16815260200190815260200160002060008282540192505081905550614da0565b60018660070160008773ffffffffffffffffffffffffffffffffffffffff1673ffffffffffffffffffffffffffffffffffffffff168152602001908152602001600020600082825401925050819055505b614df6565b60018660060160008773ffffffffffffffffffffffffffffffffffffffff1673ffffffffffffffffffffffffffffffffffffffff168152602001908152602001600020600082825401925050819055505b614e4c565b60018660050160008773ffffffffffffffffffffffffffffffffffffffff1673ffffffffffffffffffffffffffffffffffffffff168152602001908152602001600020600082825401925050819055505b505050505050565b600080601360070160008473ffffffffffffffffffffffffffffffffffffffff1673ffffffffffffffffffffffffffffffffffffffff168152602001908152602001600020549150614ea7601384614acb565b6000601360050160008573ffffffffffffffffffffffffffffffffffffffff1673ffffffffffffffffffffffffffffffffffffffff1681526020019081526020016000205414156150b757601360030182815481101515614f0457fe5b90600052602060002001549050601060009054906101000a900473ffffffffffffffffffffffffffffffffffffffff1673ffffffffffffffffffffffffffffffffffffffff166323b872dd600f60009054906101000a900473ffffffffffffffffffffffffffffffffffffffff1685846040518463ffffffff167c0100000000000000000000000000000000000000000000000000000000028152600401808473ffffffffffffffffffffffffffffffffffffffff1673ffffffffffffffffffffffffffffffffffffffff1681526020018373ffffffffffffffffffffffffffffffffffffffff1673ffffffffffffffffffffffffffffffffffffffff1681526020018281526020019350505050602060405180830381600087803b15801561502c57600080fd5b505af1158015615040573d6000803e3d6000fd5b505050506040513d602081101561505657600080fd5b8101908080519060200190929190505050508273ffffffffffffffffffffffffffffffffffffffff167f3676827ad9f7dfeea31058476c87811083368ef83009fb4d5f6547059cf4991b826040518082815260200191505060405180910390a25b505050565b600080601360070160008473ffffffffffffffffffffffffffffffffffffffff1673ffffffffffffffffffffffffffffffffffffffff16815260200190815260200160002054915061510f601384614acb565b6000601360050160008573ffffffffffffffffffffffffffffffffffffffff1673ffffffffffffffffffffffffffffffffffffffff16815260200190815260200160002054141561531f5760136003018281548110151561516c57fe5b90600052602060002001549050601060009054906101000a900473ffffffffffffffffffffffffffffffffffffffff1673ffffffffffffffffffffffffffffffffffffffff166323b872dd600f60009054906101000a900473ffffffffffffffffffffffffffffffffffffffff1685846040518463ffffffff167c0100000000000000000000000000000000000000000000000000000000028152600401808473ffffffffffffffffffffffffffffffffffffffff1673ffffffffffffffffffffffffffffffffffffffff1681526020018373ffffffffffffffffffffffffffffffffffffffff1673ffffffffffffffffffffffffffffffffffffffff1681526020018281526020019350505050602060405180830381600087803b15801561529457600080fd5b505af11580156152a8573d6000803e3d6000fd5b505050506040513d60208110156152be57600080fd5b8101908080519060200190929190505050508273ffffffffffffffffffffffffffffffffffffffff167fd3d0f02b2cfb04d8905203795f3095736179332a8c2f956efe9e6cb952caea96826040518082815260200191505060405180910390a25b505050565b61532f601382614acb565b50565b82805482825590600052602060002090810192821561536e579160200282015b8281111561536d578251825591602001919060010190615352565b5b50905061537b91906153b2565b5090565b60a06040519081016040528060008152602001606081526020016000815260200160608152602001600080191681525090565b6153d491905b808211156153d05760008160009055506001016153b8565b5090565b905600a165627a7a723058208c6ca15f9c722ee43c7b01f4d41c6db82396a24ac3c68e83e896fabf5a8426390029",
  "source": "pragma solidity ^0.4.24;\n\nimport './KudosUser.sol';\nimport './KudosWorker.sol';\nimport './KudosBusiness.sol';\nimport './KudosRateExperience.sol';\n\ncontract Kudos is KudosUser, KudosWorker, KudosBusiness, KudosRateExperience {\n\n  constructor(address _tokenContractAddress) public {\n    kudosToken = ERC20Token(_tokenContractAddress);\n  }\n}",
  "sourcePath": "/Users/panda/projects/kudos/packages/kudos-contracts/contracts/Kudos.sol",
  "compiler": {
    "name": "solc",
    "version": "0.4.24+commit.e67f0147.Emscripten.clang"
  },
  "schemaVersion": "2.0.1",
  "updatedAt": "2018-07-30T18:33:47.882Z"
}