{
  "contractName": "KudosBusiness",
  "abi": [
    {
      "constant": true,
      "inputs": [
        {
          "name": "",
          "type": "address"
        },
        {
          "name": "",
          "type": "address"
        }
      ],
      "name": "businessHasApprovedWorker",
      "outputs": [
        {
          "name": "",
          "type": "bool"
        }
      ],
      "payable": false,
      "stateMutability": "view",
      "type": "function"
    },
    {
      "constant": true,
      "inputs": [
        {
          "name": "",
          "type": "address"
        },
        {
          "name": "",
          "type": "address"
        }
      ],
      "name": "numberOfWorkerRatings",
      "outputs": [
        {
          "name": "",
          "type": "uint256"
        }
      ],
      "payable": false,
      "stateMutability": "view",
      "type": "function"
    },
    {
      "constant": true,
      "inputs": [
        {
          "name": "",
          "type": "address"
        },
        {
          "name": "",
          "type": "uint256"
        }
      ],
      "name": "businessList",
      "outputs": [
        {
          "name": "",
          "type": "address"
        }
      ],
      "payable": false,
      "stateMutability": "view",
      "type": "function"
    },
    {
      "constant": true,
      "inputs": [
        {
          "name": "",
          "type": "address"
        }
      ],
      "name": "isBusiness",
      "outputs": [
        {
          "name": "",
          "type": "bool"
        }
      ],
      "payable": false,
      "stateMutability": "view",
      "type": "function"
    },
    {
      "constant": true,
      "inputs": [
        {
          "name": "",
          "type": "address"
        },
        {
          "name": "",
          "type": "address"
        }
      ],
      "name": "workerAverageRating",
      "outputs": [
        {
          "name": "",
          "type": "uint256"
        }
      ],
      "payable": false,
      "stateMutability": "view",
      "type": "function"
    },
    {
      "constant": true,
      "inputs": [
        {
          "name": "businessAddress",
          "type": "address"
        }
      ],
      "name": "getNumberOfWorkers",
      "outputs": [
        {
          "name": "count",
          "type": "uint256"
        }
      ],
      "payable": false,
      "stateMutability": "view",
      "type": "function"
    },
    {
      "constant": true,
      "inputs": [
        {
          "name": "",
          "type": "address"
        }
      ],
      "name": "isUser",
      "outputs": [
        {
          "name": "",
          "type": "bool"
        }
      ],
      "payable": false,
      "stateMutability": "view",
      "type": "function"
    },
    {
      "constant": true,
      "inputs": [
        {
          "name": "",
          "type": "address"
        },
        {
          "name": "",
          "type": "address"
        }
      ],
      "name": "isEmployed",
      "outputs": [
        {
          "name": "",
          "type": "bool"
        }
      ],
      "payable": false,
      "stateMutability": "view",
      "type": "function"
    },
    {
      "constant": true,
      "inputs": [
        {
          "name": "",
          "type": "address"
        }
      ],
      "name": "workerRewardSystem",
      "outputs": [
        {
          "name": "numberOfRewardSteps",
          "type": "uint256"
        },
        {
          "name": "numberOfRewardCycles",
          "type": "uint256"
        },
        {
          "name": "numberOfRewardLevels",
          "type": "uint256"
        },
        {
          "name": "_ipfsHash",
          "type": "bytes32"
        }
      ],
      "payable": false,
      "stateMutability": "view",
      "type": "function"
    },
    {
      "constant": true,
      "inputs": [
        {
          "name": "",
          "type": "address"
        }
      ],
      "name": "numberOfBusinessRatings",
      "outputs": [
        {
          "name": "",
          "type": "uint256"
        }
      ],
      "payable": false,
      "stateMutability": "view",
      "type": "function"
    },
    {
      "constant": true,
      "inputs": [
        {
          "name": "",
          "type": "address"
        }
      ],
      "name": "isWorker",
      "outputs": [
        {
          "name": "",
          "type": "bool"
        }
      ],
      "payable": false,
      "stateMutability": "view",
      "type": "function"
    },
    {
      "constant": true,
      "inputs": [
        {
          "name": "",
          "type": "address"
        }
      ],
      "name": "numberOfUserRatings",
      "outputs": [
        {
          "name": "",
          "type": "uint256"
        }
      ],
      "payable": false,
      "stateMutability": "view",
      "type": "function"
    },
    {
      "constant": true,
      "inputs": [
        {
          "name": "",
          "type": "address"
        },
        {
          "name": "",
          "type": "address"
        }
      ],
      "name": "workerHasApprovedBusiness",
      "outputs": [
        {
          "name": "",
          "type": "bool"
        }
      ],
      "payable": false,
      "stateMutability": "view",
      "type": "function"
    },
    {
      "constant": true,
      "inputs": [
        {
          "name": "",
          "type": "address"
        }
      ],
      "name": "businessAverageRating",
      "outputs": [
        {
          "name": "",
          "type": "uint256"
        }
      ],
      "payable": false,
      "stateMutability": "view",
      "type": "function"
    },
    {
      "constant": true,
      "inputs": [
        {
          "name": "",
          "type": "address"
        },
        {
          "name": "",
          "type": "uint256"
        }
      ],
      "name": "workerList",
      "outputs": [
        {
          "name": "",
          "type": "address"
        }
      ],
      "payable": false,
      "stateMutability": "view",
      "type": "function"
    },
    {
      "constant": true,
      "inputs": [
        {
          "name": "",
          "type": "address"
        }
      ],
      "name": "userAverageRating",
      "outputs": [
        {
          "name": "",
          "type": "uint256"
        }
      ],
      "payable": false,
      "stateMutability": "view",
      "type": "function"
    },
    {
      "anonymous": false,
      "inputs": [
        {
          "indexed": true,
          "name": "_businessAddress",
          "type": "address"
        },
        {
          "indexed": false,
          "name": "_ipfsHash",
          "type": "bytes32"
        }
      ],
      "name": "BusinessProfileUpdated",
      "type": "event"
    },
    {
      "anonymous": false,
      "inputs": [
        {
          "indexed": true,
          "name": "_businessAddress",
          "type": "address"
        },
        {
          "indexed": true,
          "name": "_workerAddress",
          "type": "address"
        }
      ],
      "name": "BusinessHasApprovedWorker",
      "type": "event"
    },
    {
      "anonymous": false,
      "inputs": [
        {
          "indexed": true,
          "name": "_businessAddress",
          "type": "address"
        }
      ],
      "name": "RegisterWorkerRewardSystem",
      "type": "event"
    },
    {
      "constant": false,
      "inputs": [
        {
          "name": "_businessAddress",
          "type": "address"
        },
        {
          "name": "_ipfsHash",
          "type": "bytes32"
        }
      ],
      "name": "registerAsBusiness",
      "outputs": [],
      "payable": false,
      "stateMutability": "nonpayable",
      "type": "function"
    },
    {
      "constant": false,
      "inputs": [
        {
          "name": "_businessAddress",
          "type": "address"
        },
        {
          "name": "_ipfsHash",
          "type": "bytes32"
        }
      ],
      "name": "updateBusinessProfile",
      "outputs": [],
      "payable": false,
      "stateMutability": "nonpayable",
      "type": "function"
    },
    {
      "constant": false,
      "inputs": [
        {
          "name": "_workerAddress",
          "type": "address"
        },
        {
          "name": "_businessAddress",
          "type": "address"
        }
      ],
      "name": "addWorker",
      "outputs": [],
      "payable": false,
      "stateMutability": "nonpayable",
      "type": "function"
    },
    {
      "constant": true,
      "inputs": [
        {
          "name": "_businessAddress",
          "type": "address"
        },
        {
          "name": "_index",
          "type": "uint256"
        }
      ],
      "name": "getEmployeeAddress",
      "outputs": [
        {
          "name": "",
          "type": "address"
        }
      ],
      "payable": false,
      "stateMutability": "view",
      "type": "function"
    },
    {
      "constant": true,
      "inputs": [
        {
          "name": "_businessAddress",
          "type": "address"
        }
      ],
      "name": "numberOfEmployees",
      "outputs": [
        {
          "name": "",
          "type": "uint256"
        }
      ],
      "payable": false,
      "stateMutability": "view",
      "type": "function"
    },
    {
      "constant": false,
      "inputs": [
        {
          "name": "_businessAddress",
          "type": "address"
        },
        {
          "name": "_numberOfRewardSteps",
          "type": "uint256"
        },
        {
          "name": "_numberOfRewardCycles",
          "type": "uint256"
        },
        {
          "name": "_numberOfRewardLevels",
          "type": "uint256"
        },
        {
          "name": "_ipfsHash",
          "type": "bytes32"
        }
      ],
      "name": "registerWorkerRewardSystem",
      "outputs": [],
      "payable": false,
      "stateMutability": "nonpayable",
      "type": "function"
    }
  ],
  "bytecode": "0x6060604052341561000f57600080fd5b6113308061001e6000396000f300606060405260043610610128576000357c0100000000000000000000000000000000000000000000000000000000900463ffffffff168063067a09491461012d5780630e2be2661461019d5780630fb3ba9a14610209578063130ee3761461026a5780631466d019146102ec5780632f64550a1461033d5780632fccafb5146103a95780633bf0cbf4146103f65780634209fff11461044e5780634341d99b1461049f5780637b1d0c83146105215780638b3504f21461059157806392ee014b146105fb5780639708c61f14610648578063aa15664514610695578063b265c33d146106e6578063e336379314610733578063ec5df15a146107a3578063eec45cb5146107f0578063f901188814610836578063fe715103146108b8578063ffb33793146108fe575b600080fd5b341561013857600080fd5b610183600480803573ffffffffffffffffffffffffffffffffffffffff1690602001909190803573ffffffffffffffffffffffffffffffffffffffff1690602001909190505061094b565b604051808215151515815260200191505060405180910390f35b34156101a857600080fd5b6101f3600480803573ffffffffffffffffffffffffffffffffffffffff1690602001909190803573ffffffffffffffffffffffffffffffffffffffff1690602001909190505061097a565b6040518082815260200191505060405180910390f35b341561021457600080fd5b610268600480803573ffffffffffffffffffffffffffffffffffffffff169060200190919080359060200190919080359060200190919080359060200190919080356000191690602001909190505061099f565b005b341561027557600080fd5b6102aa600480803573ffffffffffffffffffffffffffffffffffffffff16906020019091908035906020019091905050610a7f565b604051808273ffffffffffffffffffffffffffffffffffffffff1673ffffffffffffffffffffffffffffffffffffffff16815260200191505060405180910390f35b34156102f757600080fd5b610323600480803573ffffffffffffffffffffffffffffffffffffffff16906020019091905050610acd565b604051808215151515815260200191505060405180910390f35b341561034857600080fd5b610393600480803573ffffffffffffffffffffffffffffffffffffffff1690602001909190803573ffffffffffffffffffffffffffffffffffffffff16906020019091905050610aed565b6040518082815260200191505060405180910390f35b34156103b457600080fd5b6103e0600480803573ffffffffffffffffffffffffffffffffffffffff16906020019091905050610b12565b6040518082815260200191505060405180910390f35b341561040157600080fd5b61044c600480803573ffffffffffffffffffffffffffffffffffffffff1690602001909190803573ffffffffffffffffffffffffffffffffffffffff16906020019091905050610b5e565b005b341561045957600080fd5b610485600480803573ffffffffffffffffffffffffffffffffffffffff16906020019091905050610f00565b604051808215151515815260200191505060405180910390f35b34156104aa57600080fd5b6104df600480803573ffffffffffffffffffffffffffffffffffffffff16906020019091908035906020019091905050610f20565b604051808273ffffffffffffffffffffffffffffffffffffffff1673ffffffffffffffffffffffffffffffffffffffff16815260200191505060405180910390f35b341561052c57600080fd5b610577600480803573ffffffffffffffffffffffffffffffffffffffff1690602001909190803573ffffffffffffffffffffffffffffffffffffffff16906020019091905050610fa2565b604051808215151515815260200191505060405180910390f35b341561059c57600080fd5b6105c8600480803573ffffffffffffffffffffffffffffffffffffffff16906020019091905050610fd1565b60405180858152602001848152602001838152602001826000191660001916815260200194505050505060405180910390f35b341561060657600080fd5b610632600480803573ffffffffffffffffffffffffffffffffffffffff16906020019091905050611001565b6040518082815260200191505060405180910390f35b341561065357600080fd5b61067f600480803573ffffffffffffffffffffffffffffffffffffffff1690602001909190505061104d565b6040518082815260200191505060405180910390f35b34156106a057600080fd5b6106cc600480803573ffffffffffffffffffffffffffffffffffffffff16906020019091905050611065565b604051808215151515815260200191505060405180910390f35b34156106f157600080fd5b61071d600480803573ffffffffffffffffffffffffffffffffffffffff16906020019091905050611085565b6040518082815260200191505060405180910390f35b341561073e57600080fd5b610789600480803573ffffffffffffffffffffffffffffffffffffffff1690602001909190803573ffffffffffffffffffffffffffffffffffffffff1690602001909190505061109d565b604051808215151515815260200191505060405180910390f35b34156107ae57600080fd5b6107da600480803573ffffffffffffffffffffffffffffffffffffffff169060200190919050506110cc565b6040518082815260200191505060405180910390f35b34156107fb57600080fd5b610834600480803573ffffffffffffffffffffffffffffffffffffffff16906020019091908035600019169060200190919050506110e4565b005b341561084157600080fd5b610876600480803573ffffffffffffffffffffffffffffffffffffffff1690602001909190803590602001909190505061113e565b604051808273ffffffffffffffffffffffffffffffffffffffff1673ffffffffffffffffffffffffffffffffffffffff16815260200191505060405180910390f35b34156108c357600080fd5b6108fc600480803573ffffffffffffffffffffffffffffffffffffffff169060200190919080356000191690602001909190505061118c565b005b341561090957600080fd5b610935600480803573ffffffffffffffffffffffffffffffffffffffff1690602001909190505061129b565b6040518082815260200191505060405180910390f35b60016020528160005260406000206020528060005260406000206000915091509054906101000a900460ff1681565b6009602052816000526040600020602052806000526040600020600091509150505481565b6080604051908101604052808581526020018481526020018381526020018260001916815250600e60008773ffffffffffffffffffffffffffffffffffffffff1673ffffffffffffffffffffffffffffffffffffffff168152602001908152602001600020600082015181600001556020820151816001015560408201518160020155606082015181600301906000191690559050508473ffffffffffffffffffffffffffffffffffffffff167f910de68bbeafb3b17db876b63617e0d84a56e46ed90d7b475ca836fc62ec82c960405160405180910390a25050505050565b600760205281600052604060002081815481101515610a9a57fe5b90600052602060002090016000915091509054906101000a900473ffffffffffffffffffffffffffffffffffffffff1681565b60006020528060005260406000206000915054906101000a900460ff1681565b6008602052816000526040600020602052806000526040600020600091509150505481565b6000600260008373ffffffffffffffffffffffffffffffffffffffff1673ffffffffffffffffffffffffffffffffffffffff168152602001908152602001600020805490509050919050565b60018060008373ffffffffffffffffffffffffffffffffffffffff1673ffffffffffffffffffffffffffffffffffffffff16815260200190815260200160002060008473ffffffffffffffffffffffffffffffffffffffff1673ffffffffffffffffffffffffffffffffffffffff16815260200190815260200160002060006101000a81548160ff0219169083151502179055508173ffffffffffffffffffffffffffffffffffffffff168173ffffffffffffffffffffffffffffffffffffffff167f3dbdc219e8ba3e3a7af694c479d212b6ae77e5a332aa7873be1203e91cde258660405160405180910390a3600660008373ffffffffffffffffffffffffffffffffffffffff1673ffffffffffffffffffffffffffffffffffffffff16815260200190815260200160002060008273ffffffffffffffffffffffffffffffffffffffff1673ffffffffffffffffffffffffffffffffffffffff16815260200190815260200160002060009054906101000a900460ff168015610d695750600d60008273ffffffffffffffffffffffffffffffffffffffff1673ffffffffffffffffffffffffffffffffffffffff16815260200190815260200160002060008373ffffffffffffffffffffffffffffffffffffffff1673ffffffffffffffffffffffffffffffffffffffff16815260200190815260200160002060009054906101000a900460ff16155b15610efc576001600d60008373ffffffffffffffffffffffffffffffffffffffff1673ffffffffffffffffffffffffffffffffffffffff16815260200190815260200160002060008473ffffffffffffffffffffffffffffffffffffffff1673ffffffffffffffffffffffffffffffffffffffff16815260200190815260200160002060006101000a81548160ff021916908315150217905550600260008273ffffffffffffffffffffffffffffffffffffffff1673ffffffffffffffffffffffffffffffffffffffff1681526020019081526020016000208054806001018281610e5491906112b3565b9160005260206000209001600084909190916101000a81548173ffffffffffffffffffffffffffffffffffffffff021916908373ffffffffffffffffffffffffffffffffffffffff160217905550506001600560008473ffffffffffffffffffffffffffffffffffffffff1673ffffffffffffffffffffffffffffffffffffffff16815260200190815260200160002060006101000a81548160ff0219169083151502179055505b5050565b600c6020528060005260406000206000915054906101000a900460ff1681565b6000600260008473ffffffffffffffffffffffffffffffffffffffff1673ffffffffffffffffffffffffffffffffffffffff16815260200190815260200160002082815481101515610f6e57fe5b906000526020600020900160009054906101000a900473ffffffffffffffffffffffffffffffffffffffff16905092915050565b600d6020528160005260406000206020528060005260406000206000915091509054906101000a900460ff1681565b600e6020528060005260406000206000915090508060000154908060010154908060020154908060030154905084565b6000600260008373ffffffffffffffffffffffffffffffffffffffff1673ffffffffffffffffffffffffffffffffffffffff168152602001908152602001600020805490509050919050565b60046020528060005260406000206000915090505481565b60056020528060005260406000206000915054906101000a900460ff1681565b600b6020528060005260406000206000915090505481565b60066020528160005260406000206020528060005260406000206000915091509054906101000a900460ff1681565b60036020528060005260406000206000915090505481565b8173ffffffffffffffffffffffffffffffffffffffff167ff871076dc67f0048d9440087eda4425885730b4efffea0c854d794731355b28e8260405180826000191660001916815260200191505060405180910390a25050565b60026020528160005260406000208181548110151561115957fe5b90600052602060002090016000915091509054906101000a900473ffffffffffffffffffffffffffffffffffffffff1681565b600015156000808473ffffffffffffffffffffffffffffffffffffffff1673ffffffffffffffffffffffffffffffffffffffff16815260200190815260200160002060009054906101000a900460ff1615151415156111ea57600080fd5b60016000808473ffffffffffffffffffffffffffffffffffffffff1673ffffffffffffffffffffffffffffffffffffffff16815260200190815260200160002060006101000a81548160ff0219169083151502179055508173ffffffffffffffffffffffffffffffffffffffff167ff871076dc67f0048d9440087eda4425885730b4efffea0c854d794731355b28e8260405180826000191660001916815260200191505060405180910390a25050565b600a6020528060005260406000206000915090505481565b8154818355818115116112da578183600052602060002091820191016112d991906112df565b5b505050565b61130191905b808211156112fd5760008160009055506001016112e5565b5090565b905600a165627a7a72305820c8f75f8436de5ccbcb8424437e2ef2110dd6243e7932f89c6d08cbe3459525d90029",
  "source": "pragma solidity ^0.4.18;\n\nimport \"./KudosActor.sol\";\n\ncontract KudosBusiness is KudosActor {\n\n  event BusinessProfileUpdated(address indexed _businessAddress, bytes32 _ipfsHash);\n  event BusinessHasApprovedWorker(address indexed _businessAddress, address indexed _workerAddress);\n  event RegisterWorkerRewardSystem(address indexed _businessAddress);\n\n  function registerAsBusiness(address _businessAddress, bytes32 _ipfsHash) public {\n\n    require(isBusiness[_businessAddress] == false);\n    isBusiness[_businessAddress] = true;\n    BusinessProfileUpdated(_businessAddress, _ipfsHash);\n  }\n\n  function updateBusinessProfile(address _businessAddress, bytes32 _ipfsHash) public {\n    BusinessProfileUpdated(_businessAddress, _ipfsHash);\n  }\n\n  function addWorker(address _workerAddress, address _businessAddress) public {\n\n    businessHasApprovedWorker[_businessAddress][_workerAddress] = true;\n    BusinessHasApprovedWorker(_businessAddress, _workerAddress);\n\n    if (workerHasApprovedBusiness[_workerAddress][_businessAddress] && !isEmployed[_businessAddress][_workerAddress]) {\n      isEmployed[_businessAddress][_workerAddress] = true;\n      workerList[_businessAddress].push(_workerAddress);\n      isWorker[_workerAddress] = true;\n    }\n  }\n\n  function getEmployeeAddress(address _businessAddress, uint _index) public view returns (address) {\n    return workerList[_businessAddress][_index];\n  }\n\n  function numberOfEmployees(address _businessAddress) public view returns (uint256) {\n    return workerList[_businessAddress].length;\n  }\n\n  struct RewardSystem {\n\n    uint256 numberOfRewardSteps;\n    uint256 numberOfRewardCycles;\n    uint256 numberOfRewardLevels;\n\n//    uint256[] levelRewards;\n//    uint256[5] ratingRewards;\n    bytes32 _ipfsHash;\n\n    mapping(bytes32 => uint256) rewardStep;\n    mapping(bytes32 => uint256) rewardCycle;\n    mapping(bytes32 => uint256) rewardLevel;\n    mapping(bytes32 => uint256) rewardRank;\n  }\n\n  mapping (address => RewardSystem) public workerRewardSystem;\n\n//  function registerWorkerRewardSystem(address _businessAddress, uint256 _numberOfRewardSteps, uint256 _numberOfRewardCycles, uint256 _numberOfRewardLevels, uint256[] _levelRewards, uint256[5] _ratingRewards, bytes32 _ipfsHash) public {\n  function registerWorkerRewardSystem(address _businessAddress, uint256 _numberOfRewardSteps, uint256 _numberOfRewardCycles, uint256 _numberOfRewardLevels, bytes32 _ipfsHash) public {\n\n//    workerRewardSystem[_businessAddress] = RewardSystem(_numberOfRewardSteps, _numberOfRewardCycles, _numberOfRewardLevels, _levelRewards, _ratingRewards, _ipfsHash);\n    workerRewardSystem[_businessAddress] = RewardSystem(_numberOfRewardSteps, _numberOfRewardCycles, _numberOfRewardLevels, _ipfsHash);\n    RegisterWorkerRewardSystem(_businessAddress);\n  }\n}",
  "sourcePath": "/Users/panda/projects/kudos/packages/kudos-contracts/contracts/KudosBusiness.sol",
  "compiler": {
    "name": "solc",
    "version": "0.4.19+commit.c4cbbb05.Emscripten.clang"
  },
  "schemaVersion": "1.0.1",
  "updatedAt": "2018-07-16T20:56:12.904Z"
}