{
  "contractName": "KudosUser",
  "abi": [
    {
      "constant": true,
      "inputs": [
        {
          "name": "",
          "type": "address"
        },
        {
          "name": "",
          "type": "address"
        }
      ],
      "name": "businessHasApprovedWorker",
      "outputs": [
        {
          "name": "",
          "type": "bool"
        }
      ],
      "payable": false,
      "stateMutability": "view",
      "type": "function"
    },
    {
      "constant": true,
      "inputs": [
        {
          "name": "",
          "type": "address"
        },
        {
          "name": "",
          "type": "address"
        }
      ],
      "name": "numberOfWorkerRatings",
      "outputs": [
        {
          "name": "",
          "type": "uint256"
        }
      ],
      "payable": false,
      "stateMutability": "view",
      "type": "function"
    },
    {
      "constant": true,
      "inputs": [
        {
          "name": "",
          "type": "address"
        },
        {
          "name": "",
          "type": "uint256"
        }
      ],
      "name": "businessList",
      "outputs": [
        {
          "name": "",
          "type": "address"
        }
      ],
      "payable": false,
      "stateMutability": "view",
      "type": "function"
    },
    {
      "constant": true,
      "inputs": [
        {
          "name": "",
          "type": "address"
        }
      ],
      "name": "isBusiness",
      "outputs": [
        {
          "name": "",
          "type": "bool"
        }
      ],
      "payable": false,
      "stateMutability": "view",
      "type": "function"
    },
    {
      "constant": true,
      "inputs": [
        {
          "name": "",
          "type": "address"
        },
        {
          "name": "",
          "type": "address"
        }
      ],
      "name": "workerAverageRating",
      "outputs": [
        {
          "name": "",
          "type": "uint256"
        }
      ],
      "payable": false,
      "stateMutability": "view",
      "type": "function"
    },
    {
      "constant": true,
      "inputs": [
        {
          "name": "businessAddress",
          "type": "address"
        }
      ],
      "name": "getNumberOfWorkers",
      "outputs": [
        {
          "name": "count",
          "type": "uint256"
        }
      ],
      "payable": false,
      "stateMutability": "view",
      "type": "function"
    },
    {
      "constant": true,
      "inputs": [
        {
          "name": "",
          "type": "address"
        }
      ],
      "name": "isUser",
      "outputs": [
        {
          "name": "",
          "type": "bool"
        }
      ],
      "payable": false,
      "stateMutability": "view",
      "type": "function"
    },
    {
      "constant": true,
      "inputs": [
        {
          "name": "",
          "type": "address"
        },
        {
          "name": "",
          "type": "address"
        }
      ],
      "name": "isEmployed",
      "outputs": [
        {
          "name": "",
          "type": "bool"
        }
      ],
      "payable": false,
      "stateMutability": "view",
      "type": "function"
    },
    {
      "constant": true,
      "inputs": [
        {
          "name": "",
          "type": "address"
        }
      ],
      "name": "numberOfBusinessRatings",
      "outputs": [
        {
          "name": "",
          "type": "uint256"
        }
      ],
      "payable": false,
      "stateMutability": "view",
      "type": "function"
    },
    {
      "constant": true,
      "inputs": [
        {
          "name": "",
          "type": "address"
        }
      ],
      "name": "isWorker",
      "outputs": [
        {
          "name": "",
          "type": "bool"
        }
      ],
      "payable": false,
      "stateMutability": "view",
      "type": "function"
    },
    {
      "constant": true,
      "inputs": [
        {
          "name": "",
          "type": "address"
        }
      ],
      "name": "numberOfUserRatings",
      "outputs": [
        {
          "name": "",
          "type": "uint256"
        }
      ],
      "payable": false,
      "stateMutability": "view",
      "type": "function"
    },
    {
      "constant": true,
      "inputs": [
        {
          "name": "",
          "type": "address"
        },
        {
          "name": "",
          "type": "address"
        }
      ],
      "name": "workerHasApprovedBusiness",
      "outputs": [
        {
          "name": "",
          "type": "bool"
        }
      ],
      "payable": false,
      "stateMutability": "view",
      "type": "function"
    },
    {
      "constant": true,
      "inputs": [
        {
          "name": "",
          "type": "address"
        }
      ],
      "name": "businessAverageRating",
      "outputs": [
        {
          "name": "",
          "type": "uint256"
        }
      ],
      "payable": false,
      "stateMutability": "view",
      "type": "function"
    },
    {
      "constant": true,
      "inputs": [
        {
          "name": "",
          "type": "address"
        },
        {
          "name": "",
          "type": "uint256"
        }
      ],
      "name": "workerList",
      "outputs": [
        {
          "name": "",
          "type": "address"
        }
      ],
      "payable": false,
      "stateMutability": "view",
      "type": "function"
    },
    {
      "constant": true,
      "inputs": [
        {
          "name": "",
          "type": "address"
        }
      ],
      "name": "userAverageRating",
      "outputs": [
        {
          "name": "",
          "type": "uint256"
        }
      ],
      "payable": false,
      "stateMutability": "view",
      "type": "function"
    },
    {
      "anonymous": false,
      "inputs": [
        {
          "indexed": true,
          "name": "_userAddress",
          "type": "address"
        },
        {
          "indexed": false,
          "name": "_ipfsHash",
          "type": "bytes32"
        }
      ],
      "name": "UserProfileUpdated",
      "type": "event"
    },
    {
      "constant": false,
      "inputs": [
        {
          "name": "_userAddress",
          "type": "address"
        },
        {
          "name": "_ipfsHash",
          "type": "bytes32"
        }
      ],
      "name": "registerAsUser",
      "outputs": [],
      "payable": false,
      "stateMutability": "nonpayable",
      "type": "function"
    },
    {
      "constant": false,
      "inputs": [
        {
          "name": "_userAddress",
          "type": "address"
        },
        {
          "name": "_ipfsHash",
          "type": "bytes32"
        }
      ],
      "name": "updateUserProfile",
      "outputs": [],
      "payable": false,
      "stateMutability": "nonpayable",
      "type": "function"
    }
  ],
  "bytecode": "0x608060405234801561001057600080fd5b50610be9806100206000396000f3006080604052600436106100f1576000357c0100000000000000000000000000000000000000000000000000000000900463ffffffff168063067a0949146100f65780630e2be26614610171578063130ee376146101e85780631466d019146102755780632f64550a146102d05780632fccafb5146103475780633469a4e31461039e5780634209fff1146103ef5780637b1d0c831461044a5780639708c61f146104c5578063aa1566451461051c578063b265c33d14610577578063e3363793146105ce578063ec5df15a14610649578063f9011888146106a0578063ff5e16a71461072d578063ffb337931461077e575b600080fd5b34801561010257600080fd5b50610157600480360381019080803573ffffffffffffffffffffffffffffffffffffffff169060200190929190803573ffffffffffffffffffffffffffffffffffffffff1690602001909291905050506107d5565b604051808215151515815260200191505060405180910390f35b34801561017d57600080fd5b506101d2600480360381019080803573ffffffffffffffffffffffffffffffffffffffff169060200190929190803573ffffffffffffffffffffffffffffffffffffffff169060200190929190505050610804565b6040518082815260200191505060405180910390f35b3480156101f457600080fd5b50610233600480360381019080803573ffffffffffffffffffffffffffffffffffffffff16906020019092919080359060200190929190505050610829565b604051808273ffffffffffffffffffffffffffffffffffffffff1673ffffffffffffffffffffffffffffffffffffffff16815260200191505060405180910390f35b34801561028157600080fd5b506102b6600480360381019080803573ffffffffffffffffffffffffffffffffffffffff169060200190929190505050610876565b604051808215151515815260200191505060405180910390f35b3480156102dc57600080fd5b50610331600480360381019080803573ffffffffffffffffffffffffffffffffffffffff169060200190929190803573ffffffffffffffffffffffffffffffffffffffff169060200190929190505050610896565b6040518082815260200191505060405180910390f35b34801561035357600080fd5b50610388600480360381019080803573ffffffffffffffffffffffffffffffffffffffff1690602001909291905050506108bb565b6040518082815260200191505060405180910390f35b3480156103aa57600080fd5b506103ed600480360381019080803573ffffffffffffffffffffffffffffffffffffffff1690602001909291908035600019169060200190929190505050610907565b005b3480156103fb57600080fd5b50610430600480360381019080803573ffffffffffffffffffffffffffffffffffffffff169060200190929190505050610961565b604051808215151515815260200191505060405180910390f35b34801561045657600080fd5b506104ab600480360381019080803573ffffffffffffffffffffffffffffffffffffffff169060200190929190803573ffffffffffffffffffffffffffffffffffffffff169060200190929190505050610981565b604051808215151515815260200191505060405180910390f35b3480156104d157600080fd5b50610506600480360381019080803573ffffffffffffffffffffffffffffffffffffffff1690602001909291905050506109b0565b6040518082815260200191505060405180910390f35b34801561052857600080fd5b5061055d600480360381019080803573ffffffffffffffffffffffffffffffffffffffff1690602001909291905050506109c8565b604051808215151515815260200191505060405180910390f35b34801561058357600080fd5b506105b8600480360381019080803573ffffffffffffffffffffffffffffffffffffffff1690602001909291905050506109e8565b6040518082815260200191505060405180910390f35b3480156105da57600080fd5b5061062f600480360381019080803573ffffffffffffffffffffffffffffffffffffffff169060200190929190803573ffffffffffffffffffffffffffffffffffffffff169060200190929190505050610a00565b604051808215151515815260200191505060405180910390f35b34801561065557600080fd5b5061068a600480360381019080803573ffffffffffffffffffffffffffffffffffffffff169060200190929190505050610a2f565b6040518082815260200191505060405180910390f35b3480156106ac57600080fd5b506106eb600480360381019080803573ffffffffffffffffffffffffffffffffffffffff16906020019092919080359060200190929190505050610a47565b604051808273ffffffffffffffffffffffffffffffffffffffff1673ffffffffffffffffffffffffffffffffffffffff16815260200191505060405180910390f35b34801561073957600080fd5b5061077c600480360381019080803573ffffffffffffffffffffffffffffffffffffffff1690602001909291908035600019169060200190929190505050610a94565b005b34801561078a57600080fd5b506107bf600480360381019080803573ffffffffffffffffffffffffffffffffffffffff169060200190929190505050610ba5565b6040518082815260200191505060405180910390f35b60016020528160005260406000206020528060005260406000206000915091509054906101000a900460ff1681565b6009602052816000526040600020602052806000526040600020600091509150505481565b60076020528160005260406000208181548110151561084457fe5b906000526020600020016000915091509054906101000a900473ffffffffffffffffffffffffffffffffffffffff1681565b60006020528060005260406000206000915054906101000a900460ff1681565b6008602052816000526040600020602052806000526040600020600091509150505481565b6000600260008373ffffffffffffffffffffffffffffffffffffffff1673ffffffffffffffffffffffffffffffffffffffff168152602001908152602001600020805490509050919050565b8173ffffffffffffffffffffffffffffffffffffffff167f331a1f487a28b8376d30fb1eb6f8641f7e4f82871e3c61021acec73dc1c856908260405180826000191660001916815260200191505060405180910390a25050565b600c6020528060005260406000206000915054906101000a900460ff1681565b600d6020528160005260406000206020528060005260406000206000915091509054906101000a900460ff1681565b60046020528060005260406000206000915090505481565b60056020528060005260406000206000915054906101000a900460ff1681565b600b6020528060005260406000206000915090505481565b60066020528160005260406000206020528060005260406000206000915091509054906101000a900460ff1681565b60036020528060005260406000206000915090505481565b600260205281600052604060002081815481101515610a6257fe5b906000526020600020016000915091509054906101000a900473ffffffffffffffffffffffffffffffffffffffff1681565b60001515600c60008473ffffffffffffffffffffffffffffffffffffffff1673ffffffffffffffffffffffffffffffffffffffff16815260200190815260200160002060009054906101000a900460ff161515141515610af357600080fd5b6001600c60008473ffffffffffffffffffffffffffffffffffffffff1673ffffffffffffffffffffffffffffffffffffffff16815260200190815260200160002060006101000a81548160ff0219169083151502179055508173ffffffffffffffffffffffffffffffffffffffff167f331a1f487a28b8376d30fb1eb6f8641f7e4f82871e3c61021acec73dc1c856908260405180826000191660001916815260200191505060405180910390a25050565b600a60205280600052604060002060009150905054815600a165627a7a7230582084deabcd51c4d4ead360a2817a2260a48920a79927d1f5b8a8425c81d4e325220029",
  "source": "pragma solidity ^0.4.24;\n\nimport './KudosActor.sol';\n\ncontract KudosUser is KudosActor {\n\n  event UserProfileUpdated(address indexed _userAddress, bytes32 _ipfsHash);\n\n\n  function registerAsUser(address _userAddress, bytes32 _ipfsHash) public {\n\n    require(isUser[_userAddress] == false);\n    isUser[_userAddress] = true;\n    emit UserProfileUpdated(_userAddress, _ipfsHash);\n  }\n\n  function updateUserProfile(address _userAddress, bytes32 _ipfsHash) public {\n    emit UserProfileUpdated(_userAddress, _ipfsHash);\n  }\n}\n\n",
  "sourcePath": "/Users/panda/projects/kudos/packages/kudos-contracts/contracts/KudosUser.sol",
  "compiler": {
    "name": "solc",
    "version": "0.4.24+commit.e67f0147.Emscripten.clang"
  },
  "schemaVersion": "2.0.1",
  "updatedAt": "2018-07-24T14:52:55.499Z"
}