{
  "contractName": "KudosRewards",
  "abi": [
    {
      "constant": true,
      "inputs": [],
      "name": "growthPoolRewardSystem",
      "outputs": [
        {
          "name": "numberOfRewardSteps",
          "type": "uint256"
        },
        {
          "name": "numberOfRewardCycles",
          "type": "uint256"
        },
        {
          "name": "numberOfRewardLevels",
          "type": "uint256"
        },
        {
          "name": "ipfsHash",
          "type": "bytes32"
        }
      ],
      "payable": false,
      "stateMutability": "view",
      "type": "function"
    },
    {
      "constant": true,
      "inputs": [
        {
          "name": "",
          "type": "address"
        }
      ],
      "name": "userRewardSystem",
      "outputs": [
        {
          "name": "numberOfRewardSteps",
          "type": "uint256"
        },
        {
          "name": "numberOfRewardCycles",
          "type": "uint256"
        },
        {
          "name": "numberOfRewardLevels",
          "type": "uint256"
        },
        {
          "name": "ipfsHash",
          "type": "bytes32"
        }
      ],
      "payable": false,
      "stateMutability": "view",
      "type": "function"
    },
    {
      "constant": true,
      "inputs": [
        {
          "name": "",
          "type": "address"
        }
      ],
      "name": "workerRewardSystem",
      "outputs": [
        {
          "name": "numberOfRewardSteps",
          "type": "uint256"
        },
        {
          "name": "numberOfRewardCycles",
          "type": "uint256"
        },
        {
          "name": "numberOfRewardLevels",
          "type": "uint256"
        },
        {
          "name": "ipfsHash",
          "type": "bytes32"
        }
      ],
      "payable": false,
      "stateMutability": "view",
      "type": "function"
    },
    {
      "anonymous": false,
      "inputs": [
        {
          "indexed": true,
          "name": "_businessAddress",
          "type": "address"
        }
      ],
      "name": "RegisterUserRewardSystem",
      "type": "event"
    },
    {
      "anonymous": false,
      "inputs": [
        {
          "indexed": true,
          "name": "_businessAddress",
          "type": "address"
        }
      ],
      "name": "RegisterWorkerRewardSystem",
      "type": "event"
    },
    {
      "anonymous": false,
      "inputs": [],
      "name": "RegisterGrowthPoolRewardSystem",
      "type": "event"
    },
    {
      "constant": false,
      "inputs": [
        {
          "name": "_businessAddress",
          "type": "address"
        },
        {
          "name": "_numberOfRewardSteps",
          "type": "uint256"
        },
        {
          "name": "_numberOfRewardCycles",
          "type": "uint256"
        },
        {
          "name": "_numberOfRewardLevels",
          "type": "uint256"
        },
        {
          "name": "_levelRewards",
          "type": "uint256[]"
        },
        {
          "name": "_ipfsHash",
          "type": "bytes32"
        }
      ],
      "name": "registerUserRewardSystem",
      "outputs": [],
      "payable": false,
      "stateMutability": "nonpayable",
      "type": "function"
    },
    {
      "constant": false,
      "inputs": [
        {
          "name": "_businessAddress",
          "type": "address"
        },
        {
          "name": "_numberOfRewardSteps",
          "type": "uint256"
        },
        {
          "name": "_numberOfRewardCycles",
          "type": "uint256"
        },
        {
          "name": "_numberOfRewardLevels",
          "type": "uint256"
        },
        {
          "name": "_levelRewards",
          "type": "uint256[]"
        },
        {
          "name": "_ratingRewards",
          "type": "uint256[5]"
        },
        {
          "name": "_ipfsHash",
          "type": "bytes32"
        }
      ],
      "name": "registerWorkerRewardSystem",
      "outputs": [],
      "payable": false,
      "stateMutability": "nonpayable",
      "type": "function"
    },
    {
      "constant": true,
      "inputs": [
        {
          "name": "_businessAddress",
          "type": "address"
        }
      ],
      "name": "getUserRewardSystem",
      "outputs": [
        {
          "name": "_numberOfRewardSteps",
          "type": "uint256"
        },
        {
          "name": "_numberOfRewardCycles",
          "type": "uint256"
        },
        {
          "name": "_numberOfRewardLevels",
          "type": "uint256"
        },
        {
          "name": "_levelRewards",
          "type": "uint256[]"
        },
        {
          "name": "_ratingRewards",
          "type": "uint256[5]"
        },
        {
          "name": "_ipfsHash",
          "type": "bytes32"
        }
      ],
      "payable": false,
      "stateMutability": "view",
      "type": "function"
    },
    {
      "constant": true,
      "inputs": [
        {
          "name": "_businessAddress",
          "type": "address"
        }
      ],
      "name": "getWorkerRewardSystem",
      "outputs": [
        {
          "name": "_numberOfRewardSteps",
          "type": "uint256"
        },
        {
          "name": "_numberOfRewardCycles",
          "type": "uint256"
        },
        {
          "name": "_numberOfRewardLevels",
          "type": "uint256"
        },
        {
          "name": "_levelRewards",
          "type": "uint256[]"
        },
        {
          "name": "_ratingRewards",
          "type": "uint256[5]"
        },
        {
          "name": "_ipfsHash",
          "type": "bytes32"
        }
      ],
      "payable": false,
      "stateMutability": "view",
      "type": "function"
    }
  ],
  "bytecode": "0x608060405234801561001057600080fd5b50610c1e806100206000396000f300608060405260043610610083576000357c0100000000000000000000000000000000000000000000000000000000900463ffffffff168063092914ff14610088578063193ad4e7146101695780631c94695214610254578063688529571461029c57806378939f9d146103105780638b3504f2146103fb578063b19681fd1461046f575b600080fd5b34801561009457600080fd5b50610167600480360381019080803573ffffffffffffffffffffffffffffffffffffffff169060200190929190803590602001909291908035906020019092919080359060200190929190803590602001908201803590602001908080602002602001604051908101604052809392919081815260200183836020028082843782019150505050505091929192908060a001906005806020026040519081016040528092919082600560200280828437820191505050505091929192908035600019169060200190929190505050610521565b005b34801561017557600080fd5b506101aa600480360381019080803573ffffffffffffffffffffffffffffffffffffffff169060200190929190505050610644565b604051808781526020018681526020018581526020018060200184600560200280838360005b838110156101eb5780820151818401526020810190506101d0565b505050509050018360001916600019168152602001828103825285818151815260200191508051906020019060200280838360005b8381101561023b578082015181840152602081019050610220565b5050505090500197505050505050505060405180910390f35b34801561026057600080fd5b506102696107aa565b60405180858152602001848152602001838152602001826000191660001916815260200194505050505060405180910390f35b3480156102a857600080fd5b506102dd600480360381019080803573ffffffffffffffffffffffffffffffffffffffff1690602001909291905050506107c8565b60405180858152602001848152602001838152602001826000191660001916815260200194505050505060405180910390f35b34801561031c57600080fd5b50610351600480360381019080803573ffffffffffffffffffffffffffffffffffffffff1690602001909291905050506107f8565b604051808781526020018681526020018581526020018060200184600560200280838360005b83811015610392578082015181840152602081019050610377565b505050509050018360001916600019168152602001828103825285818151815260200191508051906020019060200280838360005b838110156103e25780820151818401526020810190506103c7565b5050505090500197505050505050505060405180910390f35b34801561040757600080fd5b5061043c600480360381019080803573ffffffffffffffffffffffffffffffffffffffff16906020019092919050505061095f565b60405180858152602001848152602001838152602001826000191660001916815260200194505050505060405180910390f35b34801561047b57600080fd5b5061051f600480360381019080803573ffffffffffffffffffffffffffffffffffffffff16906020019092919080359060200190929190803590602001909291908035906020019092919080359060200190820180359060200190808060200260200160405190810160405280939291908181526020018383602002808284378201915050505050509192919290803560001916906020019092919050505061098f565b005b60c0604051908101604052808781526020018681526020018581526020018481526020018381526020018260001916815250600160008973ffffffffffffffffffffffffffffffffffffffff1673ffffffffffffffffffffffffffffffffffffffff16815260200190815260200160002060008201518160000155602082015181600101556040820151816002015560608201518160030190805190602001906105cc929190610ab9565b506080820151816004019060056105e4929190610b06565b5060a082015181600901906000191690559050508673ffffffffffffffffffffffffffffffffffffffff167f910de68bbeafb3b17db876b63617e0d84a56e46ed90d7b475ca836fc62ec82c960405160405180910390a250505050505050565b60008060006060610653610b46565b600061065d610b69565b6000808973ffffffffffffffffffffffffffffffffffffffff1673ffffffffffffffffffffffffffffffffffffffff16815260200190815260200160002060c060405190810160405290816000820154815260200160018201548152602001600282015481526020016003820180548060200260200160405190810160405280929190818152602001828054801561071457602002820191906000526020600020905b815481526020019060010190808311610700575b5050505050815260200160048201600580602002604051908101604052809291908260058015610759576020028201915b815481526020019060010190808311610745575b505050505081526020016009820154600019166000191681525050905080600001519650806020015195508060400151945080606001519350806080015192508060a0015191505091939550919395565b60028060000154908060010154908060020154908060090154905084565b60006020528060005260406000206000915090508060000154908060010154908060020154908060090154905084565b60008060006060610807610b46565b6000610811610b69565b600160008973ffffffffffffffffffffffffffffffffffffffff1673ffffffffffffffffffffffffffffffffffffffff16815260200190815260200160002060c06040519081016040529081600082015481526020016001820154815260200160028201548152602001600382018054806020026020016040519081016040528092919081815260200182805480156108c957602002820191906000526020600020905b8154815260200190600101908083116108b5575b505050505081526020016004820160058060200260405190810160405280929190826005801561090e576020028201915b8154815260200190600101908083116108fa575b505050505081526020016009820154600019166000191681525050905080600001519650806020015195508060400151945080606001519350806080015192508060a0015191505091939550919395565b60016020528060005260406000206000915090508060000154908060010154908060020154908060090154905084565b610997610b46565b60c06040519081016040528087815260200186815260200185815260200184815260200182815260200183600019168152506000808973ffffffffffffffffffffffffffffffffffffffff1673ffffffffffffffffffffffffffffffffffffffff1681526020019081526020016000206000820151816000015560208201518160010155604082015181600201556060820151816003019080519060200190610a41929190610ab9565b50608082015181600401906005610a59929190610b06565b5060a082015181600901906000191690559050508673ffffffffffffffffffffffffffffffffffffffff167fe04286428ba72349229a5e6d1ffcd9120bd0eecad71b420398ad31e81682d38760405160405180910390a250505050505050565b828054828255906000526020600020908101928215610af5579160200282015b82811115610af4578251825591602001919060010190610ad9565b5b509050610b029190610baa565b5090565b8260058101928215610b35579160200282015b82811115610b34578251825591602001919060010190610b19565b5b509050610b429190610baa565b5090565b60a060405190810160405280600590602082028038833980820191505090505090565b6101406040519081016040528060008152602001600081526020016000815260200160608152602001610b9a610bcf565b8152602001600080191681525090565b610bcc91905b80821115610bc8576000816000905550600101610bb0565b5090565b90565b60a0604051908101604052806005906020820280388339808201915050905050905600a165627a7a7230582060df0cdd1f480d64d450cba05b5578228bca5df5f792713072f7affc1448d18d0029",
  "source": "pragma solidity ^0.4.24;\n\ncontract KudosRewards {\n\n  struct RewardSystem {\n\n    uint256 numberOfRewardSteps;\n    uint256 numberOfRewardCycles;\n    uint256 numberOfRewardLevels;\n\n    uint256[] levelRewards;\n    uint256[5] ratingRewards;\n    bytes32 ipfsHash;\n\n    mapping(bytes32 => uint256) rewardStep;\n    mapping(bytes32 => uint256) rewardCycle;\n    mapping(bytes32 => uint256) rewardLevel;\n    mapping(bytes32 => uint256) rewardRank;\n  }\n\n  mapping(address => RewardSystem) public userRewardSystem;\n  mapping(address => RewardSystem) public workerRewardSystem;\n  RewardSystem public growthPoolRewardSystem;\n\n  event RegisterUserRewardSystem(address indexed _businessAddress);\n  event RegisterWorkerRewardSystem(address indexed _businessAddress);\n  event RegisterGrowthPoolRewardSystem();\n\n  function registerUserRewardSystem(address _businessAddress, uint256 _numberOfRewardSteps, uint256 _numberOfRewardCycles, uint256 _numberOfRewardLevels, uint256[] _levelRewards, bytes32 _ipfsHash) public {\n\n    uint256[5] memory emptyRatingRewards;\n    userRewardSystem[_businessAddress] = RewardSystem(_numberOfRewardSteps, _numberOfRewardCycles, _numberOfRewardLevels, _levelRewards, emptyRatingRewards, _ipfsHash);\n    emit RegisterUserRewardSystem(_businessAddress);\n  }\n\n  function registerWorkerRewardSystem(address _businessAddress, uint256 _numberOfRewardSteps, uint256 _numberOfRewardCycles, uint256 _numberOfRewardLevels, uint256[] _levelRewards, uint256[5] _ratingRewards, bytes32 _ipfsHash) public {\n\n    workerRewardSystem[_businessAddress] = RewardSystem(_numberOfRewardSteps, _numberOfRewardCycles, _numberOfRewardLevels, _levelRewards, _ratingRewards, _ipfsHash);\n    emit RegisterWorkerRewardSystem(_businessAddress);\n  }\n\n//  function updateUserRewardProgress() internal pure {\n//  }\n//\n//  function updateWorkerRewardProgress() internal pure {\n//\n//  }\n//\n//  function updateGrowthPoolProgress(address _userAddress, address _workerAddress, address _businessAddress) internal pure {\n//\n//  }\n//\n//  function transferRewardFromBusinessPool(address _businessAddress, address _recipient) internal pure {\n//\n//  }\n//\n//  function transferRewardFromGrowthPool(address _businessAddress, address _recipient) internal pure {\n//\n//  }\n\n  // getters\n  function getUserRewardSystem(address _businessAddress) public view returns (uint256 _numberOfRewardSteps, uint256 _numberOfRewardCycles, uint256 _numberOfRewardLevels, uint256[] _levelRewards, uint256[5] _ratingRewards, bytes32 _ipfsHash) {\n\n    RewardSystem memory rewardSystem = userRewardSystem[_businessAddress];\n\n    _numberOfRewardSteps = rewardSystem.numberOfRewardSteps;\n    _numberOfRewardCycles = rewardSystem.numberOfRewardCycles;\n    _numberOfRewardLevels = rewardSystem.numberOfRewardLevels;\n    _levelRewards = rewardSystem.levelRewards;\n    _ratingRewards = rewardSystem.ratingRewards;\n    _ipfsHash = rewardSystem.ipfsHash;\n  }\n\n  function getWorkerRewardSystem(address _businessAddress) public view returns (uint256 _numberOfRewardSteps, uint256 _numberOfRewardCycles, uint256 _numberOfRewardLevels, uint256[] _levelRewards, uint256[5] _ratingRewards, bytes32 _ipfsHash) {\n\n    RewardSystem memory rewardSystem = workerRewardSystem[_businessAddress];\n\n    _numberOfRewardSteps = rewardSystem.numberOfRewardSteps;\n    _numberOfRewardCycles = rewardSystem.numberOfRewardCycles;\n    _numberOfRewardLevels = rewardSystem.numberOfRewardLevels;\n    _levelRewards = rewardSystem.levelRewards;\n    _ratingRewards = rewardSystem.ratingRewards;\n    _ipfsHash = rewardSystem.ipfsHash;\n  }\n}\n",
  "sourcePath": "/Users/panda/projects/kudos/packages/kudos-contracts/contracts/KudosRewards.sol",
  "compiler": {
    "name": "solc",
    "version": "0.4.24+commit.e67f0147.Emscripten.clang"
  },
  "schemaVersion": "2.0.1",
  "updatedAt": "2018-07-18T19:33:19.599Z"
}