{
  "contractName": "KudosRewards",
  "abi": [
    {
      "constant": true,
      "inputs": [],
      "name": "kudosToken",
      "outputs": [
        {
          "name": "",
          "type": "address"
        }
      ],
      "payable": false,
      "stateMutability": "view",
      "type": "function"
    },
    {
      "constant": true,
      "inputs": [],
      "name": "growthPoolRewardSystem",
      "outputs": [
        {
          "name": "numberOfRewardSteps",
          "type": "uint256"
        },
        {
          "name": "numberOfRewardLevels",
          "type": "uint256"
        },
        {
          "name": "ipfsHash",
          "type": "bytes32"
        }
      ],
      "payable": false,
      "stateMutability": "view",
      "type": "function"
    },
    {
      "constant": true,
      "inputs": [
        {
          "name": "",
          "type": "address"
        },
        {
          "name": "",
          "type": "uint256"
        }
      ],
      "name": "ratingRewardPercentages",
      "outputs": [
        {
          "name": "",
          "type": "uint256"
        }
      ],
      "payable": false,
      "stateMutability": "view",
      "type": "function"
    },
    {
      "constant": true,
      "inputs": [
        {
          "name": "",
          "type": "address"
        }
      ],
      "name": "userRewardSystem",
      "outputs": [
        {
          "name": "numberOfRewardSteps",
          "type": "uint256"
        },
        {
          "name": "numberOfRewardLevels",
          "type": "uint256"
        },
        {
          "name": "ipfsHash",
          "type": "bytes32"
        }
      ],
      "payable": false,
      "stateMutability": "view",
      "type": "function"
    },
    {
      "constant": false,
      "inputs": [],
      "name": "renounceOwnership",
      "outputs": [],
      "payable": false,
      "stateMutability": "nonpayable",
      "type": "function"
    },
    {
      "constant": true,
      "inputs": [
        {
          "name": "",
          "type": "address"
        }
      ],
      "name": "workerRewardSystem",
      "outputs": [
        {
          "name": "numberOfRewardSteps",
          "type": "uint256"
        },
        {
          "name": "numberOfRewardLevels",
          "type": "uint256"
        },
        {
          "name": "ipfsHash",
          "type": "bytes32"
        }
      ],
      "payable": false,
      "stateMutability": "view",
      "type": "function"
    },
    {
      "constant": true,
      "inputs": [],
      "name": "owner",
      "outputs": [
        {
          "name": "",
          "type": "address"
        }
      ],
      "payable": false,
      "stateMutability": "view",
      "type": "function"
    },
    {
      "constant": false,
      "inputs": [
        {
          "name": "_newOwner",
          "type": "address"
        }
      ],
      "name": "transferOwnership",
      "outputs": [],
      "payable": false,
      "stateMutability": "nonpayable",
      "type": "function"
    },
    {
      "anonymous": false,
      "inputs": [
        {
          "indexed": true,
          "name": "_businessAddress",
          "type": "address"
        }
      ],
      "name": "RegisterUserRewardSystem",
      "type": "event"
    },
    {
      "anonymous": false,
      "inputs": [
        {
          "indexed": true,
          "name": "_businessAddress",
          "type": "address"
        }
      ],
      "name": "RegisterWorkerRewardSystem",
      "type": "event"
    },
    {
      "anonymous": false,
      "inputs": [],
      "name": "RegisterGrowthPoolRewardSystem",
      "type": "event"
    },
    {
      "anonymous": false,
      "inputs": [
        {
          "indexed": true,
          "name": "previousOwner",
          "type": "address"
        }
      ],
      "name": "OwnershipRenounced",
      "type": "event"
    },
    {
      "anonymous": false,
      "inputs": [
        {
          "indexed": true,
          "name": "previousOwner",
          "type": "address"
        },
        {
          "indexed": true,
          "name": "newOwner",
          "type": "address"
        }
      ],
      "name": "OwnershipTransferred",
      "type": "event"
    },
    {
      "constant": false,
      "inputs": [
        {
          "name": "_businessAddress",
          "type": "address"
        },
        {
          "name": "_numberOfRewardSteps",
          "type": "uint256"
        },
        {
          "name": "_numberOfRewardCyclesForLevel",
          "type": "uint256[]"
        },
        {
          "name": "_numberOfRewardLevels",
          "type": "uint256"
        },
        {
          "name": "_levelRewards",
          "type": "uint256[]"
        },
        {
          "name": "_ipfsHash",
          "type": "bytes32"
        }
      ],
      "name": "registerUserRewardSystem",
      "outputs": [],
      "payable": false,
      "stateMutability": "nonpayable",
      "type": "function"
    },
    {
      "constant": false,
      "inputs": [
        {
          "name": "_businessAddress",
          "type": "address"
        },
        {
          "name": "_numberOfRewardSteps",
          "type": "uint256"
        },
        {
          "name": "_numberOfRewardCyclesForLevel",
          "type": "uint256[]"
        },
        {
          "name": "_numberOfRewardLevels",
          "type": "uint256"
        },
        {
          "name": "_levelRewards",
          "type": "uint256[]"
        },
        {
          "name": "_ipfsHash",
          "type": "bytes32"
        }
      ],
      "name": "registerWorkerRewardSystem",
      "outputs": [],
      "payable": false,
      "stateMutability": "nonpayable",
      "type": "function"
    },
    {
      "constant": false,
      "inputs": [
        {
          "name": "_numberOfRewardSteps",
          "type": "uint256"
        },
        {
          "name": "_numberOfRewardCyclesForLevel",
          "type": "uint256[]"
        },
        {
          "name": "_numberOfRewardLevels",
          "type": "uint256"
        },
        {
          "name": "_levelRewards",
          "type": "uint256[]"
        },
        {
          "name": "_ipfsHash",
          "type": "bytes32"
        }
      ],
      "name": "registerGrowthPoolRewardSystem",
      "outputs": [],
      "payable": false,
      "stateMutability": "nonpayable",
      "type": "function"
    },
    {
      "constant": true,
      "inputs": [
        {
          "name": "_businessAddress",
          "type": "address"
        }
      ],
      "name": "getUserRewardSystem",
      "outputs": [
        {
          "name": "_numberOfRewardSteps",
          "type": "uint256"
        },
        {
          "name": "_numberOfRewardCyclesForLevel",
          "type": "uint256[]"
        },
        {
          "name": "_numberOfRewardLevels",
          "type": "uint256"
        },
        {
          "name": "_levelRewards",
          "type": "uint256[]"
        },
        {
          "name": "_ipfsHash",
          "type": "bytes32"
        }
      ],
      "payable": false,
      "stateMutability": "view",
      "type": "function"
    },
    {
      "constant": true,
      "inputs": [
        {
          "name": "_businessAddress",
          "type": "address"
        }
      ],
      "name": "getWorkerRewardSystem",
      "outputs": [
        {
          "name": "_numberOfRewardSteps",
          "type": "uint256"
        },
        {
          "name": "_numberOfRewardCyclesForLevel",
          "type": "uint256[]"
        },
        {
          "name": "_numberOfRewardLevels",
          "type": "uint256"
        },
        {
          "name": "_levelRewards",
          "type": "uint256[]"
        },
        {
          "name": "_ipfsHash",
          "type": "bytes32"
        }
      ],
      "payable": false,
      "stateMutability": "view",
      "type": "function"
    },
    {
      "constant": true,
      "inputs": [],
      "name": "getGrowthPoolRewardSystem",
      "outputs": [
        {
          "name": "_numberOfRewardSteps",
          "type": "uint256"
        },
        {
          "name": "_numberOfRewardCyclesForLevel",
          "type": "uint256[]"
        },
        {
          "name": "_numberOfRewardLevels",
          "type": "uint256"
        },
        {
          "name": "_levelRewards",
          "type": "uint256[]"
        },
        {
          "name": "_ipfsHash",
          "type": "bytes32"
        }
      ],
      "payable": false,
      "stateMutability": "view",
      "type": "function"
    }
  ],
  "bytecode": "0x6080604052336000806101000a81548173ffffffffffffffffffffffffffffffffffffffff021916908373ffffffffffffffffffffffffffffffffffffffff1602179055506113ba806100536000396000f3006080604052600436106100d0576000357c0100000000000000000000000000000000000000000000000000000000900463ffffffff168063016dd6ff146100d557806303d7c87d1461012c578063193ad4e7146101f75780631c946952146102f457806347d2bc70146103355780634f0b5904146104205780636885295714610481578063715018a6146104ee57806378939f9d146105055780638b3504f2146106025780638da5cb5b1461066f578063b0106aa3146106c6578063b06af56b14610797578063f2fde38b14610882575b600080fd5b3480156100e157600080fd5b506100ea6108c5565b604051808273ffffffffffffffffffffffffffffffffffffffff1673ffffffffffffffffffffffffffffffffffffffff16815260200191505060405180910390f35b34801561013857600080fd5b506101f56004803603810190808035906020019092919080359060200190820180359060200190808060200260200160405190810160405280939291908181526020018383602002808284378201915050505050509192919290803590602001909291908035906020019082018035906020019080806020026020016040519081016040528093929190818152602001838360200280828437820191505050505050919291929080356000191690602001909291905050506108eb565b005b34801561020357600080fd5b50610238600480360381019080803573ffffffffffffffffffffffffffffffffffffffff169060200190929190505050610a08565b6040518086815260200180602001858152602001806020018460001916600019168152602001838103835287818151815260200191508051906020019060200280838360005b8381101561029957808201518184015260208101905061027e565b50505050905001838103825285818151815260200191508051906020019060200280838360005b838110156102db5780820151818401526020810190506102c0565b5050505090500197505050505050505060405180910390f35b34801561030057600080fd5b50610309610b6a565b604051808481526020018381526020018260001916600019168152602001935050505060405180910390f35b34801561034157600080fd5b5061041e600480360381019080803573ffffffffffffffffffffffffffffffffffffffff169060200190929190803590602001909291908035906020019082018035906020019080806020026020016040519081016040528093929190818152602001838360200280828437820191505050505050919291929080359060200190929190803590602001908201803590602001908080602002602001604051908101604052809392919081815260200183836020028082843782019150505050505091929192908035600019169060200190929190505050610b82565b005b34801561042c57600080fd5b5061046b600480360381019080803573ffffffffffffffffffffffffffffffffffffffff16906020019092919080359060200190929190505050610c99565b6040518082815260200191505060405180910390f35b34801561048d57600080fd5b506104c2600480360381019080803573ffffffffffffffffffffffffffffffffffffffff169060200190929190505050610cc0565b604051808481526020018381526020018260001916600019168152602001935050505060405180910390f35b3480156104fa57600080fd5b50610503610cea565b005b34801561051157600080fd5b50610546600480360381019080803573ffffffffffffffffffffffffffffffffffffffff169060200190929190505050610dec565b6040518086815260200180602001858152602001806020018460001916600019168152602001838103835287818151815260200191508051906020019060200280838360005b838110156105a757808201518184015260208101905061058c565b50505050905001838103825285818151815260200191508051906020019060200280838360005b838110156105e95780820151818401526020810190506105ce565b5050505090500197505050505050505060405180910390f35b34801561060e57600080fd5b50610643600480360381019080803573ffffffffffffffffffffffffffffffffffffffff169060200190929190505050610f4e565b604051808481526020018381526020018260001916600019168152602001935050505060405180910390f35b34801561067b57600080fd5b50610684610f78565b604051808273ffffffffffffffffffffffffffffffffffffffff1673ffffffffffffffffffffffffffffffffffffffff16815260200191505060405180910390f35b3480156106d257600080fd5b506106db610f9d565b6040518086815260200180602001858152602001806020018460001916600019168152602001838103835287818151815260200191508051906020019060200280838360005b8381101561073c578082015181840152602081019050610721565b50505050905001838103825285818151815260200191508051906020019060200280838360005b8381101561077e578082015181840152602081019050610763565b5050505090500197505050505050505060405180910390f35b3480156107a357600080fd5b50610880600480360381019080803573ffffffffffffffffffffffffffffffffffffffff169060200190929190803590602001909291908035906020019082018035906020019080806020026020016040519081016040528093929190818152602001838360200280828437820191505050505050919291929080359060200190929190803590602001908201803590602001908080602002602001604051908101604052809392919081815260200183836020028082843782019150505050505091929192908035600019169060200190929190505050611071565b005b34801561088e57600080fd5b506108c3600480360381019080803573ffffffffffffffffffffffffffffffffffffffff169060200190929190505050611188565b005b600160009054906101000a900473ffffffffffffffffffffffffffffffffffffffff1681565b6000809054906101000a900473ffffffffffffffffffffffffffffffffffffffff1673ffffffffffffffffffffffffffffffffffffffff163373ffffffffffffffffffffffffffffffffffffffff1614151561094657600080fd5b60a0604051908101604052808681526020018581526020018481526020018381526020018260001916815250600460008201518160000155602082015181600101908051906020019061099a9291906112e9565b506040820151816002015560608201518160030190805190602001906109c19291906112e9565b50608082015181600401906000191690559050507fcecb7f2a433f872143ebb31ebe6bc5cd169e6a657bc645805e460bf08188818960405160405180910390a15050505050565b60006060600060606000610a1a611336565b600260008873ffffffffffffffffffffffffffffffffffffffff1673ffffffffffffffffffffffffffffffffffffffff16815260200190815260200160002060a060405190810160405290816000820154815260200160018201805480602002602001604051908101604052809291908181526020018280548015610abe57602002820191906000526020600020905b815481526020019060010190808311610aaa575b505050505081526020016002820154815260200160038201805480602002602001604051908101604052809291908181526020018280548015610b2057602002820191906000526020600020905b815481526020019060010190808311610b0c575b505050505081526020016004820154600019166000191681525050905080600001519550806020015194508060400151935080606001519250806080015191505091939590929450565b60048060000154908060020154908060040154905083565b60a0604051908101604052808681526020018581526020018481526020018381526020018260001916815250600260008873ffffffffffffffffffffffffffffffffffffffff1673ffffffffffffffffffffffffffffffffffffffff168152602001908152602001600020600082015181600001556020820151816001019080519060200190610c139291906112e9565b50604082015181600201556060820151816003019080519060200190610c3a9291906112e9565b50608082015181600401906000191690559050508573ffffffffffffffffffffffffffffffffffffffff167fe04286428ba72349229a5e6d1ffcd9120bd0eecad71b420398ad31e81682d38760405160405180910390a2505050505050565b600d60205281600052604060002081600581101515610cb457fe5b01600091509150505481565b60026020528060005260406000206000915090508060000154908060020154908060040154905083565b6000809054906101000a900473ffffffffffffffffffffffffffffffffffffffff1673ffffffffffffffffffffffffffffffffffffffff163373ffffffffffffffffffffffffffffffffffffffff16141515610d4557600080fd5b6000809054906101000a900473ffffffffffffffffffffffffffffffffffffffff1673ffffffffffffffffffffffffffffffffffffffff167ff8df31144d9c2f0f6b59d69b8b98abd5459d07f2742c4df920b25aae33c6482060405160405180910390a260008060006101000a81548173ffffffffffffffffffffffffffffffffffffffff021916908373ffffffffffffffffffffffffffffffffffffffff160217905550565b60006060600060606000610dfe611336565b600360008873ffffffffffffffffffffffffffffffffffffffff1673ffffffffffffffffffffffffffffffffffffffff16815260200190815260200160002060a060405190810160405290816000820154815260200160018201805480602002602001604051908101604052809291908181526020018280548015610ea257602002820191906000526020600020905b815481526020019060010190808311610e8e575b505050505081526020016002820154815260200160038201805480602002602001604051908101604052809291908181526020018280548015610f0457602002820191906000526020600020905b815481526020019060010190808311610ef0575b505050505081526020016004820154600019166000191681525050905080600001519550806020015194508060400151935080606001519250806080015191505091939590929450565b60036020528060005260406000206000915090508060000154908060020154908060040154905083565b6000809054906101000a900473ffffffffffffffffffffffffffffffffffffffff1681565b6000606060006060600060046000015494506004600101805480602002602001604051908101604052809291908181526020018280548015610ffe57602002820191906000526020600020905b815481526020019060010190808311610fea575b505050505093506004600201549250600460030180548060200260200160405190810160405280929190818152602001828054801561105c57602002820191906000526020600020905b815481526020019060010190808311611048575b50505050509150600480015490509091929394565b60a0604051908101604052808681526020018581526020018481526020018381526020018260001916815250600360008873ffffffffffffffffffffffffffffffffffffffff1673ffffffffffffffffffffffffffffffffffffffff1681526020019081526020016000206000820151816000015560208201518160010190805190602001906111029291906112e9565b506040820151816002015560608201518160030190805190602001906111299291906112e9565b50608082015181600401906000191690559050508573ffffffffffffffffffffffffffffffffffffffff167f910de68bbeafb3b17db876b63617e0d84a56e46ed90d7b475ca836fc62ec82c960405160405180910390a2505050505050565b6000809054906101000a900473ffffffffffffffffffffffffffffffffffffffff1673ffffffffffffffffffffffffffffffffffffffff163373ffffffffffffffffffffffffffffffffffffffff161415156111e357600080fd5b6111ec816111ef565b50565b600073ffffffffffffffffffffffffffffffffffffffff168173ffffffffffffffffffffffffffffffffffffffff161415151561122b57600080fd5b8073ffffffffffffffffffffffffffffffffffffffff166000809054906101000a900473ffffffffffffffffffffffffffffffffffffffff1673ffffffffffffffffffffffffffffffffffffffff167f8be0079c531659141344cd1fd0a4f28419497f9722a3daafe3b4186f6b6457e060405160405180910390a3806000806101000a81548173ffffffffffffffffffffffffffffffffffffffff021916908373ffffffffffffffffffffffffffffffffffffffff16021790555050565b828054828255906000526020600020908101928215611325579160200282015b82811115611324578251825591602001919060010190611309565b5b5090506113329190611369565b5090565b60a06040519081016040528060008152602001606081526020016000815260200160608152602001600080191681525090565b61138b91905b8082111561138757600081600090555060010161136f565b5090565b905600a165627a7a72305820022d97039cf2b84509f52a52005f59a71b6326fb38881c65c80b1d3f25bb2d9d0029",
  "source": "pragma solidity ^0.4.24;\n\nimport './Ownable.sol';\nimport \"../../kudos-token-contracts/contracts/SafeMath.sol\";\nimport '../../kudos-token-contracts/contracts/ERC20Token.sol';\n\ncontract KudosRewards is Ownable {\n  using SafeMath for uint256;\n\n  ERC20Token public kudosToken;\n  uint256 internal constant tokenUnit = 10 ** 18;\n\n  event RegisterUserRewardSystem(address indexed _businessAddress);\n  event RegisterWorkerRewardSystem(address indexed _businessAddress);\n  event RegisterGrowthPoolRewardSystem();\n\n  struct RewardSystem {\n\n    uint256 numberOfRewardSteps;\n    uint256[] numberOfRewardCyclesForLevel;\n    uint256 numberOfRewardLevels;\n\n    uint256[] levelRewards;\n    bytes32 ipfsHash;\n\n    mapping(address => uint256) rewardStep;\n    mapping(address => uint256) rewardCycle;\n    mapping(address => uint256) rewardLevel;\n    mapping(address => uint256) rewardRank;\n  }\n\n  mapping(address => RewardSystem) public userRewardSystem;\n  mapping(address => RewardSystem) public workerRewardSystem;\n  RewardSystem public growthPoolRewardSystem;\n\n  mapping(address => uint256[5]) public ratingRewardPercentages;\n\n  function rewardWorker(address _workerAddress, address _businessAddress, uint256 _workerRating) internal {\n\n    uint256[5] storage ratingRewardPercentageValues = ratingRewardPercentages[_businessAddress];\n    uint256 rewardValue = ratingRewardPercentageValues[4] * ratingRewardPercentageValues[_workerRating] / 100;\n    kudosToken.transferFrom(_businessAddress, _workerAddress, rewardValue);\n  }\n\n  function registerUserRewardSystem(address _businessAddress, uint256 _numberOfRewardSteps, uint256[] _numberOfRewardCyclesForLevel, uint256 _numberOfRewardLevels, uint256[] _levelRewards, bytes32 _ipfsHash) public {\n\n    userRewardSystem[_businessAddress] = RewardSystem(_numberOfRewardSteps, _numberOfRewardCyclesForLevel, _numberOfRewardLevels, _levelRewards, _ipfsHash);\n    emit RegisterUserRewardSystem(_businessAddress);\n  }\n\n  function registerWorkerRewardSystem(address _businessAddress, uint256 _numberOfRewardSteps, uint256[] _numberOfRewardCyclesForLevel, uint256 _numberOfRewardLevels, uint256[] _levelRewards, bytes32 _ipfsHash) public {\n\n    workerRewardSystem[_businessAddress] = RewardSystem(_numberOfRewardSteps, _numberOfRewardCyclesForLevel, _numberOfRewardLevels, _levelRewards, _ipfsHash);\n    emit RegisterWorkerRewardSystem(_businessAddress);\n  }\n\n  function registerGrowthPoolRewardSystem(uint256 _numberOfRewardSteps, uint256[] _numberOfRewardCyclesForLevel, uint256 _numberOfRewardLevels, uint256[] _levelRewards, bytes32 _ipfsHash) public onlyOwner {\n\n    growthPoolRewardSystem = RewardSystem(_numberOfRewardSteps, _numberOfRewardCyclesForLevel, _numberOfRewardLevels, _levelRewards, _ipfsHash);\n    emit RegisterGrowthPoolRewardSystem();\n  }\n\n  function updateUserRewardProgress(address _userAddress, address _businessAddress) internal {\n\n    RewardSystem storage rewardSystem = userRewardSystem[_businessAddress];\n    incrementRewardProgress(rewardSystem, _userAddress);\n\n    if (rewardSystem.rewardStep[_userAddress] == 0) {\n      uint256 userRewardLevel = rewardSystem.rewardLevel[_userAddress];\n      uint256 rewardValue = rewardSystem.levelRewards[userRewardLevel] * tokenUnit;\n      kudosToken.transferFrom(_businessAddress, _userAddress, rewardValue);\n    }\n  }\n\n  function updateWorkerRewardProgress(address _workerAddress, address _businessAddress, uint256 _workerRating) internal {\n\n    if (_workerRating != 5) {\n      return;\n    }\n\n    RewardSystem storage rewardSystem = workerRewardSystem[_businessAddress];\n    incrementRewardProgress(rewardSystem, _workerAddress);\n\n    if (rewardSystem.rewardStep[_workerAddress] == 0) {\n      uint256 workerRewardLevel = rewardSystem.rewardLevel[_workerAddress];\n      uint256 rewardValue = rewardSystem.levelRewards[workerRewardLevel] * tokenUnit;\n      kudosToken.transferFrom(_businessAddress, _workerAddress, rewardValue);\n    }\n  }\n\n  function updateGrowthPoolRewardProgress(address _userAddress, address _workerAddress, address _businessAddress, uint256 _workerRating) internal {\n\n    incrementRewardProgress(growthPoolRewardSystem, _userAddress);\n\n    if (_workerRating == 5) {\n      incrementRewardProgress(growthPoolRewardSystem, _workerAddress);\n    }\n\n    incrementRewardProgress(growthPoolRewardSystem, _businessAddress);\n  }\n\n  function incrementRewardProgress(RewardSystem storage _rewardSystem, address _address) internal {\n\n    uint256 nextRewardStep = _rewardSystem.rewardStep[_address] + 1;\n\n    if (nextRewardStep > _rewardSystem.numberOfRewardSteps - 1) {\n\n      _rewardSystem.rewardStep[_address] = 0;\n      uint256 nextRewardCycle = _rewardSystem.rewardCycle[_address] + 1;\n\n      uint256 currentRewardLevel = _rewardSystem.rewardLevel[_address];\n      if (nextRewardCycle > _rewardSystem.numberOfRewardCyclesForLevel[currentRewardLevel] - 1) {\n\n        _rewardSystem.rewardCycle[_address] = 0;\n        uint256 nextRewardLevel = _rewardSystem.rewardLevel[_address] + 1;\n\n          if (nextRewardLevel > _rewardSystem.numberOfRewardLevels - 1) {\n\n            _rewardSystem.rewardLevel[_address] = 0;\n            _rewardSystem.rewardRank[_address] += 1;\n\n          } else {\n            _rewardSystem.rewardLevel[_address] += 1;\n          }\n\n      } else {\n        _rewardSystem.rewardCycle[_address] += 1;\n      }\n\n    } else {\n      _rewardSystem.rewardStep[_address] += 1;\n    }\n  }\n\n  // getters\n  function getUserRewardSystem(address _businessAddress) public view returns (uint256 _numberOfRewardSteps, uint256[] _numberOfRewardCyclesForLevel, uint256 _numberOfRewardLevels, uint256[] _levelRewards, bytes32 _ipfsHash) {\n\n    RewardSystem memory rewardSystem = userRewardSystem[_businessAddress];\n\n    _numberOfRewardSteps = rewardSystem.numberOfRewardSteps;\n    _numberOfRewardCyclesForLevel = rewardSystem.numberOfRewardCyclesForLevel;\n    _numberOfRewardLevels = rewardSystem.numberOfRewardLevels;\n    _levelRewards = rewardSystem.levelRewards;\n    _ipfsHash = rewardSystem.ipfsHash;\n  }\n\n  function getWorkerRewardSystem(address _businessAddress) public view returns (uint256 _numberOfRewardSteps, uint256[] _numberOfRewardCyclesForLevel, uint256 _numberOfRewardLevels, uint256[] _levelRewards, bytes32 _ipfsHash) {\n\n    RewardSystem memory rewardSystem = workerRewardSystem[_businessAddress];\n\n    _numberOfRewardSteps = rewardSystem.numberOfRewardSteps;\n    _numberOfRewardCyclesForLevel = rewardSystem.numberOfRewardCyclesForLevel;\n    _numberOfRewardLevels = rewardSystem.numberOfRewardLevels;\n    _levelRewards = rewardSystem.levelRewards;\n    _ipfsHash = rewardSystem.ipfsHash;\n  }\n\n    function getGrowthPoolRewardSystem() public view returns (uint256 _numberOfRewardSteps, uint256[] _numberOfRewardCyclesForLevel, uint256 _numberOfRewardLevels, uint256[] _levelRewards, bytes32 _ipfsHash) {\n\n      _numberOfRewardSteps = growthPoolRewardSystem.numberOfRewardSteps;\n      _numberOfRewardCyclesForLevel = growthPoolRewardSystem.numberOfRewardCyclesForLevel;\n      _numberOfRewardLevels = growthPoolRewardSystem.numberOfRewardLevels;\n      _levelRewards = growthPoolRewardSystem.levelRewards;\n      _ipfsHash = growthPoolRewardSystem.ipfsHash;\n    }\n}\n",
  "sourcePath": "/Users/panda/projects/kudos/packages/kudos-contracts/contracts/KudosRewards.sol",
  "compiler": {
    "name": "solc",
    "version": "0.4.24+commit.e67f0147.Emscripten.clang"
  },
  "schemaVersion": "2.0.1",
  "updatedAt": "2018-07-24T14:52:55.504Z"
}