{
  "contractName": "KudosActor",
  "abi": [
    {
      "constant": true,
      "inputs": [
        {
          "name": "",
          "type": "address"
        },
        {
          "name": "",
          "type": "address"
        }
      ],
      "name": "businessHasApprovedWorker",
      "outputs": [
        {
          "name": "",
          "type": "bool"
        }
      ],
      "payable": false,
      "stateMutability": "view",
      "type": "function"
    },
    {
      "constant": true,
      "inputs": [
        {
          "name": "",
          "type": "address"
        },
        {
          "name": "",
          "type": "address"
        }
      ],
      "name": "numberOfWorkerRatings",
      "outputs": [
        {
          "name": "",
          "type": "uint256"
        }
      ],
      "payable": false,
      "stateMutability": "view",
      "type": "function"
    },
    {
      "constant": true,
      "inputs": [
        {
          "name": "",
          "type": "address"
        },
        {
          "name": "",
          "type": "uint256"
        }
      ],
      "name": "businessList",
      "outputs": [
        {
          "name": "",
          "type": "address"
        }
      ],
      "payable": false,
      "stateMutability": "view",
      "type": "function"
    },
    {
      "constant": true,
      "inputs": [
        {
          "name": "",
          "type": "address"
        }
      ],
      "name": "isBusiness",
      "outputs": [
        {
          "name": "",
          "type": "bool"
        }
      ],
      "payable": false,
      "stateMutability": "view",
      "type": "function"
    },
    {
      "constant": true,
      "inputs": [
        {
          "name": "",
          "type": "address"
        },
        {
          "name": "",
          "type": "address"
        }
      ],
      "name": "workerAverageRating",
      "outputs": [
        {
          "name": "",
          "type": "uint256"
        }
      ],
      "payable": false,
      "stateMutability": "view",
      "type": "function"
    },
    {
      "constant": true,
      "inputs": [
        {
          "name": "",
          "type": "address"
        }
      ],
      "name": "isUser",
      "outputs": [
        {
          "name": "",
          "type": "bool"
        }
      ],
      "payable": false,
      "stateMutability": "view",
      "type": "function"
    },
    {
      "constant": true,
      "inputs": [
        {
          "name": "",
          "type": "address"
        },
        {
          "name": "",
          "type": "address"
        }
      ],
      "name": "isEmployed",
      "outputs": [
        {
          "name": "",
          "type": "bool"
        }
      ],
      "payable": false,
      "stateMutability": "view",
      "type": "function"
    },
    {
      "constant": true,
      "inputs": [
        {
          "name": "",
          "type": "address"
        }
      ],
      "name": "numberOfBusinessRatings",
      "outputs": [
        {
          "name": "",
          "type": "uint256"
        }
      ],
      "payable": false,
      "stateMutability": "view",
      "type": "function"
    },
    {
      "constant": true,
      "inputs": [
        {
          "name": "",
          "type": "address"
        }
      ],
      "name": "isWorker",
      "outputs": [
        {
          "name": "",
          "type": "bool"
        }
      ],
      "payable": false,
      "stateMutability": "view",
      "type": "function"
    },
    {
      "constant": true,
      "inputs": [
        {
          "name": "",
          "type": "address"
        }
      ],
      "name": "numberOfUserRatings",
      "outputs": [
        {
          "name": "",
          "type": "uint256"
        }
      ],
      "payable": false,
      "stateMutability": "view",
      "type": "function"
    },
    {
      "constant": true,
      "inputs": [
        {
          "name": "",
          "type": "address"
        },
        {
          "name": "",
          "type": "address"
        }
      ],
      "name": "workerHasApprovedBusiness",
      "outputs": [
        {
          "name": "",
          "type": "bool"
        }
      ],
      "payable": false,
      "stateMutability": "view",
      "type": "function"
    },
    {
      "constant": true,
      "inputs": [
        {
          "name": "",
          "type": "address"
        }
      ],
      "name": "businessAverageRating",
      "outputs": [
        {
          "name": "",
          "type": "uint256"
        }
      ],
      "payable": false,
      "stateMutability": "view",
      "type": "function"
    },
    {
      "constant": true,
      "inputs": [
        {
          "name": "",
          "type": "address"
        },
        {
          "name": "",
          "type": "uint256"
        }
      ],
      "name": "workerList",
      "outputs": [
        {
          "name": "",
          "type": "address"
        }
      ],
      "payable": false,
      "stateMutability": "view",
      "type": "function"
    },
    {
      "constant": true,
      "inputs": [
        {
          "name": "",
          "type": "address"
        }
      ],
      "name": "userAverageRating",
      "outputs": [
        {
          "name": "",
          "type": "uint256"
        }
      ],
      "payable": false,
      "stateMutability": "view",
      "type": "function"
    },
    {
      "constant": true,
      "inputs": [
        {
          "name": "businessAddress",
          "type": "address"
        }
      ],
      "name": "getNumberOfWorkers",
      "outputs": [
        {
          "name": "count",
          "type": "uint256"
        }
      ],
      "payable": false,
      "stateMutability": "view",
      "type": "function"
    }
  ],
  "bytecode": "0x6060604052341561000f57600080fd5b61092b8061001e6000396000f3006060604052600436106100db576000357c0100000000000000000000000000000000000000000000000000000000900463ffffffff168063067a0949146100e05780630e2be26614610150578063130ee376146101bc5780631466d0191461023e5780632f64550a1461028f5780632fccafb5146102fb5780634209fff1146103485780637b1d0c83146103995780639708c61f14610409578063aa15664514610456578063b265c33d146104a7578063e3363793146104f4578063ec5df15a14610564578063f9011888146105b1578063ffb3379314610633575b600080fd5b34156100eb57600080fd5b610136600480803573ffffffffffffffffffffffffffffffffffffffff1690602001909190803573ffffffffffffffffffffffffffffffffffffffff16906020019091905050610680565b604051808215151515815260200191505060405180910390f35b341561015b57600080fd5b6101a6600480803573ffffffffffffffffffffffffffffffffffffffff1690602001909190803573ffffffffffffffffffffffffffffffffffffffff169060200190919050506106af565b6040518082815260200191505060405180910390f35b34156101c757600080fd5b6101fc600480803573ffffffffffffffffffffffffffffffffffffffff169060200190919080359060200190919050506106d4565b604051808273ffffffffffffffffffffffffffffffffffffffff1673ffffffffffffffffffffffffffffffffffffffff16815260200191505060405180910390f35b341561024957600080fd5b610275600480803573ffffffffffffffffffffffffffffffffffffffff16906020019091905050610722565b604051808215151515815260200191505060405180910390f35b341561029a57600080fd5b6102e5600480803573ffffffffffffffffffffffffffffffffffffffff1690602001909190803573ffffffffffffffffffffffffffffffffffffffff16906020019091905050610742565b6040518082815260200191505060405180910390f35b341561030657600080fd5b610332600480803573ffffffffffffffffffffffffffffffffffffffff16906020019091905050610767565b6040518082815260200191505060405180910390f35b341561035357600080fd5b61037f600480803573ffffffffffffffffffffffffffffffffffffffff169060200190919050506107b3565b604051808215151515815260200191505060405180910390f35b34156103a457600080fd5b6103ef600480803573ffffffffffffffffffffffffffffffffffffffff1690602001909190803573ffffffffffffffffffffffffffffffffffffffff169060200190919050506107d3565b604051808215151515815260200191505060405180910390f35b341561041457600080fd5b610440600480803573ffffffffffffffffffffffffffffffffffffffff16906020019091905050610802565b6040518082815260200191505060405180910390f35b341561046157600080fd5b61048d600480803573ffffffffffffffffffffffffffffffffffffffff1690602001909190505061081a565b604051808215151515815260200191505060405180910390f35b34156104b257600080fd5b6104de600480803573ffffffffffffffffffffffffffffffffffffffff1690602001909190505061083a565b6040518082815260200191505060405180910390f35b34156104ff57600080fd5b61054a600480803573ffffffffffffffffffffffffffffffffffffffff1690602001909190803573ffffffffffffffffffffffffffffffffffffffff16906020019091905050610852565b604051808215151515815260200191505060405180910390f35b341561056f57600080fd5b61059b600480803573ffffffffffffffffffffffffffffffffffffffff16906020019091905050610881565b6040518082815260200191505060405180910390f35b34156105bc57600080fd5b6105f1600480803573ffffffffffffffffffffffffffffffffffffffff16906020019091908035906020019091905050610899565b604051808273ffffffffffffffffffffffffffffffffffffffff1673ffffffffffffffffffffffffffffffffffffffff16815260200191505060405180910390f35b341561063e57600080fd5b61066a600480803573ffffffffffffffffffffffffffffffffffffffff169060200190919050506108e7565b6040518082815260200191505060405180910390f35b60016020528160005260406000206020528060005260406000206000915091509054906101000a900460ff1681565b6009602052816000526040600020602052806000526040600020600091509150505481565b6007602052816000526040600020818154811015156106ef57fe5b90600052602060002090016000915091509054906101000a900473ffffffffffffffffffffffffffffffffffffffff1681565b60006020528060005260406000206000915054906101000a900460ff1681565b6008602052816000526040600020602052806000526040600020600091509150505481565b6000600260008373ffffffffffffffffffffffffffffffffffffffff1673ffffffffffffffffffffffffffffffffffffffff168152602001908152602001600020805490509050919050565b600c6020528060005260406000206000915054906101000a900460ff1681565b600d6020528160005260406000206020528060005260406000206000915091509054906101000a900460ff1681565b60046020528060005260406000206000915090505481565b60056020528060005260406000206000915054906101000a900460ff1681565b600b6020528060005260406000206000915090505481565b60066020528160005260406000206020528060005260406000206000915091509054906101000a900460ff1681565b60036020528060005260406000206000915090505481565b6002602052816000526040600020818154811015156108b457fe5b90600052602060002090016000915091509054906101000a900473ffffffffffffffffffffffffffffffffffffffff1681565b600a60205280600052604060002060009150905054815600a165627a7a723058209342894bca9375f5c21d0f874889b2dbb554a007b8d1f2491cf84eaea19f5d7f0029",
  "source": "pragma solidity ^0.4.18;\n\ncontract KudosActor {\n\n  // business\n  mapping(address => bool) public isBusiness;\n\n  mapping(address => mapping(address => bool)) public businessHasApprovedWorker;\n  mapping(address => address[]) public workerList;\n\n  function getNumberOfWorkers(address businessAddress) public constant returns(uint count) {\n    return workerList[businessAddress].length;\n  }\n\n  mapping(address => uint256) public businessAverageRating;\n  mapping(address => uint256) public numberOfBusinessRatings;\n\n  // worker\n  mapping(address => bool) public isWorker;\n\n  mapping(address => mapping(address => bool)) public workerHasApprovedBusiness;\n  mapping(address => address[]) public businessList;\n\n  mapping(address => mapping(address => uint256)) public workerAverageRating;\n  mapping(address => mapping(address => uint256)) public numberOfWorkerRatings;\n\n  // user\n  mapping(address => uint256) public userAverageRating;\n  mapping(address => uint256) public numberOfUserRatings;\n\n  mapping(address => bool) public isUser;\n\n  // business + worker\n  mapping(address => mapping(address => bool)) public isEmployed;\n\n\n//  mapping(address => mapping(bytes32 => uint256)) public nonce;\n}\n",
  "sourcePath": "/Users/panda/projects/kudos/packages/kudos-contracts/contracts/KudosActor.sol",
  "compiler": {
    "name": "solc",
    "version": "0.4.19+commit.c4cbbb05.Emscripten.clang"
  },
  "schemaVersion": "1.0.1",
  "updatedAt": "2018-07-16T18:49:33.239Z"
}