{
  "contractName": "KudosBusiness",
  "abi": [
    {
      "constant": true,
      "inputs": [
        {
          "name": "",
          "type": "address"
        },
        {
          "name": "",
          "type": "address"
        }
      ],
      "name": "businessHasApprovedWorker",
      "outputs": [
        {
          "name": "",
          "type": "bool"
        }
      ],
      "payable": false,
      "stateMutability": "view",
      "type": "function"
    },
    {
      "constant": true,
      "inputs": [
        {
          "name": "",
          "type": "address"
        },
        {
          "name": "",
          "type": "address"
        }
      ],
      "name": "numberOfWorkerRatings",
      "outputs": [
        {
          "name": "",
          "type": "uint256"
        }
      ],
      "payable": false,
      "stateMutability": "view",
      "type": "function"
    },
    {
      "constant": true,
      "inputs": [
        {
          "name": "",
          "type": "address"
        },
        {
          "name": "",
          "type": "uint256"
        }
      ],
      "name": "businessList",
      "outputs": [
        {
          "name": "",
          "type": "address"
        }
      ],
      "payable": false,
      "stateMutability": "view",
      "type": "function"
    },
    {
      "constant": true,
      "inputs": [
        {
          "name": "",
          "type": "address"
        }
      ],
      "name": "isBusiness",
      "outputs": [
        {
          "name": "",
          "type": "bool"
        }
      ],
      "payable": false,
      "stateMutability": "view",
      "type": "function"
    },
    {
      "constant": true,
      "inputs": [
        {
          "name": "",
          "type": "address"
        },
        {
          "name": "",
          "type": "address"
        }
      ],
      "name": "workerAverageRating",
      "outputs": [
        {
          "name": "",
          "type": "uint256"
        }
      ],
      "payable": false,
      "stateMutability": "view",
      "type": "function"
    },
    {
      "constant": true,
      "inputs": [
        {
          "name": "businessAddress",
          "type": "address"
        }
      ],
      "name": "getNumberOfWorkers",
      "outputs": [
        {
          "name": "count",
          "type": "uint256"
        }
      ],
      "payable": false,
      "stateMutability": "view",
      "type": "function"
    },
    {
      "constant": true,
      "inputs": [
        {
          "name": "",
          "type": "address"
        }
      ],
      "name": "isUser",
      "outputs": [
        {
          "name": "",
          "type": "bool"
        }
      ],
      "payable": false,
      "stateMutability": "view",
      "type": "function"
    },
    {
      "constant": true,
      "inputs": [
        {
          "name": "",
          "type": "address"
        },
        {
          "name": "",
          "type": "address"
        }
      ],
      "name": "isEmployed",
      "outputs": [
        {
          "name": "",
          "type": "bool"
        }
      ],
      "payable": false,
      "stateMutability": "view",
      "type": "function"
    },
    {
      "constant": true,
      "inputs": [
        {
          "name": "",
          "type": "address"
        }
      ],
      "name": "numberOfBusinessRatings",
      "outputs": [
        {
          "name": "",
          "type": "uint256"
        }
      ],
      "payable": false,
      "stateMutability": "view",
      "type": "function"
    },
    {
      "constant": true,
      "inputs": [
        {
          "name": "",
          "type": "address"
        }
      ],
      "name": "isWorker",
      "outputs": [
        {
          "name": "",
          "type": "bool"
        }
      ],
      "payable": false,
      "stateMutability": "view",
      "type": "function"
    },
    {
      "constant": true,
      "inputs": [
        {
          "name": "",
          "type": "address"
        }
      ],
      "name": "numberOfUserRatings",
      "outputs": [
        {
          "name": "",
          "type": "uint256"
        }
      ],
      "payable": false,
      "stateMutability": "view",
      "type": "function"
    },
    {
      "constant": true,
      "inputs": [
        {
          "name": "",
          "type": "address"
        },
        {
          "name": "",
          "type": "address"
        }
      ],
      "name": "workerHasApprovedBusiness",
      "outputs": [
        {
          "name": "",
          "type": "bool"
        }
      ],
      "payable": false,
      "stateMutability": "view",
      "type": "function"
    },
    {
      "constant": true,
      "inputs": [
        {
          "name": "",
          "type": "address"
        }
      ],
      "name": "businessAverageRating",
      "outputs": [
        {
          "name": "",
          "type": "uint256"
        }
      ],
      "payable": false,
      "stateMutability": "view",
      "type": "function"
    },
    {
      "constant": true,
      "inputs": [
        {
          "name": "",
          "type": "address"
        },
        {
          "name": "",
          "type": "uint256"
        }
      ],
      "name": "workerList",
      "outputs": [
        {
          "name": "",
          "type": "address"
        }
      ],
      "payable": false,
      "stateMutability": "view",
      "type": "function"
    },
    {
      "constant": true,
      "inputs": [
        {
          "name": "",
          "type": "address"
        }
      ],
      "name": "userAverageRating",
      "outputs": [
        {
          "name": "",
          "type": "uint256"
        }
      ],
      "payable": false,
      "stateMutability": "view",
      "type": "function"
    },
    {
      "anonymous": false,
      "inputs": [
        {
          "indexed": true,
          "name": "_businessAddress",
          "type": "address"
        },
        {
          "indexed": false,
          "name": "_ipfsHash",
          "type": "bytes32"
        }
      ],
      "name": "BusinessProfileUpdated",
      "type": "event"
    },
    {
      "anonymous": false,
      "inputs": [
        {
          "indexed": true,
          "name": "_businessAddress",
          "type": "address"
        },
        {
          "indexed": true,
          "name": "_workerAddress",
          "type": "address"
        }
      ],
      "name": "BusinessHasApprovedWorker",
      "type": "event"
    },
    {
      "anonymous": false,
      "inputs": [
        {
          "indexed": true,
          "name": "_businessAddress",
          "type": "address"
        }
      ],
      "name": "RegisterWorkerRewardSystem",
      "type": "event"
    },
    {
      "constant": false,
      "inputs": [
        {
          "name": "_businessAddress",
          "type": "address"
        },
        {
          "name": "_ipfsHash",
          "type": "bytes32"
        }
      ],
      "name": "registerAsBusiness",
      "outputs": [],
      "payable": false,
      "stateMutability": "nonpayable",
      "type": "function"
    },
    {
      "constant": false,
      "inputs": [
        {
          "name": "_businessAddress",
          "type": "address"
        },
        {
          "name": "_ipfsHash",
          "type": "bytes32"
        }
      ],
      "name": "updateBusinessProfile",
      "outputs": [],
      "payable": false,
      "stateMutability": "nonpayable",
      "type": "function"
    },
    {
      "constant": false,
      "inputs": [
        {
          "name": "_workerAddress",
          "type": "address"
        },
        {
          "name": "_businessAddress",
          "type": "address"
        }
      ],
      "name": "addWorker",
      "outputs": [],
      "payable": false,
      "stateMutability": "nonpayable",
      "type": "function"
    },
    {
      "constant": true,
      "inputs": [
        {
          "name": "_businessAddress",
          "type": "address"
        },
        {
          "name": "_index",
          "type": "uint256"
        }
      ],
      "name": "getEmployeeAddress",
      "outputs": [
        {
          "name": "",
          "type": "address"
        }
      ],
      "payable": false,
      "stateMutability": "view",
      "type": "function"
    },
    {
      "constant": true,
      "inputs": [
        {
          "name": "_businessAddress",
          "type": "address"
        }
      ],
      "name": "numberOfEmployees",
      "outputs": [
        {
          "name": "",
          "type": "uint256"
        }
      ],
      "payable": false,
      "stateMutability": "view",
      "type": "function"
    },
    {
      "constant": false,
      "inputs": [
        {
          "name": "_businessAddress",
          "type": "address"
        },
        {
          "name": "_numberOfRewardSteps",
          "type": "uint256"
        },
        {
          "name": "_numberOfRewardCycles",
          "type": "uint256"
        },
        {
          "name": "_numberOfRewardLevels",
          "type": "uint256"
        },
        {
          "name": "_levelRewards",
          "type": "uint256[]"
        },
        {
          "name": "_ratingRewards",
          "type": "uint256[5]"
        },
        {
          "name": "_ipfsHash",
          "type": "bytes32"
        }
      ],
      "name": "registerWorkerRewardSystem",
      "outputs": [],
      "payable": false,
      "stateMutability": "nonpayable",
      "type": "function"
    }
  ],
  "bytecode": "0x6060604052341561000f57600080fd5b6113c78061001e6000396000f30060606040526004361061011d576000357c0100000000000000000000000000000000000000000000000000000000900463ffffffff168063067a094914610122578063092914ff146101925780630e2be2661461025f578063130ee376146102cb5780631466d0191461034d5780632f64550a1461039e5780632fccafb51461040a5780633bf0cbf4146104575780634209fff1146104af5780634341d99b146105005780637b1d0c831461058257806392ee014b146105f25780639708c61f1461063f578063aa1566451461068c578063b265c33d146106dd578063e33637931461072a578063ec5df15a1461079a578063eec45cb5146107e7578063f90118881461082d578063fe715103146108af578063ffb33793146108f5575b600080fd5b341561012d57600080fd5b610178600480803573ffffffffffffffffffffffffffffffffffffffff1690602001909190803573ffffffffffffffffffffffffffffffffffffffff16906020019091905050610942565b604051808215151515815260200191505060405180910390f35b341561019d57600080fd5b61025d600480803573ffffffffffffffffffffffffffffffffffffffff1690602001909190803590602001909190803590602001909190803590602001909190803590602001908201803590602001908080602002602001604051908101604052809392919081815260200183836020028082843782019150505050505091908060a00190600580602002604051908101604052809291908260056020028082843782019150505050509190803560001916906020019091905050610971565b005b341561026a57600080fd5b6102b5600480803573ffffffffffffffffffffffffffffffffffffffff1690602001909190803573ffffffffffffffffffffffffffffffffffffffff16906020019091905050610a94565b6040518082815260200191505060405180910390f35b34156102d657600080fd5b61030b600480803573ffffffffffffffffffffffffffffffffffffffff16906020019091908035906020019091905050610ab9565b604051808273ffffffffffffffffffffffffffffffffffffffff1673ffffffffffffffffffffffffffffffffffffffff16815260200191505060405180910390f35b341561035857600080fd5b610384600480803573ffffffffffffffffffffffffffffffffffffffff16906020019091905050610b07565b604051808215151515815260200191505060405180910390f35b34156103a957600080fd5b6103f4600480803573ffffffffffffffffffffffffffffffffffffffff1690602001909190803573ffffffffffffffffffffffffffffffffffffffff16906020019091905050610b27565b6040518082815260200191505060405180910390f35b341561041557600080fd5b610441600480803573ffffffffffffffffffffffffffffffffffffffff16906020019091905050610b4c565b6040518082815260200191505060405180910390f35b341561046257600080fd5b6104ad600480803573ffffffffffffffffffffffffffffffffffffffff1690602001909190803573ffffffffffffffffffffffffffffffffffffffff16906020019091905050610b98565b005b34156104ba57600080fd5b6104e6600480803573ffffffffffffffffffffffffffffffffffffffff16906020019091905050610f3a565b604051808215151515815260200191505060405180910390f35b341561050b57600080fd5b610540600480803573ffffffffffffffffffffffffffffffffffffffff16906020019091908035906020019091905050610f5a565b604051808273ffffffffffffffffffffffffffffffffffffffff1673ffffffffffffffffffffffffffffffffffffffff16815260200191505060405180910390f35b341561058d57600080fd5b6105d8600480803573ffffffffffffffffffffffffffffffffffffffff1690602001909190803573ffffffffffffffffffffffffffffffffffffffff16906020019091905050610fdc565b604051808215151515815260200191505060405180910390f35b34156105fd57600080fd5b610629600480803573ffffffffffffffffffffffffffffffffffffffff1690602001909190505061100b565b6040518082815260200191505060405180910390f35b341561064a57600080fd5b610676600480803573ffffffffffffffffffffffffffffffffffffffff16906020019091905050611057565b6040518082815260200191505060405180910390f35b341561069757600080fd5b6106c3600480803573ffffffffffffffffffffffffffffffffffffffff1690602001909190505061106f565b604051808215151515815260200191505060405180910390f35b34156106e857600080fd5b610714600480803573ffffffffffffffffffffffffffffffffffffffff1690602001909190505061108f565b6040518082815260200191505060405180910390f35b341561073557600080fd5b610780600480803573ffffffffffffffffffffffffffffffffffffffff1690602001909190803573ffffffffffffffffffffffffffffffffffffffff169060200190919050506110a7565b604051808215151515815260200191505060405180910390f35b34156107a557600080fd5b6107d1600480803573ffffffffffffffffffffffffffffffffffffffff169060200190919050506110d6565b6040518082815260200191505060405180910390f35b34156107f257600080fd5b61082b600480803573ffffffffffffffffffffffffffffffffffffffff16906020019091908035600019169060200190919050506110ee565b005b341561083857600080fd5b61086d600480803573ffffffffffffffffffffffffffffffffffffffff16906020019091908035906020019091905050611148565b604051808273ffffffffffffffffffffffffffffffffffffffff1673ffffffffffffffffffffffffffffffffffffffff16815260200191505060405180910390f35b34156108ba57600080fd5b6108f3600480803573ffffffffffffffffffffffffffffffffffffffff1690602001909190803560001916906020019091905050611196565b005b341561090057600080fd5b61092c600480803573ffffffffffffffffffffffffffffffffffffffff169060200190919050506112a5565b6040518082815260200191505060405180910390f35b60016020528160005260406000206020528060005260406000206000915091509054906101000a900460ff1681565b60c0604051908101604052808781526020018681526020018581526020018481526020018381526020018260001916815250600e60008973ffffffffffffffffffffffffffffffffffffffff1673ffffffffffffffffffffffffffffffffffffffff1681526020019081526020016000206000820151816000015560208201518160010155604082015181600201556060820151816003019080519060200190610a1c9291906112bd565b50608082015181600401906005610a3492919061130a565b5060a082015181600901906000191690559050508673ffffffffffffffffffffffffffffffffffffffff167f910de68bbeafb3b17db876b63617e0d84a56e46ed90d7b475ca836fc62ec82c960405160405180910390a250505050505050565b6009602052816000526040600020602052806000526040600020600091509150505481565b600760205281600052604060002081815481101515610ad457fe5b90600052602060002090016000915091509054906101000a900473ffffffffffffffffffffffffffffffffffffffff1681565b60006020528060005260406000206000915054906101000a900460ff1681565b6008602052816000526040600020602052806000526040600020600091509150505481565b6000600260008373ffffffffffffffffffffffffffffffffffffffff1673ffffffffffffffffffffffffffffffffffffffff168152602001908152602001600020805490509050919050565b60018060008373ffffffffffffffffffffffffffffffffffffffff1673ffffffffffffffffffffffffffffffffffffffff16815260200190815260200160002060008473ffffffffffffffffffffffffffffffffffffffff1673ffffffffffffffffffffffffffffffffffffffff16815260200190815260200160002060006101000a81548160ff0219169083151502179055508173ffffffffffffffffffffffffffffffffffffffff168173ffffffffffffffffffffffffffffffffffffffff167f3dbdc219e8ba3e3a7af694c479d212b6ae77e5a332aa7873be1203e91cde258660405160405180910390a3600660008373ffffffffffffffffffffffffffffffffffffffff1673ffffffffffffffffffffffffffffffffffffffff16815260200190815260200160002060008273ffffffffffffffffffffffffffffffffffffffff1673ffffffffffffffffffffffffffffffffffffffff16815260200190815260200160002060009054906101000a900460ff168015610da35750600d60008273ffffffffffffffffffffffffffffffffffffffff1673ffffffffffffffffffffffffffffffffffffffff16815260200190815260200160002060008373ffffffffffffffffffffffffffffffffffffffff1673ffffffffffffffffffffffffffffffffffffffff16815260200190815260200160002060009054906101000a900460ff16155b15610f36576001600d60008373ffffffffffffffffffffffffffffffffffffffff1673ffffffffffffffffffffffffffffffffffffffff16815260200190815260200160002060008473ffffffffffffffffffffffffffffffffffffffff1673ffffffffffffffffffffffffffffffffffffffff16815260200190815260200160002060006101000a81548160ff021916908315150217905550600260008273ffffffffffffffffffffffffffffffffffffffff1673ffffffffffffffffffffffffffffffffffffffff1681526020019081526020016000208054806001018281610e8e919061134a565b9160005260206000209001600084909190916101000a81548173ffffffffffffffffffffffffffffffffffffffff021916908373ffffffffffffffffffffffffffffffffffffffff160217905550506001600560008473ffffffffffffffffffffffffffffffffffffffff1673ffffffffffffffffffffffffffffffffffffffff16815260200190815260200160002060006101000a81548160ff0219169083151502179055505b5050565b600c6020528060005260406000206000915054906101000a900460ff1681565b6000600260008473ffffffffffffffffffffffffffffffffffffffff1673ffffffffffffffffffffffffffffffffffffffff16815260200190815260200160002082815481101515610fa857fe5b906000526020600020900160009054906101000a900473ffffffffffffffffffffffffffffffffffffffff16905092915050565b600d6020528160005260406000206020528060005260406000206000915091509054906101000a900460ff1681565b6000600260008373ffffffffffffffffffffffffffffffffffffffff1673ffffffffffffffffffffffffffffffffffffffff168152602001908152602001600020805490509050919050565b60046020528060005260406000206000915090505481565b60056020528060005260406000206000915054906101000a900460ff1681565b600b6020528060005260406000206000915090505481565b60066020528160005260406000206020528060005260406000206000915091509054906101000a900460ff1681565b60036020528060005260406000206000915090505481565b8173ffffffffffffffffffffffffffffffffffffffff167ff871076dc67f0048d9440087eda4425885730b4efffea0c854d794731355b28e8260405180826000191660001916815260200191505060405180910390a25050565b60026020528160005260406000208181548110151561116357fe5b90600052602060002090016000915091509054906101000a900473ffffffffffffffffffffffffffffffffffffffff1681565b600015156000808473ffffffffffffffffffffffffffffffffffffffff1673ffffffffffffffffffffffffffffffffffffffff16815260200190815260200160002060009054906101000a900460ff1615151415156111f457600080fd5b60016000808473ffffffffffffffffffffffffffffffffffffffff1673ffffffffffffffffffffffffffffffffffffffff16815260200190815260200160002060006101000a81548160ff0219169083151502179055508173ffffffffffffffffffffffffffffffffffffffff167ff871076dc67f0048d9440087eda4425885730b4efffea0c854d794731355b28e8260405180826000191660001916815260200191505060405180910390a25050565b600a6020528060005260406000206000915090505481565b8280548282559060005260206000209081019282156112f9579160200282015b828111156112f85782518255916020019190600101906112dd565b5b5090506113069190611376565b5090565b8260058101928215611339579160200282015b8281111561133857825182559160200191906001019061131d565b5b5090506113469190611376565b5090565b815481835581811511611371578183600052602060002091820191016113709190611376565b5b505050565b61139891905b8082111561139457600081600090555060010161137c565b5090565b905600a165627a7a72305820b1cdb0dc74df704464cb964bc2981c0383fa42b3ad6a2e93fbb3369376ff3c530029",
  "source": "pragma solidity ^0.4.18;\n\nimport \"./KudosActor.sol\";\n\ncontract KudosBusiness is KudosActor {\n\n  event BusinessProfileUpdated(address indexed _businessAddress, bytes32 _ipfsHash);\n  event BusinessHasApprovedWorker(address indexed _businessAddress, address indexed _workerAddress);\n  event RegisterWorkerRewardSystem(address indexed _businessAddress);\n\n  function registerAsBusiness(address _businessAddress, bytes32 _ipfsHash) public {\n\n    require(isBusiness[_businessAddress] == false);\n    isBusiness[_businessAddress] = true;\n    BusinessProfileUpdated(_businessAddress, _ipfsHash);\n  }\n\n  function updateBusinessProfile(address _businessAddress, bytes32 _ipfsHash) public {\n    BusinessProfileUpdated(_businessAddress, _ipfsHash);\n  }\n\n  function addWorker(address _workerAddress, address _businessAddress) public {\n\n    businessHasApprovedWorker[_businessAddress][_workerAddress] = true;\n    BusinessHasApprovedWorker(_businessAddress, _workerAddress);\n\n    if (workerHasApprovedBusiness[_workerAddress][_businessAddress] && !isEmployed[_businessAddress][_workerAddress]) {\n      isEmployed[_businessAddress][_workerAddress] = true;\n      workerList[_businessAddress].push(_workerAddress);\n      isWorker[_workerAddress] = true;\n    }\n  }\n\n  function getEmployeeAddress(address _businessAddress, uint _index) public view returns (address) {\n    return workerList[_businessAddress][_index];\n  }\n\n  function numberOfEmployees(address _businessAddress) public view returns (uint256) {\n    return workerList[_businessAddress].length;\n  }\n\n  struct RewardSystem {\n\n    uint256 numberOfRewardSteps;\n    uint256 numberOfRewardCycles;\n    uint256 numberOfRewardLevels;\n\n    uint256[] levelRewards;\n    uint256[5] ratingRewards;\n    bytes32 _ipfsHash;\n\n    mapping(bytes32 => uint256) rewardStep;\n    mapping(bytes32 => uint256) rewardCycle;\n    mapping(bytes32 => uint256) rewardLevel;\n    mapping(bytes32 => uint256) rewardRank;\n  }\n\n  mapping (address => RewardSystem) workerRewardSystem;\n\n  function registerWorkerRewardSystem(address _businessAddress, uint256 _numberOfRewardSteps, uint256 _numberOfRewardCycles, uint256 _numberOfRewardLevels, uint256[] _levelRewards, uint256[5] _ratingRewards, bytes32 _ipfsHash) public {\n\n    workerRewardSystem[_businessAddress] = RewardSystem(_numberOfRewardSteps, _numberOfRewardCycles, _numberOfRewardLevels, _levelRewards, _ratingRewards, _ipfsHash);\n    RegisterWorkerRewardSystem(_businessAddress);\n  }\n}",
  "sourcePath": "/Users/panda/projects/kudos/packages/kudos-contracts/contracts/KudosBusiness.sol",
  "compiler": {
    "name": "solc",
    "version": "0.4.19+commit.c4cbbb05.Emscripten.clang"
  },
  "schemaVersion": "1.0.1",
  "updatedAt": "2018-07-16T19:37:42.719Z"
}