{
  "contractName": "KudosRateExperience",
  "abi": [
    {
      "constant": true,
      "inputs": [],
      "name": "kudosToken",
      "outputs": [
        {
          "name": "",
          "type": "address"
        }
      ],
      "payable": false,
      "stateMutability": "view",
      "type": "function"
    },
    {
      "constant": false,
      "inputs": [
        {
          "name": "_numberOfRewardSteps",
          "type": "uint256"
        },
        {
          "name": "_numberOfRewardCyclesForLevel",
          "type": "uint256[]"
        },
        {
          "name": "_numberOfRewardLevels",
          "type": "uint256"
        },
        {
          "name": "_levelRewards",
          "type": "uint256[]"
        },
        {
          "name": "_ipfsHash",
          "type": "bytes32"
        }
      ],
      "name": "registerGrowthPoolRewardSystem",
      "outputs": [],
      "payable": false,
      "stateMutability": "nonpayable",
      "type": "function"
    },
    {
      "constant": true,
      "inputs": [
        {
          "name": "",
          "type": "address"
        },
        {
          "name": "",
          "type": "address"
        }
      ],
      "name": "businessHasApprovedWorker",
      "outputs": [
        {
          "name": "",
          "type": "bool"
        }
      ],
      "payable": false,
      "stateMutability": "view",
      "type": "function"
    },
    {
      "constant": true,
      "inputs": [
        {
          "name": "",
          "type": "address"
        },
        {
          "name": "",
          "type": "address"
        }
      ],
      "name": "numberOfWorkerRatings",
      "outputs": [
        {
          "name": "",
          "type": "uint256"
        }
      ],
      "payable": false,
      "stateMutability": "view",
      "type": "function"
    },
    {
      "constant": true,
      "inputs": [
        {
          "name": "",
          "type": "address"
        },
        {
          "name": "",
          "type": "uint256"
        }
      ],
      "name": "businessList",
      "outputs": [
        {
          "name": "",
          "type": "address"
        }
      ],
      "payable": false,
      "stateMutability": "view",
      "type": "function"
    },
    {
      "constant": true,
      "inputs": [
        {
          "name": "",
          "type": "address"
        }
      ],
      "name": "isBusiness",
      "outputs": [
        {
          "name": "",
          "type": "bool"
        }
      ],
      "payable": false,
      "stateMutability": "view",
      "type": "function"
    },
    {
      "constant": true,
      "inputs": [
        {
          "name": "_businessAddress",
          "type": "address"
        }
      ],
      "name": "getUserRewardSystem",
      "outputs": [
        {
          "name": "_numberOfRewardSteps",
          "type": "uint256"
        },
        {
          "name": "_numberOfRewardCyclesForLevel",
          "type": "uint256[]"
        },
        {
          "name": "_numberOfRewardLevels",
          "type": "uint256"
        },
        {
          "name": "_levelRewards",
          "type": "uint256[]"
        },
        {
          "name": "_ipfsHash",
          "type": "bytes32"
        }
      ],
      "payable": false,
      "stateMutability": "view",
      "type": "function"
    },
    {
      "constant": true,
      "inputs": [],
      "name": "growthPoolRewardSystem",
      "outputs": [
        {
          "name": "numberOfRewardSteps",
          "type": "uint256"
        },
        {
          "name": "numberOfRewardLevels",
          "type": "uint256"
        },
        {
          "name": "ipfsHash",
          "type": "bytes32"
        }
      ],
      "payable": false,
      "stateMutability": "view",
      "type": "function"
    },
    {
      "constant": true,
      "inputs": [
        {
          "name": "",
          "type": "address"
        },
        {
          "name": "",
          "type": "address"
        }
      ],
      "name": "workerAverageRating",
      "outputs": [
        {
          "name": "",
          "type": "uint256"
        }
      ],
      "payable": false,
      "stateMutability": "view",
      "type": "function"
    },
    {
      "constant": true,
      "inputs": [
        {
          "name": "businessAddress",
          "type": "address"
        }
      ],
      "name": "getNumberOfWorkers",
      "outputs": [
        {
          "name": "count",
          "type": "uint256"
        }
      ],
      "payable": false,
      "stateMutability": "view",
      "type": "function"
    },
    {
      "constant": true,
      "inputs": [
        {
          "name": "",
          "type": "address"
        }
      ],
      "name": "isUser",
      "outputs": [
        {
          "name": "",
          "type": "bool"
        }
      ],
      "payable": false,
      "stateMutability": "view",
      "type": "function"
    },
    {
      "constant": false,
      "inputs": [
        {
          "name": "_businessAddress",
          "type": "address"
        },
        {
          "name": "_numberOfRewardSteps",
          "type": "uint256"
        },
        {
          "name": "_numberOfRewardCyclesForLevel",
          "type": "uint256[]"
        },
        {
          "name": "_numberOfRewardLevels",
          "type": "uint256"
        },
        {
          "name": "_levelRewards",
          "type": "uint256[]"
        },
        {
          "name": "_ipfsHash",
          "type": "bytes32"
        }
      ],
      "name": "registerUserRewardSystem",
      "outputs": [],
      "payable": false,
      "stateMutability": "nonpayable",
      "type": "function"
    },
    {
      "constant": true,
      "inputs": [
        {
          "name": "",
          "type": "address"
        },
        {
          "name": "",
          "type": "uint256"
        }
      ],
      "name": "ratingRewardPercentages",
      "outputs": [
        {
          "name": "",
          "type": "uint256"
        }
      ],
      "payable": false,
      "stateMutability": "view",
      "type": "function"
    },
    {
      "constant": true,
      "inputs": [
        {
          "name": "",
          "type": "address"
        }
      ],
      "name": "userRewardSystem",
      "outputs": [
        {
          "name": "numberOfRewardSteps",
          "type": "uint256"
        },
        {
          "name": "numberOfRewardLevels",
          "type": "uint256"
        },
        {
          "name": "ipfsHash",
          "type": "bytes32"
        }
      ],
      "payable": false,
      "stateMutability": "view",
      "type": "function"
    },
    {
      "constant": false,
      "inputs": [],
      "name": "renounceOwnership",
      "outputs": [],
      "payable": false,
      "stateMutability": "nonpayable",
      "type": "function"
    },
    {
      "constant": true,
      "inputs": [
        {
          "name": "_businessAddress",
          "type": "address"
        }
      ],
      "name": "getWorkerRewardSystem",
      "outputs": [
        {
          "name": "_numberOfRewardSteps",
          "type": "uint256"
        },
        {
          "name": "_numberOfRewardCyclesForLevel",
          "type": "uint256[]"
        },
        {
          "name": "_numberOfRewardLevels",
          "type": "uint256"
        },
        {
          "name": "_levelRewards",
          "type": "uint256[]"
        },
        {
          "name": "_ipfsHash",
          "type": "bytes32"
        }
      ],
      "payable": false,
      "stateMutability": "view",
      "type": "function"
    },
    {
      "constant": true,
      "inputs": [
        {
          "name": "",
          "type": "address"
        },
        {
          "name": "",
          "type": "address"
        }
      ],
      "name": "isEmployed",
      "outputs": [
        {
          "name": "",
          "type": "bool"
        }
      ],
      "payable": false,
      "stateMutability": "view",
      "type": "function"
    },
    {
      "constant": true,
      "inputs": [
        {
          "name": "",
          "type": "address"
        }
      ],
      "name": "workerRewardSystem",
      "outputs": [
        {
          "name": "numberOfRewardSteps",
          "type": "uint256"
        },
        {
          "name": "numberOfRewardLevels",
          "type": "uint256"
        },
        {
          "name": "ipfsHash",
          "type": "bytes32"
        }
      ],
      "payable": false,
      "stateMutability": "view",
      "type": "function"
    },
    {
      "constant": true,
      "inputs": [],
      "name": "owner",
      "outputs": [
        {
          "name": "",
          "type": "address"
        }
      ],
      "payable": false,
      "stateMutability": "view",
      "type": "function"
    },
    {
      "constant": true,
      "inputs": [
        {
          "name": "",
          "type": "address"
        }
      ],
      "name": "numberOfBusinessRatings",
      "outputs": [
        {
          "name": "",
          "type": "uint256"
        }
      ],
      "payable": false,
      "stateMutability": "view",
      "type": "function"
    },
    {
      "constant": true,
      "inputs": [
        {
          "name": "",
          "type": "address"
        }
      ],
      "name": "isWorker",
      "outputs": [
        {
          "name": "",
          "type": "bool"
        }
      ],
      "payable": false,
      "stateMutability": "view",
      "type": "function"
    },
    {
      "constant": true,
      "inputs": [],
      "name": "getGrowthPoolRewardSystem",
      "outputs": [
        {
          "name": "_numberOfRewardSteps",
          "type": "uint256"
        },
        {
          "name": "_numberOfRewardCyclesForLevel",
          "type": "uint256[]"
        },
        {
          "name": "_numberOfRewardLevels",
          "type": "uint256"
        },
        {
          "name": "_levelRewards",
          "type": "uint256[]"
        },
        {
          "name": "_ipfsHash",
          "type": "bytes32"
        }
      ],
      "payable": false,
      "stateMutability": "view",
      "type": "function"
    },
    {
      "constant": false,
      "inputs": [
        {
          "name": "_businessAddress",
          "type": "address"
        },
        {
          "name": "_numberOfRewardSteps",
          "type": "uint256"
        },
        {
          "name": "_numberOfRewardCyclesForLevel",
          "type": "uint256[]"
        },
        {
          "name": "_numberOfRewardLevels",
          "type": "uint256"
        },
        {
          "name": "_levelRewards",
          "type": "uint256[]"
        },
        {
          "name": "_ipfsHash",
          "type": "bytes32"
        }
      ],
      "name": "registerWorkerRewardSystem",
      "outputs": [],
      "payable": false,
      "stateMutability": "nonpayable",
      "type": "function"
    },
    {
      "constant": true,
      "inputs": [
        {
          "name": "",
          "type": "address"
        }
      ],
      "name": "numberOfUserRatings",
      "outputs": [
        {
          "name": "",
          "type": "uint256"
        }
      ],
      "payable": false,
      "stateMutability": "view",
      "type": "function"
    },
    {
      "constant": true,
      "inputs": [
        {
          "name": "",
          "type": "address"
        },
        {
          "name": "",
          "type": "address"
        }
      ],
      "name": "workerHasApprovedBusiness",
      "outputs": [
        {
          "name": "",
          "type": "bool"
        }
      ],
      "payable": false,
      "stateMutability": "view",
      "type": "function"
    },
    {
      "constant": true,
      "inputs": [
        {
          "name": "",
          "type": "address"
        }
      ],
      "name": "businessAverageRating",
      "outputs": [
        {
          "name": "",
          "type": "uint256"
        }
      ],
      "payable": false,
      "stateMutability": "view",
      "type": "function"
    },
    {
      "constant": false,
      "inputs": [
        {
          "name": "_newOwner",
          "type": "address"
        }
      ],
      "name": "transferOwnership",
      "outputs": [],
      "payable": false,
      "stateMutability": "nonpayable",
      "type": "function"
    },
    {
      "constant": true,
      "inputs": [
        {
          "name": "",
          "type": "address"
        },
        {
          "name": "",
          "type": "uint256"
        }
      ],
      "name": "workerList",
      "outputs": [
        {
          "name": "",
          "type": "address"
        }
      ],
      "payable": false,
      "stateMutability": "view",
      "type": "function"
    },
    {
      "constant": true,
      "inputs": [
        {
          "name": "",
          "type": "address"
        }
      ],
      "name": "userAverageRating",
      "outputs": [
        {
          "name": "",
          "type": "uint256"
        }
      ],
      "payable": false,
      "stateMutability": "view",
      "type": "function"
    },
    {
      "anonymous": false,
      "inputs": [
        {
          "indexed": true,
          "name": "_userAddress",
          "type": "address"
        },
        {
          "indexed": true,
          "name": "_workerAddress",
          "type": "address"
        },
        {
          "indexed": true,
          "name": "_businessAddress",
          "type": "address"
        },
        {
          "indexed": false,
          "name": "_workerRating",
          "type": "uint256"
        },
        {
          "indexed": false,
          "name": "_businessRating",
          "type": "uint256"
        },
        {
          "indexed": false,
          "name": "_ipfsHash",
          "type": "bytes32"
        }
      ],
      "name": "KudosExperience",
      "type": "event"
    },
    {
      "anonymous": false,
      "inputs": [
        {
          "indexed": true,
          "name": "_businessAddress",
          "type": "address"
        }
      ],
      "name": "RegisterUserRewardSystem",
      "type": "event"
    },
    {
      "anonymous": false,
      "inputs": [
        {
          "indexed": true,
          "name": "_businessAddress",
          "type": "address"
        }
      ],
      "name": "RegisterWorkerRewardSystem",
      "type": "event"
    },
    {
      "anonymous": false,
      "inputs": [],
      "name": "RegisterGrowthPoolRewardSystem",
      "type": "event"
    },
    {
      "anonymous": false,
      "inputs": [
        {
          "indexed": true,
          "name": "previousOwner",
          "type": "address"
        }
      ],
      "name": "OwnershipRenounced",
      "type": "event"
    },
    {
      "anonymous": false,
      "inputs": [
        {
          "indexed": true,
          "name": "previousOwner",
          "type": "address"
        },
        {
          "indexed": true,
          "name": "newOwner",
          "type": "address"
        }
      ],
      "name": "OwnershipTransferred",
      "type": "event"
    },
    {
      "constant": false,
      "inputs": [
        {
          "name": "_userAddress",
          "type": "address"
        },
        {
          "name": "_workerAddress",
          "type": "address"
        },
        {
          "name": "_businessAddress",
          "type": "address"
        },
        {
          "name": "_workerRating",
          "type": "uint256"
        },
        {
          "name": "_businessRating",
          "type": "uint256"
        },
        {
          "name": "_ipfsHash",
          "type": "bytes32"
        }
      ],
      "name": "rateExperience",
      "outputs": [],
      "payable": false,
      "stateMutability": "nonpayable",
      "type": "function"
    }
  ],
  "bytecode": "0x608060405233600e60006101000a81548173ffffffffffffffffffffffffffffffffffffffff021916908373ffffffffffffffffffffffffffffffffffffffff160217905550612a61806100546000396000f300608060405260043610610180576000357c0100000000000000000000000000000000000000000000000000000000900463ffffffff168063016dd6ff1461018557806303d7c87d146101dc578063067a0949146102a75780630874b993146103225780630e2be266146103c7578063130ee3761461043e5780631466d019146104cb578063193ad4e7146105265780631c946952146106235780632f64550a146106645780632fccafb5146106db5780634209fff11461073257806347d2bc701461078d5780634f0b59041461087857806368852957146108d9578063715018a61461094657806378939f9d1461095d5780637b1d0c8314610a5a5780638b3504f214610ad55780638da5cb5b14610b425780639708c61f14610b99578063aa15664514610bf0578063b0106aa314610c4b578063b06af56b14610d1c578063b265c33d14610e07578063e336379314610e5e578063ec5df15a14610ed9578063f2fde38b14610f30578063f901188814610f73578063ffb3379314611000575b600080fd5b34801561019157600080fd5b5061019a611057565b604051808273ffffffffffffffffffffffffffffffffffffffff1673ffffffffffffffffffffffffffffffffffffffff16815260200191505060405180910390f35b3480156101e857600080fd5b506102a560048036038101908080359060200190929190803590602001908201803590602001908080602002602001604051908101604052809392919081815260200183836020028082843782019150505050505091929192908035906020019092919080359060200190820180359060200190808060200260200160405190810160405280939291908181526020018383602002808284378201915050505050509192919290803560001916906020019092919050505061107d565b005b3480156102b357600080fd5b50610308600480360381019080803573ffffffffffffffffffffffffffffffffffffffff169060200190929190803573ffffffffffffffffffffffffffffffffffffffff16906020019092919050505061119b565b604051808215151515815260200191505060405180910390f35b34801561032e57600080fd5b506103c5600480360381019080803573ffffffffffffffffffffffffffffffffffffffff169060200190929190803573ffffffffffffffffffffffffffffffffffffffff169060200190929190803573ffffffffffffffffffffffffffffffffffffffff169060200190929190803590602001909291908035906020019092919080356000191690602001909291905050506111ca565b005b3480156103d357600080fd5b50610428600480360381019080803573ffffffffffffffffffffffffffffffffffffffff169060200190929190803573ffffffffffffffffffffffffffffffffffffffff1690602001909291905050506112c8565b6040518082815260200191505060405180910390f35b34801561044a57600080fd5b50610489600480360381019080803573ffffffffffffffffffffffffffffffffffffffff169060200190929190803590602001909291905050506112ed565b604051808273ffffffffffffffffffffffffffffffffffffffff1673ffffffffffffffffffffffffffffffffffffffff16815260200191505060405180910390f35b3480156104d757600080fd5b5061050c600480360381019080803573ffffffffffffffffffffffffffffffffffffffff16906020019092919050505061133a565b604051808215151515815260200191505060405180910390f35b34801561053257600080fd5b50610567600480360381019080803573ffffffffffffffffffffffffffffffffffffffff16906020019092919050505061135a565b6040518086815260200180602001858152602001806020018460001916600019168152602001838103835287818151815260200191508051906020019060200280838360005b838110156105c85780820151818401526020810190506105ad565b50505050905001838103825285818151815260200191508051906020019060200280838360005b8381101561060a5780820151818401526020810190506105ef565b5050505090500197505050505050505060405180910390f35b34801561062f57600080fd5b506106386114bc565b604051808481526020018381526020018260001916600019168152602001935050505060405180910390f35b34801561067057600080fd5b506106c5600480360381019080803573ffffffffffffffffffffffffffffffffffffffff169060200190929190803573ffffffffffffffffffffffffffffffffffffffff1690602001909291905050506114d4565b6040518082815260200191505060405180910390f35b3480156106e757600080fd5b5061071c600480360381019080803573ffffffffffffffffffffffffffffffffffffffff1690602001909291905050506114f9565b6040518082815260200191505060405180910390f35b34801561073e57600080fd5b50610773600480360381019080803573ffffffffffffffffffffffffffffffffffffffff169060200190929190505050611545565b604051808215151515815260200191505060405180910390f35b34801561079957600080fd5b50610876600480360381019080803573ffffffffffffffffffffffffffffffffffffffff169060200190929190803590602001909291908035906020019082018035906020019080806020026020016040519081016040528093929190818152602001838360200280828437820191505050505050919291929080359060200190929190803590602001908201803590602001908080602002602001604051908101604052809392919081815260200183836020028082843782019150505050505091929192908035600019169060200190929190505050611565565b005b34801561088457600080fd5b506108c3600480360381019080803573ffffffffffffffffffffffffffffffffffffffff1690602001909291908035906020019092919050505061167c565b6040518082815260200191505060405180910390f35b3480156108e557600080fd5b5061091a600480360381019080803573ffffffffffffffffffffffffffffffffffffffff1690602001909291905050506116a3565b604051808481526020018381526020018260001916600019168152602001935050505060405180910390f35b34801561095257600080fd5b5061095b6116cd565b005b34801561096957600080fd5b5061099e600480360381019080803573ffffffffffffffffffffffffffffffffffffffff1690602001909291905050506117d2565b6040518086815260200180602001858152602001806020018460001916600019168152602001838103835287818151815260200191508051906020019060200280838360005b838110156109ff5780820151818401526020810190506109e4565b50505050905001838103825285818151815260200191508051906020019060200280838360005b83811015610a41578082015181840152602081019050610a26565b5050505090500197505050505050505060405180910390f35b348015610a6657600080fd5b50610abb600480360381019080803573ffffffffffffffffffffffffffffffffffffffff169060200190929190803573ffffffffffffffffffffffffffffffffffffffff169060200190929190505050611934565b604051808215151515815260200191505060405180910390f35b348015610ae157600080fd5b50610b16600480360381019080803573ffffffffffffffffffffffffffffffffffffffff169060200190929190505050611963565b604051808481526020018381526020018260001916600019168152602001935050505060405180910390f35b348015610b4e57600080fd5b50610b5761198d565b604051808273ffffffffffffffffffffffffffffffffffffffff1673ffffffffffffffffffffffffffffffffffffffff16815260200191505060405180910390f35b348015610ba557600080fd5b50610bda600480360381019080803573ffffffffffffffffffffffffffffffffffffffff1690602001909291905050506119b3565b6040518082815260200191505060405180910390f35b348015610bfc57600080fd5b50610c31600480360381019080803573ffffffffffffffffffffffffffffffffffffffff1690602001909291905050506119cb565b604051808215151515815260200191505060405180910390f35b348015610c5757600080fd5b50610c606119eb565b6040518086815260200180602001858152602001806020018460001916600019168152602001838103835287818151815260200191508051906020019060200280838360005b83811015610cc1578082015181840152602081019050610ca6565b50505050905001838103825285818151815260200191508051906020019060200280838360005b83811015610d03578082015181840152602081019050610ce8565b5050505090500197505050505050505060405180910390f35b348015610d2857600080fd5b50610e05600480360381019080803573ffffffffffffffffffffffffffffffffffffffff169060200190929190803590602001909291908035906020019082018035906020019080806020026020016040519081016040528093929190818152602001838360200280828437820191505050505050919291929080359060200190929190803590602001908201803590602001908080602002602001604051908101604052809392919081815260200183836020028082843782019150505050505091929192908035600019169060200190929190505050611ac0565b005b348015610e1357600080fd5b50610e48600480360381019080803573ffffffffffffffffffffffffffffffffffffffff169060200190929190505050611bd7565b6040518082815260200191505060405180910390f35b348015610e6a57600080fd5b50610ebf600480360381019080803573ffffffffffffffffffffffffffffffffffffffff169060200190929190803573ffffffffffffffffffffffffffffffffffffffff169060200190929190505050611bef565b604051808215151515815260200191505060405180910390f35b348015610ee557600080fd5b50610f1a600480360381019080803573ffffffffffffffffffffffffffffffffffffffff169060200190929190505050611c1e565b6040518082815260200191505060405180910390f35b348015610f3c57600080fd5b50610f71600480360381019080803573ffffffffffffffffffffffffffffffffffffffff169060200190929190505050611c36565b005b348015610f7f57600080fd5b50610fbe600480360381019080803573ffffffffffffffffffffffffffffffffffffffff16906020019092919080359060200190929190505050611c9e565b604051808273ffffffffffffffffffffffffffffffffffffffff1673ffffffffffffffffffffffffffffffffffffffff16815260200191505060405180910390f35b34801561100c57600080fd5b50611041600480360381019080803573ffffffffffffffffffffffffffffffffffffffff169060200190929190505050611ceb565b6040518082815260200191505060405180910390f35b600f60009054906101000a900473ffffffffffffffffffffffffffffffffffffffff1681565b600e60009054906101000a900473ffffffffffffffffffffffffffffffffffffffff1673ffffffffffffffffffffffffffffffffffffffff163373ffffffffffffffffffffffffffffffffffffffff161415156110d957600080fd5b60a0604051908101604052808681526020018581526020018481526020018381526020018260001916815250601260008201518160000155602082015181600101908051906020019061112d929190612990565b50604082015181600201556060820151816003019080519060200190611154929190612990565b50608082015181600401906000191690559050507fcecb7f2a433f872143ebb31ebe6bc5cd169e6a657bc645805e460bf08188818960405160405180910390a15050505050565b60016020528160005260406000206020528060005260406000206000915091509054906101000a900460ff1681565b6000821180156111da5750600682105b156111ea576111e98483611d03565b5b6000831180156111fa5750600683105b1561120b5761120a858585611e24565b5b611215868561203a565b61122085858561227d565b61122c868686866124d1565b8373ffffffffffffffffffffffffffffffffffffffff168573ffffffffffffffffffffffffffffffffffffffff168773ffffffffffffffffffffffffffffffffffffffff167f7c48719b116adb330b6cd2d36f502db4997b7f93d323d4a91296af76106b6348868686604051808481526020018381526020018260001916600019168152602001935050505060405180910390a4505050505050565b6009602052816000526040600020602052806000526040600020600091509150505481565b60076020528160005260406000208181548110151561130857fe5b906000526020600020016000915091509054906101000a900473ffffffffffffffffffffffffffffffffffffffff1681565b60006020528060005260406000206000915054906101000a900460ff1681565b6000606060006060600061136c6129dd565b601060008873ffffffffffffffffffffffffffffffffffffffff1673ffffffffffffffffffffffffffffffffffffffff16815260200190815260200160002060a06040519081016040529081600082015481526020016001820180548060200260200160405190810160405280929190818152602001828054801561141057602002820191906000526020600020905b8154815260200190600101908083116113fc575b50505050508152602001600282015481526020016003820180548060200260200160405190810160405280929190818152602001828054801561147257602002820191906000526020600020905b81548152602001906001019080831161145e575b505050505081526020016004820154600019166000191681525050905080600001519550806020015194508060400151935080606001519250806080015191505091939590929450565b60128060000154908060020154908060040154905083565b6008602052816000526040600020602052806000526040600020600091509150505481565b6000600260008373ffffffffffffffffffffffffffffffffffffffff1673ffffffffffffffffffffffffffffffffffffffff168152602001908152602001600020805490509050919050565b600c6020528060005260406000206000915054906101000a900460ff1681565b60a0604051908101604052808681526020018581526020018481526020018381526020018260001916815250601060008873ffffffffffffffffffffffffffffffffffffffff1673ffffffffffffffffffffffffffffffffffffffff1681526020019081526020016000206000820151816000015560208201518160010190805190602001906115f6929190612990565b5060408201518160020155606082015181600301908051906020019061161d929190612990565b50608082015181600401906000191690559050508573ffffffffffffffffffffffffffffffffffffffff167fe04286428ba72349229a5e6d1ffcd9120bd0eecad71b420398ad31e81682d38760405160405180910390a2505050505050565b601b6020528160005260406000208160058110151561169757fe5b01600091509150505481565b60106020528060005260406000206000915090508060000154908060020154908060040154905083565b600e60009054906101000a900473ffffffffffffffffffffffffffffffffffffffff1673ffffffffffffffffffffffffffffffffffffffff163373ffffffffffffffffffffffffffffffffffffffff1614151561172957600080fd5b600e60009054906101000a900473ffffffffffffffffffffffffffffffffffffffff1673ffffffffffffffffffffffffffffffffffffffff167ff8df31144d9c2f0f6b59d69b8b98abd5459d07f2742c4df920b25aae33c6482060405160405180910390a26000600e60006101000a81548173ffffffffffffffffffffffffffffffffffffffff021916908373ffffffffffffffffffffffffffffffffffffffff160217905550565b600060606000606060006117e46129dd565b601160008873ffffffffffffffffffffffffffffffffffffffff1673ffffffffffffffffffffffffffffffffffffffff16815260200190815260200160002060a06040519081016040529081600082015481526020016001820180548060200260200160405190810160405280929190818152602001828054801561188857602002820191906000526020600020905b815481526020019060010190808311611874575b5050505050815260200160028201548152602001600382018054806020026020016040519081016040528092919081815260200182805480156118ea57602002820191906000526020600020905b8154815260200190600101908083116118d6575b505050505081526020016004820154600019166000191681525050905080600001519550806020015194508060400151935080606001519250806080015191505091939590929450565b600d6020528160005260406000206020528060005260406000206000915091509054906101000a900460ff1681565b60116020528060005260406000206000915090508060000154908060020154908060040154905083565b600e60009054906101000a900473ffffffffffffffffffffffffffffffffffffffff1681565b60046020528060005260406000206000915090505481565b60056020528060005260406000206000915054906101000a900460ff1681565b6000606060006060600060126000015494506012600101805480602002602001604051908101604052809291908181526020018280548015611a4c57602002820191906000526020600020905b815481526020019060010190808311611a38575b5050505050935060126002015492506012600301805480602002602001604051908101604052809291908181526020018280548015611aaa57602002820191906000526020600020905b815481526020019060010190808311611a96575b5050505050915060126004015490509091929394565b60a0604051908101604052808681526020018581526020018481526020018381526020018260001916815250601160008873ffffffffffffffffffffffffffffffffffffffff1673ffffffffffffffffffffffffffffffffffffffff168152602001908152602001600020600082015181600001556020820151816001019080519060200190611b51929190612990565b50604082015181600201556060820151816003019080519060200190611b78929190612990565b50608082015181600401906000191690559050508573ffffffffffffffffffffffffffffffffffffffff167f910de68bbeafb3b17db876b63617e0d84a56e46ed90d7b475ca836fc62ec82c960405160405180910390a2505050505050565b600b6020528060005260406000206000915090505481565b60066020528160005260406000206020528060005260406000206000915091509054906101000a900460ff1681565b60036020528060005260406000206000915090505481565b600e60009054906101000a900473ffffffffffffffffffffffffffffffffffffffff1673ffffffffffffffffffffffffffffffffffffffff163373ffffffffffffffffffffffffffffffffffffffff16141515611c9257600080fd5b611c9b81612502565b50565b600260205281600052604060002081815481101515611cb957fe5b906000526020600020016000915091509054906101000a900473ffffffffffffffffffffffffffffffffffffffff1681565b600a6020528060005260406000206000915090505481565b6001600460008473ffffffffffffffffffffffffffffffffffffffff1673ffffffffffffffffffffffffffffffffffffffff16815260200190815260200160002060008282540192505081905550600460008373ffffffffffffffffffffffffffffffffffffffff1673ffffffffffffffffffffffffffffffffffffffff1681526020019081526020016000205481600360008573ffffffffffffffffffffffffffffffffffffffff1673ffffffffffffffffffffffffffffffffffffffff1681526020019081526020016000205401811515611ddc57fe5b04600360008473ffffffffffffffffffffffffffffffffffffffff1673ffffffffffffffffffffffffffffffffffffffff168152602001908152602001600020819055505050565b6001600960008473ffffffffffffffffffffffffffffffffffffffff1673ffffffffffffffffffffffffffffffffffffffff16815260200190815260200160002060008573ffffffffffffffffffffffffffffffffffffffff1673ffffffffffffffffffffffffffffffffffffffff16815260200190815260200160002060008282540192505081905550600960008373ffffffffffffffffffffffffffffffffffffffff1673ffffffffffffffffffffffffffffffffffffffff16815260200190815260200160002060008473ffffffffffffffffffffffffffffffffffffffff1673ffffffffffffffffffffffffffffffffffffffff1681526020019081526020016000205481600860008573ffffffffffffffffffffffffffffffffffffffff1673ffffffffffffffffffffffffffffffffffffffff16815260200190815260200160002060008673ffffffffffffffffffffffffffffffffffffffff1673ffffffffffffffffffffffffffffffffffffffff1681526020019081526020016000205401811515611fb457fe5b04600860008473ffffffffffffffffffffffffffffffffffffffff1673ffffffffffffffffffffffffffffffffffffffff16815260200190815260200160002060008573ffffffffffffffffffffffffffffffffffffffff1673ffffffffffffffffffffffffffffffffffffffff16815260200190815260200160002081905550505050565b6000806000601060008573ffffffffffffffffffffffffffffffffffffffff1673ffffffffffffffffffffffffffffffffffffffff168152602001908152602001600020925061208a83866125fe565b60008360050160008773ffffffffffffffffffffffffffffffffffffffff1673ffffffffffffffffffffffffffffffffffffffff168152602001908152602001600020541415612276578260070160008673ffffffffffffffffffffffffffffffffffffffff1673ffffffffffffffffffffffffffffffffffffffff168152602001908152602001600020549150670de0b6b3a7640000836003018381548110151561213257fe5b9060005260206000200154029050600f60009054906101000a900473ffffffffffffffffffffffffffffffffffffffff1673ffffffffffffffffffffffffffffffffffffffff166323b872dd8587846040518463ffffffff167c0100000000000000000000000000000000000000000000000000000000028152600401808473ffffffffffffffffffffffffffffffffffffffff1673ffffffffffffffffffffffffffffffffffffffff1681526020018373ffffffffffffffffffffffffffffffffffffffff1673ffffffffffffffffffffffffffffffffffffffff1681526020018281526020019350505050602060405180830381600087803b15801561223957600080fd5b505af115801561224d573d6000803e3d6000fd5b505050506040513d602081101561226357600080fd5b8101908080519060200190929190505050505b5050505050565b6000806000600584141515612291576124c9565b601160008673ffffffffffffffffffffffffffffffffffffffff1673ffffffffffffffffffffffffffffffffffffffff16815260200190815260200160002092506122dc83876125fe565b60008360050160008873ffffffffffffffffffffffffffffffffffffffff1673ffffffffffffffffffffffffffffffffffffffff1681526020019081526020016000205414156124c8578260070160008773ffffffffffffffffffffffffffffffffffffffff1673ffffffffffffffffffffffffffffffffffffffff168152602001908152602001600020549150670de0b6b3a7640000836003018381548110151561238457fe5b9060005260206000200154029050600f60009054906101000a900473ffffffffffffffffffffffffffffffffffffffff1673ffffffffffffffffffffffffffffffffffffffff166323b872dd8688846040518463ffffffff167c0100000000000000000000000000000000000000000000000000000000028152600401808473ffffffffffffffffffffffffffffffffffffffff1673ffffffffffffffffffffffffffffffffffffffff1681526020018373ffffffffffffffffffffffffffffffffffffffff1673ffffffffffffffffffffffffffffffffffffffff1681526020018281526020019350505050602060405180830381600087803b15801561248b57600080fd5b505af115801561249f573d6000803e3d6000fd5b505050506040513d60208110156124b557600080fd5b8101908080519060200190929190505050505b5b505050505050565b6124dc6012856125fe565b60058114156124f1576124f06012846125fe565b5b6124fc6012836125fe565b50505050565b600073ffffffffffffffffffffffffffffffffffffffff168173ffffffffffffffffffffffffffffffffffffffff161415151561253e57600080fd5b8073ffffffffffffffffffffffffffffffffffffffff16600e60009054906101000a900473ffffffffffffffffffffffffffffffffffffffff1673ffffffffffffffffffffffffffffffffffffffff167f8be0079c531659141344cd1fd0a4f28419497f9722a3daafe3b4186f6b6457e060405160405180910390a380600e60006101000a81548173ffffffffffffffffffffffffffffffffffffffff021916908373ffffffffffffffffffffffffffffffffffffffff16021790555050565b60008060008060018660050160008773ffffffffffffffffffffffffffffffffffffffff1673ffffffffffffffffffffffffffffffffffffffff1681526020019081526020016000205401935060018660000154038411156129375760008660050160008773ffffffffffffffffffffffffffffffffffffffff1673ffffffffffffffffffffffffffffffffffffffff1681526020019081526020016000208190555060018660060160008773ffffffffffffffffffffffffffffffffffffffff1673ffffffffffffffffffffffffffffffffffffffff168152602001908152602001600020540192508560070160008673ffffffffffffffffffffffffffffffffffffffff1673ffffffffffffffffffffffffffffffffffffffff1681526020019081526020016000205491506001866001018381548110151561273f57fe5b9060005260206000200154038311156128e15760008660060160008773ffffffffffffffffffffffffffffffffffffffff1673ffffffffffffffffffffffffffffffffffffffff1681526020019081526020016000208190555060018660070160008773ffffffffffffffffffffffffffffffffffffffff1673ffffffffffffffffffffffffffffffffffffffff16815260200190815260200160002054019050600186600201540381111561288b5760008660070160008773ffffffffffffffffffffffffffffffffffffffff1673ffffffffffffffffffffffffffffffffffffffff1681526020019081526020016000208190555060018660080160008773ffffffffffffffffffffffffffffffffffffffff1673ffffffffffffffffffffffffffffffffffffffff168152602001908152602001600020600082825401925050819055506128dc565b60018660070160008773ffffffffffffffffffffffffffffffffffffffff1673ffffffffffffffffffffffffffffffffffffffff168152602001908152602001600020600082825401925050819055505b612932565b60018660060160008773ffffffffffffffffffffffffffffffffffffffff1673ffffffffffffffffffffffffffffffffffffffff168152602001908152602001600020600082825401925050819055505b612988565b60018660050160008773ffffffffffffffffffffffffffffffffffffffff1673ffffffffffffffffffffffffffffffffffffffff168152602001908152602001600020600082825401925050819055505b505050505050565b8280548282559060005260206000209081019282156129cc579160200282015b828111156129cb5782518255916020019190600101906129b0565b5b5090506129d99190612a10565b5090565b60a06040519081016040528060008152602001606081526020016000815260200160608152602001600080191681525090565b612a3291905b80821115612a2e576000816000905550600101612a16565b5090565b905600a165627a7a7230582066fab461396e084c31e061dd6356fde89ed68919d3e0adfa9aec3f731c3dbb290029",
  "source": "pragma solidity ^0.4.24;\n\nimport './KudosActor.sol';\nimport './KudosRewards.sol';\n\ncontract KudosRateExperience is KudosActor, KudosRewards {\n\n  event KudosExperience(  address indexed _userAddress,\n                            address indexed _workerAddress,\n                            address indexed _businessAddress,\n                            uint256 _workerRating,\n                            uint256 _businessRating,\n                            bytes32 _ipfsHash);\n\n    // add: 'withCorrectSignature(_businessAddress, _userId, _v, _r, _s)'\n  //                            uint8 _v, bytes32 _r, bytes32 _s, bytes32 _userId,\n\n  function rateExperience(  address _userAddress,\n                            address _workerAddress,\n                            address _businessAddress,\n                            uint256 _workerRating,\n                            uint256 _businessRating,\n                            bytes32 _ipfsHash)\n  public {\n\n    if (_businessRating > 0 && _businessRating < 6) {\n      updateBusinessRating(_businessAddress, _businessRating);\n    }\n\n    if (_workerRating > 0 && _workerRating < 6) {\n      updateWorkerRating(_workerAddress, _businessAddress, _workerRating);\n    }\n\n    // increment reward progress\n    updateUserRewardProgress(_userAddress, _businessAddress);\n    updateWorkerRewardProgress(_workerAddress, _businessAddress, _workerRating);\n    updateGrowthPoolRewardProgress(_userAddress, _workerAddress, _businessAddress, _workerRating);\n\n    emit KudosExperience(_userAddress, _workerAddress, _businessAddress, _workerRating, _businessRating, _ipfsHash);\n  }\n\n  function updateBusinessRating(address _businessAddress, uint256 _businessRating) internal {\n\n    numberOfBusinessRatings[_businessAddress] += 1;\n    businessAverageRating[_businessAddress] = (businessAverageRating[_businessAddress] + _businessRating) / numberOfBusinessRatings[_businessAddress];\n  }\n\n  function updateWorkerRating(address _workerAddress, address _businessAddress, uint256 _workerRating) internal {\n\n    numberOfWorkerRatings[_businessAddress][_workerAddress] += 1;\n    workerAverageRating[_businessAddress][_workerAddress] = (workerAverageRating[_businessAddress][_workerAddress] + _workerRating) / numberOfWorkerRatings[_businessAddress][_workerAddress];\n  }\n\n\n\n\n\n\n\n\n\n\n//    modifier withCorrectSignatureFromBusiness(address _businessAddress, bytes32 _userId, uint8 _v, bytes32 _r, bytes32 _s) {\n//\n//      bytes32 nonceHash = keccak256(nonce[_businessAddress][_userId]);\n//      bytes memory prefix = '\\x19Ethereum Signed Message:\\n32';\n//      bytes32 prefixedHash = keccak256(prefix, nonceHash);\n//      address recoveredAddress = ecrecover(prefixedHash, _v, _r, _s);\n//\n//      require(recoveredAddress == _businessAddress);\n//      incrementNonce(_businessAddress, _userId);\n//      _;\n//    }\n//\n//    function incrementNonce(address _businessAddress, bytes32 _userId) internal {\n//      nonce[_businessAddress][_userId] += 1;\n//    }\n}",
  "sourcePath": "/Users/panda/projects/kudos/packages/kudos-contracts/contracts/KudosRateExperience.sol",
  "compiler": {
    "name": "solc",
    "version": "0.4.24+commit.e67f0147.Emscripten.clang"
  },
  "schemaVersion": "2.0.1",
  "updatedAt": "2018-07-24T14:52:55.498Z"
}