{
  "contractName": "KudosUser",
  "abi": [
    {
      "constant": true,
      "inputs": [
        {
          "name": "",
          "type": "address"
        },
        {
          "name": "",
          "type": "address"
        }
      ],
      "name": "businessHasApprovedWorker",
      "outputs": [
        {
          "name": "",
          "type": "bool"
        }
      ],
      "payable": false,
      "stateMutability": "view",
      "type": "function"
    },
    {
      "constant": true,
      "inputs": [
        {
          "name": "",
          "type": "address"
        },
        {
          "name": "",
          "type": "address"
        }
      ],
      "name": "numberOfWorkerRatings",
      "outputs": [
        {
          "name": "",
          "type": "uint256"
        }
      ],
      "payable": false,
      "stateMutability": "view",
      "type": "function"
    },
    {
      "constant": true,
      "inputs": [
        {
          "name": "",
          "type": "address"
        },
        {
          "name": "",
          "type": "uint256"
        }
      ],
      "name": "businessList",
      "outputs": [
        {
          "name": "",
          "type": "address"
        }
      ],
      "payable": false,
      "stateMutability": "view",
      "type": "function"
    },
    {
      "constant": true,
      "inputs": [
        {
          "name": "",
          "type": "address"
        }
      ],
      "name": "isBusiness",
      "outputs": [
        {
          "name": "",
          "type": "bool"
        }
      ],
      "payable": false,
      "stateMutability": "view",
      "type": "function"
    },
    {
      "constant": true,
      "inputs": [
        {
          "name": "",
          "type": "address"
        },
        {
          "name": "",
          "type": "address"
        }
      ],
      "name": "workerAverageRating",
      "outputs": [
        {
          "name": "",
          "type": "uint256"
        }
      ],
      "payable": false,
      "stateMutability": "view",
      "type": "function"
    },
    {
      "constant": true,
      "inputs": [
        {
          "name": "businessAddress",
          "type": "address"
        }
      ],
      "name": "getNumberOfWorkers",
      "outputs": [
        {
          "name": "count",
          "type": "uint256"
        }
      ],
      "payable": false,
      "stateMutability": "view",
      "type": "function"
    },
    {
      "constant": true,
      "inputs": [
        {
          "name": "",
          "type": "address"
        }
      ],
      "name": "isUser",
      "outputs": [
        {
          "name": "",
          "type": "bool"
        }
      ],
      "payable": false,
      "stateMutability": "view",
      "type": "function"
    },
    {
      "constant": true,
      "inputs": [
        {
          "name": "",
          "type": "address"
        },
        {
          "name": "",
          "type": "address"
        }
      ],
      "name": "isEmployed",
      "outputs": [
        {
          "name": "",
          "type": "bool"
        }
      ],
      "payable": false,
      "stateMutability": "view",
      "type": "function"
    },
    {
      "constant": true,
      "inputs": [
        {
          "name": "",
          "type": "address"
        }
      ],
      "name": "numberOfBusinessRatings",
      "outputs": [
        {
          "name": "",
          "type": "uint256"
        }
      ],
      "payable": false,
      "stateMutability": "view",
      "type": "function"
    },
    {
      "constant": true,
      "inputs": [
        {
          "name": "",
          "type": "address"
        }
      ],
      "name": "isWorker",
      "outputs": [
        {
          "name": "",
          "type": "bool"
        }
      ],
      "payable": false,
      "stateMutability": "view",
      "type": "function"
    },
    {
      "constant": true,
      "inputs": [
        {
          "name": "",
          "type": "address"
        }
      ],
      "name": "numberOfUserRatings",
      "outputs": [
        {
          "name": "",
          "type": "uint256"
        }
      ],
      "payable": false,
      "stateMutability": "view",
      "type": "function"
    },
    {
      "constant": true,
      "inputs": [
        {
          "name": "",
          "type": "address"
        },
        {
          "name": "",
          "type": "address"
        }
      ],
      "name": "workerHasApprovedBusiness",
      "outputs": [
        {
          "name": "",
          "type": "bool"
        }
      ],
      "payable": false,
      "stateMutability": "view",
      "type": "function"
    },
    {
      "constant": true,
      "inputs": [
        {
          "name": "",
          "type": "address"
        }
      ],
      "name": "businessAverageRating",
      "outputs": [
        {
          "name": "",
          "type": "uint256"
        }
      ],
      "payable": false,
      "stateMutability": "view",
      "type": "function"
    },
    {
      "constant": true,
      "inputs": [
        {
          "name": "",
          "type": "address"
        },
        {
          "name": "",
          "type": "uint256"
        }
      ],
      "name": "workerList",
      "outputs": [
        {
          "name": "",
          "type": "address"
        }
      ],
      "payable": false,
      "stateMutability": "view",
      "type": "function"
    },
    {
      "constant": true,
      "inputs": [
        {
          "name": "",
          "type": "address"
        }
      ],
      "name": "userAverageRating",
      "outputs": [
        {
          "name": "",
          "type": "uint256"
        }
      ],
      "payable": false,
      "stateMutability": "view",
      "type": "function"
    },
    {
      "anonymous": false,
      "inputs": [
        {
          "indexed": true,
          "name": "_userAddress",
          "type": "address"
        },
        {
          "indexed": false,
          "name": "_ipfsHash",
          "type": "bytes32"
        }
      ],
      "name": "UserProfileUpdated",
      "type": "event"
    },
    {
      "anonymous": false,
      "inputs": [
        {
          "indexed": true,
          "name": "_userAddress",
          "type": "address"
        },
        {
          "indexed": true,
          "name": "_workerAddress",
          "type": "address"
        },
        {
          "indexed": true,
          "name": "_businessAddress",
          "type": "address"
        },
        {
          "indexed": false,
          "name": "_workerRating",
          "type": "uint256"
        },
        {
          "indexed": false,
          "name": "_businessRating",
          "type": "uint256"
        },
        {
          "indexed": false,
          "name": "_ipfsHash",
          "type": "bytes32"
        }
      ],
      "name": "KudosExperience",
      "type": "event"
    },
    {
      "constant": false,
      "inputs": [
        {
          "name": "_userAddress",
          "type": "address"
        },
        {
          "name": "_workerAddress",
          "type": "address"
        },
        {
          "name": "_businessAddress",
          "type": "address"
        },
        {
          "name": "_workerRating",
          "type": "uint256"
        },
        {
          "name": "_businessRating",
          "type": "uint256"
        },
        {
          "name": "_ipfsHash",
          "type": "bytes32"
        }
      ],
      "name": "rateExperience",
      "outputs": [],
      "payable": false,
      "stateMutability": "nonpayable",
      "type": "function"
    },
    {
      "constant": false,
      "inputs": [
        {
          "name": "_userAddress",
          "type": "address"
        },
        {
          "name": "_ipfsHash",
          "type": "bytes32"
        }
      ],
      "name": "registerAsUser",
      "outputs": [],
      "payable": false,
      "stateMutability": "nonpayable",
      "type": "function"
    },
    {
      "constant": false,
      "inputs": [
        {
          "name": "_userAddress",
          "type": "address"
        },
        {
          "name": "_ipfsHash",
          "type": "bytes32"
        }
      ],
      "name": "updateUserProfile",
      "outputs": [],
      "payable": false,
      "stateMutability": "nonpayable",
      "type": "function"
    }
  ],
  "bytecode": "0x6060604052341561000f57600080fd5b610fef8061001e6000396000f3006060604052600436106100fc576000357c0100000000000000000000000000000000000000000000000000000000900463ffffffff168063067a0949146101015780630874b993146101715780630e2be26614610207578063130ee376146102735780631466d019146102f55780632f64550a146103465780632fccafb5146103b25780633469a4e3146103ff5780634209fff1146104455780637b1d0c83146104965780639708c61f14610506578063aa15664514610553578063b265c33d146105a4578063e3363793146105f1578063ec5df15a14610661578063f9011888146106ae578063ff5e16a714610730578063ffb3379314610776575b600080fd5b341561010c57600080fd5b610157600480803573ffffffffffffffffffffffffffffffffffffffff1690602001909190803573ffffffffffffffffffffffffffffffffffffffff169060200190919050506107c3565b604051808215151515815260200191505060405180910390f35b341561017c57600080fd5b610205600480803573ffffffffffffffffffffffffffffffffffffffff1690602001909190803573ffffffffffffffffffffffffffffffffffffffff1690602001909190803573ffffffffffffffffffffffffffffffffffffffff16906020019091908035906020019091908035906020019091908035600019169060200190919050506107f2565b005b341561021257600080fd5b61025d600480803573ffffffffffffffffffffffffffffffffffffffff1690602001909190803573ffffffffffffffffffffffffffffffffffffffff169060200190919050506108d1565b6040518082815260200191505060405180910390f35b341561027e57600080fd5b6102b3600480803573ffffffffffffffffffffffffffffffffffffffff169060200190919080359060200190919050506108f6565b604051808273ffffffffffffffffffffffffffffffffffffffff1673ffffffffffffffffffffffffffffffffffffffff16815260200191505060405180910390f35b341561030057600080fd5b61032c600480803573ffffffffffffffffffffffffffffffffffffffff16906020019091905050610944565b604051808215151515815260200191505060405180910390f35b341561035157600080fd5b61039c600480803573ffffffffffffffffffffffffffffffffffffffff1690602001909190803573ffffffffffffffffffffffffffffffffffffffff16906020019091905050610964565b6040518082815260200191505060405180910390f35b34156103bd57600080fd5b6103e9600480803573ffffffffffffffffffffffffffffffffffffffff16906020019091905050610989565b6040518082815260200191505060405180910390f35b341561040a57600080fd5b610443600480803573ffffffffffffffffffffffffffffffffffffffff16906020019091908035600019169060200190919050506109d5565b005b341561045057600080fd5b61047c600480803573ffffffffffffffffffffffffffffffffffffffff16906020019091905050610a2f565b604051808215151515815260200191505060405180910390f35b34156104a157600080fd5b6104ec600480803573ffffffffffffffffffffffffffffffffffffffff1690602001909190803573ffffffffffffffffffffffffffffffffffffffff16906020019091905050610a4f565b604051808215151515815260200191505060405180910390f35b341561051157600080fd5b61053d600480803573ffffffffffffffffffffffffffffffffffffffff16906020019091905050610a7e565b6040518082815260200191505060405180910390f35b341561055e57600080fd5b61058a600480803573ffffffffffffffffffffffffffffffffffffffff16906020019091905050610a96565b604051808215151515815260200191505060405180910390f35b34156105af57600080fd5b6105db600480803573ffffffffffffffffffffffffffffffffffffffff16906020019091905050610ab6565b6040518082815260200191505060405180910390f35b34156105fc57600080fd5b610647600480803573ffffffffffffffffffffffffffffffffffffffff1690602001909190803573ffffffffffffffffffffffffffffffffffffffff16906020019091905050610ace565b604051808215151515815260200191505060405180910390f35b341561066c57600080fd5b610698600480803573ffffffffffffffffffffffffffffffffffffffff16906020019091905050610afd565b6040518082815260200191505060405180910390f35b34156106b957600080fd5b6106ee600480803573ffffffffffffffffffffffffffffffffffffffff16906020019091908035906020019091905050610b15565b604051808273ffffffffffffffffffffffffffffffffffffffff1673ffffffffffffffffffffffffffffffffffffffff16815260200191505060405180910390f35b341561073b57600080fd5b610774600480803573ffffffffffffffffffffffffffffffffffffffff1690602001909190803560001916906020019091905050610b63565b005b341561078157600080fd5b6107ad600480803573ffffffffffffffffffffffffffffffffffffffff16906020019091905050610c74565b6040518082815260200191505060405180910390f35b60016020528160005260406000206020528060005260406000206000915091509054906101000a900460ff1681565b600082101580610803575060058211155b15610813576108128483610c8c565b5b600083101580610824575060058311155b1561083557610834858585610dad565b5b8373ffffffffffffffffffffffffffffffffffffffff168573ffffffffffffffffffffffffffffffffffffffff168773ffffffffffffffffffffffffffffffffffffffff167f7c48719b116adb330b6cd2d36f502db4997b7f93d323d4a91296af76106b6348868686604051808481526020018381526020018260001916600019168152602001935050505060405180910390a4505050505050565b6009602052816000526040600020602052806000526040600020600091509150505481565b60076020528160005260406000208181548110151561091157fe5b90600052602060002090016000915091509054906101000a900473ffffffffffffffffffffffffffffffffffffffff1681565b60006020528060005260406000206000915054906101000a900460ff1681565b6008602052816000526040600020602052806000526040600020600091509150505481565b6000600260008373ffffffffffffffffffffffffffffffffffffffff1673ffffffffffffffffffffffffffffffffffffffff168152602001908152602001600020805490509050919050565b8173ffffffffffffffffffffffffffffffffffffffff167f331a1f487a28b8376d30fb1eb6f8641f7e4f82871e3c61021acec73dc1c856908260405180826000191660001916815260200191505060405180910390a25050565b600c6020528060005260406000206000915054906101000a900460ff1681565b600d6020528160005260406000206020528060005260406000206000915091509054906101000a900460ff1681565b60046020528060005260406000206000915090505481565b60056020528060005260406000206000915054906101000a900460ff1681565b600b6020528060005260406000206000915090505481565b60066020528160005260406000206020528060005260406000206000915091509054906101000a900460ff1681565b60036020528060005260406000206000915090505481565b600260205281600052604060002081815481101515610b3057fe5b90600052602060002090016000915091509054906101000a900473ffffffffffffffffffffffffffffffffffffffff1681565b60001515600c60008473ffffffffffffffffffffffffffffffffffffffff1673ffffffffffffffffffffffffffffffffffffffff16815260200190815260200160002060009054906101000a900460ff161515141515610bc257600080fd5b6001600c60008473ffffffffffffffffffffffffffffffffffffffff1673ffffffffffffffffffffffffffffffffffffffff16815260200190815260200160002060006101000a81548160ff0219169083151502179055508173ffffffffffffffffffffffffffffffffffffffff167f331a1f487a28b8376d30fb1eb6f8641f7e4f82871e3c61021acec73dc1c856908260405180826000191660001916815260200191505060405180910390a25050565b600a6020528060005260406000206000915090505481565b6001600460008473ffffffffffffffffffffffffffffffffffffffff1673ffffffffffffffffffffffffffffffffffffffff16815260200190815260200160002060008282540192505081905550600460008373ffffffffffffffffffffffffffffffffffffffff1673ffffffffffffffffffffffffffffffffffffffff1681526020019081526020016000205481600360008573ffffffffffffffffffffffffffffffffffffffff1673ffffffffffffffffffffffffffffffffffffffff1681526020019081526020016000205401811515610d6557fe5b04600360008473ffffffffffffffffffffffffffffffffffffffff1673ffffffffffffffffffffffffffffffffffffffff168152602001908152602001600020819055505050565b6001600960008473ffffffffffffffffffffffffffffffffffffffff1673ffffffffffffffffffffffffffffffffffffffff16815260200190815260200160002060008573ffffffffffffffffffffffffffffffffffffffff1673ffffffffffffffffffffffffffffffffffffffff16815260200190815260200160002060008282540192505081905550600960008373ffffffffffffffffffffffffffffffffffffffff1673ffffffffffffffffffffffffffffffffffffffff16815260200190815260200160002060008473ffffffffffffffffffffffffffffffffffffffff1673ffffffffffffffffffffffffffffffffffffffff1681526020019081526020016000205481600860008573ffffffffffffffffffffffffffffffffffffffff1673ffffffffffffffffffffffffffffffffffffffff16815260200190815260200160002060008673ffffffffffffffffffffffffffffffffffffffff1673ffffffffffffffffffffffffffffffffffffffff1681526020019081526020016000205401811515610f3d57fe5b04600860008473ffffffffffffffffffffffffffffffffffffffff1673ffffffffffffffffffffffffffffffffffffffff16815260200190815260200160002060008573ffffffffffffffffffffffffffffffffffffffff1673ffffffffffffffffffffffffffffffffffffffff168152602001908152602001600020819055505050505600a165627a7a72305820771532df7e56148ce4d9238c4f451244b71cb70aa13b691467900e0e0f50bd870029",
  "source": "pragma solidity ^0.4.18;\n\nimport \"./KudosActor.sol\";\n\ncontract KudosUser is KudosActor {\n\n  event UserProfileUpdated(address indexed _userAddress, bytes32 _ipfsHash);\n  event KudosExperience(  address indexed _userAddress,\n                          address indexed _workerAddress,\n                          address indexed _businessAddress,\n                          uint256 _workerRating,\n                          uint256 _businessRating,\n                          bytes32 _ipfsHash);\n\n  // add: \"withCorrectSignature(_businessAddress, _userId, _v, _r, _s)\"\n//                            uint8 _v, bytes32 _r, bytes32 _s, bytes32 _userId,\n\n  function rateExperience(  address _userAddress,\n                            address _workerAddress,\n                            address _businessAddress,\n                            uint256 _workerRating,\n                            uint256 _businessRating,\n                            bytes32 _ipfsHash)\n  public {\n\n    if (_businessRating >= 0 || _businessRating <= 5) {\n      updateBusinessRating(_businessAddress, _businessRating);\n    }\n\n    if (_workerRating >= 0 || _workerRating <= 5) {\n      updateWorkerRating(_workerAddress, _businessAddress, _workerRating);\n    }\n\n    KudosExperience(_userAddress, _workerAddress, _businessAddress, _workerRating, _businessRating, _ipfsHash);\n  }\n\n\n  function registerAsUser(address _userAddress, bytes32 _ipfsHash) public {\n\n    require(isUser[_userAddress] == false);\n    isUser[_userAddress] = true;\n    UserProfileUpdated(_userAddress, _ipfsHash);\n  }\n\n  function updateUserProfile(address _userAddress, bytes32 _ipfsHash) public {\n    UserProfileUpdated(_userAddress, _ipfsHash);\n  }\n\n  function updateBusinessRating(address _businessAddress, uint256 _businessRating) internal {\n\n    numberOfBusinessRatings[_businessAddress] += 1;\n    businessAverageRating[_businessAddress] = (businessAverageRating[_businessAddress] + _businessRating) / numberOfBusinessRatings[_businessAddress];\n  }\n\n  function updateWorkerRating(address _workerAddress, address _businessAddress, uint256 _workerRating) internal {\n\n    numberOfWorkerRatings[_businessAddress][_workerAddress] += 1;\n    workerAverageRating[_businessAddress][_workerAddress] = (workerAverageRating[_businessAddress][_workerAddress] + _workerRating) / numberOfWorkerRatings[_businessAddress][_workerAddress];\n  }\n\n\n//    modifier withCorrectSignatureFromBusiness(address _businessAddress, bytes32 _userId, uint8 _v, bytes32 _r, bytes32 _s) {\n//\n//      bytes32 nonceHash = keccak256(nonce[_businessAddress][_userId]);\n//      bytes memory prefix = \"\\x19Ethereum Signed Message:\\n32\";\n//      bytes32 prefixedHash = keccak256(prefix, nonceHash);\n//      address recoveredAddress = ecrecover(prefixedHash, _v, _r, _s);\n//\n//      require(recoveredAddress == _businessAddress);\n//      incrementNonce(_businessAddress, _userId);\n//      _;\n//    }\n//\n//    function incrementNonce(address _businessAddress, bytes32 _userId) internal {\n//      nonce[_businessAddress][_userId] += 1;\n//    }\n}\n\n",
  "sourcePath": "/Users/panda/projects/kudos/packages/kudos-contracts/contracts/KudosUser.sol",
  "compiler": {
    "name": "solc",
    "version": "0.4.19+commit.c4cbbb05.Emscripten.clang"
  },
  "schemaVersion": "1.0.1",
  "updatedAt": "2018-07-17T16:13:33.673Z"
}