{
  "contractName": "KudosActor",
  "abi": [
    {
      "constant": true,
      "inputs": [
        {
          "name": "",
          "type": "address"
        },
        {
          "name": "",
          "type": "address"
        }
      ],
      "name": "businessHasApprovedWorker",
      "outputs": [
        {
          "name": "",
          "type": "bool"
        }
      ],
      "payable": false,
      "stateMutability": "view",
      "type": "function"
    },
    {
      "constant": true,
      "inputs": [
        {
          "name": "",
          "type": "address"
        },
        {
          "name": "",
          "type": "address"
        }
      ],
      "name": "numberOfWorkerRatings",
      "outputs": [
        {
          "name": "",
          "type": "uint256"
        }
      ],
      "payable": false,
      "stateMutability": "view",
      "type": "function"
    },
    {
      "constant": true,
      "inputs": [
        {
          "name": "",
          "type": "address"
        },
        {
          "name": "",
          "type": "uint256"
        }
      ],
      "name": "businessList",
      "outputs": [
        {
          "name": "",
          "type": "address"
        }
      ],
      "payable": false,
      "stateMutability": "view",
      "type": "function"
    },
    {
      "constant": true,
      "inputs": [
        {
          "name": "",
          "type": "address"
        }
      ],
      "name": "isBusiness",
      "outputs": [
        {
          "name": "",
          "type": "bool"
        }
      ],
      "payable": false,
      "stateMutability": "view",
      "type": "function"
    },
    {
      "constant": true,
      "inputs": [
        {
          "name": "",
          "type": "address"
        },
        {
          "name": "",
          "type": "address"
        }
      ],
      "name": "workerAverageRating",
      "outputs": [
        {
          "name": "",
          "type": "uint256"
        }
      ],
      "payable": false,
      "stateMutability": "view",
      "type": "function"
    },
    {
      "constant": true,
      "inputs": [
        {
          "name": "",
          "type": "address"
        },
        {
          "name": "",
          "type": "address"
        }
      ],
      "name": "isEmployed",
      "outputs": [
        {
          "name": "",
          "type": "bool"
        }
      ],
      "payable": false,
      "stateMutability": "view",
      "type": "function"
    },
    {
      "constant": true,
      "inputs": [
        {
          "name": "",
          "type": "address"
        }
      ],
      "name": "numberOfBusinessRatings",
      "outputs": [
        {
          "name": "",
          "type": "uint256"
        }
      ],
      "payable": false,
      "stateMutability": "view",
      "type": "function"
    },
    {
      "constant": true,
      "inputs": [
        {
          "name": "",
          "type": "address"
        }
      ],
      "name": "isWorker",
      "outputs": [
        {
          "name": "",
          "type": "bool"
        }
      ],
      "payable": false,
      "stateMutability": "view",
      "type": "function"
    },
    {
      "constant": true,
      "inputs": [
        {
          "name": "",
          "type": "address"
        }
      ],
      "name": "numberOfUserRatings",
      "outputs": [
        {
          "name": "",
          "type": "uint256"
        }
      ],
      "payable": false,
      "stateMutability": "view",
      "type": "function"
    },
    {
      "constant": true,
      "inputs": [
        {
          "name": "",
          "type": "address"
        },
        {
          "name": "",
          "type": "address"
        }
      ],
      "name": "workerHasApprovedBusiness",
      "outputs": [
        {
          "name": "",
          "type": "bool"
        }
      ],
      "payable": false,
      "stateMutability": "view",
      "type": "function"
    },
    {
      "constant": true,
      "inputs": [
        {
          "name": "",
          "type": "address"
        }
      ],
      "name": "businessAverageRating",
      "outputs": [
        {
          "name": "",
          "type": "uint256"
        }
      ],
      "payable": false,
      "stateMutability": "view",
      "type": "function"
    },
    {
      "constant": true,
      "inputs": [
        {
          "name": "",
          "type": "address"
        },
        {
          "name": "",
          "type": "uint256"
        }
      ],
      "name": "workerList",
      "outputs": [
        {
          "name": "",
          "type": "address"
        }
      ],
      "payable": false,
      "stateMutability": "view",
      "type": "function"
    },
    {
      "constant": true,
      "inputs": [
        {
          "name": "",
          "type": "address"
        }
      ],
      "name": "userAverageRating",
      "outputs": [
        {
          "name": "",
          "type": "uint256"
        }
      ],
      "payable": false,
      "stateMutability": "view",
      "type": "function"
    },
    {
      "constant": true,
      "inputs": [
        {
          "name": "businessAddress",
          "type": "address"
        }
      ],
      "name": "getWorkerListLength",
      "outputs": [
        {
          "name": "count",
          "type": "uint256"
        }
      ],
      "payable": false,
      "stateMutability": "view",
      "type": "function"
    }
  ],
  "bytecode": "0x6060604052341561000f57600080fd5b6108af8061001e6000396000f3006060604052600436106100d0576000357c0100000000000000000000000000000000000000000000000000000000900463ffffffff168063067a0949146100d55780630e2be26614610145578063130ee376146101b15780631466d019146102335780632f64550a146102845780637b1d0c83146102f05780639708c61f14610360578063aa156645146103ad578063b265c33d146103fe578063d9afb4ff1461044b578063e336379314610498578063ec5df15a14610508578063f901188814610555578063ffb33793146105d7575b600080fd5b34156100e057600080fd5b61012b600480803573ffffffffffffffffffffffffffffffffffffffff1690602001909190803573ffffffffffffffffffffffffffffffffffffffff16906020019091905050610624565b604051808215151515815260200191505060405180910390f35b341561015057600080fd5b61019b600480803573ffffffffffffffffffffffffffffffffffffffff1690602001909190803573ffffffffffffffffffffffffffffffffffffffff16906020019091905050610653565b6040518082815260200191505060405180910390f35b34156101bc57600080fd5b6101f1600480803573ffffffffffffffffffffffffffffffffffffffff16906020019091908035906020019091905050610678565b604051808273ffffffffffffffffffffffffffffffffffffffff1673ffffffffffffffffffffffffffffffffffffffff16815260200191505060405180910390f35b341561023e57600080fd5b61026a600480803573ffffffffffffffffffffffffffffffffffffffff169060200190919050506106c6565b604051808215151515815260200191505060405180910390f35b341561028f57600080fd5b6102da600480803573ffffffffffffffffffffffffffffffffffffffff1690602001909190803573ffffffffffffffffffffffffffffffffffffffff169060200190919050506106e6565b6040518082815260200191505060405180910390f35b34156102fb57600080fd5b610346600480803573ffffffffffffffffffffffffffffffffffffffff1690602001909190803573ffffffffffffffffffffffffffffffffffffffff1690602001909190505061070b565b604051808215151515815260200191505060405180910390f35b341561036b57600080fd5b610397600480803573ffffffffffffffffffffffffffffffffffffffff1690602001909190505061073a565b6040518082815260200191505060405180910390f35b34156103b857600080fd5b6103e4600480803573ffffffffffffffffffffffffffffffffffffffff16906020019091905050610752565b604051808215151515815260200191505060405180910390f35b341561040957600080fd5b610435600480803573ffffffffffffffffffffffffffffffffffffffff16906020019091905050610772565b6040518082815260200191505060405180910390f35b341561045657600080fd5b610482600480803573ffffffffffffffffffffffffffffffffffffffff1690602001909190505061078a565b6040518082815260200191505060405180910390f35b34156104a357600080fd5b6104ee600480803573ffffffffffffffffffffffffffffffffffffffff1690602001909190803573ffffffffffffffffffffffffffffffffffffffff169060200190919050506107d6565b604051808215151515815260200191505060405180910390f35b341561051357600080fd5b61053f600480803573ffffffffffffffffffffffffffffffffffffffff16906020019091905050610805565b6040518082815260200191505060405180910390f35b341561056057600080fd5b610595600480803573ffffffffffffffffffffffffffffffffffffffff1690602001909190803590602001909190505061081d565b604051808273ffffffffffffffffffffffffffffffffffffffff1673ffffffffffffffffffffffffffffffffffffffff16815260200191505060405180910390f35b34156105e257600080fd5b61060e600480803573ffffffffffffffffffffffffffffffffffffffff1690602001909190505061086b565b6040518082815260200191505060405180910390f35b60016020528160005260406000206020528060005260406000206000915091509054906101000a900460ff1681565b6009602052816000526040600020602052806000526040600020600091509150505481565b60076020528160005260406000208181548110151561069357fe5b90600052602060002090016000915091509054906101000a900473ffffffffffffffffffffffffffffffffffffffff1681565b60006020528060005260406000206000915054906101000a900460ff1681565b6008602052816000526040600020602052806000526040600020600091509150505481565b600c6020528160005260406000206020528060005260406000206000915091509054906101000a900460ff1681565b60046020528060005260406000206000915090505481565b60056020528060005260406000206000915054906101000a900460ff1681565b600b6020528060005260406000206000915090505481565b6000600260008373ffffffffffffffffffffffffffffffffffffffff1673ffffffffffffffffffffffffffffffffffffffff168152602001908152602001600020805490509050919050565b60066020528160005260406000206020528060005260406000206000915091509054906101000a900460ff1681565b60036020528060005260406000206000915090505481565b60026020528160005260406000208181548110151561083857fe5b90600052602060002090016000915091509054906101000a900473ffffffffffffffffffffffffffffffffffffffff1681565b600a60205280600052604060002060009150905054815600a165627a7a72305820e47490879567be810eb317869b9397f9c76e84a4ca963e54e8de7b21e4fbf43e0029",
  "source": "pragma solidity ^0.4.18;\n\ncontract KudosActor {\n\n  // business\n  mapping(address => bool) public isBusiness;\n\n  mapping(address => mapping(address => bool)) public businessHasApprovedWorker;\n  mapping(address => address[]) public workerList;\n\n  function getWorkerListLength(address businessAddress) public constant returns(uint count) {\n    return workerList[businessAddress].length;\n  }\n\n  mapping(address => uint256) public businessAverageRating;\n  mapping(address => uint256) public numberOfBusinessRatings;\n\n  // worker\n  mapping(address => bool) public isWorker;\n\n  mapping(address => mapping(address => bool)) public workerHasApprovedBusiness;\n  mapping(address => address[]) public businessList;\n\n  mapping(address => mapping(address => uint256)) public workerAverageRating;\n  mapping(address => mapping(address => uint256)) public numberOfWorkerRatings;\n\n  // user\n  mapping(address => uint256) public userAverageRating;\n  mapping(address => uint256) public numberOfUserRatings;\n\n\n  // business + worker\n  mapping(address => mapping(address => bool)) public isEmployed;\n\n\n//  mapping(address => mapping(bytes32 => uint256)) public nonce;\n}\n",
  "sourcePath": "/Users/panda/projects/kudos/packages/kudos-contracts/contracts/KudosActor.sol",
  "compiler": {
    "name": "solc",
    "version": "0.4.19+commit.c4cbbb05.Emscripten.clang"
  },
  "schemaVersion": "1.0.1",
  "updatedAt": "2018-06-05T15:50:30.410Z"
}