{
  "contractName": "KudosWorker",
  "abi": [
    {
      "constant": true,
      "inputs": [
        {
          "name": "",
          "type": "address"
        },
        {
          "name": "",
          "type": "address"
        }
      ],
      "name": "businessHasApprovedWorker",
      "outputs": [
        {
          "name": "",
          "type": "bool"
        }
      ],
      "payable": false,
      "stateMutability": "view",
      "type": "function"
    },
    {
      "constant": true,
      "inputs": [
        {
          "name": "",
          "type": "address"
        },
        {
          "name": "",
          "type": "address"
        }
      ],
      "name": "numberOfWorkerRatings",
      "outputs": [
        {
          "name": "",
          "type": "uint256"
        }
      ],
      "payable": false,
      "stateMutability": "view",
      "type": "function"
    },
    {
      "constant": true,
      "inputs": [
        {
          "name": "",
          "type": "address"
        },
        {
          "name": "",
          "type": "uint256"
        }
      ],
      "name": "businessList",
      "outputs": [
        {
          "name": "",
          "type": "address"
        }
      ],
      "payable": false,
      "stateMutability": "view",
      "type": "function"
    },
    {
      "constant": true,
      "inputs": [
        {
          "name": "",
          "type": "address"
        }
      ],
      "name": "isBusiness",
      "outputs": [
        {
          "name": "",
          "type": "bool"
        }
      ],
      "payable": false,
      "stateMutability": "view",
      "type": "function"
    },
    {
      "constant": true,
      "inputs": [
        {
          "name": "",
          "type": "address"
        },
        {
          "name": "",
          "type": "address"
        }
      ],
      "name": "workerAverageRating",
      "outputs": [
        {
          "name": "",
          "type": "uint256"
        }
      ],
      "payable": false,
      "stateMutability": "view",
      "type": "function"
    },
    {
      "constant": true,
      "inputs": [
        {
          "name": "businessAddress",
          "type": "address"
        }
      ],
      "name": "getNumberOfWorkers",
      "outputs": [
        {
          "name": "count",
          "type": "uint256"
        }
      ],
      "payable": false,
      "stateMutability": "view",
      "type": "function"
    },
    {
      "constant": true,
      "inputs": [
        {
          "name": "",
          "type": "address"
        }
      ],
      "name": "isUser",
      "outputs": [
        {
          "name": "",
          "type": "bool"
        }
      ],
      "payable": false,
      "stateMutability": "view",
      "type": "function"
    },
    {
      "constant": true,
      "inputs": [
        {
          "name": "",
          "type": "address"
        },
        {
          "name": "",
          "type": "address"
        }
      ],
      "name": "isEmployed",
      "outputs": [
        {
          "name": "",
          "type": "bool"
        }
      ],
      "payable": false,
      "stateMutability": "view",
      "type": "function"
    },
    {
      "constant": true,
      "inputs": [
        {
          "name": "",
          "type": "address"
        }
      ],
      "name": "numberOfBusinessRatings",
      "outputs": [
        {
          "name": "",
          "type": "uint256"
        }
      ],
      "payable": false,
      "stateMutability": "view",
      "type": "function"
    },
    {
      "constant": true,
      "inputs": [
        {
          "name": "",
          "type": "address"
        }
      ],
      "name": "isWorker",
      "outputs": [
        {
          "name": "",
          "type": "bool"
        }
      ],
      "payable": false,
      "stateMutability": "view",
      "type": "function"
    },
    {
      "constant": true,
      "inputs": [
        {
          "name": "",
          "type": "address"
        }
      ],
      "name": "numberOfUserRatings",
      "outputs": [
        {
          "name": "",
          "type": "uint256"
        }
      ],
      "payable": false,
      "stateMutability": "view",
      "type": "function"
    },
    {
      "constant": true,
      "inputs": [
        {
          "name": "",
          "type": "address"
        },
        {
          "name": "",
          "type": "address"
        }
      ],
      "name": "workerHasApprovedBusiness",
      "outputs": [
        {
          "name": "",
          "type": "bool"
        }
      ],
      "payable": false,
      "stateMutability": "view",
      "type": "function"
    },
    {
      "constant": true,
      "inputs": [
        {
          "name": "",
          "type": "address"
        }
      ],
      "name": "businessAverageRating",
      "outputs": [
        {
          "name": "",
          "type": "uint256"
        }
      ],
      "payable": false,
      "stateMutability": "view",
      "type": "function"
    },
    {
      "constant": true,
      "inputs": [
        {
          "name": "",
          "type": "address"
        },
        {
          "name": "",
          "type": "uint256"
        }
      ],
      "name": "workerList",
      "outputs": [
        {
          "name": "",
          "type": "address"
        }
      ],
      "payable": false,
      "stateMutability": "view",
      "type": "function"
    },
    {
      "constant": true,
      "inputs": [
        {
          "name": "",
          "type": "address"
        }
      ],
      "name": "userAverageRating",
      "outputs": [
        {
          "name": "",
          "type": "uint256"
        }
      ],
      "payable": false,
      "stateMutability": "view",
      "type": "function"
    },
    {
      "anonymous": false,
      "inputs": [
        {
          "indexed": true,
          "name": "_workerAddress",
          "type": "address"
        },
        {
          "indexed": false,
          "name": "_ipfsHash",
          "type": "bytes32"
        }
      ],
      "name": "WorkerProfileUpdated",
      "type": "event"
    },
    {
      "anonymous": false,
      "inputs": [
        {
          "indexed": true,
          "name": "_workerAddress",
          "type": "address"
        },
        {
          "indexed": true,
          "name": "_businessAddress",
          "type": "address"
        }
      ],
      "name": "WorkerHasApprovedBusiness",
      "type": "event"
    },
    {
      "anonymous": false,
      "inputs": [
        {
          "indexed": true,
          "name": "_userAddress",
          "type": "address"
        },
        {
          "indexed": true,
          "name": "_workerAddress",
          "type": "address"
        },
        {
          "indexed": true,
          "name": "_businessAddress",
          "type": "address"
        },
        {
          "indexed": false,
          "name": "_userRating",
          "type": "uint256"
        },
        {
          "indexed": false,
          "name": "_ipfsHash",
          "type": "bytes32"
        }
      ],
      "name": "UserRating",
      "type": "event"
    },
    {
      "constant": false,
      "inputs": [
        {
          "name": "_workerAddress",
          "type": "address"
        },
        {
          "name": "_ipfsHash",
          "type": "bytes32"
        }
      ],
      "name": "registerAsWorker",
      "outputs": [],
      "payable": false,
      "stateMutability": "nonpayable",
      "type": "function"
    },
    {
      "constant": false,
      "inputs": [
        {
          "name": "_workerAddress",
          "type": "address"
        },
        {
          "name": "_ipfsHash",
          "type": "bytes32"
        }
      ],
      "name": "updateWorkerProfile",
      "outputs": [],
      "payable": false,
      "stateMutability": "nonpayable",
      "type": "function"
    },
    {
      "constant": false,
      "inputs": [
        {
          "name": "_workerAddress",
          "type": "address"
        },
        {
          "name": "_businessAddress",
          "type": "address"
        }
      ],
      "name": "addBusiness",
      "outputs": [],
      "payable": false,
      "stateMutability": "nonpayable",
      "type": "function"
    },
    {
      "constant": false,
      "inputs": [
        {
          "name": "_userAddress",
          "type": "address"
        },
        {
          "name": "_workerAddress",
          "type": "address"
        },
        {
          "name": "_businessAddress",
          "type": "address"
        },
        {
          "name": "_userRating",
          "type": "uint256"
        },
        {
          "name": "_ipfsHash",
          "type": "bytes32"
        }
      ],
      "name": "rateUser",
      "outputs": [],
      "payable": false,
      "stateMutability": "nonpayable",
      "type": "function"
    }
  ],
  "bytecode": "0x6060604052341561000f57600080fd5b61117f8061001e6000396000f300606060405260043610610107576000357c0100000000000000000000000000000000000000000000000000000000900463ffffffff168063067a09491461010c5780630e2be2661461017c578063130ee376146101e85780631466d0191461026a57806323d954dd146102bb5780632f64550a146103015780632fccafb51461036d5780634209fff1146103ba578063603fe1f81461040b5780637b1d0c83146104635780638ec66613146104d35780639708c61f14610560578063aa156645146105ad578063abd4e7ad146105fe578063b265c33d14610644578063e336379314610691578063ec5df15a14610701578063f90118881461074e578063ffb33793146107d0575b600080fd5b341561011757600080fd5b610162600480803573ffffffffffffffffffffffffffffffffffffffff1690602001909190803573ffffffffffffffffffffffffffffffffffffffff1690602001909190505061081d565b604051808215151515815260200191505060405180910390f35b341561018757600080fd5b6101d2600480803573ffffffffffffffffffffffffffffffffffffffff1690602001909190803573ffffffffffffffffffffffffffffffffffffffff1690602001909190505061084c565b6040518082815260200191505060405180910390f35b34156101f357600080fd5b610228600480803573ffffffffffffffffffffffffffffffffffffffff16906020019091908035906020019091905050610871565b604051808273ffffffffffffffffffffffffffffffffffffffff1673ffffffffffffffffffffffffffffffffffffffff16815260200191505060405180910390f35b341561027557600080fd5b6102a1600480803573ffffffffffffffffffffffffffffffffffffffff169060200190919050506108bf565b604051808215151515815260200191505060405180910390f35b34156102c657600080fd5b6102ff600480803573ffffffffffffffffffffffffffffffffffffffff16906020019091908035600019169060200190919050506108df565b005b341561030c57600080fd5b610357600480803573ffffffffffffffffffffffffffffffffffffffff1690602001909190803573ffffffffffffffffffffffffffffffffffffffff16906020019091905050610939565b6040518082815260200191505060405180910390f35b341561037857600080fd5b6103a4600480803573ffffffffffffffffffffffffffffffffffffffff1690602001909190505061095e565b6040518082815260200191505060405180910390f35b34156103c557600080fd5b6103f1600480803573ffffffffffffffffffffffffffffffffffffffff169060200190919050506109aa565b604051808215151515815260200191505060405180910390f35b341561041657600080fd5b610461600480803573ffffffffffffffffffffffffffffffffffffffff1690602001909190803573ffffffffffffffffffffffffffffffffffffffff169060200190919050506109ca565b005b341561046e57600080fd5b6104b9600480803573ffffffffffffffffffffffffffffffffffffffff1690602001909190803573ffffffffffffffffffffffffffffffffffffffff16906020019091905050610d15565b604051808215151515815260200191505060405180910390f35b34156104de57600080fd5b61055e600480803573ffffffffffffffffffffffffffffffffffffffff1690602001909190803573ffffffffffffffffffffffffffffffffffffffff1690602001909190803573ffffffffffffffffffffffffffffffffffffffff1690602001909190803590602001909190803560001916906020019091905050610d44565b005b341561056b57600080fd5b610597600480803573ffffffffffffffffffffffffffffffffffffffff16906020019091905050610ef4565b6040518082815260200191505060405180910390f35b34156105b857600080fd5b6105e4600480803573ffffffffffffffffffffffffffffffffffffffff16906020019091905050610f0c565b604051808215151515815260200191505060405180910390f35b341561060957600080fd5b610642600480803573ffffffffffffffffffffffffffffffffffffffff1690602001909190803560001916906020019091905050610f2c565b005b341561064f57600080fd5b61067b600480803573ffffffffffffffffffffffffffffffffffffffff1690602001909190505061103d565b6040518082815260200191505060405180910390f35b341561069c57600080fd5b6106e7600480803573ffffffffffffffffffffffffffffffffffffffff1690602001909190803573ffffffffffffffffffffffffffffffffffffffff16906020019091905050611055565b604051808215151515815260200191505060405180910390f35b341561070c57600080fd5b610738600480803573ffffffffffffffffffffffffffffffffffffffff16906020019091905050611084565b6040518082815260200191505060405180910390f35b341561075957600080fd5b61078e600480803573ffffffffffffffffffffffffffffffffffffffff1690602001909190803590602001909190505061109c565b604051808273ffffffffffffffffffffffffffffffffffffffff1673ffffffffffffffffffffffffffffffffffffffff16815260200191505060405180910390f35b34156107db57600080fd5b610807600480803573ffffffffffffffffffffffffffffffffffffffff169060200190919050506110ea565b6040518082815260200191505060405180910390f35b60016020528160005260406000206020528060005260406000206000915091509054906101000a900460ff1681565b6009602052816000526040600020602052806000526040600020600091509150505481565b60076020528160005260406000208181548110151561088c57fe5b90600052602060002090016000915091509054906101000a900473ffffffffffffffffffffffffffffffffffffffff1681565b60006020528060005260406000206000915054906101000a900460ff1681565b8173ffffffffffffffffffffffffffffffffffffffff167f8fb235aae8b3763345e1356f94de91f152d0b918d771d87ae2868925ad266ae78260405180826000191660001916815260200191505060405180910390a25050565b6008602052816000526040600020602052806000526040600020600091509150505481565b6000600260008373ffffffffffffffffffffffffffffffffffffffff1673ffffffffffffffffffffffffffffffffffffffff168152602001908152602001600020805490509050919050565b600c6020528060005260406000206000915054906101000a900460ff1681565b6001600660008473ffffffffffffffffffffffffffffffffffffffff1673ffffffffffffffffffffffffffffffffffffffff16815260200190815260200160002060008373ffffffffffffffffffffffffffffffffffffffff1673ffffffffffffffffffffffffffffffffffffffff16815260200190815260200160002060006101000a81548160ff0219169083151502179055508073ffffffffffffffffffffffffffffffffffffffff168273ffffffffffffffffffffffffffffffffffffffff167fae442d2ee17216b3bc2662322adeb26046e30349fd3fa9a3dc135a6d610628d260405160405180910390a3600160008273ffffffffffffffffffffffffffffffffffffffff1673ffffffffffffffffffffffffffffffffffffffff16815260200190815260200160002060008373ffffffffffffffffffffffffffffffffffffffff1673ffffffffffffffffffffffffffffffffffffffff16815260200190815260200160002060009054906101000a900460ff168015610bd65750600d60008273ffffffffffffffffffffffffffffffffffffffff1673ffffffffffffffffffffffffffffffffffffffff16815260200190815260200160002060008373ffffffffffffffffffffffffffffffffffffffff1673ffffffffffffffffffffffffffffffffffffffff16815260200190815260200160002060009054906101000a900460ff16155b15610d11576001600d60008373ffffffffffffffffffffffffffffffffffffffff1673ffffffffffffffffffffffffffffffffffffffff16815260200190815260200160002060008473ffffffffffffffffffffffffffffffffffffffff1673ffffffffffffffffffffffffffffffffffffffff16815260200190815260200160002060006101000a81548160ff021916908315150217905550600260008273ffffffffffffffffffffffffffffffffffffffff1673ffffffffffffffffffffffffffffffffffffffff1681526020019081526020016000208054806001018281610cc19190611102565b9160005260206000209001600084909190916101000a81548173ffffffffffffffffffffffffffffffffffffffff021916908373ffffffffffffffffffffffffffffffffffffffff160217905550505b5050565b600d6020528160005260406000206020528060005260406000206000915091509054906101000a900460ff1681565b6001600b60008773ffffffffffffffffffffffffffffffffffffffff1673ffffffffffffffffffffffffffffffffffffffff16815260200190815260200160002060008282540192505081905550600b60008673ffffffffffffffffffffffffffffffffffffffff1673ffffffffffffffffffffffffffffffffffffffff1681526020019081526020016000205482600a60008873ffffffffffffffffffffffffffffffffffffffff1673ffffffffffffffffffffffffffffffffffffffff1681526020019081526020016000205401811515610e1d57fe5b04600a60008773ffffffffffffffffffffffffffffffffffffffff1673ffffffffffffffffffffffffffffffffffffffff168152602001908152602001600020819055508473ffffffffffffffffffffffffffffffffffffffff168473ffffffffffffffffffffffffffffffffffffffff168473ffffffffffffffffffffffffffffffffffffffff167f5e6c3e11b9f623c99dc31ad34b46ba46f967b91b7502625b3e75c0191871e1df85856040518083815260200182600019166000191681526020019250505060405180910390a45050505050565b60046020528060005260406000206000915090505481565b60056020528060005260406000206000915054906101000a900460ff1681565b60001515600560008473ffffffffffffffffffffffffffffffffffffffff1673ffffffffffffffffffffffffffffffffffffffff16815260200190815260200160002060009054906101000a900460ff161515141515610f8b57600080fd5b6001600560008473ffffffffffffffffffffffffffffffffffffffff1673ffffffffffffffffffffffffffffffffffffffff16815260200190815260200160002060006101000a81548160ff0219169083151502179055508173ffffffffffffffffffffffffffffffffffffffff167f8fb235aae8b3763345e1356f94de91f152d0b918d771d87ae2868925ad266ae78260405180826000191660001916815260200191505060405180910390a25050565b600b6020528060005260406000206000915090505481565b60066020528160005260406000206020528060005260406000206000915091509054906101000a900460ff1681565b60036020528060005260406000206000915090505481565b6002602052816000526040600020818154811015156110b757fe5b90600052602060002090016000915091509054906101000a900473ffffffffffffffffffffffffffffffffffffffff1681565b600a6020528060005260406000206000915090505481565b81548183558181151161112957818360005260206000209182019101611128919061112e565b5b505050565b61115091905b8082111561114c576000816000905550600101611134565b5090565b905600a165627a7a72305820d01f29b68a692acdce9a5d707f0b3e544ff20c8d24a86fbc2bb69dc60eb587930029",
  "source": "pragma solidity ^0.4.18;\n\nimport \"./KudosActor.sol\";\n\ncontract KudosWorker is KudosActor {\n\n  event WorkerProfileUpdated(address indexed _workerAddress, bytes32 _ipfsHash);\n  event WorkerHasApprovedBusiness(address indexed _workerAddress, address indexed _businessAddress);\n\n  event UserRating( address indexed _userAddress,\n                    address indexed _workerAddress,\n                    address indexed _businessAddress,\n                    uint256 _userRating,\n                    bytes32 _ipfsHash);\n\n  function registerAsWorker(address _workerAddress, bytes32 _ipfsHash) public {\n\n    require(isWorker[_workerAddress] == false);\n    isWorker[_workerAddress] = true;\n    WorkerProfileUpdated(_workerAddress, _ipfsHash);\n  }\n\n  function updateWorkerProfile(address _workerAddress, bytes32 _ipfsHash) public {\n    WorkerProfileUpdated(_workerAddress, _ipfsHash);\n  }\n\n  function addBusiness(address _workerAddress, address _businessAddress) public {\n\n    workerHasApprovedBusiness[_workerAddress][_businessAddress] = true;\n    WorkerHasApprovedBusiness(_workerAddress, _businessAddress);\n\n    if (businessHasApprovedWorker[_businessAddress][_workerAddress] && !isEmployed[_businessAddress][_workerAddress]) {\n      isEmployed[_businessAddress][_workerAddress] = true;\n      workerList[_businessAddress].push(_workerAddress);\n    }\n\n    // any add business init\n  }\n\n  function rateUser(address _userAddress, address _workerAddress, address _businessAddress, uint256 _userRating, bytes32 _ipfsHash) public {\n\n    numberOfUserRatings[_userAddress] += 1;\n    userAverageRating[_userAddress] = (userAverageRating[_userAddress] + _userRating) / numberOfUserRatings[_userAddress];\n    UserRating(_businessAddress, _workerAddress, _userAddress, _userRating, _ipfsHash);\n  }\n}",
  "sourcePath": "/Users/panda/projects/kudos/packages/kudos-contracts/contracts/KudosWorker.sol",
  "compiler": {
    "name": "solc",
    "version": "0.4.19+commit.c4cbbb05.Emscripten.clang"
  },
  "schemaVersion": "1.0.1",
  "updatedAt": "2018-07-16T19:37:42.722Z"
}