{
  "contractName": "KudosPresaleTokenLockup",
  "abi": [
    {
      "constant": true,
      "inputs": [],
      "name": "beneficiary",
      "outputs": [
        {
          "name": "",
          "type": "address"
        }
      ],
      "payable": false,
      "stateMutability": "view",
      "type": "function"
    },
    {
      "constant": true,
      "inputs": [],
      "name": "releaseTime",
      "outputs": [
        {
          "name": "",
          "type": "uint256"
        }
      ],
      "payable": false,
      "stateMutability": "view",
      "type": "function"
    },
    {
      "inputs": [
        {
          "name": "_tokenContractAddress",
          "type": "address"
        },
        {
          "name": "_beneficiary",
          "type": "address"
        }
      ],
      "payable": false,
      "stateMutability": "nonpayable",
      "type": "constructor"
    },
    {
      "constant": false,
      "inputs": [],
      "name": "release",
      "outputs": [],
      "payable": false,
      "stateMutability": "nonpayable",
      "type": "function"
    },
    {
      "constant": true,
      "inputs": [],
      "name": "fundsAreAvailable",
      "outputs": [
        {
          "name": "",
          "type": "bool"
        }
      ],
      "payable": false,
      "stateMutability": "view",
      "type": "function"
    }
  ],
  "bytecode": "0x6060604052341561000f57600080fd5b6040516040806104ec83398101604052808051906020019091908051906020019091905050600073ffffffffffffffffffffffffffffffffffffffff168273ffffffffffffffffffffffffffffffffffffffff161415151561007057600080fd5b600073ffffffffffffffffffffffffffffffffffffffff168173ffffffffffffffffffffffffffffffffffffffff16141515156100ac57600080fd5b635a0c4860600281905550816000806101000a81548173ffffffffffffffffffffffffffffffffffffffff021916908373ffffffffffffffffffffffffffffffffffffffff16021790555080600160006101000a81548173ffffffffffffffffffffffffffffffffffffffff021916908373ffffffffffffffffffffffffffffffffffffffff16021790555050506103a3806101496000396000f300606060405260043610610062576000357c0100000000000000000000000000000000000000000000000000000000900463ffffffff16806338af3eed146100675780637ce645a6146100bc57806386d1a69f146100e9578063b91d4001146100fe575b600080fd5b341561007257600080fd5b61007a610127565b604051808273ffffffffffffffffffffffffffffffffffffffff1673ffffffffffffffffffffffffffffffffffffffff16815260200191505060405180910390f35b34156100c757600080fd5b6100cf61014d565b604051808215151515815260200191505060405180910390f35b34156100f457600080fd5b6100fc61015a565b005b341561010957600080fd5b610111610371565b6040518082815260200191505060405180910390f35b600160009054906101000a900473ffffffffffffffffffffffffffffffffffffffff1681565b6000600254421015905090565b6000600254421015151561016d57600080fd5b6000809054906101000a900473ffffffffffffffffffffffffffffffffffffffff1673ffffffffffffffffffffffffffffffffffffffff166370a08231306000604051602001526040518263ffffffff167c0100000000000000000000000000000000000000000000000000000000028152600401808273ffffffffffffffffffffffffffffffffffffffff1673ffffffffffffffffffffffffffffffffffffffff168152602001915050602060405180830381600087803b151561023157600080fd5b6102c65a03f1151561024257600080fd5b50505060405180519050905060008111151561025d57600080fd5b6000809054906101000a900473ffffffffffffffffffffffffffffffffffffffff1673ffffffffffffffffffffffffffffffffffffffff1663a9059cbb600160009054906101000a900473ffffffffffffffffffffffffffffffffffffffff16836000604051602001526040518363ffffffff167c0100000000000000000000000000000000000000000000000000000000028152600401808373ffffffffffffffffffffffffffffffffffffffff1673ffffffffffffffffffffffffffffffffffffffff16815260200182815260200192505050602060405180830381600087803b151561034b57600080fd5b6102c65a03f1151561035c57600080fd5b50505060405180519050151561036e57fe5b50565b600254815600a165627a7a723058207c031f1b85992703234dc5a0be993a35a160b424d206b13ec741f0a8daf58bb80029",
  "source": "pragma solidity ^0.4.15;\n\nimport \"./SafeMath.sol\";\nimport './KudosToken.sol';\n\n/**\n * @title KudosPresaleTokenLockup\n * @author Ben Johnson\n *\n * @dev KudosPresaleTokenLockup will allow a beneficiary to extract the tokens on 11/15/2017 at 9 AM EST\n * @dev Based on TokenTimelock by OpenZeppelin: https://github.com/OpenZeppelin/zeppelin-solidity\n */\ncontract KudosPresaleTokenLockup {\n   using SafeMath for uint256;\n\n   KudosToken kudosToken;\n\n   // beneficiary of tokens after they are released\n   address public beneficiary;\n\n   // timestamp when token release is enabled\n   uint256 public releaseTime;\n\n   function KudosPresaleTokenLockup(address _tokenContractAddress, address _beneficiary) {\n      require(_tokenContractAddress != address(0));\n      require(_beneficiary != address(0));\n      releaseTime = 1510754400;\n      kudosToken = KudosToken(_tokenContractAddress);\n      beneficiary = _beneficiary;\n   }\n\n   /**\n   * @notice Transfers tokens held by timelock to beneficiary.\n   */\n   function release() {\n      require(now >= releaseTime);\n\n      uint256 balance = kudosToken.balanceOf(this);\n      require(balance > 0);\n\n      assert(kudosToken.transfer(beneficiary, balance));\n   }\n\n   function fundsAreAvailable() constant returns (bool) {\n      return now >= releaseTime;\n   }\n}\n",
  "sourcePath": "/Users/panda/projects/kudos/packages/kudos-token-contracts/contracts/KudosPresaleTokenLockup.sol",
  "compiler": {
    "name": "solc",
    "version": "0.4.19+commit.c4cbbb05.Emscripten.clang"
  },
  "schemaVersion": "1.0.1",
  "updatedAt": "2018-05-18T14:58:13.408Z"
}