{
  "contractName": "KudosTokenSale",
  "abi": [
    {
      "constant": true,
      "inputs": [],
      "name": "kudosToken",
      "outputs": [
        {
          "name": "",
          "type": "address"
        }
      ],
      "payable": false,
      "stateMutability": "view",
      "type": "function"
    },
    {
      "constant": true,
      "inputs": [],
      "name": "ethPriceInDollars",
      "outputs": [
        {
          "name": "",
          "type": "uint256"
        }
      ],
      "payable": false,
      "stateMutability": "view",
      "type": "function"
    },
    {
      "constant": true,
      "inputs": [],
      "name": "goalInDollars",
      "outputs": [
        {
          "name": "",
          "type": "uint256"
        }
      ],
      "payable": false,
      "stateMutability": "view",
      "type": "function"
    },
    {
      "constant": true,
      "inputs": [],
      "name": "cap",
      "outputs": [
        {
          "name": "",
          "type": "uint256"
        }
      ],
      "payable": false,
      "stateMutability": "view",
      "type": "function"
    },
    {
      "constant": true,
      "inputs": [],
      "name": "oneMillion",
      "outputs": [
        {
          "name": "",
          "type": "uint256"
        }
      ],
      "payable": false,
      "stateMutability": "view",
      "type": "function"
    },
    {
      "constant": true,
      "inputs": [],
      "name": "oneBillion",
      "outputs": [
        {
          "name": "",
          "type": "uint256"
        }
      ],
      "payable": false,
      "stateMutability": "view",
      "type": "function"
    },
    {
      "constant": true,
      "inputs": [
        {
          "name": "",
          "type": "address"
        }
      ],
      "name": "participationHistory",
      "outputs": [
        {
          "name": "",
          "type": "uint256"
        }
      ],
      "payable": false,
      "stateMutability": "view",
      "type": "function"
    },
    {
      "constant": true,
      "inputs": [],
      "name": "wallet",
      "outputs": [
        {
          "name": "",
          "type": "address"
        }
      ],
      "payable": false,
      "stateMutability": "view",
      "type": "function"
    },
    {
      "constant": true,
      "inputs": [],
      "name": "amountOfTokensForSale",
      "outputs": [
        {
          "name": "",
          "type": "uint256"
        }
      ],
      "payable": false,
      "stateMutability": "view",
      "type": "function"
    },
    {
      "constant": true,
      "inputs": [],
      "name": "weiPerDollar",
      "outputs": [
        {
          "name": "",
          "type": "uint256"
        }
      ],
      "payable": false,
      "stateMutability": "view",
      "type": "function"
    },
    {
      "constant": true,
      "inputs": [
        {
          "name": "",
          "type": "address"
        }
      ],
      "name": "participationCaps",
      "outputs": [
        {
          "name": "",
          "type": "uint256"
        }
      ],
      "payable": false,
      "stateMutability": "view",
      "type": "function"
    },
    {
      "constant": true,
      "inputs": [],
      "name": "startTime",
      "outputs": [
        {
          "name": "",
          "type": "uint256"
        }
      ],
      "payable": false,
      "stateMutability": "view",
      "type": "function"
    },
    {
      "constant": true,
      "inputs": [],
      "name": "kutoasPerDollar",
      "outputs": [
        {
          "name": "",
          "type": "uint256"
        }
      ],
      "payable": false,
      "stateMutability": "view",
      "type": "function"
    },
    {
      "constant": true,
      "inputs": [],
      "name": "owner",
      "outputs": [
        {
          "name": "",
          "type": "address"
        }
      ],
      "payable": false,
      "stateMutability": "view",
      "type": "function"
    },
    {
      "constant": true,
      "inputs": [],
      "name": "maxValue",
      "outputs": [
        {
          "name": "",
          "type": "uint256"
        }
      ],
      "payable": false,
      "stateMutability": "view",
      "type": "function"
    },
    {
      "constant": true,
      "inputs": [],
      "name": "kutoasPerWei",
      "outputs": [
        {
          "name": "",
          "type": "uint256"
        }
      ],
      "payable": false,
      "stateMutability": "view",
      "type": "function"
    },
    {
      "constant": false,
      "inputs": [
        {
          "name": "_tokenAddress",
          "type": "address"
        },
        {
          "name": "_amount",
          "type": "uint256"
        }
      ],
      "name": "transferAnyERC20Token",
      "outputs": [
        {
          "name": "success",
          "type": "bool"
        }
      ],
      "payable": false,
      "stateMutability": "nonpayable",
      "type": "function"
    },
    {
      "constant": true,
      "inputs": [],
      "name": "tokenUnit",
      "outputs": [
        {
          "name": "",
          "type": "uint256"
        }
      ],
      "payable": false,
      "stateMutability": "view",
      "type": "function"
    },
    {
      "constant": true,
      "inputs": [],
      "name": "numberOfDays",
      "outputs": [
        {
          "name": "",
          "type": "uint256"
        }
      ],
      "payable": false,
      "stateMutability": "view",
      "type": "function"
    },
    {
      "constant": false,
      "inputs": [
        {
          "name": "newOwner",
          "type": "address"
        }
      ],
      "name": "transferOwnership",
      "outputs": [],
      "payable": false,
      "stateMutability": "nonpayable",
      "type": "function"
    },
    {
      "inputs": [
        {
          "name": "_wallet",
          "type": "address"
        },
        {
          "name": "_startTime",
          "type": "uint256"
        },
        {
          "name": "_tokenContractAddress",
          "type": "address"
        }
      ],
      "payable": false,
      "stateMutability": "nonpayable",
      "type": "constructor"
    },
    {
      "payable": true,
      "stateMutability": "payable",
      "type": "fallback"
    },
    {
      "anonymous": false,
      "inputs": [
        {
          "indexed": true,
          "name": "to",
          "type": "address"
        },
        {
          "indexed": false,
          "name": "weiValue",
          "type": "uint256"
        },
        {
          "indexed": false,
          "name": "amountOfTokens",
          "type": "uint256"
        }
      ],
      "name": "IssueTokens",
      "type": "event"
    },
    {
      "anonymous": false,
      "inputs": [
        {
          "indexed": true,
          "name": "previousOwner",
          "type": "address"
        },
        {
          "indexed": true,
          "name": "newOwner",
          "type": "address"
        }
      ],
      "name": "OwnershipTransferred",
      "type": "event"
    },
    {
      "constant": true,
      "inputs": [],
      "name": "tokensAvailable",
      "outputs": [
        {
          "name": "",
          "type": "uint256"
        }
      ],
      "payable": false,
      "stateMutability": "view",
      "type": "function"
    },
    {
      "constant": true,
      "inputs": [],
      "name": "isActive",
      "outputs": [
        {
          "name": "",
          "type": "bool"
        }
      ],
      "payable": false,
      "stateMutability": "view",
      "type": "function"
    },
    {
      "constant": true,
      "inputs": [],
      "name": "isAfterStartTime",
      "outputs": [
        {
          "name": "",
          "type": "bool"
        }
      ],
      "payable": false,
      "stateMutability": "view",
      "type": "function"
    },
    {
      "constant": true,
      "inputs": [],
      "name": "isBeforeEndTime",
      "outputs": [
        {
          "name": "",
          "type": "bool"
        }
      ],
      "payable": false,
      "stateMutability": "view",
      "type": "function"
    },
    {
      "constant": true,
      "inputs": [],
      "name": "tokensAreAvailable",
      "outputs": [
        {
          "name": "",
          "type": "bool"
        }
      ],
      "payable": false,
      "stateMutability": "view",
      "type": "function"
    },
    {
      "constant": false,
      "inputs": [],
      "name": "buyTokens",
      "outputs": [],
      "payable": true,
      "stateMutability": "payable",
      "type": "function"
    },
    {
      "constant": false,
      "inputs": [
        {
          "name": "_users",
          "type": "address[]"
        }
      ],
      "name": "registerTier1Users",
      "outputs": [],
      "payable": false,
      "stateMutability": "nonpayable",
      "type": "function"
    },
    {
      "constant": false,
      "inputs": [
        {
          "name": "_users",
          "type": "address[]"
        }
      ],
      "name": "registerTier2Users",
      "outputs": [],
      "payable": false,
      "stateMutability": "nonpayable",
      "type": "function"
    },
    {
      "constant": false,
      "inputs": [
        {
          "name": "_users",
          "type": "address[]"
        }
      ],
      "name": "unregisterUsers",
      "outputs": [],
      "payable": false,
      "stateMutability": "nonpayable",
      "type": "function"
    },
    {
      "constant": false,
      "inputs": [],
      "name": "endTokenSale",
      "outputs": [],
      "payable": false,
      "stateMutability": "nonpayable",
      "type": "function"
    }
  ],
  "bytecode": "0x6060604052341561000f57600080fd5b60405160608061196783398101604052808051906020019091908051906020019091908051906020019091905050336000806101000a81548173ffffffffffffffffffffffffffffffffffffffff021916908373ffffffffffffffffffffffffffffffffffffffff160217905550600073ffffffffffffffffffffffffffffffffffffffff168373ffffffffffffffffffffffffffffffffffffffff16141515156100b957600080fd5b4282101515156100c857600080fd5b600073ffffffffffffffffffffffffffffffffffffffff168173ffffffffffffffffffffffffffffffffffffffff161415151561010457600080fd5b82600360006101000a81548173ffffffffffffffffffffffffffffffffffffffff021916908373ffffffffffffffffffffffffffffffffffffffff1602179055508160028190555080600160006101000a81548173ffffffffffffffffffffffffffffffffffffffff021916908373ffffffffffffffffffffffffffffffffffffffff1602179055505050506117c88061019f6000396000f300606060405260043610610180576000357c0100000000000000000000000000000000000000000000000000000000900463ffffffff168063016dd6ff1461018a578063035d5d05146101df578063137db8691461020857806322f3e2d414610231578063307edff81461025e578063355274ea14610273578063413e920d1461029c578063448a9915146102c5578063488cec69146102ee578063494329231461031b578063521eb2731461036857806359bc74a4146103bd57806360659a92146103e65780636f717c311461040f57806376e532211461043857806378e9792514610485578063887d23a6146104ae57806389280da6146104db5780638da5cb5b1461050457806394a5c2e4146105595780639734a21414610582578063a0a695fe146105ab578063a92ec661146105d9578063bbb37f7614610606578063d0febe4c14610634578063dc39d06d1461063e578063e42d6efa14610698578063e93c980d146106c6578063e9f6bd0b146106ef578063f2fde38b14610718575b610188610751565b005b341561019557600080fd5b61019d61079d565b604051808273ffffffffffffffffffffffffffffffffffffffff1673ffffffffffffffffffffffffffffffffffffffff16815260200191505060405180910390f35b34156101ea57600080fd5b6101f26107c3565b6040518082815260200191505060405180910390f35b341561021357600080fd5b61021b6107c9565b6040518082815260200191505060405180910390f35b341561023c57600080fd5b6102446107d3565b604051808215151515815260200191505060405180910390f35b341561026957600080fd5b610271610802565b005b341561027e57600080fd5b610286610a64565b6040518082815260200191505060405180910390f35b34156102a757600080fd5b6102af610a82565b6040518082815260200191505060405180910390f35b34156102d057600080fd5b6102d8610a89565b6040518082815260200191505060405180910390f35b34156102f957600080fd5b610301610a91565b604051808215151515815260200191505060405180910390f35b341561032657600080fd5b610352600480803573ffffffffffffffffffffffffffffffffffffffff16906020019091905050610aa2565b6040518082815260200191505060405180910390f35b341561037357600080fd5b61037b610aba565b604051808273ffffffffffffffffffffffffffffffffffffffff1673ffffffffffffffffffffffffffffffffffffffff16815260200191505060405180910390f35b34156103c857600080fd5b6103d0610ae0565b6040518082815260200191505060405180910390f35b34156103f157600080fd5b6103f9610af5565b6040518082815260200191505060405180910390f35b341561041a57600080fd5b610422610bdc565b6040518082815260200191505060405180910390f35b341561044357600080fd5b61046f600480803573ffffffffffffffffffffffffffffffffffffffff16906020019091905050610bf5565b6040518082815260200191505060405180910390f35b341561049057600080fd5b610498610c0d565b6040518082815260200191505060405180910390f35b34156104b957600080fd5b6104c1610c13565b604051808215151515815260200191505060405180910390f35b34156104e657600080fd5b6104ee610c38565b6040518082815260200191505060405180910390f35b341561050f57600080fd5b610517610c5e565b604051808273ffffffffffffffffffffffffffffffffffffffff1673ffffffffffffffffffffffffffffffffffffffff16815260200191505060405180910390f35b341561056457600080fd5b61056c610c83565b6040518082815260200191505060405180910390f35b341561058d57600080fd5b610595610ca7565b6040518082815260200191505060405180910390f35b34156105b657600080fd5b6105d760048080359060200190820180359060200191909192905050610ced565b005b34156105e457600080fd5b6105ec610d9f565b604051808215151515815260200191505060405180910390f35b341561061157600080fd5b61063260048080359060200190820180359060200191909192905050610dac565b005b61063c610751565b005b341561064957600080fd5b61067e600480803573ffffffffffffffffffffffffffffffffffffffff16906020019091908035906020019091905050610e64565b604051808215151515815260200191505060405180910390f35b34156106a357600080fd5b6106c460048080359060200190820180359060200191909192905050610fb0565b005b34156106d157600080fd5b6106d9611049565b6040518082815260200191505060405180910390f35b34156106fa57600080fd5b610702611055565b6040518082815260200191505060405180910390f35b341561072357600080fd5b61074f600480803573ffffffffffffffffffffffffffffffffffffffff1690602001909190505061105a565b005b600061075b6107d3565b151561076657600080fd5b60003411151561077557600080fd5b61077d6111af565b905061078881611334565b61079181611399565b61079a816114f0565b50565b600160009054906101000a900473ffffffffffffffffffffffffffffffffffffffff1681565b61012c81565b620f4240601e0281565b60006107dd610d9f565b80156107ed57506107ec610c13565b5b80156107fd57506107fc610a91565b5b905090565b60008060009054906101000a900473ffffffffffffffffffffffffffffffffffffffff1673ffffffffffffffffffffffffffffffffffffffff163373ffffffffffffffffffffffffffffffffffffffff1614151561085f57600080fd5b600160009054906101000a900473ffffffffffffffffffffffffffffffffffffffff1673ffffffffffffffffffffffffffffffffffffffff166370a08231306000604051602001526040518263ffffffff167c0100000000000000000000000000000000000000000000000000000000028152600401808273ffffffffffffffffffffffffffffffffffffffff1673ffffffffffffffffffffffffffffffffffffffff168152602001915050602060405180830381600087803b151561092457600080fd5b6102c65a03f1151561093557600080fd5b50505060405180519050905060008111151561095057600080fd5b600160009054906101000a900473ffffffffffffffffffffffffffffffffffffffff1673ffffffffffffffffffffffffffffffffffffffff1663a9059cbb6000809054906101000a900473ffffffffffffffffffffffffffffffffffffffff16836000604051602001526040518363ffffffff167c0100000000000000000000000000000000000000000000000000000000028152600401808373ffffffffffffffffffffffffffffffffffffffff1673ffffffffffffffffffffffffffffffffffffffff16815260200182815260200192505050602060405180830381600087803b1515610a3e57600080fd5b6102c65a03f11515610a4f57600080fd5b505050604051805190501515610a6157fe5b50565b61012c670de0b6b3a7640000811515610a7957fe5b04620186a00281565b620f424081565b633b9aca0081565b600080610a9c610af5565b11905090565b60046020528060005260406000206000915090505481565b600360009054906101000a900473ffffffffffffffffffffffffffffffffffffffff1681565b670de0b6b3a7640000633b9aca006004020281565b6000600160009054906101000a900473ffffffffffffffffffffffffffffffffffffffff1673ffffffffffffffffffffffffffffffffffffffff166370a08231306000604051602001526040518263ffffffff167c0100000000000000000000000000000000000000000000000000000000028152600401808273ffffffffffffffffffffffffffffffffffffffff1673ffffffffffffffffffffffffffffffffffffffff168152602001915050602060405180830381600087803b1515610bbc57600080fd5b6102c65a03f11515610bcd57600080fd5b50505060405180519050905090565b61012c670de0b6b3a7640000811515610bf157fe5b0481565b60056020528060005260406000206000915090505481565b60025481565b6000610c3062015180601e0260025461155590919063ffffffff16565b421115905090565b620f4240601e02670de0b6b3a7640000633b9aca0060040202811515610c5a57fe5b0481565b6000809054906101000a900473ffffffffffffffffffffffffffffffffffffffff1681565b7fffffffffffffffffffffffffffffffffffffffffffffffffffffffffffffffff81565b61012c670de0b6b3a7640000811515610cbc57fe5b04620f4240601e02670de0b6b3a7640000633b9aca0060040202811515610cdf57fe5b04811515610ce957fe5b0481565b6000809054906101000a900473ffffffffffffffffffffffffffffffffffffffff1673ffffffffffffffffffffffffffffffffffffffff163373ffffffffffffffffffffffffffffffffffffffff16141515610d4857600080fd5b610d9b82828080602002602001604051908101604052809392919081815260200183836020028082843782019150505050505061012c670de0b6b3a7640000811515610d9057fe5b04620186a002611573565b5050565b6000600254421015905090565b6000809054906101000a900473ffffffffffffffffffffffffffffffffffffffff1673ffffffffffffffffffffffffffffffffffffffff163373ffffffffffffffffffffffffffffffffffffffff16141515610e0757600080fd5b610e608282808060200260200160405190810160405280939291908181526020018383602002808284378201915050505050507fffffffffffffffffffffffffffffffffffffffffffffffffffffffffffffffff611573565b5050565b60008060009054906101000a900473ffffffffffffffffffffffffffffffffffffffff1673ffffffffffffffffffffffffffffffffffffffff163373ffffffffffffffffffffffffffffffffffffffff16141515610ec157600080fd5b8273ffffffffffffffffffffffffffffffffffffffff1663a9059cbb6000809054906101000a900473ffffffffffffffffffffffffffffffffffffffff16846000604051602001526040518363ffffffff167c0100000000000000000000000000000000000000000000000000000000028152600401808373ffffffffffffffffffffffffffffffffffffffff1673ffffffffffffffffffffffffffffffffffffffff16815260200182815260200192505050602060405180830381600087803b1515610f8d57600080fd5b6102c65a03f11515610f9e57600080fd5b50505060405180519050905092915050565b6000809054906101000a900473ffffffffffffffffffffffffffffffffffffffff1673ffffffffffffffffffffffffffffffffffffffff163373ffffffffffffffffffffffffffffffffffffffff1614151561100b57600080fd5b6110458282808060200260200160405190810160405280939291908181526020018383602002808284378201915050505050506000611573565b5050565b670de0b6b3a764000081565b601e81565b6000809054906101000a900473ffffffffffffffffffffffffffffffffffffffff1673ffffffffffffffffffffffffffffffffffffffff163373ffffffffffffffffffffffffffffffffffffffff161415156110b557600080fd5b600073ffffffffffffffffffffffffffffffffffffffff168173ffffffffffffffffffffffffffffffffffffffff16141515156110f157600080fd5b8073ffffffffffffffffffffffffffffffffffffffff166000809054906101000a900473ffffffffffffffffffffffffffffffffffffffff1673ffffffffffffffffffffffffffffffffffffffff167f8be0079c531659141344cd1fd0a4f28419497f9722a3daafe3b4186f6b6457e060405160405180910390a3806000806101000a81548173ffffffffffffffffffffffffffffffffffffffff021916908373ffffffffffffffffffffffffffffffffffffffff16021790555050565b600080600080600080600460003373ffffffffffffffffffffffffffffffffffffffff1673ffffffffffffffffffffffffffffffffffffffff168152602001908152602001600020549450600560003373ffffffffffffffffffffffffffffffffffffffff1673ffffffffffffffffffffffffffffffffffffffff16815260200190815260200160002054935061125834611253878761164b90919063ffffffff16565b611664565b925060008311151561126957600080fd5b6112c561012c670de0b6b3a764000081151561128157fe5b04620f4240601e02670de0b6b3a7640000633b9aca00600402028115156112a457fe5b048115156112ae57fe5b046112b7610af5565b61167d90919063ffffffff16565b91506112d18383611664565b90506112e6818661155590919063ffffffff16565b600460003373ffffffffffffffffffffffffffffffffffffffff1673ffffffffffffffffffffffffffffffffffffffff16815260200190815260200160002081905550809550505050505090565b600360009054906101000a900473ffffffffffffffffffffffffffffffffffffffff1673ffffffffffffffffffffffffffffffffffffffff166108fc829081150290604051600060405180830381858888f19350505050151561139657600080fd5b50565b60006113a482611698565b9050600160009054906101000a900473ffffffffffffffffffffffffffffffffffffffff1673ffffffffffffffffffffffffffffffffffffffff1663a9059cbb33836000604051602001526040518363ffffffff167c0100000000000000000000000000000000000000000000000000000000028152600401808373ffffffffffffffffffffffffffffffffffffffff1673ffffffffffffffffffffffffffffffffffffffff16815260200182815260200192505050602060405180830381600087803b151561147357600080fd5b6102c65a03f1151561148457600080fd5b50505060405180519050151561149657fe5b3373ffffffffffffffffffffffffffffffffffffffff167f502d7599639522d17e32ff92615dddd3a5b73e7fe4cd03bedc1cfd22e19fa1df8383604051808381526020018281526020019250505060405180910390a25050565b6000611505823461164b90919063ffffffff16565b90506000811115611551573373ffffffffffffffffffffffffffffffffffffffff166108fc829081150290604051600060405180830381858888f19350505050151561155057600080fd5b5b5050565b600080828401905083811015151561156957fe5b8091505092915050565b60008060009054906101000a900473ffffffffffffffffffffffffffffffffffffffff1673ffffffffffffffffffffffffffffffffffffffff163373ffffffffffffffffffffffffffffffffffffffff161415156115d057600080fd5b600090505b825181101561164657816005600085848151811015156115f157fe5b9060200190602002015173ffffffffffffffffffffffffffffffffffffffff1673ffffffffffffffffffffffffffffffffffffffff1681526020019081526020016000208190555080806001019150506115d5565b505050565b600082821115151561165957fe5b818303905092915050565b60008183106116735781611675565b825b905092915050565b600080828481151561168b57fe5b0490508091505092915050565b6000806116f061012c670de0b6b3a76400008115156116b357fe5b04620f4240601e02670de0b6b3a7640000633b9aca00600402028115156116d657fe5b048115156116e057fe5b048461176990919063ffffffff16565b905061012c670de0b6b3a764000081151561170757fe5b04620f4240601e02670de0b6b3a7640000633b9aca006004020281151561172a57fe5b0481151561173457fe5b0461174f82611741610af5565b61164b90919063ffffffff16565b10156117605761175d610af5565b90505b80915050919050565b6000808284029050600084148061178a575082848281151561178757fe5b04145b151561179257fe5b80915050929150505600a165627a7a72305820ad769556806084886f73a4e222f7c4a033665f093c4dec38144a7c698051a1310029",
  "source": "pragma solidity ^0.4.15;\n\nimport \"./Ownable.sol\";\nimport \"./SafeMath.sol\";\nimport \"./KudosToken.sol\";\n\n/**\n * @title KudosTokenSale\n * @author Ben Johnson\n *\n * @dev KudosTokenSale is a token crowdsale contract\n * @dev Based on KinTokenSale contract: https://github.com/kikinteractive/kin-token\n * @dev Based on WildCryptoICO's Crowdsale contract: https://github.com/WildCryptoICO/Wild-Crypto-Token\n */\ncontract KudosTokenSale is Ownable, TokenHolder {\n   using SafeMath for uint256;\n\n   KudosToken public kudosToken;\n\n   uint256 public startTime;\n   uint256 public constant numberOfDays = 30;\n   uint256 public constant ethPriceInDollars = 300;\n   address public wallet;\n\n   uint256 public constant tokenUnit = 10 ** 18;\n   uint256 public constant oneMillion = 10 ** 6;\n   uint256 public constant oneBillion = 10 ** 9;\n   uint256 public constant amountOfTokensForSale = 4 * oneBillion * tokenUnit;\n\n   uint256 public constant goalInDollars = 30 * oneMillion;\n   uint256 public constant kutoasPerDollar = amountOfTokensForSale/goalInDollars;\n\n   uint256 public constant weiPerDollar = tokenUnit / ethPriceInDollars;\n   uint256 public constant kutoasPerWei = kutoasPerDollar / weiPerDollar;\n\n   uint256 public constant cap = 100000 * weiPerDollar;\n   uint256 public constant maxValue = uint256(-1);\n\n   mapping (address => uint256) public participationHistory;\n   mapping (address => uint256) public participationCaps;\n\n   function KudosTokenSale(address _wallet, uint256 _startTime, address _tokenContractAddress) {\n\n      require(_wallet != address(0));\n      require(_startTime >= now);\n      require(_tokenContractAddress != address(0));\n\n      wallet = _wallet;\n      startTime = _startTime;\n      kudosToken = KudosToken(_tokenContractAddress);\n   }\n\n   function tokensAvailable() constant returns (uint256) {\n      return kudosToken.balanceOf(this);\n   }\n\n   modifier whenTokenSaleIsActive() {\n      require(isActive());\n      _;\n   }\n\n   function isActive() constant returns (bool) {\n      return (\n         isAfterStartTime() &&\n         isBeforeEndTime() &&\n         tokensAreAvailable()\n      );\n   }\n\n   function isAfterStartTime() constant returns (bool) {\n      return now >= startTime;\n   }\n\n   function isBeforeEndTime() constant returns (bool) {\n      return now <= startTime.add(numberOfDays * 1 days);\n   }\n\n   function tokensAreAvailable() constant returns (bool) {\n      return tokensAvailable() > 0;\n   }\n\n   function () payable {\n      buyTokens();\n   }\n\n   event IssueTokens(address indexed to, uint256 weiValue, uint256 amountOfTokens);\n\n   function buyTokens() payable whenTokenSaleIsActive {\n\n      require(msg.value > 0);\n\n      uint256 weiValue = getWeiValue();\n\n      transferWeiToWallet(weiValue);\n      issueTokensToBuyer(weiValue);\n      issueRefundIfNecessary(weiValue);\n   }\n\n   function getWeiValue() internal constant returns (uint256) {\n\n      // Enforce participation cap (in Wei received).\n      uint256 weiAlreadyParticipated = participationHistory[msg.sender];\n      uint256 participationCap = participationCaps[msg.sender];\n      uint256 cappedWeiReceived = SafeMath.min256(msg.value, participationCap.sub(weiAlreadyParticipated));\n      require(cappedWeiReceived > 0);\n\n      // Accept funds and transfer to funding recipient.\n      uint256 weiLeftInSale = tokensAvailable().div(kutoasPerWei);\n      uint256 weiValue = SafeMath.min256(cappedWeiReceived, weiLeftInSale);\n      participationHistory[msg.sender] = weiAlreadyParticipated.add(weiValue);\n\n      return weiValue;\n   }\n\n   function transferWeiToWallet(uint256 weiValue) internal  {\n      wallet.transfer(weiValue);\n   }\n\n   function issueTokensToBuyer(uint256 weiValue) internal  {\n      uint256 amountOfTokens = getNumberOfTokensToIssue(weiValue);\n      assert(kudosToken.transfer(msg.sender, amountOfTokens));\n      IssueTokens(msg.sender, weiValue, amountOfTokens);\n   }\n\n   function getNumberOfTokensToIssue(uint256 weiValue) internal constant returns (uint256) {\n\n      uint256 numberOfTokensToIssue = weiValue.mul(kutoasPerWei);\n\n      // if purchase would cause less kutoasPerWei tokens left available that nobody could ever buy them,\n      // then gift them to the last buyer.\n      if (tokensAvailable().sub(numberOfTokensToIssue) < kutoasPerWei) {\n         numberOfTokensToIssue = tokensAvailable();\n      }\n\n      return numberOfTokensToIssue;\n   }\n\n   function issueRefundIfNecessary(uint256 weiValue) internal  {\n\n      // partial refund if full participation not possible due to cap being reached\n      uint256 refund = msg.value.sub(weiValue);\n\n      if (refund > 0) {\n          msg.sender.transfer(refund);\n      }\n   }\n\n   function registerTier1Users(address[] _users) external onlyOwner {\n      setParticipationCap(_users, cap);\n   }\n\n   function registerTier2Users(address[] _users) external onlyOwner {\n      setParticipationCap(_users, maxValue);\n   }\n\n   function unregisterUsers(address[] _users) external onlyOwner {\n      setParticipationCap(_users, 0);\n   }\n\n   function setParticipationCap(address[] _users, uint256 _cap) private onlyOwner {\n      for (uint i = 0; i < _users.length; i++) {\n         participationCaps[_users[i]] = _cap;\n      }\n   }\n\n   function endTokenSale() onlyOwner {\n\n      // transfer unsold tokens back to owner\n      uint256 balance = kudosToken.balanceOf(this);\n      require(balance > 0);\n      assert(kudosToken.transfer(owner, balance));\n   }\n}\n",
  "sourcePath": "/Users/panda/projects/kudos/packages/kudos-token-contracts/contracts/KudosTokenSale.sol",
  "compiler": {
    "name": "solc",
    "version": "0.4.19+commit.c4cbbb05.Emscripten.clang"
  },
  "schemaVersion": "1.0.1",
  "updatedAt": "2018-05-18T14:58:13.415Z"
}